{
  "abi": [
    {
      "inputs": [
        {
          "internalType": "enum ISharedInternal.Status",
          "name": "current",
          "type": "uint8"
        }
      ],
      "name": "IGOWritableInternal_IGONotOpened",
      "type": "error"
    },
    {
      "inputs": [
        {
          "internalType": "string",
          "name": "tagId",
          "type": "string"
        },
        {
          "internalType": "enum ISharedInternal.Status",
          "name": "current",
          "type": "uint8"
        }
      ],
      "name": "IGOWritableInternal_TagNotOpened",
      "type": "error"
    },
    {
      "inputs": [
        {
          "internalType": "uint256",
          "name": "allocation",
          "type": "uint256"
        },
        {
          "internalType": "uint256",
          "name": "exceedsBy",
          "type": "uint256"
        }
      ],
      "name": "IGOWritable_AllocationExceeded",
      "type": "error"
    },
    {
      "inputs": [
        {
          "internalType": "uint256",
          "name": "grandTotal",
          "type": "uint256"
        },
        {
          "internalType": "uint256",
          "name": "exceedsBy",
          "type": "uint256"
        }
      ],
      "name": "IGOWritable_GrandTotalExceeded",
      "type": "error"
    },
    {
      "inputs": [
        {
          "internalType": "string",
          "name": "tagId",
          "type": "string"
        },
        {
          "internalType": "uint256",
          "name": "maxTagCap",
          "type": "uint256"
        },
        {
          "internalType": "uint256",
          "name": "exceedsBy",
          "type": "uint256"
        }
      ],
      "name": "IGOWritable_MaxTagCapExceeded",
      "type": "error"
    },
    {
      "inputs": [],
      "name": "IGOWritable_NoPaymentTokenOrPriceUpdate",
      "type": "error"
    },
    {
      "inputs": [],
      "name": "IGOWritable_ProjectTokenPrice_ZERO",
      "type": "error"
    },
    {
      "inputs": [
        {
          "internalType": "uint256",
          "name": "greaterBy",
          "type": "uint256"
        }
      ],
      "name": "IGOWritable_SummedMaxTagCapGtGrandTotal",
      "type": "error"
    },
    {
      "anonymous": false,
      "inputs": [
        {
          "indexed": true,
          "internalType": "string",
          "name": "tagId",
          "type": "string"
        },
        {
          "indexed": true,
          "internalType": "address",
          "name": "buyer",
          "type": "address"
        },
        {
          "indexed": true,
          "internalType": "uint256",
          "name": "maxAllocation",
          "type": "uint256"
        },
        {
          "indexed": false,
          "internalType": "address",
          "name": "paymentToken",
          "type": "address"
        }
      ],
      "name": "AllocationReserved",
      "type": "event"
    },
    {
      "anonymous": false,
      "inputs": [
        {
          "indexed": false,
          "internalType": "uint8",
          "name": "version",
          "type": "uint8"
        }
      ],
      "name": "Initialized",
      "type": "event"
    },
    {
      "anonymous": false,
      "inputs": [
        {
          "indexed": true,
          "internalType": "address",
          "name": "previousOwner",
          "type": "address"
        },
        {
          "indexed": true,
          "internalType": "address",
          "name": "newOwner",
          "type": "address"
        }
      ],
      "name": "OwnershipTransferred",
      "type": "event"
    },
    {
      "inputs": [
        {
          "internalType": "address",
          "name": "account",
          "type": "address"
        },
        {
          "internalType": "string",
          "name": "tagId",
          "type": "string"
        }
      ],
      "name": "allocationReservedByIn",
      "outputs": [
        {
          "internalType": "uint256",
          "name": "",
          "type": "uint256"
        }
      ],
      "stateMutability": "view",
      "type": "function"
    },
    {
      "inputs": [],
      "name": "igoStatus",
      "outputs": [
        {
          "internalType": "enum ISharedInternal.Status",
          "name": "",
          "type": "uint8"
        }
      ],
      "stateMutability": "view",
      "type": "function"
    },
    {
      "inputs": [
        {
          "internalType": "address",
          "name": "owner",
          "type": "address"
        },
        {
          "components": [
            {
              "internalType": "address",
              "name": "vestingContract",
              "type": "address"
            },
            {
              "internalType": "address",
              "name": "paymentToken",
              "type": "address"
            },
            {
              "internalType": "address",
              "name": "permit2",
              "type": "address"
            },
            {
              "internalType": "uint256",
              "name": "grandTotal",
              "type": "uint256"
            },
            {
              "internalType": "uint256",
              "name": "summedMaxTagCap",
              "type": "uint256"
            },
            {
              "internalType": "uint256",
              "name": "refundFeeDecimals",
              "type": "uint256"
            }
          ],
          "internalType": "struct IGOStorage.SetUp",
          "name": "setUp",
          "type": "tuple"
        },
        {
          "internalType": "string[]",
          "name": "tagIds_",
          "type": "string[]"
        },
        {
          "components": [
            {
              "internalType": "enum ISharedInternal.Status",
              "name": "status",
              "type": "uint8"
            },
            {
              "internalType": "bytes32",
              "name": "merkleRoot",
              "type": "bytes32"
            },
            {
              "internalType": "uint128",
              "name": "startAt",
              "type": "uint128"
            },
            {
              "internalType": "uint128",
              "name": "endAt",
              "type": "uint128"
            },
            {
              "internalType": "uint256",
              "name": "maxTagCap",
              "type": "uint256"
            },
            {
              "internalType": "address",
              "name": "paymentToken",
              "type": "address"
            },
            {
              "internalType": "uint256",
              "name": "projectTokenPrice",
              "type": "uint256"
            }
          ],
          "internalType": "struct ISharedInternal.Tag[]",
          "name": "tags",
          "type": "tuple[]"
        }
      ],
      "name": "initialize",
      "outputs": [],
      "stateMutability": "nonpayable",
      "type": "function"
    },
    {
      "inputs": [],
      "name": "openIGO",
      "outputs": [],
      "stateMutability": "nonpayable",
      "type": "function"
    },
    {
      "inputs": [
        {
          "internalType": "string",
          "name": "tagId",
          "type": "string"
        }
      ],
      "name": "openTag",
      "outputs": [],
      "stateMutability": "nonpayable",
      "type": "function"
    },
    {
      "inputs": [],
      "name": "owner",
      "outputs": [
        {
          "internalType": "address",
          "name": "",
          "type": "address"
        }
      ],
      "stateMutability": "view",
      "type": "function"
    },
    {
      "inputs": [],
      "name": "pauseIGO",
      "outputs": [],
      "stateMutability": "nonpayable",
      "type": "function"
    },
    {
      "inputs": [
        {
          "internalType": "string",
          "name": "tagId",
          "type": "string"
        }
      ],
      "name": "pauseTag",
      "outputs": [],
      "stateMutability": "nonpayable",
      "type": "function"
    },
    {
      "inputs": [
        {
          "internalType": "string",
          "name": "tagId",
          "type": "string"
        }
      ],
      "name": "raisedInTag",
      "outputs": [
        {
          "internalType": "uint256",
          "name": "",
          "type": "uint256"
        }
      ],
      "stateMutability": "view",
      "type": "function"
    },
    {
      "inputs": [
        {
          "internalType": "address",
          "name": "token",
          "type": "address"
        },
        {
          "internalType": "address",
          "name": "to",
          "type": "address"
        }
      ],
      "name": "recoverLostERC20",
      "outputs": [],
      "stateMutability": "nonpayable",
      "type": "function"
    },
    {
      "inputs": [],
      "name": "renounceOwnership",
      "outputs": [],
      "stateMutability": "nonpayable",
      "type": "function"
    },
    {
      "inputs": [
        {
          "internalType": "uint256",
          "name": "amount",
          "type": "uint256"
        },
        {
          "components": [
            {
              "internalType": "string",
              "name": "tagId",
              "type": "string"
            },
            {
              "internalType": "address",
              "name": "account",
              "type": "address"
            },
            {
              "internalType": "uint256",
              "name": "maxAllocation",
              "type": "uint256"
            },
            {
              "internalType": "uint256",
              "name": "refundFee",
              "type": "uint256"
            }
          ],
          "internalType": "struct IIGOWritableInternal.Allocation",
          "name": "allocation",
          "type": "tuple"
        },
        {
          "internalType": "bytes32[]",
          "name": "proof",
          "type": "bytes32[]"
        },
        {
          "components": [
            {
              "internalType": "bytes",
              "name": "signature",
              "type": "bytes"
            },
            {
              "internalType": "uint256",
              "name": "deadline",
              "type": "uint256"
            },
            {
              "internalType": "uint256",
              "name": "nonce",
              "type": "uint256"
            }
          ],
          "internalType": "struct IIGOWritableInternal.BuyPermission",
          "name": "permission",
          "type": "tuple"
        }
      ],
      "name": "reserveAllocation",
      "outputs": [],
      "stateMutability": "nonpayable",
      "type": "function"
    },
    {
      "inputs": [],
      "name": "setUp",
      "outputs": [
        {
          "internalType": "address",
          "name": "vestingContract",
          "type": "address"
        },
        {
          "internalType": "address",
          "name": "paymentToken",
          "type": "address"
        },
        {
          "internalType": "uint256",
          "name": "grandTotal",
          "type": "uint256"
        },
        {
          "internalType": "uint256",
          "name": "summedMaxTagCap",
          "type": "uint256"
        },
        {
          "internalType": "uint256",
          "name": "refundFeeDecimals",
          "type": "uint256"
        }
      ],
      "stateMutability": "view",
      "type": "function"
    },
    {
      "inputs": [
        {
          "internalType": "string",
          "name": "tagId",
          "type": "string"
        }
      ],
      "name": "tag",
      "outputs": [
        {
          "components": [
            {
              "internalType": "enum ISharedInternal.Status",
              "name": "status",
              "type": "uint8"
            },
            {
              "internalType": "bytes32",
              "name": "merkleRoot",
              "type": "bytes32"
            },
            {
              "internalType": "uint128",
              "name": "startAt",
              "type": "uint128"
            },
            {
              "internalType": "uint128",
              "name": "endAt",
              "type": "uint128"
            },
            {
              "internalType": "uint256",
              "name": "maxTagCap",
              "type": "uint256"
            },
            {
              "internalType": "address",
              "name": "paymentToken",
              "type": "address"
            },
            {
              "internalType": "uint256",
              "name": "projectTokenPrice",
              "type": "uint256"
            }
          ],
          "internalType": "struct ISharedInternal.Tag",
          "name": "tag_",
          "type": "tuple"
        }
      ],
      "stateMutability": "view",
      "type": "function"
    },
    {
      "inputs": [],
      "name": "tagIds",
      "outputs": [
        {
          "internalType": "string[]",
          "name": "tagIds_",
          "type": "string[]"
        }
      ],
      "stateMutability": "view",
      "type": "function"
    },
    {
      "inputs": [],
      "name": "totalRaised",
      "outputs": [
        {
          "internalType": "uint256",
          "name": "",
          "type": "uint256"
        }
      ],
      "stateMutability": "view",
      "type": "function"
    },
    {
      "inputs": [
        {
          "internalType": "address",
          "name": "newOwner",
          "type": "address"
        }
      ],
      "name": "transferOwnership",
      "outputs": [],
      "stateMutability": "nonpayable",
      "type": "function"
    },
    {
      "inputs": [
        {
          "internalType": "uint256",
          "name": "grandTotal_",
          "type": "uint256"
        }
      ],
      "name": "updateGrandTotal",
      "outputs": [],
      "stateMutability": "nonpayable",
      "type": "function"
    },
    {
      "inputs": [
        {
          "internalType": "string",
          "name": "tagId_",
          "type": "string"
        },
        {
          "components": [
            {
              "internalType": "enum ISharedInternal.Status",
              "name": "status",
              "type": "uint8"
            },
            {
              "internalType": "bytes32",
              "name": "merkleRoot",
              "type": "bytes32"
            },
            {
              "internalType": "uint128",
              "name": "startAt",
              "type": "uint128"
            },
            {
              "internalType": "uint128",
              "name": "endAt",
              "type": "uint128"
            },
            {
              "internalType": "uint256",
              "name": "maxTagCap",
              "type": "uint256"
            },
            {
              "internalType": "address",
              "name": "paymentToken",
              "type": "address"
            },
            {
              "internalType": "uint256",
              "name": "projectTokenPrice",
              "type": "uint256"
            }
          ],
          "internalType": "struct ISharedInternal.Tag",
          "name": "tag_",
          "type": "tuple"
        }
      ],
      "name": "updateSetTag",
      "outputs": [],
      "stateMutability": "nonpayable",
      "type": "function"
    },
    {
      "inputs": [
        {
          "internalType": "string[]",
          "name": "tagIdentifiers_",
          "type": "string[]"
        },
        {
          "components": [
            {
              "internalType": "enum ISharedInternal.Status",
              "name": "status",
              "type": "uint8"
            },
            {
              "internalType": "bytes32",
              "name": "merkleRoot",
              "type": "bytes32"
            },
            {
              "internalType": "uint128",
              "name": "startAt",
              "type": "uint128"
            },
            {
              "internalType": "uint128",
              "name": "endAt",
              "type": "uint128"
            },
            {
              "internalType": "uint256",
              "name": "maxTagCap",
              "type": "uint256"
            },
            {
              "internalType": "address",
              "name": "paymentToken",
              "type": "address"
            },
            {
              "internalType": "uint256",
              "name": "projectTokenPrice",
              "type": "uint256"
            }
          ],
          "internalType": "struct ISharedInternal.Tag[]",
          "name": "tags_",
          "type": "tuple[]"
        }
      ],
      "name": "updateSetTags",
      "outputs": [],
      "stateMutability": "nonpayable",
      "type": "function"
    },
    {
      "inputs": [
        {
          "internalType": "string",
          "name": "tagId",
          "type": "string"
        },
        {
          "internalType": "uint128",
          "name": "endAt",
          "type": "uint128"
        }
      ],
      "name": "updateTagEndDate",
      "outputs": [],
      "stateMutability": "nonpayable",
      "type": "function"
    },
    {
      "inputs": [
        {
          "internalType": "string",
          "name": "tagId",
          "type": "string"
        },
        {
          "internalType": "uint256",
          "name": "maxTagCap",
          "type": "uint256"
        }
      ],
      "name": "updateTagMaxCap",
      "outputs": [],
      "stateMutability": "nonpayable",
      "type": "function"
    },
    {
      "inputs": [
        {
          "internalType": "string",
          "name": "tagId",
          "type": "string"
        },
        {
          "internalType": "bytes32",
          "name": "merkleRoot",
          "type": "bytes32"
        }
      ],
      "name": "updateTagMerkleRoot",
      "outputs": [],
      "stateMutability": "nonpayable",
      "type": "function"
    },
    {
      "inputs": [
        {
          "internalType": "string",
          "name": "tagId",
          "type": "string"
        },
        {
          "internalType": "uint128",
          "name": "startAt",
          "type": "uint128"
        }
      ],
      "name": "updateTagStartDate",
      "outputs": [],
      "stateMutability": "nonpayable",
      "type": "function"
    }
  ],
  "bytecode": {
    "object": "0x60808060405234610074576000805462010000600160b01b0319811633601081811b62010000600160b01b03169290921784559291901c6001600160a01b0316907f8be0079c531659141344cd1fd0a4f28419497f9722a3daafe3b4186f6b6457e09080a360018055613af8908161007a8239f35b600080fdfe6080604052600436101561001257600080fd5b6000803560e01c806302912bd3146121bb5780630a9254e4146121535780631bcaddc21461210b57806328d5796f1461148d57806333e21bec146114465780635625671e146113c85780635a5fdab714611380578063715018a6146112fe5780637518d35c146111e35780637eae687e1461103c5780638393080814610fa1578063852c49a714610f5e578063897c1b791461099a5780638da5cb5b14610964578063907d3085146108b157806398e3fdc41461085c578063c5c4744c1461081f578063db365f841461073e578063e6807afd14610673578063f1efb9311461059f578063f2fde38b146104d4578063f86df59b1461046e578063faf0c581146101815763ff77d0be1461012557600080fd5b3461017e57602061014c8161013936612a07565b8160405193828580945193849201612a46565b81017ff8bb2a4b5b30792eb350607495ebe7f79c5a5066287187429654459fae715b2681520301902054604051908152f35b80fd5b503461017e57604060031936011261017e5761019b612aac565b602480359173ffffffffffffffffffffffffffffffffffffffff90818416809403610469576101c8612b4c565b16801561040b57604051907f70a0823100000000000000000000000000000000000000000000000000000000825230600483015260209384838581855afa9283156104005786936103cd575b5060405192858401917fa9059cbb00000000000000000000000000000000000000000000000000000000835285850152604484015260448352608083019280841067ffffffffffffffff85111761039f578684939281926102d69660405261027b86612939565b8886527f5361666545524332303a206c6f772d6c6576656c2063616c6c206661696c656460a0820152519082855af13d15610397573d916102bb83612996565b926102c96040519485612955565b83523d888885013e61325a565b8051838115918215610373575b50509050156102f0578280f35b90602a608492604051927f08c379a000000000000000000000000000000000000000000000000000000000845260048401528201527f5361666545524332303a204552433230206f7065726174696f6e20646964206e60448201527f6f742073756363656564000000000000000000000000000000000000000000006064820152fd5b8380929350010312610393578201518015158103610393578083386102e3565b8380fd5b60609161325a565b847f4e487b710000000000000000000000000000000000000000000000000000000060005260416004526000fd5b9092508481813d83116103f9575b6103e58183612955565b810103126103f557519138610214565b8580fd5b503d6103db565b6040513d88823e3d90fd5b6064826012604051917f08c379a0000000000000000000000000000000000000000000000000000000008352602060048401528201527f546f6b656e5f5a45524f5f4144445245535300000000000000000000000000006044820152fd5b600080fd5b503461017e57604060031936011261017e5767ffffffffffffffff6004358181116104d0576104a1903690600401612851565b90602435928311610393576104bd6104cd933690600401612acf565b9290916104c8612b4c565b61339d565b80f35b8280fd5b503461017e57602060031936011261017e576104ee612aac565b6104f6612b4c565b73ffffffffffffffffffffffffffffffffffffffff81161561051b576104cd90612bce565b60846040517f08c379a000000000000000000000000000000000000000000000000000000000815260206004820152602660248201527f4f776e61626c653a206e6577206f776e657220697320746865207a65726f206160448201527f64647265737300000000000000000000000000000000000000000000000000006064820152fd5b503461017e57602060031936011261017e576004356105bc612b4c565b6103e88110610615576105f0817ff8bb2a4b5b30792eb350607495ebe7f79c5a5066287187429654459fae715b2054613a7d565b7ff8bb2a4b5b30792eb350607495ebe7f79c5a5066287187429654459fae715b1f5580f35b60646040517f08c379a000000000000000000000000000000000000000000000000000000000815260206004820152601b60248201527f6772616e64546f74616c5f4c6f7765725468616e5f5f315f30303000000000006044820152fd5b503461017e576fffffffffffffffffffffffffffffffff61069336612b00565b61069f93919293612b4c565b16914283106106e0576002916106b491612c59565b01907fffffffffffffffffffffffffffffffff0000000000000000000000000000000082541617905580f35b60646040517f08c379a000000000000000000000000000000000000000000000000000000000815260206004820152600d60248201527f53544152545f494e5f50415354000000000000000000000000000000000000006044820152fd5b503461017e5761074d36612b00565b90610756612b4c565b426fffffffffffffffffffffffffffffffff831611156107c15761077f6002916104cd94612c59565b01906fffffffffffffffffffffffffffffffff7fffffffffffffffffffffffffffffffff0000000000000000000000000000000083549260801b169116179055565b60646040517f08c379a000000000000000000000000000000000000000000000000000000000815260206004820152600b60248201527f454e445f494e5f504153540000000000000000000000000000000000000000006044820152fd5b503461017e578060031936011261017e5760207ff8bb2a4b5b30792eb350607495ebe7f79c5a5066287187429654459fae715b2554604051908152f35b503461017e57602060031936011261017e5760043567ffffffffffffffff81116108ad5761089161089f913690600401612823565b9061089a612b4c565b612c59565b600360ff1982541617905580f35b5080fd5b503461017e57604060031936011261017e5760043567ffffffffffffffff81116108ad576108e3903690600401612823565b602435916108ef612b4c565b82156109065760019161090191612c59565b015580f35b60646040517f08c379a000000000000000000000000000000000000000000000000000000000815260206004820152601060248201527f4d65726b6c65526f6f745f454d505459000000000000000000000000000000006044820152fd5b503461017e578060031936011261017e5773ffffffffffffffffffffffffffffffffffffffff6020915460101c16604051908152f35b503461017e5761012060031936011261017e576109b5612aac565b60c07fffffffffffffffffffffffffffffffffffffffffffffffffffffffffffffffdc3601126108ad5767ffffffffffffffff9060e43582811161039357610a01903690600401612851565b909261010435908111610f5a57610a1c903690600401612acf565b9185549460ff8660081c161595868097610f4d575b8015610f36575b15610eb25786600160ff198316178955610e84575b50610a56612b4c565b73ffffffffffffffffffffffffffffffffffffffff80861615610e265780610a7c612f3d565b1615610da25780610a8b612f60565b1615610d1e5780610a9a612f83565b1615610c9a57608435908115610c3c57610ab6610be197612bce565b80610abf612f3d565b16907fffffffffffffffffffffffff0000000000000000000000000000000000000000917ff8bb2a4b5b30792eb350607495ebe7f79c5a5066287187429654459fae715b1c908382541617905580610b15612f60565b167ff8bb2a4b5b30792eb350607495ebe7f79c5a5066287187429654459fae715b1d9083825416179055610b47612f83565b167ff8bb2a4b5b30792eb350607495ebe7f79c5a5066287187429654459fae715b1e918254161790557ff8bb2a4b5b30792eb350607495ebe7f79c5a5066287187429654459fae715b1f5560a4357ff8bb2a4b5b30792eb350607495ebe7f79c5a5066287187429654459fae715b205560c4357ff8bb2a4b5b30792eb350607495ebe7f79c5a5066287187429654459fae715b215561339d565b610be85780f35b7fffffffffffffffffffffffffffffffffffffffffffffffffffffffffffff00ff81541681557f7f26b83ff96e1f2b6a682f133852f6798a09c465da95921460cefb3847402498602060405160018152a180f35b60646040517f08c379a000000000000000000000000000000000000000000000000000000000815260206004820152601c60248201527f49474f5772697461626c655f5f6772616e64546f74616c5f5a45524f000000006044820152fd5b60846040517f08c379a000000000000000000000000000000000000000000000000000000000815260206004820152602160248201527f49474f5772697461626c655f5f7065726d6974325f5a45524f5f41444452455360448201527f53000000000000000000000000000000000000000000000000000000000000006064820152fd5b60846040517f08c379a000000000000000000000000000000000000000000000000000000000815260206004820152602660248201527f49474f5772697461626c655f5f7061796d656e74546f6b656e5f5a45524f5f4160448201527f44445245535300000000000000000000000000000000000000000000000000006064820152fd5b60846040517f08c379a000000000000000000000000000000000000000000000000000000000815260206004820152602960248201527f49474f5772697461626c655f5f76657374696e67436f6e74726163745f5a455260448201527f4f5f4144445245535300000000000000000000000000000000000000000000006064820152fd5b60646040517f08c379a000000000000000000000000000000000000000000000000000000000815260206004820152601f60248201527f49474f5772697461626c655f5f6f776e65725f5a45524f5f41444452455353006044820152fd5b7fffffffffffffffffffffffffffffffffffffffffffffffffffffffffffff00001661010117875538610a4d565b60846040517f08c379a000000000000000000000000000000000000000000000000000000000815260206004820152602e60248201527f496e697469616c697a61626c653a20636f6e747261637420697320616c72656160448201527f647920696e697469616c697a65640000000000000000000000000000000000006064820152fd5b50303b158015610a385750600160ff821614610a38565b50600160ff821610610a31565b8480fd5b503461017e57602060031936011261017e5760043567ffffffffffffffff81116108ad57610891610f93913690600401612823565b600160ff1982541617905580f35b503461017e57604060031936011261017e57610fbb612aac565b906024359067ffffffffffffffff821161017e5760206110338461102d610fe53660048801612823565b91909273ffffffffffffffffffffffffffffffffffffffff166000527ff8bb2a4b5b30792eb350607495ebe7f79c5a5066287187429654459fae715b27602052604060002090565b91612cc9565b54604051908152f35b503461017e578060031936011261017e577ff8bb2a4b5b30792eb350607495ebe7f79c5a5066287187429654459fae715b229081549161107b83612e81565b916110896040519384612955565b83835260209384840190819383527f65081cd3ad5fc84209c8310f7404cee8bc03efec5e3d920e46e7ba762f27ce4c9183905b82821061113f5750505050604051928484019085855251809152604084019460408260051b8601019392955b8287106110f55785850386f35b90919293828061112f837fffffffffffffffffffffffffffffffffffffffffffffffffffffffffffffffc08a600196030186528851612a69565b96019201960195929190926110e8565b6040979694975187899286549261115584612e99565b8082526001948086169081156111c7575060011461118f575b5061117d816001960382612955565b815201940191019092969395966110bc565b888d52838d2095508c905b8082106111b0575081018301945061117d61116e565b8654838301860152958501958c949091019061119a565b60ff19168584015250151560051b81018301945061117d61116e565b503461017e576112036111f536612a07565b6111fd612e49565b50612ce2565b60405161120f816128be565b60ff8254169160048310156112d15760e0935082825260018101549060208301918252600281015460408401906fffffffffffffffffffffffffffffffff908181168352606086019060801c8152816003850154936080880194855273ffffffffffffffffffffffffffffffffffffffff9660c060058960048a0154169860a08c01998a52015499019889526112a8604051809b612882565b5160208a01525116604088015251166060860152516080850152511660a08301525160c0820152f35b6024847f4e487b710000000000000000000000000000000000000000000000000000000081526021600452fd5b503461017e578060031936011261017e57611317612b4c565b600073ffffffffffffffffffffffffffffffffffffffff81547fffffffffffffffffffff0000000000000000000000000000000000000000ffff8116835560101c167f8be0079c531659141344cd1fd0a4f28419497f9722a3daafe3b4186f6b6457e08280a380f35b503461017e578060031936011261017e57611399612b4c565b7ff8bb2a4b5b30792eb350607495ebe7f79c5a5066287187429654459fae715b24600160ff1982541617905580f35b503461017e57604060031936011261017e5760043567ffffffffffffffff81116108ad5760036113ff610901923690600401612823565b602435939161140c612b4c565b61089a611417612d27565b606061143d8861143860808501518a6114308a8a612c59565b01549061305b565b613006565b91015190613a7d565b503461017e578060031936011261017e57602060ff7ff8bb2a4b5b30792eb350607495ebe7f79c5a5066287187429654459fae715b24541661148b6040518092612882565bf35b503461017e576003196080813601126108ad5767ffffffffffffffff602435116108ad57608081602435360301126108ad5760443567ffffffffffffffff81116104d0576114df903690600401612851565b91906064359167ffffffffffffffff8311610f5a576060908336030112610393576002600154146120ad57600260015561151e60046024350180612eec565b6115288183612c59565b9060405191611536836128be565b60ff8154166004811015612080579060059184526001810154602085015260028101546fffffffffffffffffffffffffffffffff8116604086015260801c60608501526003810154608085015273ffffffffffffffffffffffffffffffffffffffff60048201541660a0850152015460c08301526115b2612d27565b9460808301519560608101519661162a61162161161a6115d56024803501612fa6565b73ffffffffffffffffffffffffffffffffffffffff166000527ff8bb2a4b5b30792eb350607495ebe7f79c5a5066287187429654459fae715b27602052604060002090565b8689612cc9565b54600435613006565b60446024350135811161203557506116456024803501612fa6565b73ffffffffffffffffffffffffffffffffffffffff33911603611fd75761168f7ff8bb2a4b5b30792eb350607495ebe7f79c5a5066287187429654459fae715b2554600435613006565b888111611f97575060ff7ff8bb2a4b5b30792eb350607495ebe7f79c5a5066287187429654459fae715b2454166004811015611f6a5760018103611f3157506116ef6116ea6116e360046024350180612eec565b36916129d0565b613068565b6116fc6116218588612c91565b818111611ed85750600161171e61171860046024350180612eec565b90612c59565b0154986040516020808201527fffffffffffffffffffffffffffffffffffffffffffffffffffffffffffffffdd602435360301602435600401351215611ed457602435602435600401350167ffffffffffffffff600482013511611ed057600481013536036024820113611ed0576117aa906080604084015260c0830190602460048201359101612fc7565b60248035013573ffffffffffffffffffffffffffffffffffffffff81168103611ecc5773ffffffffffffffffffffffffffffffffffffffff166060830152602435604481013560808401526064013560a08301528190037fffffffffffffffffffffffffffffffffffffffffffffffffffffffffffffffe0810182526118309082612955565b602081519101209061184181612e81565b9861184f6040519a8b612955565b818a5260208a0190368360051b820111611ecc5780915b8360051b82018310611ebc5750505050978a985b88518a10156118c35760208a60051b8a010151908181106000146118b1578c526020526118ab60408c205b9961322d565b9861187a565b908c526020526118ab60408c206118a5565b8b98508a03611e5e5761198c61161a6118df6024803501612fa6565b61190c6004357ff8bb2a4b5b30792eb350607495ebe7f79c5a5066287187429654459fae715b2554613006565b7ff8bb2a4b5b30792eb350607495ebe7f79c5a5066287187429654459fae715b2555611938888b612c91565b6119456004358254613006565b905573ffffffffffffffffffffffffffffffffffffffff166000527ff8bb2a4b5b30792eb350607495ebe7f79c5a5066287187429654459fae715b27602052604060002090565b6119996004358254613006565b90557ff8bb2a4b5b30792eb350607495ebe7f79c5a5066287187429654459fae715b255414611e0e575b6119cd8487612c91565b5414611df0575b60026119e08487612c59565b015460801c421015611dcd575b60a084015173ffffffffffffffffffffffffffffffffffffffff168015611dab57935b73ffffffffffffffffffffffffffffffffffffffff8251169060c0611a386024803501612fa6565b910151916004358360043502048314600435151715611d7e57908189923b156104d057888388611ac194670de0b6b3a764000073ffffffffffffffffffffffffffffffffffffffff98898e6040519b8c9a8b998a987f37a97db7000000000000000000000000000000000000000000000000000000008a5260c060048b015260c48a0191612fc7565b951660248701526004356044870152166064850152600435020460848301526064602435013560a483015203925af18015611d7357611d5e575b50908173ffffffffffffffffffffffffffffffffffffffff604088940151169160006020604051611b2b81612939565b82815201528360408051611b3e8161291d565b8151611b4981612939565b60008152600060208201528152826020820152015260006020604051611b6e81612939565b8281520152611beb73ffffffffffffffffffffffffffffffffffffffff60405193611b9885612939565b8189168552600435602086015260405194611bb28661291d565b8552604484013560208601526024840135604086015251169160405192611bd884612939565b8352600435602084015260040180612eec565b8491943b156103f557858094611cad611c94976040948551998a98899788967f30f28b7a000000000000000000000000000000000000000000000000000000008852611c5b6004890182516020809173ffffffffffffffffffffffffffffffffffffffff81511684520151910152565b60208181015160448a01529101516064880152815173ffffffffffffffffffffffffffffffffffffffff166084880152015160a4860152565b3360c485015261010060e4850152610104840191612fc7565b03925af18015611d5357611d3f575b5050611ccb6024803501612fa6565b92816040519283928337810185815203902073ffffffffffffffffffffffffffffffffffffffff604051921682527f24b17f7cc1c323d081ca24ebe682df530605d2207ecdde5a86c1d0bb44a88a6d602073ffffffffffffffffffffffffffffffffffffffff600435951693a46001805580f35b611d4890612909565b610393578385611cbc565b6040513d84823e3d90fd5b611d6b9096919296612909565b949086611afb565b6040513d89823e3d90fd5b6024897f4e487b710000000000000000000000000000000000000000000000000000000081526011600452fd5b5073ffffffffffffffffffffffffffffffffffffffff60208201511693611a10565b611de0611ddb3685886129d0565b612ce2565b600260ff198254161790556119ed565b611dfe611ddb3685886129d0565b600260ff198254161790556119d4565b600260ff197ff8bb2a4b5b30792eb350607495ebe7f79c5a5066287187429654459fae715b245416177ff8bb2a4b5b30792eb350607495ebe7f79c5a5066287187429654459fae715b24556119c3565b60646040517f08c379a000000000000000000000000000000000000000000000000000000000815260206004820152601460248201527f414c4c4f434154494f4e5f4e4f545f464f554e440000000000000000000000006044820152fd5b8235815260209283019201611866565b8d80fd5b8c80fd5b8b80fd5b81611ee58893879361305b565b611f226040519485947f2877ff9e000000000000000000000000000000000000000000000000000000008652606060048701526064860191612fc7565b91602484015260448301520390fd5b602490611f68604051917fb293db190000000000000000000000000000000000000000000000000000000083526004830190612882565bfd5b60248b7f4e487b710000000000000000000000000000000000000000000000000000000081526021600452fd5b88611fa48160449361305b565b604051917fcced311a00000000000000000000000000000000000000000000000000000000835260048301526024820152fd5b60646040517f08c379a000000000000000000000000000000000000000000000000000000000815260206004820152601a60248201527f6d73672e73656e6465723a204e4f545f415554484f52495a45440000000000006044820152fd5b6120476044918260243501359061305b565b604051907fadaa553200000000000000000000000000000000000000000000000000000000825282602435013560048301526024820152fd5b6024897f4e487b710000000000000000000000000000000000000000000000000000000081526021600452fd5b60646040517f08c379a000000000000000000000000000000000000000000000000000000000815260206004820152601f60248201527f5265656e7472616e637947756172643a207265656e7472616e742063616c6c006044820152fd5b503461017e578060031936011261017e57612124612b4c565b7ff8bb2a4b5b30792eb350607495ebe7f79c5a5066287187429654459fae715b24600360ff1982541617905580f35b503461017e578060031936011261017e5760a061216e612d27565b73ffffffffffffffffffffffffffffffffffffffff908181511691602082015116906060810151846080830151920151926040519485526020850152604084015260608301526080820152f35b503461017e5761010060031936011261017e5767ffffffffffffffff6004358181116104d0576121ef903690600401612823565b60e07fffffffffffffffffffffffffffffffffffffffffffffffffffffffffffffffdc93929336011261039357612224612b4c565b61222e8184612c59565b6040519161223b836128be565b60ff82541660048110156127f65783526001928383015490602091828201526002840154916fffffffffffffffffffffffffffffffff92838116604084015260801c60608301526003850154936080830194855273ffffffffffffffffffffffffffffffffffffffff956005876004830154169160a08601928352015460c0850190815260443594851515806127e0575b806127cb575b806127c0575b156127625751916004831015612735578890511660c435988916809903611ed05788915192156000146126ed5750505060e435156126c3575b7ff8bb2a4b5b30792eb350607495ebe7f79c5a5066287187429654459fae715b1f54987ff8bb2a4b5b30792eb350607495ebe7f79c5a5066287187429654459fae715b20986123648a549751809861305b565b9661237c61237560a435809a613006565b9c8d613a7d565b15612474575b5061238d9250612c59565b946024356004811015612470576123a49087613042565b850155600284019060643581811680910361246c577fffffffffffffffffffffffffffffffff0000000000000000000000000000000083541617825560843590811681036124685781546fffffffffffffffffffffffffffffffff1660809190911b7fffffffffffffffffffffffffffffffff0000000000000000000000000000000016179055600383015560048201907fffffffffffffffffffffffff0000000000000000000000000000000000000000825416179055600560e4359101555580f35b8780fd5b8880fd5b8980fd5b7ff8bb2a4b5b30792eb350607495ebe7f79c5a5066287187429654459fae715b229081549168010000000000000000831015612696578a8301808255831015612669578d52831161263c577f65081cd3ad5fc84209c8310f7404cee8bc03efec5e3d920e46e7ba762f27ce4c016124eb8154612e99565b601f81116125f4575b508b8c601f85116001146125505761238d95509084612545575b50838a1b907fffffffffffffffffffffffffffffffffffffffffffffffffffffffffffffffff8560031b1c19161790555b38612382565b90508201353861250e565b908a957fffffffffffffffffffffffffffffffffffffffffffffffffffffffffffffffe086169084845280842093905b8282106125db57505061238d965085116125a3575b50508883811b01905561253f565b7fffffffffffffffffffffffffffffffffffffffffffffffffffffffffffffffff60f88660031b161c19908401351690553880612595565b8684013585558d98909401939283019290810190612580565b818d52848d20601f850160051c810191868610612632575b601f0160051c01908a908e5b838210612627575050506124f4565b8155018a908e612618565b909150819061260c565b60248c7f4e487b710000000000000000000000000000000000000000000000000000000081526041600452fd5b60248e7f4e487b710000000000000000000000000000000000000000000000000000000081526032600452fd5b60248e7f4e487b710000000000000000000000000000000000000000000000000000000081526041600452fd5b60046040517f93c16572000000000000000000000000000000000000000000000000000000008152fd5b1490811591612728575b5015612311575b60046040517ff85d06f8000000000000000000000000000000000000000000000000000000008152fd5b905060e4351415386126f7565b60248d7f4e487b710000000000000000000000000000000000000000000000000000000081526021600452fd5b606485604051907f08c379a00000000000000000000000000000000000000000000000000000000082526004820152600960248201527f454d5054595f54414700000000000000000000000000000000000000000000006044820152fd5b5060a43515156122d8565b50608435878116809103611ecc5742106122d2565b50606435878116809103611ecc574211156122cc565b6024877f4e487b710000000000000000000000000000000000000000000000000000000081526021600452fd5b9181601f840112156104695782359167ffffffffffffffff8311610469576020838186019501011161046957565b9181601f840112156104695782359167ffffffffffffffff8311610469576020808501948460051b01011161046957565b90600482101561288f5752565b7f4e487b7100000000000000000000000000000000000000000000000000000000600052602160045260246000fd5b60e0810190811067ffffffffffffffff8211176128da57604052565b7f4e487b7100000000000000000000000000000000000000000000000000000000600052604160045260246000fd5b67ffffffffffffffff81116128da57604052565b6060810190811067ffffffffffffffff8211176128da57604052565b6040810190811067ffffffffffffffff8211176128da57604052565b90601f7fffffffffffffffffffffffffffffffffffffffffffffffffffffffffffffffe0910116810190811067ffffffffffffffff8211176128da57604052565b67ffffffffffffffff81116128da57601f017fffffffffffffffffffffffffffffffffffffffffffffffffffffffffffffffe01660200190565b9291926129dc82612996565b916129ea6040519384612955565b829481845281830111610469578281602093846000960137010152565b6020600319820112610469576004359067ffffffffffffffff8211610469578060238301121561046957816024612a43936004013591016129d0565b90565b60005b838110612a595750506000910152565b8181015183820152602001612a49565b907fffffffffffffffffffffffffffffffffffffffffffffffffffffffffffffffe0601f602093612aa581518092818752878088019101612a46565b0116010190565b6004359073ffffffffffffffffffffffffffffffffffffffff8216820361046957565b9181601f840112156104695782359167ffffffffffffffff83116104695760208085019460e0850201011161046957565b6040600319820112610469576004359067ffffffffffffffff821161046957612b2b91600401612823565b90916024356fffffffffffffffffffffffffffffffff811681036104695790565b73ffffffffffffffffffffffffffffffffffffffff60005460101c163303612b7057565b60646040517f08c379a000000000000000000000000000000000000000000000000000000000815260206004820152602060248201527f4f776e61626c653a2063616c6c6572206973206e6f7420746865206f776e65726044820152fd5b6000549075ffffffffffffffffffffffffffffffffffffffff00008160101b167fffffffffffffffffffff0000000000000000000000000000000000000000ffff83161760005573ffffffffffffffffffffffffffffffffffffffff8091169160101c167f8be0079c531659141344cd1fd0a4f28419497f9722a3daafe3b4186f6b6457e0600080a3565b60209082604051938492833781017ff8bb2a4b5b30792eb350607495ebe7f79c5a5066287187429654459fae715b2381520301902090565b60209082604051938492833781017ff8bb2a4b5b30792eb350607495ebe7f79c5a5066287187429654459fae715b2681520301902090565b6020919283604051948593843782019081520301902090565b6020612cfb918160405193828580945193849201612a46565b81017ff8bb2a4b5b30792eb350607495ebe7f79c5a5066287187429654459fae715b2381520301902090565b6040519060c0820182811067ffffffffffffffff8211176128da576040528173ffffffffffffffffffffffffffffffffffffffff807ff8bb2a4b5b30792eb350607495ebe7f79c5a5066287187429654459fae715b1c54168252807ff8bb2a4b5b30792eb350607495ebe7f79c5a5066287187429654459fae715b1d541660208301527ff8bb2a4b5b30792eb350607495ebe7f79c5a5066287187429654459fae715b1e541660408201527ff8bb2a4b5b30792eb350607495ebe7f79c5a5066287187429654459fae715b1f5460608201527ff8bb2a4b5b30792eb350607495ebe7f79c5a5066287187429654459fae715b2054608082015260a07ff8bb2a4b5b30792eb350607495ebe7f79c5a5066287187429654459fae715b2154910152565b60405190612e56826128be565b8160c06000918281528260208201528260408201528260608201528260808201528260a08201520152565b67ffffffffffffffff81116128da5760051b60200190565b90600182811c92168015612ee2575b6020831014612eb357565b7f4e487b7100000000000000000000000000000000000000000000000000000000600052602260045260246000fd5b91607f1691612ea8565b9035907fffffffffffffffffffffffffffffffffffffffffffffffffffffffffffffffe181360301821215610469570180359067ffffffffffffffff82116104695760200191813603831361046957565b60243573ffffffffffffffffffffffffffffffffffffffff811681036104695790565b60443573ffffffffffffffffffffffffffffffffffffffff811681036104695790565b60643573ffffffffffffffffffffffffffffffffffffffff811681036104695790565b3573ffffffffffffffffffffffffffffffffffffffff811681036104695790565b601f82602094937fffffffffffffffffffffffffffffffffffffffffffffffffffffffffffffffe0938186528686013760008582860101520116010190565b9190820180921161301357565b7f4e487b7100000000000000000000000000000000000000000000000000000000600052601160045260246000fd5b90600481101561288f5760ff60ff198354169116179055565b9190820391821161301357565b61307181612ce2565b60405161307d816128be565b60ff825416600492838210156131ff578183526001810154602084015260028101549160056fffffffffffffffffffffffffffffffff84169384604087015260801c928360608701526003810154608087015273ffffffffffffffffffffffffffffffffffffffff878201541660a0870152015460c08501521591826131f4575b50816131ea575b506131d2578051828110156131a45760010361312057505050565b51818110156131765761317261316760409485519586957f5f08440f0000000000000000000000000000000000000000000000000000000087528601526044850190612a69565b916024840190612882565b0390fd5b6021827f4e487b71000000000000000000000000000000000000000000000000000000006000525260246000fd5b6021837f4e487b71000000000000000000000000000000000000000000000000000000006000525260246000fd5b50506131dd90612ce2565b600160ff19825416179055565b9050421038613105565b4210159150386130fe565b6021847f4e487b71000000000000000000000000000000000000000000000000000000006000525260246000fd5b7fffffffffffffffffffffffffffffffffffffffffffffffffffffffffffffffff81146130135760010190565b919290156132d5575081511561326e575090565b3b156132775790565b60646040517f08c379a000000000000000000000000000000000000000000000000000000000815260206004820152601d60248201527f416464726573733a2063616c6c20746f206e6f6e2d636f6e74726163740000006044820152fd5b8251909150156132e85750805190602001fd5b613172906040519182917f08c379a0000000000000000000000000000000000000000000000000000000008352602060048401526024830190612a69565b356fffffffffffffffffffffffffffffffff811681036104695790565b9082101561335e5761335a9160051b810190612eec565b9091565b7f4e487b7100000000000000000000000000000000000000000000000000000000600052603260045260246000fd5b919081101561335e5760e0020190565b9192808203613a1f579291907ff8bb2a4b5b30792eb350607495ebe7f79c5a5066287187429654459fae715b1f547ff8bb2a4b5b30792eb350607495ebe7f79c5a5066287187429654459fae715b2054946133f6612e49565b506000945b83861061342c575050505050507ff8bb2a4b5b30792eb350607495ebe7f79c5a5066287187429654459fae715b2055565b909192939495613440611718888789613343565b6040519061344d826128be565b60ff81541690600482101561288f5760059183526001810154602084015260028101546fffffffffffffffffffffffffffffffff8116604085015260801c60608401526003810154608084015273ffffffffffffffffffffffffffffffffffffffff60048201541660a0840152015460c08201526134cc88858561338d565b60208101351515806139f7575b806139d0575b806139c3575b15613965578151600481101561288f5773ffffffffffffffffffffffffffffffffffffffff60a08401511661351c60a08401612fa6565b60c0858101519401359261392c5750509050156126c3576080905b01518061354589868661338d565b9261356a61355f6135578c8b8d613343565b94909361305b565b608086013590613006565b926135758885613a7d565b156136b0575b9061358591612c59565b60048335101561046957600560c0846135a26136a6963585613042565b60208101356001850155613644600285016fffffffffffffffffffffffffffffffff6135d060408501613326565b167fffffffffffffffffffffffffffffffff0000000000000000000000000000000082541617815561360460608401613326565b6fffffffffffffffffffffffffffffffff7fffffffffffffffffffffffffffffffff0000000000000000000000000000000083549260801b169116179055565b608081013560038501556004840173ffffffffffffffffffffffffffffffffffffffff61367360a08401612fa6565b167fffffffffffffffffffffffff000000000000000000000000000000000000000082541617905501359101559661322d565b94939291906133fb565b7ff8bb2a4b5b30792eb350607495ebe7f79c5a5066287187429654459fae715b22805490680100000000000000008210156128da576001820180825582101561335e5760005267ffffffffffffffff83116128da57613731817f65081cd3ad5fc84209c8310f7404cee8bc03efec5e3d920e46e7ba762f27ce4c0154612e99565b601f81116138c6575b506000601f84116001146137bf5790836135859493926000916137b4575b508360011b907fffffffffffffffffffffffffffffffffffffffffffffffffffffffffffffffff8560031b1c191617907f65081cd3ad5fc84209c8310f7404cee8bc03efec5e3d920e46e7ba762f27ce4c01555b90915061357b565b905082013538613758565b929190807f65081cd3ad5fc84209c8310f7404cee8bc03efec5e3d920e46e7ba762f27ce4c01845260208420845b7fffffffffffffffffffffffffffffffffffffffffffffffffffffffffffffffe0851686106138ae576135859550847fffffffffffffffffffffffffffffffffffffffffffffffffffffffffffffffe0811610613876575b5050600183811b01907f65081cd3ad5fc84209c8310f7404cee8bc03efec5e3d920e46e7ba762f27ce4c01556137ac565b7fffffffffffffffffffffffffffffffffffffffffffffffffffffffffffffffff60f88660031b161c19908401351690553880613845565b838101358255602095860195600190920191016137ed565b817f65081cd3ad5fc84209c8310f7404cee8bc03efec5e3d920e46e7ba762f27ce4c016000526020600020601f850160051c810160208610613925575b601f830160051c8201811061391957505061373a565b60008155600101613903565b5080613903565b73ffffffffffffffffffffffffffffffffffffffff16149182159261395a575b50506126fe57608090613537565b14159050388061394c565b60646040517f08c379a000000000000000000000000000000000000000000000000000000000815260206004820152600960248201527f454d5054595f54414700000000000000000000000000000000000000000000006044820152fd5b50608081013515156134e5565b506139dd60608201613326565b6fffffffffffffffffffffffffffffffff429116116134df565b50613a0460408201613326565b6fffffffffffffffffffffffffffffffff42911610156134d9565b60646040517f08c379a000000000000000000000000000000000000000000000000000000000815260206004820152601f60248201527f49474f5772697461626c653a207461677320617272617973206c656e677468006044820152fd5b818111613a88575050565b602491613a949161305b565b604051907f2e2a58540000000000000000000000000000000000000000000000000000000082526004820152fdfea26469706673582212203e0dd470b4fed10f82ad9e6ec4ddbac0c0c815c5bc619721005f7fbb7f0223c864736f6c63430008110033",
    "linkReferences": {}
  },
  "methodIdentifiers": {
    "allocationReservedByIn(address,string)": "83930808",
    "igoStatus()": "33e21bec",
    "initialize(address,(address,address,address,uint256,uint256,uint256),string[],(uint8,bytes32,uint128,uint128,uint256,address,uint256)[])": "897c1b79",
    "openIGO()": "5a5fdab7",
    "openTag(string)": "852c49a7",
    "owner()": "8da5cb5b",
    "pauseIGO()": "1bcaddc2",
    "pauseTag(string)": "98e3fdc4",
    "raisedInTag(string)": "ff77d0be",
    "recoverLostERC20(address,address)": "faf0c581",
    "renounceOwnership()": "715018a6",
    "reserveAllocation(uint256,(string,address,uint256,uint256),bytes32[],(bytes,uint256,uint256))": "28d5796f",
    "setUp()": "0a9254e4",
    "tag(string)": "7518d35c",
    "tagIds()": "7eae687e",
    "totalRaised()": "c5c4744c",
    "transferOwnership(address)": "f2fde38b",
    "updateGrandTotal(uint256)": "f1efb931",
    "updateSetTag(string,(uint8,bytes32,uint128,uint128,uint256,address,uint256))": "02912bd3",
    "updateSetTags(string[],(uint8,bytes32,uint128,uint128,uint256,address,uint256)[])": "f86df59b",
    "updateTagEndDate(string,uint128)": "db365f84",
    "updateTagMaxCap(string,uint256)": "5625671e",
    "updateTagMerkleRoot(string,bytes32)": "907d3085",
    "updateTagStartDate(string,uint128)": "e6807afd"
  },
  "id": 53
}