{
  "abi": [
    {
      "inputs": [
        {
          "internalType": "enum ISharedInternal.Stage",
          "name": "current",
          "type": "uint8"
        }
      ],
      "name": "IGOWritableInternal_IGONotOpened",
      "type": "error"
    },
    {
      "inputs": [
        {
          "internalType": "string",
          "name": "tagId",
          "type": "string"
        },
        {
          "internalType": "enum ISharedInternal.Stage",
          "name": "current",
          "type": "uint8"
        }
      ],
      "name": "IGOWritableInternal_TagNotOpened",
      "type": "error"
    },
    {
      "inputs": [
        {
          "internalType": "uint256",
          "name": "allocation",
          "type": "uint256"
        },
        {
          "internalType": "uint256",
          "name": "exceedsBy",
          "type": "uint256"
        }
      ],
      "name": "IGOWritable_AllocationExceeded",
      "type": "error"
    },
    {
      "inputs": [
        {
          "internalType": "uint256",
          "name": "grandTotal",
          "type": "uint256"
        },
        {
          "internalType": "uint256",
          "name": "exceedsBy",
          "type": "uint256"
        }
      ],
      "name": "IGOWritable_GrandTotalExceeded",
      "type": "error"
    },
    {
      "inputs": [
        {
          "internalType": "string",
          "name": "tagId",
          "type": "string"
        },
        {
          "internalType": "uint256",
          "name": "maxTagCap",
          "type": "uint256"
        },
        {
          "internalType": "uint256",
          "name": "exceedsBy",
          "type": "uint256"
        }
      ],
      "name": "IGOWritable_MaxTagCapExceeded",
      "type": "error"
    },
    {
      "inputs": [],
      "name": "IGOWritable_NoPaymentTokenOrPriceUpdate",
      "type": "error"
    },
    {
      "inputs": [],
      "name": "IGOWritable_ProjectTokenPrice_ZERO",
      "type": "error"
    },
    {
      "inputs": [
        {
          "internalType": "uint256",
          "name": "greaterBy",
          "type": "uint256"
        }
      ],
      "name": "IGOWritable_SummedMaxTagCapGtGrandTotal",
      "type": "error"
    },
    {
      "anonymous": false,
      "inputs": [
        {
          "indexed": true,
          "internalType": "string",
          "name": "tagId",
          "type": "string"
        },
        {
          "indexed": true,
          "internalType": "address",
          "name": "buyer",
          "type": "address"
        },
        {
          "indexed": true,
          "internalType": "uint256",
          "name": "paymentTokenAmount",
          "type": "uint256"
        },
        {
          "indexed": false,
          "internalType": "address",
          "name": "paymentToken",
          "type": "address"
        }
      ],
      "name": "AllocationReserved",
      "type": "event"
    },
    {
      "anonymous": false,
      "inputs": [
        {
          "indexed": false,
          "internalType": "uint8",
          "name": "version",
          "type": "uint8"
        }
      ],
      "name": "Initialized",
      "type": "event"
    },
    {
      "anonymous": false,
      "inputs": [
        {
          "indexed": true,
          "internalType": "address",
          "name": "previousOwner",
          "type": "address"
        },
        {
          "indexed": true,
          "internalType": "address",
          "name": "newOwner",
          "type": "address"
        }
      ],
      "name": "OwnershipTransferred",
      "type": "event"
    },
    {
      "inputs": [
        {
          "internalType": "address",
          "name": "account",
          "type": "address"
        },
        {
          "internalType": "string",
          "name": "tagId",
          "type": "string"
        }
      ],
      "name": "boughtByIn",
      "outputs": [
        {
          "internalType": "uint256",
          "name": "",
          "type": "uint256"
        }
      ],
      "stateMutability": "view",
      "type": "function"
    },
    {
      "inputs": [],
      "name": "igoStage",
      "outputs": [
        {
          "internalType": "enum ISharedInternal.Stage",
          "name": "",
          "type": "uint8"
        }
      ],
      "stateMutability": "view",
      "type": "function"
    },
    {
      "inputs": [
        {
          "internalType": "address",
          "name": "owner",
          "type": "address"
        },
        {
          "internalType": "address",
          "name": "token",
          "type": "address"
        },
        {
          "internalType": "address",
          "name": "permit2",
          "type": "address"
        },
        {
          "internalType": "address",
          "name": "treasuryWallet",
          "type": "address"
        },
        {
          "internalType": "uint256",
          "name": "grandTotal_",
          "type": "uint256"
        },
        {
          "internalType": "string[]",
          "name": "tagIds_",
          "type": "string[]"
        },
        {
          "components": [
            {
              "internalType": "enum ISharedInternal.Stage",
              "name": "stage",
              "type": "uint8"
            },
            {
              "internalType": "bytes32",
              "name": "merkleRoot",
              "type": "bytes32"
            },
            {
              "internalType": "uint128",
              "name": "startAt",
              "type": "uint128"
            },
            {
              "internalType": "uint128",
              "name": "endAt",
              "type": "uint128"
            },
            {
              "internalType": "uint256",
              "name": "maxTagCap",
              "type": "uint256"
            },
            {
              "internalType": "address",
              "name": "paymentToken",
              "type": "address"
            },
            {
              "internalType": "uint256",
              "name": "projectTokenPrice",
              "type": "uint256"
            }
          ],
          "internalType": "struct ISharedInternal.Tag[]",
          "name": "tags",
          "type": "tuple[]"
        }
      ],
      "name": "initialize",
      "outputs": [],
      "stateMutability": "nonpayable",
      "type": "function"
    },
    {
      "inputs": [],
      "name": "openIGO",
      "outputs": [],
      "stateMutability": "nonpayable",
      "type": "function"
    },
    {
      "inputs": [
        {
          "internalType": "string",
          "name": "tagId",
          "type": "string"
        }
      ],
      "name": "openTag",
      "outputs": [],
      "stateMutability": "nonpayable",
      "type": "function"
    },
    {
      "inputs": [],
      "name": "owner",
      "outputs": [
        {
          "internalType": "address",
          "name": "",
          "type": "address"
        }
      ],
      "stateMutability": "view",
      "type": "function"
    },
    {
      "inputs": [],
      "name": "pauseIGO",
      "outputs": [],
      "stateMutability": "nonpayable",
      "type": "function"
    },
    {
      "inputs": [
        {
          "internalType": "string",
          "name": "tagId",
          "type": "string"
        }
      ],
      "name": "pauseTag",
      "outputs": [],
      "stateMutability": "nonpayable",
      "type": "function"
    },
    {
      "inputs": [
        {
          "internalType": "string",
          "name": "tagId",
          "type": "string"
        }
      ],
      "name": "raisedInTag",
      "outputs": [
        {
          "internalType": "uint256",
          "name": "",
          "type": "uint256"
        }
      ],
      "stateMutability": "view",
      "type": "function"
    },
    {
      "inputs": [
        {
          "internalType": "address",
          "name": "token",
          "type": "address"
        },
        {
          "internalType": "address",
          "name": "to",
          "type": "address"
        }
      ],
      "name": "recoverLostERC20",
      "outputs": [],
      "stateMutability": "nonpayable",
      "type": "function"
    },
    {
      "inputs": [],
      "name": "renounceOwnership",
      "outputs": [],
      "stateMutability": "nonpayable",
      "type": "function"
    },
    {
      "inputs": [
        {
          "internalType": "uint256",
          "name": "amount",
          "type": "uint256"
        },
        {
          "components": [
            {
              "internalType": "string",
              "name": "tagId",
              "type": "string"
            },
            {
              "internalType": "address",
              "name": "account",
              "type": "address"
            },
            {
              "internalType": "uint256",
              "name": "paymentTokenAmount",
              "type": "uint256"
            }
          ],
          "internalType": "struct IIGOWritableInternal.Allocation",
          "name": "allocation",
          "type": "tuple"
        },
        {
          "internalType": "bytes32[]",
          "name": "proof",
          "type": "bytes32[]"
        },
        {
          "components": [
            {
              "internalType": "bytes",
              "name": "signature",
              "type": "bytes"
            },
            {
              "internalType": "uint256",
              "name": "deadline",
              "type": "uint256"
            },
            {
              "internalType": "uint256",
              "name": "nonce",
              "type": "uint256"
            }
          ],
          "internalType": "struct IIGOWritableInternal.BuyPermission",
          "name": "permission",
          "type": "tuple"
        }
      ],
      "name": "reserveAllocation",
      "outputs": [],
      "stateMutability": "nonpayable",
      "type": "function"
    },
    {
      "inputs": [],
      "name": "setUp",
      "outputs": [
        {
          "internalType": "address",
          "name": "token",
          "type": "address"
        },
        {
          "internalType": "address",
          "name": "treasuryWallet",
          "type": "address"
        },
        {
          "internalType": "uint256",
          "name": "grandTotal",
          "type": "uint256"
        }
      ],
      "stateMutability": "view",
      "type": "function"
    },
    {
      "inputs": [],
      "name": "summedMaxTagCap",
      "outputs": [
        {
          "internalType": "uint256",
          "name": "",
          "type": "uint256"
        }
      ],
      "stateMutability": "view",
      "type": "function"
    },
    {
      "inputs": [
        {
          "internalType": "string",
          "name": "tagId",
          "type": "string"
        }
      ],
      "name": "tag",
      "outputs": [
        {
          "components": [
            {
              "internalType": "enum ISharedInternal.Stage",
              "name": "stage",
              "type": "uint8"
            },
            {
              "internalType": "bytes32",
              "name": "merkleRoot",
              "type": "bytes32"
            },
            {
              "internalType": "uint128",
              "name": "startAt",
              "type": "uint128"
            },
            {
              "internalType": "uint128",
              "name": "endAt",
              "type": "uint128"
            },
            {
              "internalType": "uint256",
              "name": "maxTagCap",
              "type": "uint256"
            },
            {
              "internalType": "address",
              "name": "paymentToken",
              "type": "address"
            },
            {
              "internalType": "uint256",
              "name": "projectTokenPrice",
              "type": "uint256"
            }
          ],
          "internalType": "struct ISharedInternal.Tag",
          "name": "tag_",
          "type": "tuple"
        }
      ],
      "stateMutability": "view",
      "type": "function"
    },
    {
      "inputs": [],
      "name": "tagIds",
      "outputs": [
        {
          "internalType": "string[]",
          "name": "tagIds_",
          "type": "string[]"
        }
      ],
      "stateMutability": "view",
      "type": "function"
    },
    {
      "inputs": [],
      "name": "totalRaised",
      "outputs": [
        {
          "internalType": "uint256",
          "name": "",
          "type": "uint256"
        }
      ],
      "stateMutability": "view",
      "type": "function"
    },
    {
      "inputs": [
        {
          "internalType": "address",
          "name": "newOwner",
          "type": "address"
        }
      ],
      "name": "transferOwnership",
      "outputs": [],
      "stateMutability": "nonpayable",
      "type": "function"
    },
    {
      "inputs": [
        {
          "internalType": "address",
          "name": "token_",
          "type": "address"
        }
      ],
      "name": "updateDefaultPaymentToken",
      "outputs": [],
      "stateMutability": "nonpayable",
      "type": "function"
    },
    {
      "inputs": [
        {
          "internalType": "uint256",
          "name": "grandTotal_",
          "type": "uint256"
        }
      ],
      "name": "updateGrandTotal",
      "outputs": [],
      "stateMutability": "nonpayable",
      "type": "function"
    },
    {
      "inputs": [
        {
          "internalType": "string",
          "name": "tagId_",
          "type": "string"
        },
        {
          "components": [
            {
              "internalType": "enum ISharedInternal.Stage",
              "name": "stage",
              "type": "uint8"
            },
            {
              "internalType": "bytes32",
              "name": "merkleRoot",
              "type": "bytes32"
            },
            {
              "internalType": "uint128",
              "name": "startAt",
              "type": "uint128"
            },
            {
              "internalType": "uint128",
              "name": "endAt",
              "type": "uint128"
            },
            {
              "internalType": "uint256",
              "name": "maxTagCap",
              "type": "uint256"
            },
            {
              "internalType": "address",
              "name": "paymentToken",
              "type": "address"
            },
            {
              "internalType": "uint256",
              "name": "projectTokenPrice",
              "type": "uint256"
            }
          ],
          "internalType": "struct ISharedInternal.Tag",
          "name": "tag_",
          "type": "tuple"
        }
      ],
      "name": "updateSetTag",
      "outputs": [],
      "stateMutability": "nonpayable",
      "type": "function"
    },
    {
      "inputs": [
        {
          "internalType": "string[]",
          "name": "tagIdentifiers_",
          "type": "string[]"
        },
        {
          "components": [
            {
              "internalType": "enum ISharedInternal.Stage",
              "name": "stage",
              "type": "uint8"
            },
            {
              "internalType": "bytes32",
              "name": "merkleRoot",
              "type": "bytes32"
            },
            {
              "internalType": "uint128",
              "name": "startAt",
              "type": "uint128"
            },
            {
              "internalType": "uint128",
              "name": "endAt",
              "type": "uint128"
            },
            {
              "internalType": "uint256",
              "name": "maxTagCap",
              "type": "uint256"
            },
            {
              "internalType": "address",
              "name": "paymentToken",
              "type": "address"
            },
            {
              "internalType": "uint256",
              "name": "projectTokenPrice",
              "type": "uint256"
            }
          ],
          "internalType": "struct ISharedInternal.Tag[]",
          "name": "tags_",
          "type": "tuple[]"
        }
      ],
      "name": "updateSetTags",
      "outputs": [],
      "stateMutability": "nonpayable",
      "type": "function"
    },
    {
      "inputs": [
        {
          "internalType": "string",
          "name": "tagId",
          "type": "string"
        },
        {
          "internalType": "uint128",
          "name": "endAt",
          "type": "uint128"
        }
      ],
      "name": "updateTagEndDate",
      "outputs": [],
      "stateMutability": "nonpayable",
      "type": "function"
    },
    {
      "inputs": [
        {
          "internalType": "string",
          "name": "tagId",
          "type": "string"
        },
        {
          "internalType": "uint256",
          "name": "maxTagCap",
          "type": "uint256"
        }
      ],
      "name": "updateTagMaxCap",
      "outputs": [],
      "stateMutability": "nonpayable",
      "type": "function"
    },
    {
      "inputs": [
        {
          "internalType": "string",
          "name": "tagId",
          "type": "string"
        },
        {
          "internalType": "bytes32",
          "name": "merkleRoot",
          "type": "bytes32"
        }
      ],
      "name": "updateTagMerkleRoot",
      "outputs": [],
      "stateMutability": "nonpayable",
      "type": "function"
    },
    {
      "inputs": [
        {
          "internalType": "string",
          "name": "tagId",
          "type": "string"
        },
        {
          "internalType": "uint128",
          "name": "startAt",
          "type": "uint128"
        }
      ],
      "name": "updateTagStartDate",
      "outputs": [],
      "stateMutability": "nonpayable",
      "type": "function"
    },
    {
      "inputs": [
        {
          "internalType": "address",
          "name": "addr",
          "type": "address"
        }
      ],
      "name": "updateTreasuryWallet",
      "outputs": [],
      "stateMutability": "nonpayable",
      "type": "function"
    }
  ],
  "bytecode": {
    "object": "0x60808060405234610074576000805462010000600160b01b0319811633601081811b62010000600160b01b03169290921784559291901c6001600160a01b0316907f8be0079c531659141344cd1fd0a4f28419497f9722a3daafe3b4186f6b6457e09080a360018055613b06908161007a8239f35b600080fdfe6080604052600436101561001257600080fd5b6000803560e01c806302912bd3146122115780630a9254e4146121be5780630fa34ede146121235780631bcaddc2146120db57806333559b72146115495780635625671e146114cd5780635a5fdab714611485578063715018a6146114035780637518d35c146112c55780637eae687e1461111e578063809d458d1461101d578063852c49a714610fda5780638da5cb5b14610fa4578063907d308514610ef257806398e3fdc414610e9e578063a102491214610e0f578063ae00ee1f14610dc8578063c5c4744c14610d8b578063db365f8414610cac578063e09195dc14610c6f578063e6807afd14610ba6578063f1efb93114610ad2578063f2fde38b14610a07578063f86df59b146109a8578063f8ae066214610451578063faf0c581146101c55763ff77d0be1461014657600080fd5b346101c25760206003193601126101c2576004359067ffffffffffffffff82116101c25760206101908161017d36600487016128e9565b8160405193828580945193849201612943565b81017ff8bb2a4b5b30792eb350607495ebe7f79c5a5066287187429654459fae715b2581520301902054604051908152f35b80fd5b50346101c25760406003193601126101c2576101df61277c565b6101e761279f565b906101f0612b80565b73ffffffffffffffffffffffffffffffffffffffff8091169161021483151561324c565b604051927f70a082310000000000000000000000000000000000000000000000000000000084523060048501526020938481602481855afa908115610446578691610415575b5060405193858501937fa9059cbb000000000000000000000000000000000000000000000000000000008552166024850152604484015260448352608083019183831067ffffffffffffffff8411176103e65785809161031c95856040526102c18661281b565b8786527f5361666545524332303a206c6f772d6c6576656c2063616c6c206661696c656460a0820152519082855af13d156103de573d9161030183612878565b9261030f6040519485612837565b83523d878785013e6132b1565b80518281159182156103ba575b5050905015610336575080f35b608490604051907f08c379a00000000000000000000000000000000000000000000000000000000082526004820152602a60248201527f5361666545524332303a204552433230206f7065726174696f6e20646964206e60448201527f6f742073756363656564000000000000000000000000000000000000000000006064820152fd5b83809293500103126103da5781015180151581036103da57808238610329565b8280fd5b6060916132b1565b7f4e487b7100000000000000000000000000000000000000000000000000000000600052604160045260246000fd5b90508481813d831161043f575b61042c8183612837565b8101031261043b57513861025a565b8580fd5b503d610422565b6040513d88823e3d90fd5b50346101c25760e06003193601126101c25761046b61277c565b9061047461279f565b73ffffffffffffffffffffffffffffffffffffffff6044803582811695908690036109a357606490813596848816918289036109a3576084359360a4359567ffffffffffffffff9687811161099f576104d1903690600401612a29565b9660c43590811161099f576104ea903690600401612aaa565b978a549960ff8b60081c16159a8b809c610992575b801561097b575b156108f85760ff1981166001178d558b6108ca575b50610524612b80565b8185161561086d571694851561081157841561078e571561070c5785156106b1575050916106569697989161055b61062f94612c02565b7fffffffffffffffffffffffff0000000000000000000000000000000000000000917ff8bb2a4b5b30792eb350607495ebe7f79c5a5066287187429654459fae715b1c90838254161790557ff8bb2a4b5b30792eb350607495ebe7f79c5a5066287187429654459fae715b1d9182541617905573ffffffffffffffffffffffffffffffffffffffff7ff8bb2a4b5b30792eb350607495ebe7f79c5a5066287187429654459fae715b1e91167fffffffffffffffffffffffff0000000000000000000000000000000000000000825416179055565b7ff8bb2a4b5b30792eb350607495ebe7f79c5a5066287187429654459fae715b1f5561348b565b61065d5780f35b7fffffffffffffffffffffffffffffffffffffffffffffffffffffffffffff00ff81541681557f7f26b83ff96e1f2b6a682f133852f6798a09c465da95921460cefb3847402498602060405160018152a180f35b7f49474f5772697461626c655f5f6772616e64546f74616c5f5a45524f00000000604051917f08c379a000000000000000000000000000000000000000000000000000000000835260206004840152601c6024840152820152fd5b7f5f414444524553530000000000000000000000000000000000000000000000006084927f49474f5772697461626c655f5f747265617375727957616c6c65745f5a45524f604051937f08c379a00000000000000000000000000000000000000000000000000000000085526020600486015260286024860152840152820152fd5b507f53000000000000000000000000000000000000000000000000000000000000006084927f49474f5772697461626c655f5f7065726d6974325f5a45524f5f414444524553604051937f08c379a00000000000000000000000000000000000000000000000000000000085526020600486015260216024860152840152820152fd5b507f49474f5772697461626c655f5f746f6b656e5f5a45524f5f4144445245535300604051917f08c379a000000000000000000000000000000000000000000000000000000000835260206004840152601f6024840152820152fd5b50507f49474f5772697461626c655f5f6f776e65725f5a45524f5f4144445245535300604051917f08c379a000000000000000000000000000000000000000000000000000000000835260206004840152601f6024840152820152fd5b7fffffffffffffffffffffffffffffffffffffffffffffffffffffffffffff000016610101178c553861051b565b6084847f647920696e697469616c697a6564000000000000000000000000000000000000877f496e697469616c697a61626c653a20636f6e747261637420697320616c726561604051937f08c379a000000000000000000000000000000000000000000000000000000000855260206004860152602e6024860152840152820152fd5b50303b1580156105065750600160ff821614610506565b50600160ff8216106104ff565b8a80fd5b600080fd5b50346101c25760406003193601126101c25767ffffffffffffffff6004358181116103da576109db903690600401612a29565b6024359182116103da576109f6610a04923690600401612aaa565b906109ff612b80565b61348b565b80f35b50346101c25760206003193601126101c257610a2161277c565b610a29612b80565b73ffffffffffffffffffffffffffffffffffffffff811615610a4e57610a0490612c02565b60846040517f08c379a000000000000000000000000000000000000000000000000000000000815260206004820152602660248201527f4f776e61626c653a206e6577206f776e657220697320746865207a65726f206160448201527f64647265737300000000000000000000000000000000000000000000000000006064820152fd5b50346101c25760206003193601126101c257600435610aef612b80565b6103e88110610b4857610b23817ff8bb2a4b5b30792eb350607495ebe7f79c5a5066287187429654459fae715b2054613a8b565b7ff8bb2a4b5b30792eb350607495ebe7f79c5a5066287187429654459fae715b1f5580f35b60646040517f08c379a000000000000000000000000000000000000000000000000000000000815260206004820152601b60248201527f6772616e64546f74616c5f4c6f7765725468616e5f5f315f30303000000000006044820152fd5b50346101c2576fffffffffffffffffffffffffffffffff610bc6366129c6565b610bd1929192612b80565b1690428210610c1157610be5600291612d16565b01907fffffffffffffffffffffffffffffffff0000000000000000000000000000000082541617905580f35b60646040517f08c379a000000000000000000000000000000000000000000000000000000000815260206004820152600d60248201527f53544152545f494e5f50415354000000000000000000000000000000000000006044820152fd5b50346101c257806003193601126101c25760207ff8bb2a4b5b30792eb350607495ebe7f79c5a5066287187429654459fae715b2054604051908152f35b50346101c257610cbb366129c6565b610cc3612b80565b426fffffffffffffffffffffffffffffffff82161115610d2d576002610ceb610a0493612d16565b01906fffffffffffffffffffffffffffffffff7fffffffffffffffffffffffffffffffff0000000000000000000000000000000083549260801b169116179055565b60646040517f08c379a000000000000000000000000000000000000000000000000000000000815260206004820152600b60248201527f454e445f494e5f504153540000000000000000000000000000000000000000006044820152fd5b50346101c257806003193601126101c25760207ff8bb2a4b5b30792eb350607495ebe7f79c5a5066287187429654459fae715b2454604051908152f35b50346101c257806003193601126101c257602060ff7ff8bb2a4b5b30792eb350607495ebe7f79c5a5066287187429654459fae715b235416610e0d6040518092612907565bf35b50346101c25760206003193601126101c25773ffffffffffffffffffffffffffffffffffffffff610e3e61277c565b610e46612b80565b16610e5281151561324c565b7ff8bb2a4b5b30792eb350607495ebe7f79c5a5066287187429654459fae715b1c907fffffffffffffffffffffffff000000000000000000000000000000000000000082541617905580f35b50346101c25760206003193601126101c25760043567ffffffffffffffff8111610eee57610ed3610ee09136906004016128e9565b610edb612b80565b612d16565b600360ff1982541617905580f35b5080fd5b50346101c25760406003193601126101c25760043567ffffffffffffffff8111610eee57610f249036906004016128e9565b60243590610f30612b80565b8115610f4657610f41600191612d16565b015580f35b60646040517f08c379a000000000000000000000000000000000000000000000000000000000815260206004820152601060248201527f4d65726b6c65526f6f745f454d505459000000000000000000000000000000006044820152fd5b50346101c257806003193601126101c25773ffffffffffffffffffffffffffffffffffffffff6020915460101c16604051908152f35b50346101c25760206003193601126101c25760043567ffffffffffffffff8111610eee57610ed361100f9136906004016128e9565b600160ff1982541617905580f35b50346101c25760206003193601126101c25761103761277c565b61103f612b80565b73ffffffffffffffffffffffffffffffffffffffff8116156110c057610a049073ffffffffffffffffffffffffffffffffffffffff7ff8bb2a4b5b30792eb350607495ebe7f79c5a5066287187429654459fae715b1e91167fffffffffffffffffffffffff0000000000000000000000000000000000000000825416179055565b60646040517f08c379a000000000000000000000000000000000000000000000000000000000815260206004820152601b60248201527f547265617375727957616c6c65745f5a45524f5f4144445245535300000000006044820152fd5b50346101c257806003193601126101c2577ff8bb2a4b5b30792eb350607495ebe7f79c5a5066287187429654459fae715b219081549161115d83612a11565b9161116b6040519384612837565b83835260209384840190819383527f6fb13110a1c1a9ede6e6ea609efd6e6179fc9f1e56a50856c4379cfccb9552159183905b8282106112215750505050604051928484019085855251809152604084019460408260051b8601019392955b8287106111d75785850386f35b909192938280611211837fffffffffffffffffffffffffffffffffffffffffffffffffffffffffffffffc08a600196030186528851612966565b96019201960195929190926111ca565b6040979694975187899286549261123784612e8e565b8082526001948086169081156112a95750600114611271575b5061125f816001960382612837565b8152019401910190929693959661119e565b888d52838d2095508c905b808210611292575081018301945061125f611250565b8654838301860152958501958c949091019061127c565b60ff19168584015250151560051b81018301945061125f611250565b50346101c25760206003193601126101c25760043567ffffffffffffffff8111610eee576112fa6113089136906004016128e9565b611302612e56565b50612d16565b604051611314816127e3565b60ff8254169160048310156113d65760e0935082825260018101549060208301918252600281015460408401906fffffffffffffffffffffffffffffffff908181168352606086019060801c8152816003850154936080880194855273ffffffffffffffffffffffffffffffffffffffff9660c060058960048a0154169860a08c01998a52015499019889526113ad604051809b612907565b5160208a01525116604088015251166060860152516080850152511660a08301525160c0820152f35b6024847f4e487b710000000000000000000000000000000000000000000000000000000081526021600452fd5b50346101c257806003193601126101c25761141c612b80565b600073ffffffffffffffffffffffffffffffffffffffff81547fffffffffffffffffffff0000000000000000000000000000000000000000ffff8116835560101c167f8be0079c531659141344cd1fd0a4f28419497f9722a3daafe3b4186f6b6457e08280a380f35b50346101c257806003193601126101c25761149e612b80565b7ff8bb2a4b5b30792eb350607495ebe7f79c5a5066287187429654459fae715b23600160ff1982541617905580f35b50346101c25760406003193601126101c25760043567ffffffffffffffff8111610eee576114ff9036906004016128e9565b6003610f4160243592611510612b80565b610edb61151b612d5b565b60606115408761153b60808501518961153389612d16565b01549061300a565b612fb5565b91015190613a8b565b50346101c257600319608081360112610eee5767ffffffffffffffff60243511610eee5760608160243536030112610eee5767ffffffffffffffff60443511610eee57366023604435011215610eee5767ffffffffffffffff6044356004013511610eee573660246044356004013560051b604435010111610eee5767ffffffffffffffff60643511610eee57606090606435360301126101c25760026001541461207d57600260015561160260046024350180612ee1565b61160c8183612c8d565b906040519161161a836127e3565b60ff8154166004811015612050579060059184526001810154602085015260028101546fffffffffffffffffffffffffffffffff8116604086015260801c60608501526003810154608085015273ffffffffffffffffffffffffffffffffffffffff60048201541660a0850152015460c0830152611696612d5b565b9260808301519360608101519261170e6117056116fe6116b96024803501612f55565b73ffffffffffffffffffffffffffffffffffffffff166000527ff8bb2a4b5b30792eb350607495ebe7f79c5a5066287187429654459fae715b26602052604060002090565b8386612cfd565b54600435612fb5565b60446024350135811161200557506117296024803501612f55565b73ffffffffffffffffffffffffffffffffffffffff33911603611fa7576117737ff8bb2a4b5b30792eb350607495ebe7f79c5a5066287187429654459fae715b2454600435612fb5565b848111611f67575060ff7ff8bb2a4b5b30792eb350607495ebe7f79c5a5066287187429654459fae715b2354166004811015611f3a5760018103611f0157506117d36117ce6117c760046024350180612ee1565b36916128b2565b613017565b6117e06117058285612cc5565b868111611ea8575060016118026117fc60046024350180612ee1565b90612c8d565b015495604051602080820152602435600401357fffffffffffffffffffffffffffffffffffffffffffffffffffffffffffffffdd602435360301811215611ea4576024350167ffffffffffffffff600482013511611ea457600481013536036024820113611ea4578161188c6118ec926060604084015260a0830190602460048201359101612f76565b73ffffffffffffffffffffffffffffffffffffffff6118ae60248035016127c2565b166060830152604460243501356080830152037fffffffffffffffffffffffffffffffffffffffffffffffffffffffffffffffe08101835282612837565b602081519101209461190360443560040135612a11565b956119116040519788612837565b60443560048101358852602401602088015b60246044356004013560051b60443501018210611e945750509689975b8751891015611988576119538989613209565b519081811015611976578b5260205261197060408b205b986131dc565b97611940565b908b5260205261197060408b2061196a565b8a97508903611e365773ffffffffffffffffffffffffffffffffffffffff9260a092611a71611a6a6119bd6024803501612f55565b6119ea6004357ff8bb2a4b5b30792eb350607495ebe7f79c5a5066287187429654459fae715b2454612fb5565b7ff8bb2a4b5b30792eb350607495ebe7f79c5a5066287187429654459fae715b2455611a16898c612cc5565b611a236004358254612fb5565b905573ffffffffffffffffffffffffffffffffffffffff166000527ff8bb2a4b5b30792eb350607495ebe7f79c5a5066287187429654459fae715b26602052604060002090565b878a612cfd565b611a7e6004358254612fb5565b90557ff8bb2a4b5b30792eb350607495ebe7f79c5a5066287187429654459fae715b245414611de6575b611ab28588612cc5565b5414611dc8575b6002611ac58588612c8d565b015460801c421015611daa575b0151168015611d8b57915b8473ffffffffffffffffffffffffffffffffffffffff602083015116816020604051611b088161281b565b82815201528160408051611b1b816127ff565b8151611b268161281b565b83815283602082015281528260208201520152816020604051611b488161281b565b828152015260405190611b5a8261281b565b73ffffffffffffffffffffffffffffffffffffffff86168252600435602083015260405191611b88836127ff565b8252602082019160446064350135835273ffffffffffffffffffffffffffffffffffffffff6040808301966024606435013588520151169060405191611bcd8361281b565b82526004356020830152611be660643560040180612ee1565b919092843b15611d8757611c55938793611c89611ca2936040519b8c9a8b998a987f30f28b7a000000000000000000000000000000000000000000000000000000008a5260048a0190516020809173ffffffffffffffffffffffffffffffffffffffff81511684520151910152565b516044880152516064870152805173ffffffffffffffffffffffffffffffffffffffff1660848701526020015160a4860152565b3360c485015261010060e4850152610104840191612f76565b03925af18015611d7c57611d33575b50611cbf6024803501612f55565b92816040519283928337810185815203902073ffffffffffffffffffffffffffffffffffffffff604051921682527f24b17f7cc1c323d081ca24ebe682df530605d2207ecdde5a86c1d0bb44a88a6d602073ffffffffffffffffffffffffffffffffffffffff600435951693a46001805580f35b67ffffffffffffffff8195929511611d4f576040529284611cb1565b6024827f4e487b710000000000000000000000000000000000000000000000000000000081526041600452fd5b6040513d87823e3d90fd5b8680fd5b5073ffffffffffffffffffffffffffffffffffffffff82511691611add565b611db8610edb3686896128b2565b600260ff19825416179055611ad2565b611dd6610edb3686896128b2565b600260ff19825416179055611ab9565b600260ff197ff8bb2a4b5b30792eb350607495ebe7f79c5a5066287187429654459fae715b235416177ff8bb2a4b5b30792eb350607495ebe7f79c5a5066287187429654459fae715b2355611aa8565b60646040517f08c379a000000000000000000000000000000000000000000000000000000000815260206004820152601460248201527f414c4c4f434154494f4e5f4e4f545f464f554e440000000000000000000000006044820152fd5b8135815260209182019101611923565b8980fd5b9086611eb581869461300a565b611ef26040519485947f2877ff9e000000000000000000000000000000000000000000000000000000008652606060048701526064860191612f76565b91602484015260448301520390fd5b602490611f38604051917fb293db190000000000000000000000000000000000000000000000000000000083526004830190612907565bfd5b6024887f4e487b710000000000000000000000000000000000000000000000000000000081526021600452fd5b84611f748160449361300a565b604051917fcced311a00000000000000000000000000000000000000000000000000000000835260048301526024820152fd5b60646040517f08c379a000000000000000000000000000000000000000000000000000000000815260206004820152601a60248201527f6d73672e73656e6465723a204e4f545f415554484f52495a45440000000000006044820152fd5b6120176044918260243501359061300a565b604051907fadaa553200000000000000000000000000000000000000000000000000000000825282602435013560048301526024820152fd5b6024867f4e487b710000000000000000000000000000000000000000000000000000000081526021600452fd5b60646040517f08c379a000000000000000000000000000000000000000000000000000000000815260206004820152601f60248201527f5265656e7472616e637947756172643a207265656e7472616e742063616c6c006044820152fd5b50346101c257806003193601126101c2576120f4612b80565b7ff8bb2a4b5b30792eb350607495ebe7f79c5a5066287187429654459fae715b23600360ff1982541617905580f35b50346101c25760406003193601126101c25761213d61277c565b906024359067ffffffffffffffff82116101c25760206121b5846121af612167366004880161274e565b91909273ffffffffffffffffffffffffffffffffffffffff166000527ff8bb2a4b5b30792eb350607495ebe7f79c5a5066287187429654459fae715b26602052604060002090565b91612cfd565b54604051908152f35b50346101c257806003193601126101c25760606121d9612d5b565b73ffffffffffffffffffffffffffffffffffffffff908282825116926040830151169101519060405192835260208301526040820152f35b50346101c2576101006003193601126101c25760043567ffffffffffffffff8111610eee5761224490369060040161274e565b60e07fffffffffffffffffffffffffffffffffffffffffffffffffffffffffffffffdc3601126103da57612276612b80565b60405190612283826127e3565b6004602435101561274a5760243582526044356020830152606435916fffffffffffffffffffffffffffffffff83168303612746578260408201526fffffffffffffffffffffffffffffffff608435166084350361274657608435606082015260a435608082015260c43573ffffffffffffffffffffffffffffffffffffffff8116810361043b57816123259160a061232a94015260e43560c0820152613979565b61337d565b6123348184612c8d565b92604051612341816127e3565b60ff8554166004811015612719579061243361242c8360809484526001890154602085015260028901546fffffffffffffffffffffffffffffffff81166040860152851c606085015260038901548585015261241b600573ffffffffffffffffffffffffffffffffffffffff60048c0154169a8b60a08801520154998a60c08701527ff8bb2a4b5b30792eb350607495ebe7f79c5a5066287187429654459fae715b1f549a7ff8bb2a4b5b30792eb350607495ebe7f79c5a5066287187429654459fae715b20549360e43592612415612f32565b916139e2565b61153b60a43591868601519061300a565b9687613a8b565b01511561251d575b61249f9161244891612c8d565b9161245560243584612ff1565b60443560018401556fffffffffffffffffffffffffffffffff167fffffffffffffffffffffffffffffffff0000000000000000000000000000000060843560801b16176002830155565b60a43560038201556004810173ffffffffffffffffffffffffffffffffffffffff6124c8612f32565b167fffffffffffffffffffffffff0000000000000000000000000000000000000000825416179055600560e4359101557ff8bb2a4b5b30792eb350607495ebe7f79c5a5066287187429654459fae715b205580f35b7ff8bb2a4b5b30792eb350607495ebe7f79c5a5066287187429654459fae715b21805490680100000000000000008210156126ec57600182019055612561906133e2565b6126c05767ffffffffffffffff831161269357612588836125828354612e8e565b83613437565b85601f84116001146125ec5791839161249f946124489489916125e1575b508360011b907fffffffffffffffffffffffffffffffffffffffffffffffffffffffffffffffff8560031b1c19161790555b9150915061243b565b9050820135386125a6565b81875260208720907fffffffffffffffffffffffffffffffffffffffffffffffffffffffffffffffe08516885b81811061267b57509185939161249f96612448969410612643575b5050600183811b0190556125d8565b7fffffffffffffffffffffffffffffffffffffffffffffffffffffffffffffffff60f88660031b161c19908401351690553880612634565b91926020600181928689013581550194019201612619565b6024867f4e487b710000000000000000000000000000000000000000000000000000000081526041600452fd5b6024867f4e487b7100000000000000000000000000000000000000000000000000000000815280600452fd5b6024877f4e487b710000000000000000000000000000000000000000000000000000000081526041600452fd5b6024877f4e487b710000000000000000000000000000000000000000000000000000000081526021600452fd5b8480fd5b8380fd5b9181601f840112156109a35782359167ffffffffffffffff83116109a357602083818601950101116109a357565b6004359073ffffffffffffffffffffffffffffffffffffffff821682036109a357565b6024359073ffffffffffffffffffffffffffffffffffffffff821682036109a357565b359073ffffffffffffffffffffffffffffffffffffffff821682036109a357565b60e0810190811067ffffffffffffffff8211176103e657604052565b6060810190811067ffffffffffffffff8211176103e657604052565b6040810190811067ffffffffffffffff8211176103e657604052565b90601f7fffffffffffffffffffffffffffffffffffffffffffffffffffffffffffffffe0910116810190811067ffffffffffffffff8211176103e657604052565b67ffffffffffffffff81116103e657601f017fffffffffffffffffffffffffffffffffffffffffffffffffffffffffffffffe01660200190565b9291926128be82612878565b916128cc6040519384612837565b8294818452818301116109a3578281602093846000960137010152565b9080601f830112156109a357816020612904933591016128b2565b90565b9060048210156129145752565b7f4e487b7100000000000000000000000000000000000000000000000000000000600052602160045260246000fd5b60005b8381106129565750506000910152565b8181015183820152602001612946565b907fffffffffffffffffffffffffffffffffffffffffffffffffffffffffffffffe0601f6020936129a281518092818752878088019101612943565b0116010190565b35906fffffffffffffffffffffffffffffffff821682036109a357565b60406003198201126109a3576004359067ffffffffffffffff82116109a3576129f1916004016128e9565b906024356fffffffffffffffffffffffffffffffff811681036109a35790565b67ffffffffffffffff81116103e65760051b60200190565b9080601f830112156109a357813590612a4182612a11565b92612a4f6040519485612837565b828452602092838086019160051b830101928084116109a357848301915b848310612a7d5750505050505090565b823567ffffffffffffffff81116109a3578691612a9f848480948901016128e9565b815201920191612a6d565b81601f820112156109a357803590612ac182612a11565b92604090612ad182519586612837565b838552602091828601918360e0809702860101948186116109a3578401925b858410612b01575050505050505090565b86848303126109a357825190612b16826127e3565b84359060048210156109a3578287928a94528287013583820152612b3b8688016129a9565b868201526060612b4c8189016129a9565b908201526080808801359082015260a0612b678189016127c2565b9082015260c08088013590820152815201930192612af0565b73ffffffffffffffffffffffffffffffffffffffff60005460101c163303612ba457565b60646040517f08c379a000000000000000000000000000000000000000000000000000000000815260206004820152602060248201527f4f776e61626c653a2063616c6c6572206973206e6f7420746865206f776e65726044820152fd5b6000549075ffffffffffffffffffffffffffffffffffffffff00008160101b167fffffffffffffffffffff0000000000000000000000000000000000000000ffff83161760005573ffffffffffffffffffffffffffffffffffffffff8091169160101c167f8be0079c531659141344cd1fd0a4f28419497f9722a3daafe3b4186f6b6457e0600080a3565b60209082604051938492833781017ff8bb2a4b5b30792eb350607495ebe7f79c5a5066287187429654459fae715b2281520301902090565b60209082604051938492833781017ff8bb2a4b5b30792eb350607495ebe7f79c5a5066287187429654459fae715b2581520301902090565b6020919283604051948593843782019081520301902090565b6020612d2f918160405193828580945193849201612943565b81017ff8bb2a4b5b30792eb350607495ebe7f79c5a5066287187429654459fae715b2281520301902090565b6040519060a0820182811067ffffffffffffffff8211176103e6576040528173ffffffffffffffffffffffffffffffffffffffff807ff8bb2a4b5b30792eb350607495ebe7f79c5a5066287187429654459fae715b1c54168252807ff8bb2a4b5b30792eb350607495ebe7f79c5a5066287187429654459fae715b1d541660208301527ff8bb2a4b5b30792eb350607495ebe7f79c5a5066287187429654459fae715b1e541660408201527ff8bb2a4b5b30792eb350607495ebe7f79c5a5066287187429654459fae715b1f54606082015260807ff8bb2a4b5b30792eb350607495ebe7f79c5a5066287187429654459fae715b2054910152565b60405190612e63826127e3565b8160c06000918281528260208201528260408201528260608201528260808201528260a08201520152565b90600182811c92168015612ed7575b6020831014612ea857565b7f4e487b7100000000000000000000000000000000000000000000000000000000600052602260045260246000fd5b91607f1691612e9d565b9035907fffffffffffffffffffffffffffffffffffffffffffffffffffffffffffffffe1813603018212156109a3570180359067ffffffffffffffff82116109a3576020019181360383136109a357565b60c43573ffffffffffffffffffffffffffffffffffffffff811681036109a35790565b3573ffffffffffffffffffffffffffffffffffffffff811681036109a35790565b601f82602094937fffffffffffffffffffffffffffffffffffffffffffffffffffffffffffffffe0938186528686013760008582860101520116010190565b91908201809211612fc257565b7f4e487b7100000000000000000000000000000000000000000000000000000000600052601160045260246000fd5b9060048110156129145760ff60ff198354169116179055565b91908203918211612fc257565b61302081612d16565b60405161302c816127e3565b60ff825416600492838210156131ae578183526001810154602084015260028101549160056fffffffffffffffffffffffffffffffff84169384604087015260801c928360608701526003810154608087015273ffffffffffffffffffffffffffffffffffffffff878201541660a0870152015460c08501521591826131a3575b5081613199575b5061318157805182811015613153576001036130cf57505050565b51818110156131255761312161311660409485519586957f5f08440f0000000000000000000000000000000000000000000000000000000087528601526044850190612966565b916024840190612907565b0390fd5b6021827f4e487b71000000000000000000000000000000000000000000000000000000006000525260246000fd5b6021837f4e487b71000000000000000000000000000000000000000000000000000000006000525260246000fd5b505061318c90612d16565b600160ff19825416179055565b90504210386130b4565b4210159150386130ad565b6021847f4e487b71000000000000000000000000000000000000000000000000000000006000525260246000fd5b7fffffffffffffffffffffffffffffffffffffffffffffffffffffffffffffffff8114612fc25760010190565b805182101561321d5760209160051b010190565b7f4e487b7100000000000000000000000000000000000000000000000000000000600052603260045260246000fd5b1561325357565b60646040517f08c379a000000000000000000000000000000000000000000000000000000000815260206004820152601260248201527f546f6b656e5f5a45524f5f4144445245535300000000000000000000000000006044820152fd5b9192901561332c57508151156132c5575090565b3b156132ce5790565b60646040517f08c379a000000000000000000000000000000000000000000000000000000000815260206004820152601d60248201527f416464726573733a2063616c6c20746f206e6f6e2d636f6e74726163740000006044820152fd5b82519091501561333f5750805190602001fd5b613121906040519182917f08c379a0000000000000000000000000000000000000000000000000000000008352602060048401526024830190612966565b1561338457565b60646040517f08c379a000000000000000000000000000000000000000000000000000000000815260206004820152600b60248201527f494e56414c49445f5441470000000000000000000000000000000000000000006044820152fd5b7ff8bb2a4b5b30792eb350607495ebe7f79c5a5066287187429654459fae715b21805482101561321d576000527f6fb13110a1c1a9ede6e6ea609efd6e6179fc9f1e56a50856c4379cfccb9552150190600090565b90601f811161344557505050565b600091825260208220906020601f850160051c83019410613481575b601f0160051c01915b82811061347657505050565b81815560010161346a565b9092508290613461565b805182510361391b5780517ff8bb2a4b5b30792eb350607495ebe7f79c5a5066287187429654459fae715b1f54927ff8bb2a4b5b30792eb350607495ebe7f79c5a5066287187429654459fae715b2054936134e4612e56565b5060005b8381106135185750505050507ff8bb2a4b5b30792eb350607495ebe7f79c5a5066287187429654459fae715b2055565b61352b6135258287613209565b51612d16565b9560405196613539886127e3565b60ff815416906004821015612914576005918952600181015460208a015260028101546fffffffffffffffffffffffffffffffff811660408b015260801c60608a0152600381015460808a015273ffffffffffffffffffffffffffffffffffffffff60048201541660a08a0152015460c08801526135c36123256135bd8487613209565b51613979565b86519060048210156129145761364161365591613637608094888c73ffffffffffffffffffffffffffffffffffffffff60a08201511660c061362e8b8273ffffffffffffffffffffffffffffffffffffffff60a0613621848a613209565b5101511695015195613209565b510151936139e2565b838a01519061300a565b8261364c8588613209565b51015190612fb5565b966136608489613a8b565b015115613752575b6136728184613209565b51906136816135258288613209565b82519260048410156129145760c060059161369f61374d9685612ff1565b602081015160018501556040810151606082015160801b7fffffffffffffffffffffffffffffffff00000000000000000000000000000000166fffffffffffffffffffffffffffffffff91909116176002850155608081015160038501556004840173ffffffffffffffffffffffffffffffffffffffff60a0830151167fffffffffffffffffffffffff000000000000000000000000000000000000000082541617905501519101556131dc565b6134e8565b61375c8186613209565b517ff8bb2a4b5b30792eb350607495ebe7f79c5a5066287187429654459fae715b218054680100000000000000008110156103e6576137a0916001820190556133e2565b9190916138ec5780519067ffffffffffffffff82116103e65781906137cf826137c98654612e8e565b86613437565b602090601f83116001146138265760009261381b575b50507fffffffffffffffffffffffffffffffffffffffffffffffffffffffffffffffff8260011b9260031b1c1916179055613668565b0151905038806137e5565b9250836000526020600020906000935b7fffffffffffffffffffffffffffffffffffffffffffffffffffffffffffffffe0841685106138d15760019450837fffffffffffffffffffffffffffffffffffffffffffffffffffffffffffffffe081161061389a575b505050811b019055613668565b01517fffffffffffffffffffffffffffffffffffffffffffffffffffffffffffffffff60f88460031b161c1916905538808061388d565b81810151835560209485019460019093019290910190613836565b7f4e487b7100000000000000000000000000000000000000000000000000000000600052600060045260246000fd5b60646040517f08c379a000000000000000000000000000000000000000000000000000000000815260206004820152601f60248201527f49474f5772697461626c653a207461677320617272617973206c656e677468006044820152fd5b6020810151151590816139c1575b816139a1575b81613996575090565b608091500151151590565b60608101516fffffffffffffffffffffffffffffffff164210915061398d565b60408101516fffffffffffffffffffffffffffffffff164211159150613987565b939293919091600481101561291457613a2a575050905015613a0057565b60046040517f93c16572000000000000000000000000000000000000000000000000000000008152fd5b73ffffffffffffffffffffffffffffffffffffffff80911691161491821592613a80575b5050613a5657565b60046040517ff85d06f8000000000000000000000000000000000000000000000000000000008152fd5b141590503880613a4e565b818111613a96575050565b602491613aa29161300a565b604051907f2e2a58540000000000000000000000000000000000000000000000000000000082526004820152fdfea26469706673582212208ed1ee97a2881f3d15e32c0f64674beff012f80a20c1e8de7e6c9aafe49d770364736f6c63430008110033",
    "linkReferences": {}
  },
  "methodIdentifiers": {
    "boughtByIn(address,string)": "0fa34ede",
    "igoStage()": "ae00ee1f",
    "initialize(address,address,address,address,uint256,string[],(uint8,bytes32,uint128,uint128,uint256,address,uint256)[])": "f8ae0662",
    "openIGO()": "5a5fdab7",
    "openTag(string)": "852c49a7",
    "owner()": "8da5cb5b",
    "pauseIGO()": "1bcaddc2",
    "pauseTag(string)": "98e3fdc4",
    "raisedInTag(string)": "ff77d0be",
    "recoverLostERC20(address,address)": "faf0c581",
    "renounceOwnership()": "715018a6",
    "reserveAllocation(uint256,(string,address,uint256),bytes32[],(bytes,uint256,uint256))": "33559b72",
    "setUp()": "0a9254e4",
    "summedMaxTagCap()": "e09195dc",
    "tag(string)": "7518d35c",
    "tagIds()": "7eae687e",
    "totalRaised()": "c5c4744c",
    "transferOwnership(address)": "f2fde38b",
    "updateDefaultPaymentToken(address)": "a1024912",
    "updateGrandTotal(uint256)": "f1efb931",
    "updateSetTag(string,(uint8,bytes32,uint128,uint128,uint256,address,uint256))": "02912bd3",
    "updateSetTags(string[],(uint8,bytes32,uint128,uint128,uint256,address,uint256)[])": "f86df59b",
    "updateTagEndDate(string,uint128)": "db365f84",
    "updateTagMaxCap(string,uint256)": "5625671e",
    "updateTagMerkleRoot(string,bytes32)": "907d3085",
    "updateTagStartDate(string,uint128)": "e6807afd",
    "updateTreasuryWallet(address)": "809d458d"
  },
  "id": 48
}