{
  "abi": [
    {
      "inputs": [
        {
          "internalType": "enum ISharedInternal.Stage",
          "name": "current",
          "type": "uint8"
        }
      ],
      "name": "IGOWritableInternal_IGONotOpened",
      "type": "error"
    },
    {
      "inputs": [
        {
          "internalType": "string",
          "name": "tagId",
          "type": "string"
        },
        {
          "internalType": "enum ISharedInternal.Stage",
          "name": "current",
          "type": "uint8"
        }
      ],
      "name": "IGOWritableInternal_TagNotOpened",
      "type": "error"
    },
    {
      "inputs": [
        {
          "internalType": "uint256",
          "name": "allocation",
          "type": "uint256"
        },
        {
          "internalType": "uint256",
          "name": "exceedsBy",
          "type": "uint256"
        }
      ],
      "name": "IGOWritable_AllocationExceeded",
      "type": "error"
    },
    {
      "inputs": [
        {
          "internalType": "uint256",
          "name": "grandTotal",
          "type": "uint256"
        },
        {
          "internalType": "uint256",
          "name": "exceedsBy",
          "type": "uint256"
        }
      ],
      "name": "IGOWritable_GrandTotalExceeded",
      "type": "error"
    },
    {
      "inputs": [
        {
          "internalType": "string",
          "name": "tagId",
          "type": "string"
        },
        {
          "internalType": "uint256",
          "name": "maxTagCap",
          "type": "uint256"
        },
        {
          "internalType": "uint256",
          "name": "exceedsBy",
          "type": "uint256"
        }
      ],
      "name": "IGOWritable_MaxTagCapExceeded",
      "type": "error"
    },
    {
      "inputs": [],
      "name": "IGOWritable_NoPaymentTokenOrPriceUpdate",
      "type": "error"
    },
    {
      "inputs": [],
      "name": "IGOWritable_ProjectTokenPrice_ZERO",
      "type": "error"
    },
    {
      "inputs": [
        {
          "internalType": "uint256",
          "name": "greaterBy",
          "type": "uint256"
        }
      ],
      "name": "IGOWritable_SummedMaxTagCapGtGrandTotal",
      "type": "error"
    },
    {
      "anonymous": false,
      "inputs": [
        {
          "indexed": true,
          "internalType": "string",
          "name": "tagId",
          "type": "string"
        },
        {
          "indexed": true,
          "internalType": "address",
          "name": "buyer",
          "type": "address"
        },
        {
          "indexed": true,
          "internalType": "uint256",
          "name": "paymentTokenAmount",
          "type": "uint256"
        },
        {
          "indexed": false,
          "internalType": "address",
          "name": "paymentToken",
          "type": "address"
        }
      ],
      "name": "AllocationReserved",
      "type": "event"
    },
    {
      "anonymous": false,
      "inputs": [
        {
          "indexed": false,
          "internalType": "uint8",
          "name": "version",
          "type": "uint8"
        }
      ],
      "name": "Initialized",
      "type": "event"
    },
    {
      "anonymous": false,
      "inputs": [
        {
          "indexed": true,
          "internalType": "address",
          "name": "previousOwner",
          "type": "address"
        },
        {
          "indexed": true,
          "internalType": "address",
          "name": "newOwner",
          "type": "address"
        }
      ],
      "name": "OwnershipTransferred",
      "type": "event"
    },
    {
      "inputs": [
        {
          "internalType": "address",
          "name": "account",
          "type": "address"
        },
        {
          "internalType": "string",
          "name": "tagId",
          "type": "string"
        }
      ],
      "name": "boughtByIn",
      "outputs": [
        {
          "internalType": "uint256",
          "name": "",
          "type": "uint256"
        }
      ],
      "stateMutability": "view",
      "type": "function"
    },
    {
      "inputs": [],
      "name": "igoStage",
      "outputs": [
        {
          "internalType": "enum ISharedInternal.Stage",
          "name": "",
          "type": "uint8"
        }
      ],
      "stateMutability": "view",
      "type": "function"
    },
    {
      "inputs": [
        {
          "internalType": "address",
          "name": "owner",
          "type": "address"
        },
        {
          "components": [
            {
              "internalType": "address",
              "name": "vestingContract",
              "type": "address"
            },
            {
              "internalType": "address",
              "name": "paymentToken",
              "type": "address"
            },
            {
              "internalType": "address",
              "name": "permit2",
              "type": "address"
            },
            {
              "internalType": "uint256",
              "name": "grandTotal",
              "type": "uint256"
            },
            {
              "internalType": "uint256",
              "name": "summedMaxTagCap",
              "type": "uint256"
            },
            {
              "internalType": "uint256",
              "name": "refundFeeDecimals",
              "type": "uint256"
            }
          ],
          "internalType": "struct IGOStorage.SetUp",
          "name": "setUp",
          "type": "tuple"
        },
        {
          "internalType": "string[]",
          "name": "tagIds_",
          "type": "string[]"
        },
        {
          "components": [
            {
              "internalType": "enum ISharedInternal.Stage",
              "name": "stage",
              "type": "uint8"
            },
            {
              "internalType": "bytes32",
              "name": "merkleRoot",
              "type": "bytes32"
            },
            {
              "internalType": "uint128",
              "name": "startAt",
              "type": "uint128"
            },
            {
              "internalType": "uint128",
              "name": "endAt",
              "type": "uint128"
            },
            {
              "internalType": "uint256",
              "name": "maxTagCap",
              "type": "uint256"
            },
            {
              "internalType": "address",
              "name": "paymentToken",
              "type": "address"
            },
            {
              "internalType": "uint256",
              "name": "projectTokenPrice",
              "type": "uint256"
            }
          ],
          "internalType": "struct ISharedInternal.Tag[]",
          "name": "tags",
          "type": "tuple[]"
        }
      ],
      "name": "initialize",
      "outputs": [],
      "stateMutability": "nonpayable",
      "type": "function"
    },
    {
      "inputs": [],
      "name": "openIGO",
      "outputs": [],
      "stateMutability": "nonpayable",
      "type": "function"
    },
    {
      "inputs": [
        {
          "internalType": "string",
          "name": "tagId",
          "type": "string"
        }
      ],
      "name": "openTag",
      "outputs": [],
      "stateMutability": "nonpayable",
      "type": "function"
    },
    {
      "inputs": [],
      "name": "owner",
      "outputs": [
        {
          "internalType": "address",
          "name": "",
          "type": "address"
        }
      ],
      "stateMutability": "view",
      "type": "function"
    },
    {
      "inputs": [],
      "name": "pauseIGO",
      "outputs": [],
      "stateMutability": "nonpayable",
      "type": "function"
    },
    {
      "inputs": [
        {
          "internalType": "string",
          "name": "tagId",
          "type": "string"
        }
      ],
      "name": "pauseTag",
      "outputs": [],
      "stateMutability": "nonpayable",
      "type": "function"
    },
    {
      "inputs": [
        {
          "internalType": "string",
          "name": "tagId",
          "type": "string"
        }
      ],
      "name": "raisedInTag",
      "outputs": [
        {
          "internalType": "uint256",
          "name": "",
          "type": "uint256"
        }
      ],
      "stateMutability": "view",
      "type": "function"
    },
    {
      "inputs": [
        {
          "internalType": "address",
          "name": "token",
          "type": "address"
        },
        {
          "internalType": "address",
          "name": "to",
          "type": "address"
        }
      ],
      "name": "recoverLostERC20",
      "outputs": [],
      "stateMutability": "nonpayable",
      "type": "function"
    },
    {
      "inputs": [],
      "name": "renounceOwnership",
      "outputs": [],
      "stateMutability": "nonpayable",
      "type": "function"
    },
    {
      "inputs": [
        {
          "internalType": "uint256",
          "name": "amount",
          "type": "uint256"
        },
        {
          "components": [
            {
              "internalType": "string",
              "name": "tagId",
              "type": "string"
            },
            {
              "internalType": "address",
              "name": "account",
              "type": "address"
            },
            {
              "internalType": "uint256",
              "name": "paymentTokenAmount",
              "type": "uint256"
            },
            {
              "internalType": "uint256",
              "name": "refundFee",
              "type": "uint256"
            }
          ],
          "internalType": "struct IIGOWritableInternal.Allocation",
          "name": "allocation",
          "type": "tuple"
        },
        {
          "internalType": "bytes32[]",
          "name": "proof",
          "type": "bytes32[]"
        },
        {
          "components": [
            {
              "internalType": "bytes",
              "name": "signature",
              "type": "bytes"
            },
            {
              "internalType": "uint256",
              "name": "deadline",
              "type": "uint256"
            },
            {
              "internalType": "uint256",
              "name": "nonce",
              "type": "uint256"
            }
          ],
          "internalType": "struct IIGOWritableInternal.BuyPermission",
          "name": "permission",
          "type": "tuple"
        }
      ],
      "name": "reserveAllocation",
      "outputs": [],
      "stateMutability": "nonpayable",
      "type": "function"
    },
    {
      "inputs": [],
      "name": "setUp",
      "outputs": [
        {
          "internalType": "address",
          "name": "vestingContract",
          "type": "address"
        },
        {
          "internalType": "address",
          "name": "paymentToken",
          "type": "address"
        },
        {
          "internalType": "uint256",
          "name": "grandTotal",
          "type": "uint256"
        },
        {
          "internalType": "uint256",
          "name": "summedMaxTagCap",
          "type": "uint256"
        },
        {
          "internalType": "uint256",
          "name": "refundFeeDecimals",
          "type": "uint256"
        }
      ],
      "stateMutability": "view",
      "type": "function"
    },
    {
      "inputs": [
        {
          "internalType": "string",
          "name": "tagId",
          "type": "string"
        }
      ],
      "name": "tag",
      "outputs": [
        {
          "components": [
            {
              "internalType": "enum ISharedInternal.Stage",
              "name": "stage",
              "type": "uint8"
            },
            {
              "internalType": "bytes32",
              "name": "merkleRoot",
              "type": "bytes32"
            },
            {
              "internalType": "uint128",
              "name": "startAt",
              "type": "uint128"
            },
            {
              "internalType": "uint128",
              "name": "endAt",
              "type": "uint128"
            },
            {
              "internalType": "uint256",
              "name": "maxTagCap",
              "type": "uint256"
            },
            {
              "internalType": "address",
              "name": "paymentToken",
              "type": "address"
            },
            {
              "internalType": "uint256",
              "name": "projectTokenPrice",
              "type": "uint256"
            }
          ],
          "internalType": "struct ISharedInternal.Tag",
          "name": "tag_",
          "type": "tuple"
        }
      ],
      "stateMutability": "view",
      "type": "function"
    },
    {
      "inputs": [],
      "name": "tagIds",
      "outputs": [
        {
          "internalType": "string[]",
          "name": "tagIds_",
          "type": "string[]"
        }
      ],
      "stateMutability": "view",
      "type": "function"
    },
    {
      "inputs": [],
      "name": "totalRaised",
      "outputs": [
        {
          "internalType": "uint256",
          "name": "",
          "type": "uint256"
        }
      ],
      "stateMutability": "view",
      "type": "function"
    },
    {
      "inputs": [
        {
          "internalType": "address",
          "name": "newOwner",
          "type": "address"
        }
      ],
      "name": "transferOwnership",
      "outputs": [],
      "stateMutability": "nonpayable",
      "type": "function"
    },
    {
      "inputs": [
        {
          "internalType": "address",
          "name": "token_",
          "type": "address"
        }
      ],
      "name": "updateDefaultPaymentToken",
      "outputs": [],
      "stateMutability": "nonpayable",
      "type": "function"
    },
    {
      "inputs": [
        {
          "internalType": "uint256",
          "name": "grandTotal_",
          "type": "uint256"
        }
      ],
      "name": "updateGrandTotal",
      "outputs": [],
      "stateMutability": "nonpayable",
      "type": "function"
    },
    {
      "inputs": [
        {
          "internalType": "string",
          "name": "tagId_",
          "type": "string"
        },
        {
          "components": [
            {
              "internalType": "enum ISharedInternal.Stage",
              "name": "stage",
              "type": "uint8"
            },
            {
              "internalType": "bytes32",
              "name": "merkleRoot",
              "type": "bytes32"
            },
            {
              "internalType": "uint128",
              "name": "startAt",
              "type": "uint128"
            },
            {
              "internalType": "uint128",
              "name": "endAt",
              "type": "uint128"
            },
            {
              "internalType": "uint256",
              "name": "maxTagCap",
              "type": "uint256"
            },
            {
              "internalType": "address",
              "name": "paymentToken",
              "type": "address"
            },
            {
              "internalType": "uint256",
              "name": "projectTokenPrice",
              "type": "uint256"
            }
          ],
          "internalType": "struct ISharedInternal.Tag",
          "name": "tag_",
          "type": "tuple"
        }
      ],
      "name": "updateSetTag",
      "outputs": [],
      "stateMutability": "nonpayable",
      "type": "function"
    },
    {
      "inputs": [
        {
          "internalType": "string[]",
          "name": "tagIdentifiers_",
          "type": "string[]"
        },
        {
          "components": [
            {
              "internalType": "enum ISharedInternal.Stage",
              "name": "stage",
              "type": "uint8"
            },
            {
              "internalType": "bytes32",
              "name": "merkleRoot",
              "type": "bytes32"
            },
            {
              "internalType": "uint128",
              "name": "startAt",
              "type": "uint128"
            },
            {
              "internalType": "uint128",
              "name": "endAt",
              "type": "uint128"
            },
            {
              "internalType": "uint256",
              "name": "maxTagCap",
              "type": "uint256"
            },
            {
              "internalType": "address",
              "name": "paymentToken",
              "type": "address"
            },
            {
              "internalType": "uint256",
              "name": "projectTokenPrice",
              "type": "uint256"
            }
          ],
          "internalType": "struct ISharedInternal.Tag[]",
          "name": "tags_",
          "type": "tuple[]"
        }
      ],
      "name": "updateSetTags",
      "outputs": [],
      "stateMutability": "nonpayable",
      "type": "function"
    },
    {
      "inputs": [
        {
          "internalType": "string",
          "name": "tagId",
          "type": "string"
        },
        {
          "internalType": "uint128",
          "name": "endAt",
          "type": "uint128"
        }
      ],
      "name": "updateTagEndDate",
      "outputs": [],
      "stateMutability": "nonpayable",
      "type": "function"
    },
    {
      "inputs": [
        {
          "internalType": "string",
          "name": "tagId",
          "type": "string"
        },
        {
          "internalType": "uint256",
          "name": "maxTagCap",
          "type": "uint256"
        }
      ],
      "name": "updateTagMaxCap",
      "outputs": [],
      "stateMutability": "nonpayable",
      "type": "function"
    },
    {
      "inputs": [
        {
          "internalType": "string",
          "name": "tagId",
          "type": "string"
        },
        {
          "internalType": "bytes32",
          "name": "merkleRoot",
          "type": "bytes32"
        }
      ],
      "name": "updateTagMerkleRoot",
      "outputs": [],
      "stateMutability": "nonpayable",
      "type": "function"
    },
    {
      "inputs": [
        {
          "internalType": "string",
          "name": "tagId",
          "type": "string"
        },
        {
          "internalType": "uint128",
          "name": "startAt",
          "type": "uint128"
        }
      ],
      "name": "updateTagStartDate",
      "outputs": [],
      "stateMutability": "nonpayable",
      "type": "function"
    }
  ],
  "bytecode": {
    "object": "0x60808060405234610074576000805462010000600160b01b0319811633601081811b62010000600160b01b03169290921784559291901c6001600160a01b0316907f8be0079c531659141344cd1fd0a4f28419497f9722a3daafe3b4186f6b6457e09080a360018055613c99908161007a8239f35b600080fdfe6080604052600436101561001257600080fd5b6000803560e01c806302912bd31461239a5780630a9254e4146123325780630fa34ede146122975780631bcaddc21461224f57806328d5796f146115b05780635625671e146115345780635a5fdab7146114ec578063715018a61461146a5780637518d35c1461132c5780637eae687e14611185578063852c49a714611142578063897c1b7914610a485780638da5cb5b14610a12578063907d30851461096057806398e3fdc41461090c578063a102491214610865578063ae00ee1f1461081e578063c5c4744c146107e1578063db365f8414610702578063e6807afd14610639578063f1efb93114610565578063f2fde38b1461049a578063f86df59b1461043b578063faf0c581146101af5763ff77d0be1461013057600080fd5b346101ac5760206003193601126101ac576004359067ffffffffffffffff82116101ac57602061017a816101673660048701612a55565b8160405193828580945193849201612aaf565b81017ff8bb2a4b5b30792eb350607495ebe7f79c5a5066287187429654459fae715b2681520301902054604051908152f35b80fd5b50346101ac5760406003193601126101ac576101c96128d4565b6101d16128f7565b906101da612cec565b73ffffffffffffffffffffffffffffffffffffffff809116916101fe8315156133df565b604051927f70a082310000000000000000000000000000000000000000000000000000000084523060048501526020938481602481855afa9081156104305786916103ff575b5060405193858501937fa9059cbb000000000000000000000000000000000000000000000000000000008552166024850152604484015260448352608083019183831067ffffffffffffffff8411176103d05785809161030695856040526102ab86612987565b8786527f5361666545524332303a206c6f772d6c6576656c2063616c6c206661696c656460a0820152519082855af13d156103c8573d916102eb836129e4565b926102f960405194856129a3565b83523d878785013e613444565b80518281159182156103a4575b5050905015610320575080f35b608490604051907f08c379a00000000000000000000000000000000000000000000000000000000082526004820152602a60248201527f5361666545524332303a204552433230206f7065726174696f6e20646964206e60448201527f6f742073756363656564000000000000000000000000000000000000000000006064820152fd5b83809293500103126103c45781015180151581036103c457808238610313565b8280fd5b606091613444565b7f4e487b7100000000000000000000000000000000000000000000000000000000600052604160045260246000fd5b90508481813d8311610429575b61041681836129a3565b81010312610425575138610244565b8580fd5b503d61040c565b6040513d88823e3d90fd5b50346101ac5760406003193601126101ac5767ffffffffffffffff6004358181116103c45761046e903690600401612b2d565b6024359182116103c457610489610497923690600401612bcb565b90610492612cec565b61361e565b80f35b50346101ac5760206003193601126101ac576104b46128d4565b6104bc612cec565b73ffffffffffffffffffffffffffffffffffffffff8116156104e15761049790612d6e565b60846040517f08c379a000000000000000000000000000000000000000000000000000000000815260206004820152602660248201527f4f776e61626c653a206e6577206f776e657220697320746865207a65726f206160448201527f64647265737300000000000000000000000000000000000000000000000000006064820152fd5b50346101ac5760206003193601126101ac57600435610582612cec565b6103e881106105db576105b6817ff8bb2a4b5b30792eb350607495ebe7f79c5a5066287187429654459fae715b2054613c1e565b7ff8bb2a4b5b30792eb350607495ebe7f79c5a5066287187429654459fae715b1f5580f35b60646040517f08c379a000000000000000000000000000000000000000000000000000000000815260206004820152601b60248201527f6772616e64546f74616c5f4c6f7765725468616e5f5f315f30303000000000006044820152fd5b50346101ac576fffffffffffffffffffffffffffffffff61065936612ca1565b610664929192612cec565b16904282106106a457610678600291612e82565b01907fffffffffffffffffffffffffffffffff0000000000000000000000000000000082541617905580f35b60646040517f08c379a000000000000000000000000000000000000000000000000000000000815260206004820152600d60248201527f53544152545f494e5f50415354000000000000000000000000000000000000006044820152fd5b50346101ac5761071136612ca1565b610719612cec565b426fffffffffffffffffffffffffffffffff8216111561078357600261074161049793612e82565b01906fffffffffffffffffffffffffffffffff7fffffffffffffffffffffffffffffffff0000000000000000000000000000000083549260801b169116179055565b60646040517f08c379a000000000000000000000000000000000000000000000000000000000815260206004820152600b60248201527f454e445f494e5f504153540000000000000000000000000000000000000000006044820152fd5b50346101ac57806003193601126101ac5760207ff8bb2a4b5b30792eb350607495ebe7f79c5a5066287187429654459fae715b2554604051908152f35b50346101ac57806003193601126101ac57602060ff7ff8bb2a4b5b30792eb350607495ebe7f79c5a5066287187429654459fae715b2454166108636040518092612a73565bf35b50346101ac5760206003193601126101ac576104976108826128d4565b61088a612cec565b6108ab73ffffffffffffffffffffffffffffffffffffffff821615156133df565b73ffffffffffffffffffffffffffffffffffffffff7ff8bb2a4b5b30792eb350607495ebe7f79c5a5066287187429654459fae715b1d91167fffffffffffffffffffffffff0000000000000000000000000000000000000000825416179055565b50346101ac5760206003193601126101ac5760043567ffffffffffffffff811161095c5761094161094e913690600401612a55565b610949612cec565b612e82565b600360ff1982541617905580f35b5080fd5b50346101ac5760406003193601126101ac5760043567ffffffffffffffff811161095c57610992903690600401612a55565b6024359061099e612cec565b81156109b4576109af600191612e82565b015580f35b60646040517f08c379a000000000000000000000000000000000000000000000000000000000815260206004820152601060248201527f4d65726b6c65526f6f745f454d505459000000000000000000000000000000006044820152fd5b50346101ac57806003193601126101ac5773ffffffffffffffffffffffffffffffffffffffff6020915460101c16604051908152f35b50346101ac576101206003193601126101ac57610a636128d4565b60c07fffffffffffffffffffffffffffffffffffffffffffffffffffffffffffffffdc36011261095c5760405160c0810181811067ffffffffffffffff8211176103d057604052610ab26128f7565b815260443573ffffffffffffffffffffffffffffffffffffffff8116810361113d57602082015260643573ffffffffffffffffffffffffffffffffffffffff8116810361113d576040820152608435606082015260a435608082015260c43560a082015260e43567ffffffffffffffff811161113957610b36903690600401612b2d565b67ffffffffffffffff610104351161113957610b583661010435600401612bcb565b9084549360ff8560081c16159485809661112c575b8015611115575b156110915785600160ff198316178855611063575b50610b92612cec565b73ffffffffffffffffffffffffffffffffffffffff8116156110055773ffffffffffffffffffffffffffffffffffffffff84511615610f815773ffffffffffffffffffffffffffffffffffffffff60208501511615610efd5773ffffffffffffffffffffffffffffffffffffffff60408501511615610e7957606084015115610e1b57610dc093610c2460a092612d6e565b73ffffffffffffffffffffffffffffffffffffffff8151167fffffffffffffffffffffffff0000000000000000000000000000000000000000907ff8bb2a4b5b30792eb350607495ebe7f79c5a5066287187429654459fae715b1c9082825416179055610d0673ffffffffffffffffffffffffffffffffffffffff60208401511673ffffffffffffffffffffffffffffffffffffffff7ff8bb2a4b5b30792eb350607495ebe7f79c5a5066287187429654459fae715b1d91167fffffffffffffffffffffffff0000000000000000000000000000000000000000825416179055565b73ffffffffffffffffffffffffffffffffffffffff6040830151167ff8bb2a4b5b30792eb350607495ebe7f79c5a5066287187429654459fae715b1e9182541617905560608101517ff8bb2a4b5b30792eb350607495ebe7f79c5a5066287187429654459fae715b1f5560808101517ff8bb2a4b5b30792eb350607495ebe7f79c5a5066287187429654459fae715b205501517ff8bb2a4b5b30792eb350607495ebe7f79c5a5066287187429654459fae715b215561361e565b610dc75780f35b7fffffffffffffffffffffffffffffffffffffffffffffffffffffffffffff00ff81541681557f7f26b83ff96e1f2b6a682f133852f6798a09c465da95921460cefb3847402498602060405160018152a180f35b60646040517f08c379a000000000000000000000000000000000000000000000000000000000815260206004820152601c60248201527f49474f5772697461626c655f5f6772616e64546f74616c5f5a45524f000000006044820152fd5b60846040517f08c379a000000000000000000000000000000000000000000000000000000000815260206004820152602160248201527f49474f5772697461626c655f5f7065726d6974325f5a45524f5f41444452455360448201527f53000000000000000000000000000000000000000000000000000000000000006064820152fd5b60846040517f08c379a000000000000000000000000000000000000000000000000000000000815260206004820152602660248201527f49474f5772697461626c655f5f7061796d656e74546f6b656e5f5a45524f5f4160448201527f44445245535300000000000000000000000000000000000000000000000000006064820152fd5b60846040517f08c379a000000000000000000000000000000000000000000000000000000000815260206004820152602960248201527f49474f5772697461626c655f5f76657374696e67436f6e74726163745f5a455260448201527f4f5f4144445245535300000000000000000000000000000000000000000000006064820152fd5b60646040517f08c379a000000000000000000000000000000000000000000000000000000000815260206004820152601f60248201527f49474f5772697461626c655f5f6f776e65725f5a45524f5f41444452455353006044820152fd5b7fffffffffffffffffffffffffffffffffffffffffffffffffffffffffffff00001661010117865538610b89565b60846040517f08c379a000000000000000000000000000000000000000000000000000000000815260206004820152602e60248201527f496e697469616c697a61626c653a20636f6e747261637420697320616c72656160448201527f647920696e697469616c697a65640000000000000000000000000000000000006064820152fd5b50303b158015610b745750600160ff821614610b74565b50600160ff821610610b6d565b8380fd5b600080fd5b50346101ac5760206003193601126101ac5760043567ffffffffffffffff811161095c57610941611177913690600401612a55565b600160ff1982541617905580f35b50346101ac57806003193601126101ac577ff8bb2a4b5b30792eb350607495ebe7f79c5a5066287187429654459fae715b22908154916111c483612b15565b916111d260405193846129a3565b83835260209384840190819383527f65081cd3ad5fc84209c8310f7404cee8bc03efec5e3d920e46e7ba762f27ce4c9183905b8282106112885750505050604051928484019085855251809152604084019460408260051b8601019392955b82871061123e5785850386f35b909192938280611278837fffffffffffffffffffffffffffffffffffffffffffffffffffffffffffffffc08a600196030186528851612ad2565b9601920196019592919092611231565b6040979694975187899286549261129e84613021565b80825260019480861690811561131057506001146112d8575b506112c68160019603826129a3565b81520194019101909296939596611205565b888d52838d2095508c905b8082106112f957508101830194506112c66112b7565b8654838301860152958501958c94909101906112e3565b60ff19168584015250151560051b8101830194506112c66112b7565b50346101ac5760206003193601126101ac5760043567ffffffffffffffff811161095c5761136161136f913690600401612a55565b611369612fe9565b50612e82565b60405161137b8161293b565b60ff82541691600483101561143d5760e0935082825260018101549060208301918252600281015460408401906fffffffffffffffffffffffffffffffff908181168352606086019060801c8152816003850154936080880194855273ffffffffffffffffffffffffffffffffffffffff9660c060058960048a0154169860a08c01998a5201549901988952611414604051809b612a73565b5160208a01525116604088015251166060860152516080850152511660a08301525160c0820152f35b6024847f4e487b710000000000000000000000000000000000000000000000000000000081526021600452fd5b50346101ac57806003193601126101ac57611483612cec565b600073ffffffffffffffffffffffffffffffffffffffff81547fffffffffffffffffffff0000000000000000000000000000000000000000ffff8116835560101c167f8be0079c531659141344cd1fd0a4f28419497f9722a3daafe3b4186f6b6457e08280a380f35b50346101ac57806003193601126101ac57611505612cec565b7ff8bb2a4b5b30792eb350607495ebe7f79c5a5066287187429654459fae715b24600160ff1982541617905580f35b50346101ac5760406003193601126101ac5760043567ffffffffffffffff811161095c57611566903690600401612a55565b60036109af60243592611577612cec565b610949611582612ec7565b60606115a7876115a260808501518961159a89612e82565b01549061319d565b613148565b91015190613c1e565b50346101ac5760031960808136011261095c5767ffffffffffffffff6024351161095c576080816024353603011261095c5767ffffffffffffffff6044351161095c5736602360443501121561095c5767ffffffffffffffff604435600401351161095c573660246044356004013560051b60443501011161095c576064359067ffffffffffffffff82116103c457606090823603011261095c576002600154146121f157600260015561166960046024350180613074565b61167581839493612df9565b92604051936116838561293b565b60ff81541660048110156121c4579060059186526001810154602087015260028101546fffffffffffffffffffffffffffffffff8116604088015260801c60608701526003810154608087015273ffffffffffffffffffffffffffffffffffffffff60048201541660a0870152015460c08501526116ff612ec7565b9360808101519260608601519461177761176e61176761172260248035016130e8565b73ffffffffffffffffffffffffffffffffffffffff166000527ff8bb2a4b5b30792eb350607495ebe7f79c5a5066287187429654459fae715b27602052604060002090565b8487612e69565b54600435613148565b604460243501358111612179575061179260248035016130e8565b73ffffffffffffffffffffffffffffffffffffffff3391160361211b576117dc7ff8bb2a4b5b30792eb350607495ebe7f79c5a5066287187429654459fae715b2554600435613148565b8681116120db575060ff7ff8bb2a4b5b30792eb350607495ebe7f79c5a5066287187429654459fae715b24541660048110156120ae5760018103612075575061183c61183761183060046024350180613074565b3691612a1e565b6131aa565b61184961176e8386612e31565b85811161201c5750600161186b61186560046024350180613074565b90612df9565b0154966040516020808201527fffffffffffffffffffffffffffffffffffffffffffffffffffffffffffffffdd6024353603016024356004013512156120185767ffffffffffffffff60046024356024358201350101351161201857600460248035828101350191820135360391011361201857608060408201526119718161190760c082016004602480358281013501918201359101613109565b73ffffffffffffffffffffffffffffffffffffffff611929602480350161291a565b166060830152602435604481013560808401526064013560a0830152037fffffffffffffffffffffffffffffffffffffffffffffffffffffffffffffffe081018352826129a3565b602081519101209561198860443560040135612b15565b9661199660405198896129a3565b60443560048101358952602401602089015b60246044356004013560051b60443501018210612008575050978a985b88518a1015611a0d576119d88a8a61339c565b5190818110156119fb578c526020526119f560408c205b9961336f565b986119c5565b908c526020526119f560408c206119ef565b8b98508a03611faa57611add611ad6611a2960248035016130e8565b611a566004357ff8bb2a4b5b30792eb350607495ebe7f79c5a5066287187429654459fae715b2554613148565b7ff8bb2a4b5b30792eb350607495ebe7f79c5a5066287187429654459fae715b2555611a82888b612e31565b611a8f6004358254613148565b905573ffffffffffffffffffffffffffffffffffffffff166000527ff8bb2a4b5b30792eb350607495ebe7f79c5a5066287187429654459fae715b27602052604060002090565b8689612e69565b611aea6004358254613148565b90557ff8bb2a4b5b30792eb350607495ebe7f79c5a5066287187429654459fae715b255414611f5a575b611b1e8487612e31565b5414611f3c575b6002611b318487612df9565b015460801c421015611f1e575b60a084015173ffffffffffffffffffffffffffffffffffffffff168015611efc57935b73ffffffffffffffffffffffffffffffffffffffff8251169060c0611b8960248035016130e8565b910151916004358360043502048314600435151715611ecf57908189923b156103c457888388611c1294670de0b6b3a764000073ffffffffffffffffffffffffffffffffffffffff98898e6040519b8c9a8b998a987f37a97db7000000000000000000000000000000000000000000000000000000008a5260c060048b015260c48a0191613109565b951660248701526004356044870152166064850152600435020460848301526064602435013560a483015203925af18015611ec457611eaf575b50908173ffffffffffffffffffffffffffffffffffffffff604088940151169160006020604051611c7c81612987565b82815201528360408051611c8f8161296b565b8151611c9a81612987565b60008152600060208201528152826020820152015260006020604051611cbf81612987565b8281520152611d3c73ffffffffffffffffffffffffffffffffffffffff60405193611ce985612987565b8189168552600435602086015260405194611d038661296b565b8552604484013560208601526024840135604086015251169160405192611d2984612987565b8352600435602084015260040180613074565b8491943b1561042557858094611dfe611de5976040948551998a98899788967f30f28b7a000000000000000000000000000000000000000000000000000000008852611dac6004890182516020809173ffffffffffffffffffffffffffffffffffffffff81511684520151910152565b60208181015160448a01529101516064880152815173ffffffffffffffffffffffffffffffffffffffff166084880152015160a4860152565b3360c485015261010060e4850152610104840191613109565b03925af18015611ea457611e90575b5050611e1c60248035016130e8565b92816040519283928337810185815203902073ffffffffffffffffffffffffffffffffffffffff604051921682527f24b17f7cc1c323d081ca24ebe682df530605d2207ecdde5a86c1d0bb44a88a6d602073ffffffffffffffffffffffffffffffffffffffff600435951693a46001805580f35b611e9990612957565b611139578385611e0d565b6040513d84823e3d90fd5b611ebc9096919296612957565b949086611c4c565b6040513d89823e3d90fd5b6024897f4e487b710000000000000000000000000000000000000000000000000000000081526011600452fd5b5073ffffffffffffffffffffffffffffffffffffffff60208201511693611b61565b611f2c610949368588612a1e565b600260ff19825416179055611b3e565b611f4a610949368588612a1e565b600260ff19825416179055611b25565b600260ff197ff8bb2a4b5b30792eb350607495ebe7f79c5a5066287187429654459fae715b245416177ff8bb2a4b5b30792eb350607495ebe7f79c5a5066287187429654459fae715b2455611b14565b60646040517f08c379a000000000000000000000000000000000000000000000000000000000815260206004820152601460248201527f414c4c4f434154494f4e5f4e4f545f464f554e440000000000000000000000006044820152fd5b81358152602091820191016119a8565b8980fd5b828661202981889461319d565b6120666040519485947f2877ff9e000000000000000000000000000000000000000000000000000000008652606060048701526064860191613109565b91602484015260448301520390fd5b6024906120ac604051917fb293db190000000000000000000000000000000000000000000000000000000083526004830190612a73565bfd5b6024897f4e487b710000000000000000000000000000000000000000000000000000000081526021600452fd5b866120e88160449361319d565b604051917fcced311a00000000000000000000000000000000000000000000000000000000835260048301526024820152fd5b60646040517f08c379a000000000000000000000000000000000000000000000000000000000815260206004820152601a60248201527f6d73672e73656e6465723a204e4f545f415554484f52495a45440000000000006044820152fd5b61218b6044918260243501359061319d565b604051907fadaa553200000000000000000000000000000000000000000000000000000000825282602435013560048301526024820152fd5b6024877f4e487b710000000000000000000000000000000000000000000000000000000081526021600452fd5b60646040517f08c379a000000000000000000000000000000000000000000000000000000000815260206004820152601f60248201527f5265656e7472616e637947756172643a207265656e7472616e742063616c6c006044820152fd5b50346101ac57806003193601126101ac57612268612cec565b7ff8bb2a4b5b30792eb350607495ebe7f79c5a5066287187429654459fae715b24600360ff1982541617905580f35b50346101ac5760406003193601126101ac576122b16128d4565b906024359067ffffffffffffffff82116101ac576020612329846123236122db36600488016128a6565b91909273ffffffffffffffffffffffffffffffffffffffff166000527ff8bb2a4b5b30792eb350607495ebe7f79c5a5066287187429654459fae715b27602052604060002090565b91612e69565b54604051908152f35b50346101ac57806003193601126101ac5760a061234d612ec7565b73ffffffffffffffffffffffffffffffffffffffff908181511691602082015116906060810151846080830151920151926040519485526020850152604084015260608301526080820152f35b50346101ac576101006003193601126101ac5760043567ffffffffffffffff811161095c576123cd9036906004016128a6565b60e07fffffffffffffffffffffffffffffffffffffffffffffffffffffffffffffffdc3601126103c4576123ff612cec565b6040519061240c8261293b565b600460243510156111395760243582526044356020830152606435916fffffffffffffffffffffffffffffffff831683036128a2578260408201526fffffffffffffffffffffffffffffffff60843516608435036128a257608435606082015260a435608082015260c43573ffffffffffffffffffffffffffffffffffffffff8116810361042557816124ae9160a06124b394015260e43560c0820152613b0c565b613510565b6124bd8184612df9565b926040516124ca8161293b565b60ff85541660048110156121c457906125bc6125b58360809484526001890154602085015260028901546fffffffffffffffffffffffffffffffff81166040860152851c60608501526003890154858501526125a4600573ffffffffffffffffffffffffffffffffffffffff60048c0154169a8b60a08801520154998a60c08701527ff8bb2a4b5b30792eb350607495ebe7f79c5a5066287187429654459fae715b1f549a7ff8bb2a4b5b30792eb350607495ebe7f79c5a5066287187429654459fae715b20549360e4359261259e6130c5565b91613b75565b6115a260a43591868601519061319d565b9687613c1e565b0151156126a6575b612628916125d191612df9565b916125de60243584613184565b60443560018401556fffffffffffffffffffffffffffffffff167fffffffffffffffffffffffffffffffff0000000000000000000000000000000060843560801b16176002830155565b60a43560038201556004810173ffffffffffffffffffffffffffffffffffffffff6126516130c5565b167fffffffffffffffffffffffff0000000000000000000000000000000000000000825416179055600560e4359101557ff8bb2a4b5b30792eb350607495ebe7f79c5a5066287187429654459fae715b205580f35b7ff8bb2a4b5b30792eb350607495ebe7f79c5a5066287187429654459fae715b2280549068010000000000000000821015612875576001820190556126ea90613575565b6128495767ffffffffffffffff831161281c576127118361270b8354613021565b836135ca565b85601f841160011461277557918391612628946125d194899161276a575b508360011b907fffffffffffffffffffffffffffffffffffffffffffffffffffffffffffffffff8560031b1c19161790555b915091506125c4565b90508201353861272f565b81875260208720907fffffffffffffffffffffffffffffffffffffffffffffffffffffffffffffffe08516885b818110612804575091859391612628966125d19694106127cc575b5050600183811b019055612761565b7fffffffffffffffffffffffffffffffffffffffffffffffffffffffffffffffff60f88660031b161c199084013516905538806127bd565b919260206001819286890135815501940192016127a2565b6024867f4e487b710000000000000000000000000000000000000000000000000000000081526041600452fd5b6024867f4e487b7100000000000000000000000000000000000000000000000000000000815280600452fd5b6024877f4e487b710000000000000000000000000000000000000000000000000000000081526041600452fd5b8480fd5b9181601f8401121561113d5782359167ffffffffffffffff831161113d576020838186019501011161113d57565b6004359073ffffffffffffffffffffffffffffffffffffffff8216820361113d57565b6024359073ffffffffffffffffffffffffffffffffffffffff8216820361113d57565b359073ffffffffffffffffffffffffffffffffffffffff8216820361113d57565b60e0810190811067ffffffffffffffff8211176103d057604052565b67ffffffffffffffff81116103d057604052565b6060810190811067ffffffffffffffff8211176103d057604052565b6040810190811067ffffffffffffffff8211176103d057604052565b90601f7fffffffffffffffffffffffffffffffffffffffffffffffffffffffffffffffe0910116810190811067ffffffffffffffff8211176103d057604052565b67ffffffffffffffff81116103d057601f017fffffffffffffffffffffffffffffffffffffffffffffffffffffffffffffffe01660200190565b929192612a2a826129e4565b91612a3860405193846129a3565b82948184528183011161113d578281602093846000960137010152565b9080601f8301121561113d57816020612a7093359101612a1e565b90565b906004821015612a805752565b7f4e487b7100000000000000000000000000000000000000000000000000000000600052602160045260246000fd5b60005b838110612ac25750506000910152565b8181015183820152602001612ab2565b907fffffffffffffffffffffffffffffffffffffffffffffffffffffffffffffffe0601f602093612b0e81518092818752878088019101612aaf565b0116010190565b67ffffffffffffffff81116103d05760051b60200190565b9080601f8301121561113d57813590612b4582612b15565b92612b5360405194856129a3565b828452602092838086019160051b8301019280841161113d57848301915b848310612b815750505050505090565b823567ffffffffffffffff811161113d578691612ba384848094890101612a55565b815201920191612b71565b35906fffffffffffffffffffffffffffffffff8216820361113d57565b81601f8201121561113d57803590612be282612b15565b92604090612bf2825195866129a3565b838552602091828601918360e08097028601019481861161113d578401925b858410612c22575050505050505090565b868483031261113d57825190612c378261293b565b843590600482101561113d578287928a94528287013583820152612c5c868801612bae565b868201526060612c6d818901612bae565b908201526080808801359082015260a0612c8881890161291a565b9082015260c08088013590820152815201930192612c11565b604060031982011261113d576004359067ffffffffffffffff821161113d57612ccc91600401612a55565b906024356fffffffffffffffffffffffffffffffff8116810361113d5790565b73ffffffffffffffffffffffffffffffffffffffff60005460101c163303612d1057565b60646040517f08c379a000000000000000000000000000000000000000000000000000000000815260206004820152602060248201527f4f776e61626c653a2063616c6c6572206973206e6f7420746865206f776e65726044820152fd5b6000549075ffffffffffffffffffffffffffffffffffffffff00008160101b167fffffffffffffffffffff0000000000000000000000000000000000000000ffff83161760005573ffffffffffffffffffffffffffffffffffffffff8091169160101c167f8be0079c531659141344cd1fd0a4f28419497f9722a3daafe3b4186f6b6457e0600080a3565b60209082604051938492833781017ff8bb2a4b5b30792eb350607495ebe7f79c5a5066287187429654459fae715b2381520301902090565b60209082604051938492833781017ff8bb2a4b5b30792eb350607495ebe7f79c5a5066287187429654459fae715b2681520301902090565b6020919283604051948593843782019081520301902090565b6020612e9b918160405193828580945193849201612aaf565b81017ff8bb2a4b5b30792eb350607495ebe7f79c5a5066287187429654459fae715b2381520301902090565b6040519060c0820182811067ffffffffffffffff8211176103d0576040528173ffffffffffffffffffffffffffffffffffffffff807ff8bb2a4b5b30792eb350607495ebe7f79c5a5066287187429654459fae715b1c54168252807ff8bb2a4b5b30792eb350607495ebe7f79c5a5066287187429654459fae715b1d541660208301527ff8bb2a4b5b30792eb350607495ebe7f79c5a5066287187429654459fae715b1e541660408201527ff8bb2a4b5b30792eb350607495ebe7f79c5a5066287187429654459fae715b1f5460608201527ff8bb2a4b5b30792eb350607495ebe7f79c5a5066287187429654459fae715b2054608082015260a07ff8bb2a4b5b30792eb350607495ebe7f79c5a5066287187429654459fae715b2154910152565b60405190612ff68261293b565b8160c06000918281528260208201528260408201528260608201528260808201528260a08201520152565b90600182811c9216801561306a575b602083101461303b57565b7f4e487b7100000000000000000000000000000000000000000000000000000000600052602260045260246000fd5b91607f1691613030565b9035907fffffffffffffffffffffffffffffffffffffffffffffffffffffffffffffffe18136030182121561113d570180359067ffffffffffffffff821161113d5760200191813603831361113d57565b60c43573ffffffffffffffffffffffffffffffffffffffff8116810361113d5790565b3573ffffffffffffffffffffffffffffffffffffffff8116810361113d5790565b601f82602094937fffffffffffffffffffffffffffffffffffffffffffffffffffffffffffffffe0938186528686013760008582860101520116010190565b9190820180921161315557565b7f4e487b7100000000000000000000000000000000000000000000000000000000600052601160045260246000fd5b906004811015612a805760ff60ff198354169116179055565b9190820391821161315557565b6131b381612e82565b6040516131bf8161293b565b60ff82541660049283821015613341578183526001810154602084015260028101549160056fffffffffffffffffffffffffffffffff84169384604087015260801c928360608701526003810154608087015273ffffffffffffffffffffffffffffffffffffffff878201541660a0870152015460c0850152159182613336575b508161332c575b50613314578051828110156132e65760010361326257505050565b51818110156132b8576132b46132a960409485519586957f5f08440f0000000000000000000000000000000000000000000000000000000087528601526044850190612ad2565b916024840190612a73565b0390fd5b6021827f4e487b71000000000000000000000000000000000000000000000000000000006000525260246000fd5b6021837f4e487b71000000000000000000000000000000000000000000000000000000006000525260246000fd5b505061331f90612e82565b600160ff19825416179055565b9050421038613247565b421015915038613240565b6021847f4e487b71000000000000000000000000000000000000000000000000000000006000525260246000fd5b7fffffffffffffffffffffffffffffffffffffffffffffffffffffffffffffffff81146131555760010190565b80518210156133b05760209160051b010190565b7f4e487b7100000000000000000000000000000000000000000000000000000000600052603260045260246000fd5b156133e657565b60646040517f08c379a000000000000000000000000000000000000000000000000000000000815260206004820152601260248201527f546f6b656e5f5a45524f5f4144445245535300000000000000000000000000006044820152fd5b919290156134bf5750815115613458575090565b3b156134615790565b60646040517f08c379a000000000000000000000000000000000000000000000000000000000815260206004820152601d60248201527f416464726573733a2063616c6c20746f206e6f6e2d636f6e74726163740000006044820152fd5b8251909150156134d25750805190602001fd5b6132b4906040519182917f08c379a0000000000000000000000000000000000000000000000000000000008352602060048401526024830190612ad2565b1561351757565b60646040517f08c379a000000000000000000000000000000000000000000000000000000000815260206004820152600b60248201527f494e56414c49445f5441470000000000000000000000000000000000000000006044820152fd5b7ff8bb2a4b5b30792eb350607495ebe7f79c5a5066287187429654459fae715b2280548210156133b0576000527f65081cd3ad5fc84209c8310f7404cee8bc03efec5e3d920e46e7ba762f27ce4c0190600090565b90601f81116135d857505050565b600091825260208220906020601f850160051c83019410613614575b601f0160051c01915b82811061360957505050565b8181556001016135fd565b90925082906135f4565b8051825103613aae5780517ff8bb2a4b5b30792eb350607495ebe7f79c5a5066287187429654459fae715b1f54927ff8bb2a4b5b30792eb350607495ebe7f79c5a5066287187429654459fae715b205493613677612fe9565b5060005b8381106136ab5750505050507ff8bb2a4b5b30792eb350607495ebe7f79c5a5066287187429654459fae715b2055565b6136be6136b8828761339c565b51612e82565b95604051966136cc8861293b565b60ff815416906004821015612a80576005918952600181015460208a015260028101546fffffffffffffffffffffffffffffffff811660408b015260801c60608a0152600381015460808a015273ffffffffffffffffffffffffffffffffffffffff60048201541660a08a0152015460c08801526137566124ae613750848761339c565b51613b0c565b8651906004821015612a80576137d46137e8916137ca608094888c73ffffffffffffffffffffffffffffffffffffffff60a08201511660c06137c18b8273ffffffffffffffffffffffffffffffffffffffff60a06137b4848a61339c565b510151169501519561339c565b51015193613b75565b838a01519061319d565b826137df858861339c565b51015190613148565b966137f38489613c1e565b0151156138e5575b613805818461339c565b51906138146136b8828861339c565b8251926004841015612a805760c06005916138326138e09685613184565b602081015160018501556040810151606082015160801b7fffffffffffffffffffffffffffffffff00000000000000000000000000000000166fffffffffffffffffffffffffffffffff91909116176002850155608081015160038501556004840173ffffffffffffffffffffffffffffffffffffffff60a0830151167fffffffffffffffffffffffff0000000000000000000000000000000000000000825416179055015191015561336f565b61367b565b6138ef818661339c565b517ff8bb2a4b5b30792eb350607495ebe7f79c5a5066287187429654459fae715b228054680100000000000000008110156103d05761393391600182019055613575565b919091613a7f5780519067ffffffffffffffff82116103d05781906139628261395c8654613021565b866135ca565b602090601f83116001146139b9576000926139ae575b50507fffffffffffffffffffffffffffffffffffffffffffffffffffffffffffffffff8260011b9260031b1c19161790556137fb565b015190503880613978565b9250836000526020600020906000935b7fffffffffffffffffffffffffffffffffffffffffffffffffffffffffffffffe084168510613a645760019450837fffffffffffffffffffffffffffffffffffffffffffffffffffffffffffffffe0811610613a2d575b505050811b0190556137fb565b01517fffffffffffffffffffffffffffffffffffffffffffffffffffffffffffffffff60f88460031b161c19169055388080613a20565b818101518355602094850194600190930192909101906139c9565b7f4e487b7100000000000000000000000000000000000000000000000000000000600052600060045260246000fd5b60646040517f08c379a000000000000000000000000000000000000000000000000000000000815260206004820152601f60248201527f49474f5772697461626c653a207461677320617272617973206c656e677468006044820152fd5b602081015115159081613b54575b81613b34575b81613b29575090565b608091500151151590565b60608101516fffffffffffffffffffffffffffffffff1642109150613b20565b60408101516fffffffffffffffffffffffffffffffff164211159150613b1a565b9392939190916004811015612a8057613bbd575050905015613b9357565b60046040517f93c16572000000000000000000000000000000000000000000000000000000008152fd5b73ffffffffffffffffffffffffffffffffffffffff80911691161491821592613c13575b5050613be957565b60046040517ff85d06f8000000000000000000000000000000000000000000000000000000008152fd5b141590503880613be1565b818111613c29575050565b602491613c359161319d565b604051907f2e2a58540000000000000000000000000000000000000000000000000000000082526004820152fdfea26469706673582212204f0f393e79dc0b9ca897139ed0392dcaf33d28871c626e10dc69ea132c7d556864736f6c63430008110033",
    "linkReferences": {}
  },
  "methodIdentifiers": {
    "boughtByIn(address,string)": "0fa34ede",
    "igoStage()": "ae00ee1f",
    "initialize(address,(address,address,address,uint256,uint256,uint256),string[],(uint8,bytes32,uint128,uint128,uint256,address,uint256)[])": "897c1b79",
    "openIGO()": "5a5fdab7",
    "openTag(string)": "852c49a7",
    "owner()": "8da5cb5b",
    "pauseIGO()": "1bcaddc2",
    "pauseTag(string)": "98e3fdc4",
    "raisedInTag(string)": "ff77d0be",
    "recoverLostERC20(address,address)": "faf0c581",
    "renounceOwnership()": "715018a6",
    "reserveAllocation(uint256,(string,address,uint256,uint256),bytes32[],(bytes,uint256,uint256))": "28d5796f",
    "setUp()": "0a9254e4",
    "tag(string)": "7518d35c",
    "tagIds()": "7eae687e",
    "totalRaised()": "c5c4744c",
    "transferOwnership(address)": "f2fde38b",
    "updateDefaultPaymentToken(address)": "a1024912",
    "updateGrandTotal(uint256)": "f1efb931",
    "updateSetTag(string,(uint8,bytes32,uint128,uint128,uint256,address,uint256))": "02912bd3",
    "updateSetTags(string[],(uint8,bytes32,uint128,uint128,uint256,address,uint256)[])": "f86df59b",
    "updateTagEndDate(string,uint128)": "db365f84",
    "updateTagMaxCap(string,uint256)": "5625671e",
    "updateTagMerkleRoot(string,bytes32)": "907d3085",
    "updateTagStartDate(string,uint128)": "e6807afd"
  },
  "id": 51
}