{
  "abi": [
    {
      "inputs": [],
      "stateMutability": "nonpayable",
      "type": "constructor"
    },
    {
      "anonymous": false,
      "inputs": [
        {
          "indexed": false,
          "internalType": "address",
          "name": "oldDefaultIgo",
          "type": "address"
        },
        {
          "indexed": false,
          "internalType": "address",
          "name": "newDefaultIgo",
          "type": "address"
        }
      ],
      "name": "DefaultIgoUpdated",
      "type": "event"
    },
    {
      "anonymous": false,
      "inputs": [
        {
          "indexed": true,
          "internalType": "string",
          "name": "igoName",
          "type": "string"
        },
        {
          "indexed": true,
          "internalType": "address",
          "name": "igo",
          "type": "address"
        }
      ],
      "name": "IGOCreated",
      "type": "event"
    },
    {
      "anonymous": false,
      "inputs": [
        {
          "indexed": true,
          "internalType": "address",
          "name": "previousOwner",
          "type": "address"
        },
        {
          "indexed": true,
          "internalType": "address",
          "name": "newOwner",
          "type": "address"
        }
      ],
      "name": "OwnershipTransferred",
      "type": "event"
    },
    {
      "inputs": [
        {
          "internalType": "string",
          "name": "igoName",
          "type": "string"
        },
        {
          "internalType": "address",
          "name": "token",
          "type": "address"
        },
        {
          "internalType": "address",
          "name": "permit2",
          "type": "address"
        },
        {
          "internalType": "address",
          "name": "treasuryWallet",
          "type": "address"
        },
        {
          "internalType": "uint256",
          "name": "grandTotal_",
          "type": "uint256"
        },
        {
          "internalType": "string[]",
          "name": "tagIds_",
          "type": "string[]"
        },
        {
          "components": [
            {
              "internalType": "enum ISharedInternal.Stage",
              "name": "stage",
              "type": "uint8"
            },
            {
              "internalType": "bytes32",
              "name": "merkleRoot",
              "type": "bytes32"
            },
            {
              "internalType": "uint128",
              "name": "startAt",
              "type": "uint128"
            },
            {
              "internalType": "uint128",
              "name": "endAt",
              "type": "uint128"
            },
            {
              "internalType": "uint256",
              "name": "maxTagCap",
              "type": "uint256"
            },
            {
              "internalType": "address",
              "name": "paymentToken",
              "type": "address"
            }
          ],
          "internalType": "struct ISharedInternal.Tag[]",
          "name": "tags",
          "type": "tuple[]"
        }
      ],
      "name": "createIGO",
      "outputs": [
        {
          "internalType": "address",
          "name": "igo",
          "type": "address"
        }
      ],
      "stateMutability": "nonpayable",
      "type": "function"
    },
    {
      "inputs": [],
      "name": "defaultIgo",
      "outputs": [
        {
          "internalType": "address",
          "name": "",
          "type": "address"
        }
      ],
      "stateMutability": "view",
      "type": "function"
    },
    {
      "inputs": [],
      "name": "igoCount",
      "outputs": [
        {
          "internalType": "uint256",
          "name": "",
          "type": "uint256"
        }
      ],
      "stateMutability": "view",
      "type": "function"
    },
    {
      "inputs": [],
      "name": "igoNames",
      "outputs": [
        {
          "internalType": "string[]",
          "name": "",
          "type": "string[]"
        }
      ],
      "stateMutability": "view",
      "type": "function"
    },
    {
      "inputs": [
        {
          "internalType": "string",
          "name": "igoName",
          "type": "string"
        }
      ],
      "name": "igoWithName",
      "outputs": [
        {
          "internalType": "address",
          "name": "",
          "type": "address"
        }
      ],
      "stateMutability": "view",
      "type": "function"
    },
    {
      "inputs": [],
      "name": "owner",
      "outputs": [
        {
          "internalType": "address",
          "name": "",
          "type": "address"
        }
      ],
      "stateMutability": "view",
      "type": "function"
    },
    {
      "inputs": [],
      "name": "renounceOwnership",
      "outputs": [],
      "stateMutability": "nonpayable",
      "type": "function"
    },
    {
      "inputs": [
        {
          "internalType": "address",
          "name": "newOwner",
          "type": "address"
        }
      ],
      "name": "transferOwnership",
      "outputs": [],
      "stateMutability": "nonpayable",
      "type": "function"
    },
    {
      "inputs": [
        {
          "internalType": "address",
          "name": "newDefaultIgo",
          "type": "address"
        }
      ],
      "name": "updateDefaultIgo",
      "outputs": [],
      "stateMutability": "nonpayable",
      "type": "function"
    }
  ],
  "bytecode": {
    "object": "0x608080604052346100bd5760008054336001600160a01b031980831682178455936001600160a01b03939290919084167f8be0079c531659141344cd1fd0a4f28419497f9722a3daafe3b4186f6b6457e08480a360018055613095818101906001600160401b038211838310176100a9579082916144f48339039082f090811561009d57501690600254161760025560405161443190816100c38239f35b604051903d90823e3d90fd5b634e487b7160e01b84526041600452602484fd5b600080fdfe604060808152600436101561001357600080fd5b6000803560e01c918263303194a5146100cc5750508063715018a6146100c35780637253b0bd146100ba5780637510d458146100b15780638da5cb5b146100a8578063c454eec91461009f578063dd89440f14610096578063f07df8b41461008d5763f2fde38b14610085575b600080fd5b610080610ab7565b50610080610a64565b50610080610a27565b506100806108e6565b50610080610783565b506100806106f1565b50610080610438565b506100806102ea565b3461021557817ffffffffffffffffffffffffffffffffffffffffffffffffffffffffffffffffc3601126102155760035490610107826107d6565b916101148251938461061d565b808352600384527fc2575a0e9e593c00f959f8c92f12db2869c3395a3b0502d05e2516446f71f85b938060208086015b84831061015c5785518061015889826102d6565b0390f35b85518285928a549261016d84610f7a565b8082526001948086169081156101db57506001146101a3575b5061019581600196038261061d565b815201980192019196610144565b8c8952838920955088905b8082106101c45750810183019450610195610186565b8654838301860152958501958794909101906101ae565b7fffffffffffffffffffffffffffffffffffffffffffffffffffffffffffffff00168584015250151560051b810183019450610195610186565b5080fd5b600091031261008057565b60005b8381106102375750506000910152565b8181015183820152602001610227565b908082519081815260208091019281808460051b8301019501936000915b8483106102755750505050505090565b9091929394958480806001937fffffffffffffffffffffffffffffffffffffffffffffffffffffffffffffffe080878303018852601f8c516102c281518092818752878088019101610224565b011601019801930193019194939290610265565b9060206102e7928181520190610247565b90565b5034610080576000807ffffffffffffffffffffffffffffffffffffffffffffffffffffffffffffffffc36011261038857610323610bed565b8073ffffffffffffffffffffffffffffffffffffffff81547fffffffffffffffffffffffff000000000000000000000000000000000000000081168355167f8be0079c531659141344cd1fd0a4f28419497f9722a3daafe3b4186f6b6457e08280a380f35b80fd5b6004359073ffffffffffffffffffffffffffffffffffffffff8216820361008057565b6024359073ffffffffffffffffffffffffffffffffffffffff8216820361008057565b6044359073ffffffffffffffffffffffffffffffffffffffff8216820361008057565b6064359073ffffffffffffffffffffffffffffffffffffffff8216820361008057565b359073ffffffffffffffffffffffffffffffffffffffff8216820361008057565b50346100805760207ffffffffffffffffffffffffffffffffffffffffffffffffffffffffffffffffc3601126100805761047061038b565b610478610bed565b73ffffffffffffffffffffffffffffffffffffffff908181161561052c577fdc1fbbe95c641e10d25dd4241251e6f887162c2bac8094f84455ae33b8511df591600254166105018273ffffffffffffffffffffffffffffffffffffffff167fffffffffffffffffffffffff00000000000000000000000000000000000000006002541617600255565b6040805173ffffffffffffffffffffffffffffffffffffffff928316815292909116602083015290a1005b60846040517f08c379a000000000000000000000000000000000000000000000000000000000815260206004820152602360248201527f49474f466163746f72795f5f64656661756c7449676f5f5a45524f5f4144445260448201527f45535300000000000000000000000000000000000000000000000000000000006064820152fd5b507f4e487b7100000000000000000000000000000000000000000000000000000000600052604160045260246000fd5b60c0810190811067ffffffffffffffff8211176105fc57604052565b6106046105b0565b604052565b67ffffffffffffffff81116105fc57604052565b90601f7fffffffffffffffffffffffffffffffffffffffffffffffffffffffffffffffe0910116810190811067ffffffffffffffff8211176105fc57604052565b9061066c604051928361061d565b565b81601f820112156100805780359067ffffffffffffffff82116106e4575b604051926106c260207fffffffffffffffffffffffffffffffffffffffffffffffffffffffffffffffe0601f860116018561061d565b8284526020838301011161008057816000926020809301838601378301015290565b6106ec6105b0565b61068c565b50346100805760207ffffffffffffffffffffffffffffffffffffffffffffffffffffffffffffffffc3601126100805760043567ffffffffffffffff81116100805773ffffffffffffffffffffffffffffffffffffffff61076f602061075c8194369060040161066e565b8160405193828580945193849201610224565b810160048152030190205416604051908152f35b50346100805760007ffffffffffffffffffffffffffffffffffffffffffffffffffffffffffffffffc36011261008057602073ffffffffffffffffffffffffffffffffffffffff60005416604051908152f35b60209067ffffffffffffffff81116107f0575b60051b0190565b6107f86105b0565b6107e9565b35906fffffffffffffffffffffffffffffffff8216820361008057565b81601f8201121561008057803590610831826107d6565b926040906108418251958661061d565b838552602091828601918360c080970286010194818611610080578401925b858410610871575050505050505090565b868483031261008057825190610886826105e0565b8435906004821015610080578287928a945282870135838201526108ab8688016107fd565b8682015260606108bc8189016107fd565b908201526080808801359082015260a06108d7818901610417565b90820152815201930192610860565b50346100805760e07ffffffffffffffffffffffffffffffffffffffffffffffffffffffffffffffffc3601126100805767ffffffffffffffff6004358181116100805761093790369060040161066e565b906109406103ae565b6109486103d1565b926109516103f4565b9060a435918483116100805736602384011215610080578260040135610976816107d6565b93610984604051958661061d565b8185526020918286016024809260051b8401019236841161008057828101915b848310610a015750505050505060c43594851161008057610158956109d06109da96369060040161081a565b9460843593610c6c565b60405173ffffffffffffffffffffffffffffffffffffffff90911681529081906020820190565b82358b8111610080578691610a1c839287369187010161066e565b8152019201916109a4565b50346100805760007ffffffffffffffffffffffffffffffffffffffffffffffffffffffffffffffffc360112610080576020600354604051908152f35b50346100805760007ffffffffffffffffffffffffffffffffffffffffffffffffffffffffffffffffc36011261008057602073ffffffffffffffffffffffffffffffffffffffff60025416604051908152f35b50346100805760207ffffffffffffffffffffffffffffffffffffffffffffffffffffffffffffffffc36011261008057610aef61038b565b610af7610bed565b73ffffffffffffffffffffffffffffffffffffffff8091168015610b69576000918254827fffffffffffffffffffffffff00000000000000000000000000000000000000008216178455167f8be0079c531659141344cd1fd0a4f28419497f9722a3daafe3b4186f6b6457e08380a380f35b60846040517f08c379a000000000000000000000000000000000000000000000000000000000815260206004820152602660248201527f4f776e61626c653a206e6577206f776e657220697320746865207a65726f206160448201527f64647265737300000000000000000000000000000000000000000000000000006064820152fd5b73ffffffffffffffffffffffffffffffffffffffff600054163303610c0e57565b60646040517f08c379a000000000000000000000000000000000000000000000000000000000815260206004820152602060248201527f4f776e61626c653a2063616c6c6572206973206e6f7420746865206f776e65726044820152fd5b929190949394600260015414610e4e576002600155610c89610bed565b73ffffffffffffffffffffffffffffffffffffffff96610cd088610cc9610caf88610eac565b5473ffffffffffffffffffffffffffffffffffffffff1690565b1615610ed2565b61309595610ce06020880161065e565b878152602081019761136789396040516020810190610d3081610d048b3386610f37565b037fffffffffffffffffffffffffffffffffffffffffffffffffffffffffffffffe0810183528261061d565b519020905160009889f598610d4487611021565b610d918a610d5189610eac565b9073ffffffffffffffffffffffffffffffffffffffff167fffffffffffffffffffffffff0000000000000000000000000000000000000000825416179055565b891697883b15610e4a5792610dff88937f83aa8d7e1b2e5d3bf4ad2ae16a05d9b859943c1f1dae85995ac5c0ccba5d6d87989693610e17989660405197889687967f985dfdb60000000000000000000000000000000000000000000000000000000088523360048901611200565b0381838a5af18015610e3d575b610e24575b50611346565b9180a39061066c60018055565b80610e31610e3792610609565b80610219565b38610e11565b610e45611339565b610e0c565b8780fd5b60646040517f08c379a000000000000000000000000000000000000000000000000000000000815260206004820152601f60248201527f5265656e7472616e637947756172643a207265656e7472616e742063616c6c006044820152fd5b6020610ec5918160405193828580945193849201610224565b8101600481520301902090565b15610ed957565b60646040517f08c379a000000000000000000000000000000000000000000000000000000000815260206004820152601e60248201527f49474f466163746f72793a2049474f20616c72656164792065786973747300006044820152fd5b7fffffffffffffffffffffffffffffffffffffffff0000000000000000000000006014939260601b168152610f758251809360208685019101610224565b010190565b90600182811c92168015610fc3575b6020831014610f9457565b7f4e487b7100000000000000000000000000000000000000000000000000000000600052602260045260246000fd5b91607f1691610f89565b90601f8111610fdb57505050565b600091825260208220906020601f850160051c83019410611017575b601f0160051c01915b82811061100c57505050565b818155600101611000565b9092508290610ff7565b60035490680100000000000000008210156111f3575b600191828101806003558110156111c45760036000527fc2575a0e9e593c00f959f8c92f12db2869c3395a3b0502d05e2516446f71f85b019181519167ffffffffffffffff83116111b7575b611097836110918654610f7a565b86610fcd565b60209081601f851160011461110f57506000918491826110e4575b50507fffffffffffffffffffffffffffffffffffffffffffffffffffffffffffffffff91921b9260031b1c1916179055565b015191507fffffffffffffffffffffffffffffffffffffffffffffffffffffffffffffffff386110b2565b9190847fffffffffffffffffffffffffffffffffffffffffffffffffffffffffffffffe08195961661114688600052602060002090565b946000905b8883831061119d5750505010611166575b505050811b019055565b01517fffffffffffffffffffffffffffffffffffffffffffffffffffffffffffffffff60f88460031b161c1916905538808061115c565b85870151885590960195948501948793509081019061114b565b6111bf6105b0565b611083565b7f4e487b7100000000000000000000000000000000000000000000000000000000600052603260045260246000fd5b6111fb6105b0565b611037565b909593949592919273ffffffffffffffffffffffffffffffffffffffff809116825280602094168483015280604093168383015260609516858201526080958682015261125960a09460e08684015260e0830190610247565b9360c0918281870391015283808951968781520198019660009081945b87861061128a575050505050505050505090565b909192939495969798998a51805160048082101561130d575082528881015189830152828101516fffffffffffffffffffffffffffffffff908116848401528b820151168b830152838101518483015285015173ffffffffffffffffffffffffffffffffffffffff16858201528501998701989796956001019493929190611276565b8660216024927f4e487b7100000000000000000000000000000000000000000000000000000000835252fd5b506040513d6000823e3d90fd5b61135e90602060405192828480945193849201610224565b81010390209056fe60808060405234610074576000805462010000600160b01b0319811633601081811b62010000600160b01b03169290921784559291901c6001600160a01b0316907f8be0079c531659141344cd1fd0a4f28419497f9722a3daafe3b4186f6b6457e09080a36001805561301b908161007a8239f35b600080fdfe6080604052600436101561001257600080fd5b6000803560e01c80630a9254e4146121735780630fa34ede146120d85780631bcaddc2146120725780635625671e14611ffd5780635a5fdab714611f975780635e170e7914611f3b578063715018a614611eba5780637518d35c14611d685780637ad3def214611ce45780637eae687e14611b1f578063809d458d14611a99578063852c49a714611a385780638da5cb5b14611a025780638ddfadac14610ea1578063907d308514610e54578063985dfdb6146108e457806398e3fdc41461087b578063ae00ee1f14610834578063c5c4744c146107f7578063db365f8414610794578063e3a2070b146105d5578063e6807afd14610574578063f1efb931146104cb578063f2fde38b146103fd578063faf0c581146101ba5763ff77d0be1461013b57600080fd5b346101b75760206003193601126101b7576004359067ffffffffffffffff82116101b75760206101858161017236600487016123ac565b81604051938285809451938492016125c5565b81017ff8bb2a4b5b30792eb350607495ebe7f79c5a5066287187429654459fae715b2481520301902054604051908152f35b80fd5b50346101b75760406003193601126101b7576101d46121c6565b6101dc6121e9565b6101e4612676565b73ffffffffffffffffffffffffffffffffffffffff80921691604051927f70a08231000000000000000000000000000000000000000000000000000000008452306004850152846020948581602481865afa9081156103f25782916103bf575b506102f594829160405195888701927fa9059cbb00000000000000000000000000000000000000000000000000000000845216602487015260448601526044855261028e856122de565b6040519461029b866122c2565b8786527f5361666545524332303a206c6f772d6c6576656c2063616c6c206661696c656488870152519082855af13d156103b7573d916102da8361233b565b926102e860405194856122fa565b83523d878785013e612b08565b8051828115918215610393575b505090501561030f575080f35b608490604051907f08c379a00000000000000000000000000000000000000000000000000000000082526004820152602a60248201527f5361666545524332303a204552433230206f7065726174696f6e20646964206e60448201527f6f742073756363656564000000000000000000000000000000000000000000006064820152fd5b83809293500103126103b35781015180151581036103b357808238610302565b8280fd5b606091612b08565b90508581813d83116103eb575b6103d681836122fa565b810103126103e757516102f5610244565b5080fd5b503d6103cc565b6040513d84823e3d90fd5b50346101b75760206003193601126101b7576104176121c6565b61041f612676565b73ffffffffffffffffffffffffffffffffffffffff81161561044757610444906126f8565b80f35b60846040517f08c379a000000000000000000000000000000000000000000000000000000000815260206004820152602660248201527f4f776e61626c653a206e6577206f776e657220697320746865207a65726f206160448201527f64647265737300000000000000000000000000000000000000000000000000006064820152fd5b50346101b75760206003193601126101b7576004356104e8612676565b6103e88110610516577ff8bb2a4b5b30792eb350607495ebe7f79c5a5066287187429654459fae715b1f5580f35b60646040517f08c379a000000000000000000000000000000000000000000000000000000000815260206004820152601f60248201527f49474f5772697461626c653a206772616e64546f74616c203c20315f303030006044820152fd5b50346101b7576105a86fffffffffffffffffffffffffffffffff60026105993661262b565b93906105a3612676565b61280c565b0191167fffffffffffffffffffffffffffffffff0000000000000000000000000000000082541617905580f35b50346101b75760e06003193601126101b75760043567ffffffffffffffff81116103e75761060790369060040161222d565b60c07fffffffffffffffffffffffffffffffffffffffffffffffffffffffffffffffdc3601126103b35761067d9061063d612676565b60a435926106777ff8bb2a4b5b30792eb350607495ebe7f79c5a5066287187429654459fae715b1f5485610672368686612375565b612f96565b50612783565b6024356004811015610790576106939082612a54565b60443560018201556fffffffffffffffffffffffffffffffff91600282016064358481169081900361078b577fffffffffffffffffffffffffffffffff00000000000000000000000000000000825416178155608435938416840361078b5760049361073a91906fffffffffffffffffffffffffffffffff7fffffffffffffffffffffffffffffffff0000000000000000000000000000000083549260801b169116179055565b60038201550160c43573ffffffffffffffffffffffffffffffffffffffff811680910361078b577fffffffffffffffffffffffff000000000000000000000000000000000000000082541617905580f35b600080fd5b8380fd5b50346101b7576104446107b560026107ab3661262b565b92906105a3612676565b01906fffffffffffffffffffffffffffffffff7fffffffffffffffffffffffffffffffff0000000000000000000000000000000083549260801b169116179055565b50346101b757806003193601126101b75760207ff8bb2a4b5b30792eb350607495ebe7f79c5a5066287187429654459fae715b2354604051908152f35b50346101b757806003193601126101b757602060ff7ff8bb2a4b5b30792eb350607495ebe7f79c5a5066287187429654459fae715b2254166108796040518092612589565bf35b50346101b75760206003193601126101b75760043567ffffffffffffffff81116103e7576108b06108b89136906004016123ac565b6105a3612676565b60037fffffffffffffffffffffffffffffffffffffffffffffffffffffffffffffff0082541617905580f35b50346101b75760e06003193601126101b7576108fe6121c6565b906109076121e9565b73ffffffffffffffffffffffffffffffffffffffff60448035828116959086900361078b576064908135968488169182890361078b576084359360a4359567ffffffffffffffff96878111610e50576109649036906004016123e2565b9660c435908111610e505761097d903690600401612480565b978a549960ff8b60081c16159a8b809c610e43575b8015610e2c575b15610da9577fffffffffffffffffffffffffffffffffffffffffffffffffffffffffffffff0081166001178d558b610d7b575b506109d5612676565b81851615610d1e5716948515610cc2578415610c3f5715610bbd578515610b6257505091610b0796979891610a0c610ae0946126f8565b7fffffffffffffffffffffffff0000000000000000000000000000000000000000917ff8bb2a4b5b30792eb350607495ebe7f79c5a5066287187429654459fae715b1c90838254161790557ff8bb2a4b5b30792eb350607495ebe7f79c5a5066287187429654459fae715b1d9182541617905573ffffffffffffffffffffffffffffffffffffffff7ff8bb2a4b5b30792eb350607495ebe7f79c5a5066287187429654459fae715b1e91167fffffffffffffffffffffffff0000000000000000000000000000000000000000825416179055565b7ff8bb2a4b5b30792eb350607495ebe7f79c5a5066287187429654459fae715b1f55612bd4565b610b0e5780f35b7fffffffffffffffffffffffffffffffffffffffffffffffffffffffffffff00ff81541681557f7f26b83ff96e1f2b6a682f133852f6798a09c465da95921460cefb3847402498602060405160018152a180f35b7f49474f5772697461626c655f5f6772616e64546f74616c5f5a45524f00000000604051917f08c379a000000000000000000000000000000000000000000000000000000000835260206004840152601c6024840152820152fd5b7f5f414444524553530000000000000000000000000000000000000000000000006084927f49474f5772697461626c655f5f747265617375727957616c6c65745f5a45524f604051937f08c379a00000000000000000000000000000000000000000000000000000000085526020600486015260286024860152840152820152fd5b507f53000000000000000000000000000000000000000000000000000000000000006084927f49474f5772697461626c655f5f7065726d6974325f5a45524f5f414444524553604051937f08c379a00000000000000000000000000000000000000000000000000000000085526020600486015260216024860152840152820152fd5b507f49474f5772697461626c655f5f746f6b656e5f5a45524f5f4144445245535300604051917f08c379a000000000000000000000000000000000000000000000000000000000835260206004840152601f6024840152820152fd5b50507f49474f5772697461626c655f5f6f776e65725f5a45524f5f4144445245535300604051917f08c379a000000000000000000000000000000000000000000000000000000000835260206004840152601f6024840152820152fd5b7fffffffffffffffffffffffffffffffffffffffffffffffffffffffffffff000016610101178c55386109cc565b6084847f647920696e697469616c697a6564000000000000000000000000000000000000877f496e697469616c697a61626c653a20636f6e747261637420697320616c726561604051937f08c379a000000000000000000000000000000000000000000000000000000000855260206004860152602e6024860152840152820152fd5b50303b1580156109995750600160ff821614610999565b50600160ff821610610992565b8a80fd5b50346101b75760406003193601126101b75760043567ffffffffffffffff81116103e757610e869036906004016123ac565b610e8e612676565b6001610e9c6024359261280c565b015580f35b50346101b7576003196080813601126103e75767ffffffffffffffff602435116103e757606081602435360301126103e75767ffffffffffffffff604435116103e7573660236044350112156103e75767ffffffffffffffff60443560040135116103e7573660246044356004013560051b6044350101116103e75767ffffffffffffffff606435116103e757606090606435360301126101b7576002600154146119a4576002600155610f5a60046024350180612967565b610f648183612783565b9160405192610f728461225b565b60ff81541660048110156119775773ffffffffffffffffffffffffffffffffffffffff9160049186526001810154602087015260028101546fffffffffffffffffffffffffffffffff8116604088015260801c60608701526003810154608087015201541660a0840152610fe4612851565b6080840151606082015161105961105061104961100460248035016129b8565b73ffffffffffffffffffffffffffffffffffffffff166000527ff8bb2a4b5b30792eb350607495ebe7f79c5a5066287187429654459fae715b25602052604060002090565b87876127f3565b54600435612a18565b60446024350135811161192c575061107460248035016129b8565b73ffffffffffffffffffffffffffffffffffffffff339116036118ce577ff8bb2a4b5b30792eb350607495ebe7f79c5a5066287187429654459fae715b23546110bf81600435612a18565b82811161188e575060ff7ff8bb2a4b5b30792eb350607495ebe7f79c5a5066287187429654459fae715b22541660048110156118615760018103611828575061111761111060046024350180612967565b3691612375565b60ff6111228261280c565b541660048110156117fb57600181036117aa57505061114461105087876127bb565b8381116117515750600161116661116060046024350180612967565b90612783565b0154966040516020808201527fffffffffffffffffffffffffffffffffffffffffffffffffffffffffffffffdd60243536030160243560040135121561174d5767ffffffffffffffff60046024356024358201350101351161174d57600460248035828101350191820135360391011361174d57606060408201526112628161120260a0820160046024803582810135019182013591016129d9565b73ffffffffffffffffffffffffffffffffffffffff611224602480350161220c565b166060830152604460243501356080830152037fffffffffffffffffffffffffffffffffffffffffffffffffffffffffffffffe081018352826122fa565b6020815191012095611279604435600401356123ca565b9661128760405198896122fa565b60443560048101358952602401602089015b60246044356004013560051b6044350101821061173d575050978a985b88518a10156112fe576112c98a8a612ac5565b5190818110156112ec578c526020526112e660408c205b99612a98565b986112b6565b908c526020526112e660408c206112e0565b8b98508a036116df57879573ffffffffffffffffffffffffffffffffffffffff956113c96113c260a09761134261133860248035016129b8565b9160043590612a18565b7ff8bb2a4b5b30792eb350607495ebe7f79c5a5066287187429654459fae715b235561136e86886127bb565b61137b6004358254612a18565b905573ffffffffffffffffffffffffffffffffffffffff166000527ff8bb2a4b5b30792eb350607495ebe7f79c5a5066287187429654459fae715b25602052604060002090565b84866127f3565b6113d66004358254612a18565b90557ff8bb2a4b5b30792eb350607495ebe7f79c5a5066287187429654459fae715b235414611671575b61140a82846127bb565b5414611632575b5050015116801561161357915b73ffffffffffffffffffffffffffffffffffffffff60408160208401511692846020835161144b816122c2565b82815201528482805161145d816122a6565b8151611468816122c2565b838152836020820152815282602082015201528460208351611489816122c2565b82815201528282519661149b886122c2565b16865260043560208701528151956114b2876122a6565b865260643560448101356020880152602401358287015201516040519291166114da836122c2565b825260043560208301526114f360643560040180612967565b90823b1561160f5761159a956115b386926040948551998a98899788967f30f28b7a0000000000000000000000000000000000000000000000000000000088526115616004890182516020809173ffffffffffffffffffffffffffffffffffffffff81511684520151910152565b60208181015160448a01529101516064880152815173ffffffffffffffffffffffffffffffffffffffff166084880152015160a4860152565b3360c485015261010060e48501526101048401916129d9565b03925af180156103f2576115ca575b506001805580f35b67ffffffffffffffff81116115e257604052816115c2565b6024827f4e487b710000000000000000000000000000000000000000000000000000000081526041600452fd5b8480fd5b5073ffffffffffffffffffffffffffffffffffffffff8251169161141e565b611641916105a3913691612375565b60027fffffffffffffffffffffffffffffffffffffffffffffffffffffffffffffff008254161790558680611411565b60027fffffffffffffffffffffffffffffffffffffffffffffffffffffffffffffff007ff8bb2a4b5b30792eb350607495ebe7f79c5a5066287187429654459fae715b225416177ff8bb2a4b5b30792eb350607495ebe7f79c5a5066287187429654459fae715b2255611400565b60646040517f08c379a000000000000000000000000000000000000000000000000000000000815260206004820152601460248201527f414c4c4f434154494f4e5f4e4f545f464f554e440000000000000000000000006044820152fd5b8135815260209182019101611299565b8980fd5b868461175e818994612a8b565b61179b6040519485947f2877ff9e0000000000000000000000000000000000000000000000000000000086526060600487015260648601916129d9565b91602484015260448301520390fd5b6117ec92506117f76040519384937f5f08440f0000000000000000000000000000000000000000000000000000000085526040600486015260448501906125e8565b916024840190612589565b0390fd5b60248a7f4e487b710000000000000000000000000000000000000000000000000000000081526021600452fd5b60249061185f604051917fb293db190000000000000000000000000000000000000000000000000000000083526004830190612589565bfd5b6024897f4e487b710000000000000000000000000000000000000000000000000000000081526021600452fd5b8261189b81604493612a8b565b604051917fcced311a00000000000000000000000000000000000000000000000000000000835260048301526024820152fd5b60646040517f08c379a000000000000000000000000000000000000000000000000000000000815260206004820152601a60248201527f6d73672e73656e6465723a204e4f545f415554484f52495a45440000000000006044820152fd5b61193e60449182602435013590612a8b565b604051907fadaa553200000000000000000000000000000000000000000000000000000000825282602435013560048301526024820152fd5b6024867f4e487b710000000000000000000000000000000000000000000000000000000081526021600452fd5b60646040517f08c379a000000000000000000000000000000000000000000000000000000000815260206004820152601f60248201527f5265656e7472616e637947756172643a207265656e7472616e742063616c6c006044820152fd5b50346101b757806003193601126101b75773ffffffffffffffffffffffffffffffffffffffff6020915460101c16604051908152f35b50346101b75760206003193601126101b75760043567ffffffffffffffff81116103e7576108b0611a6d9136906004016123ac565b60017fffffffffffffffffffffffffffffffffffffffffffffffffffffffffffffff0082541617905580f35b50346101b75760206003193601126101b757610444611ab66121c6565b611abe612676565b73ffffffffffffffffffffffffffffffffffffffff7ff8bb2a4b5b30792eb350607495ebe7f79c5a5066287187429654459fae715b1e91167fffffffffffffffffffffffff0000000000000000000000000000000000000000825416179055565b50346101b757806003193601126101b7577ff8bb2a4b5b30792eb350607495ebe7f79c5a5066287187429654459fae715b2090815491611b5e836123ca565b91611b6c60405193846122fa565b83835260209384840190819383527fd7213b7e353de0745ec7a29ec9ef3e1ace06ddce4f5a2658513c501175cdd8779183905b828210611c225750505050604051928484019085855251809152604084019460408260051b8601019392955b828710611bd85785850386f35b909192938280611c12837fffffffffffffffffffffffffffffffffffffffffffffffffffffffffffffffc08a6001960301865288516125e8565b9601920196019592919092611bcb565b60409796949751878992865492611c3884612914565b808252600194808616908115611caa5750600114611c72575b50611c608160019603826122fa565b81520194019101909296939596611b9f565b888d52838d2095508c905b808210611c935750810183019450611c60611c51565b8654838301860152958501958c9490910190611c7d565b7fffffffffffffffffffffffffffffffffffffffffffffffffffffffffffffff00168584015250151560051b810183019450611c60611c51565b50346101b75760206003193601126101b757611cfe6121c6565b611d06612676565b73ffffffffffffffffffffffffffffffffffffffff7ff8bb2a4b5b30792eb350607495ebe7f79c5a5066287187429654459fae715b1c91167fffffffffffffffffffffffff000000000000000000000000000000000000000082541617905580f35b50346101b75760206003193601126101b75760043567ffffffffffffffff81116103e757611d9d611dce9136906004016123ac565b8260a0604051611dac8161225b565b828152826020820152826040820152826060820152826080820152015261280c565b9060405191611ddc8361225b565b60ff815416916004831015611e8d5750826004918360c09552600181015460208301908152600282015460408401916fffffffffffffffffffffffffffffffff9283918284168252606087019360801c845260a06003870154966080890197885273ffffffffffffffffffffffffffffffffffffffff998a910154169701968752611e6a604051809a612589565b5160208901525116604087015251166060850152516080840152511660a0820152f35b807f4e487b7100000000000000000000000000000000000000000000000000000000602492526021600452fd5b50346101b757806003193601126101b757611ed3612676565b8073ffffffffffffffffffffffffffffffffffffffff81547fffffffffffffffffffff0000000000000000000000000000000000000000ffff8116835560101c167f8be0079c531659141344cd1fd0a4f28419497f9722a3daafe3b4186f6b6457e08280a380f35b50346101b75760406003193601126101b75767ffffffffffffffff6004358181116103b357611f6e9036906004016123e2565b6024359182116103b357611f89610444923690600401612480565b90611f92612676565b612bd4565b50346101b757806003193601126101b757611fb0612676565b7ff8bb2a4b5b30792eb350607495ebe7f79c5a5066287187429654459fae715b2260017fffffffffffffffffffffffffffffffffffffffffffffffffffffffffffffff0082541617905580f35b50346101b75760406003193601126101b75760043567ffffffffffffffff81116103e75761202f9036906004016123ac565b6003610e9c60243592612040612676565b61206c7ff8bb2a4b5b30792eb350607495ebe7f79c5a5066287187429654459fae715b1f548583612f96565b5061280c565b50346101b757806003193601126101b75761208b612676565b7ff8bb2a4b5b30792eb350607495ebe7f79c5a5066287187429654459fae715b2260037fffffffffffffffffffffffffffffffffffffffffffffffffffffffffffffff0082541617905580f35b50346101b75760406003193601126101b7576120f26121c6565b906024359067ffffffffffffffff82116101b757602061216a8461216461211c366004880161222d565b91909273ffffffffffffffffffffffffffffffffffffffff166000527ff8bb2a4b5b30792eb350607495ebe7f79c5a5066287187429654459fae715b25602052604060002090565b916127f3565b54604051908152f35b50346101b757806003193601126101b757606061218e612851565b73ffffffffffffffffffffffffffffffffffffffff908282825116926040830151169101519060405192835260208301526040820152f35b6004359073ffffffffffffffffffffffffffffffffffffffff8216820361078b57565b6024359073ffffffffffffffffffffffffffffffffffffffff8216820361078b57565b359073ffffffffffffffffffffffffffffffffffffffff8216820361078b57565b9181601f8401121561078b5782359167ffffffffffffffff831161078b576020838186019501011161078b57565b60c0810190811067ffffffffffffffff82111761227757604052565b7f4e487b7100000000000000000000000000000000000000000000000000000000600052604160045260246000fd5b6060810190811067ffffffffffffffff82111761227757604052565b6040810190811067ffffffffffffffff82111761227757604052565b6080810190811067ffffffffffffffff82111761227757604052565b90601f7fffffffffffffffffffffffffffffffffffffffffffffffffffffffffffffffe0910116810190811067ffffffffffffffff82111761227757604052565b67ffffffffffffffff811161227757601f017fffffffffffffffffffffffffffffffffffffffffffffffffffffffffffffffe01660200190565b9291926123818261233b565b9161238f60405193846122fa565b82948184528183011161078b578281602093846000960137010152565b9080601f8301121561078b578160206123c793359101612375565b90565b67ffffffffffffffff81116122775760051b60200190565b9080601f8301121561078b578135906123fa826123ca565b9261240860405194856122fa565b828452602092838086019160051b8301019280841161078b57848301915b8483106124365750505050505090565b823567ffffffffffffffff811161078b578691612458848480948901016123ac565b815201920191612426565b35906fffffffffffffffffffffffffffffffff8216820361078b57565b81601f8201121561078b57803590612497826123ca565b926040906124a7825195866122fa565b838552602091828601918360c08097028601019481861161078b578401925b8584106124d7575050505050505090565b868483031261078b5782519087820182811067ffffffffffffffff82111761255b578452843590600482101561078b578287928a94528287013583820152612520868801612463565b868201526060612531818901612463565b908201526080808801359082015260a061254c81890161220c565b908201528152019301926124c6565b602460007f4e487b710000000000000000000000000000000000000000000000000000000081526041600452fd5b9060048210156125965752565b7f4e487b7100000000000000000000000000000000000000000000000000000000600052602160045260246000fd5b60005b8381106125d85750506000910152565b81810151838201526020016125c8565b907fffffffffffffffffffffffffffffffffffffffffffffffffffffffffffffffe0601f602093612624815180928187528780880191016125c5565b0116010190565b604060031982011261078b576004359067ffffffffffffffff821161078b57612656916004016123ac565b906024356fffffffffffffffffffffffffffffffff8116810361078b5790565b73ffffffffffffffffffffffffffffffffffffffff60005460101c16330361269a57565b60646040517f08c379a000000000000000000000000000000000000000000000000000000000815260206004820152602060248201527f4f776e61626c653a2063616c6c6572206973206e6f7420746865206f776e65726044820152fd5b6000549075ffffffffffffffffffffffffffffffffffffffff00008160101b167fffffffffffffffffffff0000000000000000000000000000000000000000ffff83161760005573ffffffffffffffffffffffffffffffffffffffff8091169160101c167f8be0079c531659141344cd1fd0a4f28419497f9722a3daafe3b4186f6b6457e0600080a3565b60209082604051938492833781017ff8bb2a4b5b30792eb350607495ebe7f79c5a5066287187429654459fae715b2181520301902090565b60209082604051938492833781017ff8bb2a4b5b30792eb350607495ebe7f79c5a5066287187429654459fae715b2481520301902090565b6020919283604051948593843782019081520301902090565b60206128259181604051938285809451938492016125c5565b81017ff8bb2a4b5b30792eb350607495ebe7f79c5a5066287187429654459fae715b2181520301902090565b6040519061285e826122de565b8173ffffffffffffffffffffffffffffffffffffffff807ff8bb2a4b5b30792eb350607495ebe7f79c5a5066287187429654459fae715b1c54168252807ff8bb2a4b5b30792eb350607495ebe7f79c5a5066287187429654459fae715b1d541660208301527ff8bb2a4b5b30792eb350607495ebe7f79c5a5066287187429654459fae715b1e5416604082015260607ff8bb2a4b5b30792eb350607495ebe7f79c5a5066287187429654459fae715b1f54910152565b90600182811c9216801561295d575b602083101461292e57565b7f4e487b7100000000000000000000000000000000000000000000000000000000600052602260045260246000fd5b91607f1691612923565b9035907fffffffffffffffffffffffffffffffffffffffffffffffffffffffffffffffe18136030182121561078b570180359067ffffffffffffffff821161078b5760200191813603831361078b57565b3573ffffffffffffffffffffffffffffffffffffffff8116810361078b5790565b601f82602094937fffffffffffffffffffffffffffffffffffffffffffffffffffffffffffffffe0938186528686013760008582860101520116010190565b91908201809211612a2557565b7f4e487b7100000000000000000000000000000000000000000000000000000000600052601160045260246000fd5b9060048110156125965760ff7fffffffffffffffffffffffffffffffffffffffffffffffffffffffffffffff008354169116179055565b91908203918211612a2557565b7fffffffffffffffffffffffffffffffffffffffffffffffffffffffffffffffff8114612a255760010190565b8051821015612ad95760209160051b010190565b7f4e487b7100000000000000000000000000000000000000000000000000000000600052603260045260246000fd5b91929015612b835750815115612b1c575090565b3b15612b255790565b60646040517f08c379a000000000000000000000000000000000000000000000000000000000815260206004820152601d60248201527f416464726573733a2063616c6c20746f206e6f6e2d636f6e74726163740000006044820152fd5b825190915015612b965750805190602001fd5b6117f7906040519182917f08c379a00000000000000000000000000000000000000000000000000000000083526020600484015260248301906125e8565b8051825103612f38578051907ff8bb2a4b5b30792eb350607495ebe7f79c5a5066287187429654459fae715b1f5460005b838110612c13575050505050565b612c1d8184612ac5565b51612c398360809283612c30868b612ac5565b51015190612f96565b50612c448285612ac5565b517ff8bb2a4b5b30792eb350607495ebe7f79c5a5066287187429654459fae715b209081546801000000000000000081101561227757600192838201808255821015612ad9576000527fd7213b7e353de0745ec7a29ec9ef3e1ace06ddce4f5a2658513c501175cdd877019080519067ffffffffffffffff8211612277578190612cce8454612914565b90601f91828111612edf575b506020918311600114612e4257600092612e37575b50507fffffffffffffffffffffffffffffffffffffffffffffffffffffffffffffffff82851b9260031b1c19161790555b612d2a8388612ac5565b5191612d3f612d398588612ac5565b5161280c565b9083519260049384811015612e09579260a092612e0497969592612d7873ffffffffffffffffffffffffffffffffffffffff9684612a54565b6020870151908301556040860151606087015160801b7fffffffffffffffffffffffffffffffff00000000000000000000000000000000166fffffffffffffffffffffffffffffffff91909116176002830155850151600382015501920151167fffffffffffffffffffffffff0000000000000000000000000000000000000000825416179055612a98565b612c05565b6021857f4e487b71000000000000000000000000000000000000000000000000000000006000525260246000fd5b015190503880612cef565b907fffffffffffffffffffffffffffffffffffffffffffffffffffffffffffffffe08694169185600052816000209260005b818110612ec757508411612e90575b505050811b019055612d20565b01517fffffffffffffffffffffffffffffffffffffffffffffffffffffffffffffffff60f88460031b161c19169055388080612e83565b82840151855588969094019360209384019301612e74565b9091925084600052602090816000209084600591818801831c8401948810612f2f575b9187968a93969594929601901c01915b828110612f20575050612cda565b60008155869550889101612f12565b93508293612f02565b60646040517f08c379a000000000000000000000000000000000000000000000000000000000815260206004820152601f60248201527f49474f5772697461626c653a207461677320617272617973206c656e677468006044820152fd5b91808211612fa657505050600090565b61179b93506040519384937fbf45f2210000000000000000000000000000000000000000000000000000000085526060600486015260648501906125e856fea26469706673582212200efd4d87395036ee16090e3dbf3967998af1894c082d589c3b0c2803dfeaccdd64736f6c63430008110033a264697066735822122010f7fc929560fbeb83f78b63606b96df7cbda99b40e4196ec280b7ad755c1ec564736f6c6343000811003360808060405234610074576000805462010000600160b01b0319811633601081811b62010000600160b01b03169290921784559291901c6001600160a01b0316907f8be0079c531659141344cd1fd0a4f28419497f9722a3daafe3b4186f6b6457e09080a36001805561301b908161007a8239f35b600080fdfe6080604052600436101561001257600080fd5b6000803560e01c80630a9254e4146121735780630fa34ede146120d85780631bcaddc2146120725780635625671e14611ffd5780635a5fdab714611f975780635e170e7914611f3b578063715018a614611eba5780637518d35c14611d685780637ad3def214611ce45780637eae687e14611b1f578063809d458d14611a99578063852c49a714611a385780638da5cb5b14611a025780638ddfadac14610ea1578063907d308514610e54578063985dfdb6146108e457806398e3fdc41461087b578063ae00ee1f14610834578063c5c4744c146107f7578063db365f8414610794578063e3a2070b146105d5578063e6807afd14610574578063f1efb931146104cb578063f2fde38b146103fd578063faf0c581146101ba5763ff77d0be1461013b57600080fd5b346101b75760206003193601126101b7576004359067ffffffffffffffff82116101b75760206101858161017236600487016123ac565b81604051938285809451938492016125c5565b81017ff8bb2a4b5b30792eb350607495ebe7f79c5a5066287187429654459fae715b2481520301902054604051908152f35b80fd5b50346101b75760406003193601126101b7576101d46121c6565b6101dc6121e9565b6101e4612676565b73ffffffffffffffffffffffffffffffffffffffff80921691604051927f70a08231000000000000000000000000000000000000000000000000000000008452306004850152846020948581602481865afa9081156103f25782916103bf575b506102f594829160405195888701927fa9059cbb00000000000000000000000000000000000000000000000000000000845216602487015260448601526044855261028e856122de565b6040519461029b866122c2565b8786527f5361666545524332303a206c6f772d6c6576656c2063616c6c206661696c656488870152519082855af13d156103b7573d916102da8361233b565b926102e860405194856122fa565b83523d878785013e612b08565b8051828115918215610393575b505090501561030f575080f35b608490604051907f08c379a00000000000000000000000000000000000000000000000000000000082526004820152602a60248201527f5361666545524332303a204552433230206f7065726174696f6e20646964206e60448201527f6f742073756363656564000000000000000000000000000000000000000000006064820152fd5b83809293500103126103b35781015180151581036103b357808238610302565b8280fd5b606091612b08565b90508581813d83116103eb575b6103d681836122fa565b810103126103e757516102f5610244565b5080fd5b503d6103cc565b6040513d84823e3d90fd5b50346101b75760206003193601126101b7576104176121c6565b61041f612676565b73ffffffffffffffffffffffffffffffffffffffff81161561044757610444906126f8565b80f35b60846040517f08c379a000000000000000000000000000000000000000000000000000000000815260206004820152602660248201527f4f776e61626c653a206e6577206f776e657220697320746865207a65726f206160448201527f64647265737300000000000000000000000000000000000000000000000000006064820152fd5b50346101b75760206003193601126101b7576004356104e8612676565b6103e88110610516577ff8bb2a4b5b30792eb350607495ebe7f79c5a5066287187429654459fae715b1f5580f35b60646040517f08c379a000000000000000000000000000000000000000000000000000000000815260206004820152601f60248201527f49474f5772697461626c653a206772616e64546f74616c203c20315f303030006044820152fd5b50346101b7576105a86fffffffffffffffffffffffffffffffff60026105993661262b565b93906105a3612676565b61280c565b0191167fffffffffffffffffffffffffffffffff0000000000000000000000000000000082541617905580f35b50346101b75760e06003193601126101b75760043567ffffffffffffffff81116103e75761060790369060040161222d565b60c07fffffffffffffffffffffffffffffffffffffffffffffffffffffffffffffffdc3601126103b35761067d9061063d612676565b60a435926106777ff8bb2a4b5b30792eb350607495ebe7f79c5a5066287187429654459fae715b1f5485610672368686612375565b612f96565b50612783565b6024356004811015610790576106939082612a54565b60443560018201556fffffffffffffffffffffffffffffffff91600282016064358481169081900361078b577fffffffffffffffffffffffffffffffff00000000000000000000000000000000825416178155608435938416840361078b5760049361073a91906fffffffffffffffffffffffffffffffff7fffffffffffffffffffffffffffffffff0000000000000000000000000000000083549260801b169116179055565b60038201550160c43573ffffffffffffffffffffffffffffffffffffffff811680910361078b577fffffffffffffffffffffffff000000000000000000000000000000000000000082541617905580f35b600080fd5b8380fd5b50346101b7576104446107b560026107ab3661262b565b92906105a3612676565b01906fffffffffffffffffffffffffffffffff7fffffffffffffffffffffffffffffffff0000000000000000000000000000000083549260801b169116179055565b50346101b757806003193601126101b75760207ff8bb2a4b5b30792eb350607495ebe7f79c5a5066287187429654459fae715b2354604051908152f35b50346101b757806003193601126101b757602060ff7ff8bb2a4b5b30792eb350607495ebe7f79c5a5066287187429654459fae715b2254166108796040518092612589565bf35b50346101b75760206003193601126101b75760043567ffffffffffffffff81116103e7576108b06108b89136906004016123ac565b6105a3612676565b60037fffffffffffffffffffffffffffffffffffffffffffffffffffffffffffffff0082541617905580f35b50346101b75760e06003193601126101b7576108fe6121c6565b906109076121e9565b73ffffffffffffffffffffffffffffffffffffffff60448035828116959086900361078b576064908135968488169182890361078b576084359360a4359567ffffffffffffffff96878111610e50576109649036906004016123e2565b9660c435908111610e505761097d903690600401612480565b978a549960ff8b60081c16159a8b809c610e43575b8015610e2c575b15610da9577fffffffffffffffffffffffffffffffffffffffffffffffffffffffffffffff0081166001178d558b610d7b575b506109d5612676565b81851615610d1e5716948515610cc2578415610c3f5715610bbd578515610b6257505091610b0796979891610a0c610ae0946126f8565b7fffffffffffffffffffffffff0000000000000000000000000000000000000000917ff8bb2a4b5b30792eb350607495ebe7f79c5a5066287187429654459fae715b1c90838254161790557ff8bb2a4b5b30792eb350607495ebe7f79c5a5066287187429654459fae715b1d9182541617905573ffffffffffffffffffffffffffffffffffffffff7ff8bb2a4b5b30792eb350607495ebe7f79c5a5066287187429654459fae715b1e91167fffffffffffffffffffffffff0000000000000000000000000000000000000000825416179055565b7ff8bb2a4b5b30792eb350607495ebe7f79c5a5066287187429654459fae715b1f55612bd4565b610b0e5780f35b7fffffffffffffffffffffffffffffffffffffffffffffffffffffffffffff00ff81541681557f7f26b83ff96e1f2b6a682f133852f6798a09c465da95921460cefb3847402498602060405160018152a180f35b7f49474f5772697461626c655f5f6772616e64546f74616c5f5a45524f00000000604051917f08c379a000000000000000000000000000000000000000000000000000000000835260206004840152601c6024840152820152fd5b7f5f414444524553530000000000000000000000000000000000000000000000006084927f49474f5772697461626c655f5f747265617375727957616c6c65745f5a45524f604051937f08c379a00000000000000000000000000000000000000000000000000000000085526020600486015260286024860152840152820152fd5b507f53000000000000000000000000000000000000000000000000000000000000006084927f49474f5772697461626c655f5f7065726d6974325f5a45524f5f414444524553604051937f08c379a00000000000000000000000000000000000000000000000000000000085526020600486015260216024860152840152820152fd5b507f49474f5772697461626c655f5f746f6b656e5f5a45524f5f4144445245535300604051917f08c379a000000000000000000000000000000000000000000000000000000000835260206004840152601f6024840152820152fd5b50507f49474f5772697461626c655f5f6f776e65725f5a45524f5f4144445245535300604051917f08c379a000000000000000000000000000000000000000000000000000000000835260206004840152601f6024840152820152fd5b7fffffffffffffffffffffffffffffffffffffffffffffffffffffffffffff000016610101178c55386109cc565b6084847f647920696e697469616c697a6564000000000000000000000000000000000000877f496e697469616c697a61626c653a20636f6e747261637420697320616c726561604051937f08c379a000000000000000000000000000000000000000000000000000000000855260206004860152602e6024860152840152820152fd5b50303b1580156109995750600160ff821614610999565b50600160ff821610610992565b8a80fd5b50346101b75760406003193601126101b75760043567ffffffffffffffff81116103e757610e869036906004016123ac565b610e8e612676565b6001610e9c6024359261280c565b015580f35b50346101b7576003196080813601126103e75767ffffffffffffffff602435116103e757606081602435360301126103e75767ffffffffffffffff604435116103e7573660236044350112156103e75767ffffffffffffffff60443560040135116103e7573660246044356004013560051b6044350101116103e75767ffffffffffffffff606435116103e757606090606435360301126101b7576002600154146119a4576002600155610f5a60046024350180612967565b610f648183612783565b9160405192610f728461225b565b60ff81541660048110156119775773ffffffffffffffffffffffffffffffffffffffff9160049186526001810154602087015260028101546fffffffffffffffffffffffffffffffff8116604088015260801c60608701526003810154608087015201541660a0840152610fe4612851565b6080840151606082015161105961105061104961100460248035016129b8565b73ffffffffffffffffffffffffffffffffffffffff166000527ff8bb2a4b5b30792eb350607495ebe7f79c5a5066287187429654459fae715b25602052604060002090565b87876127f3565b54600435612a18565b60446024350135811161192c575061107460248035016129b8565b73ffffffffffffffffffffffffffffffffffffffff339116036118ce577ff8bb2a4b5b30792eb350607495ebe7f79c5a5066287187429654459fae715b23546110bf81600435612a18565b82811161188e575060ff7ff8bb2a4b5b30792eb350607495ebe7f79c5a5066287187429654459fae715b22541660048110156118615760018103611828575061111761111060046024350180612967565b3691612375565b60ff6111228261280c565b541660048110156117fb57600181036117aa57505061114461105087876127bb565b8381116117515750600161116661116060046024350180612967565b90612783565b0154966040516020808201527fffffffffffffffffffffffffffffffffffffffffffffffffffffffffffffffdd60243536030160243560040135121561174d5767ffffffffffffffff60046024356024358201350101351161174d57600460248035828101350191820135360391011361174d57606060408201526112628161120260a0820160046024803582810135019182013591016129d9565b73ffffffffffffffffffffffffffffffffffffffff611224602480350161220c565b166060830152604460243501356080830152037fffffffffffffffffffffffffffffffffffffffffffffffffffffffffffffffe081018352826122fa565b6020815191012095611279604435600401356123ca565b9661128760405198896122fa565b60443560048101358952602401602089015b60246044356004013560051b6044350101821061173d575050978a985b88518a10156112fe576112c98a8a612ac5565b5190818110156112ec578c526020526112e660408c205b99612a98565b986112b6565b908c526020526112e660408c206112e0565b8b98508a036116df57879573ffffffffffffffffffffffffffffffffffffffff956113c96113c260a09761134261133860248035016129b8565b9160043590612a18565b7ff8bb2a4b5b30792eb350607495ebe7f79c5a5066287187429654459fae715b235561136e86886127bb565b61137b6004358254612a18565b905573ffffffffffffffffffffffffffffffffffffffff166000527ff8bb2a4b5b30792eb350607495ebe7f79c5a5066287187429654459fae715b25602052604060002090565b84866127f3565b6113d66004358254612a18565b90557ff8bb2a4b5b30792eb350607495ebe7f79c5a5066287187429654459fae715b235414611671575b61140a82846127bb565b5414611632575b5050015116801561161357915b73ffffffffffffffffffffffffffffffffffffffff60408160208401511692846020835161144b816122c2565b82815201528482805161145d816122a6565b8151611468816122c2565b838152836020820152815282602082015201528460208351611489816122c2565b82815201528282519661149b886122c2565b16865260043560208701528151956114b2876122a6565b865260643560448101356020880152602401358287015201516040519291166114da836122c2565b825260043560208301526114f360643560040180612967565b90823b1561160f5761159a956115b386926040948551998a98899788967f30f28b7a0000000000000000000000000000000000000000000000000000000088526115616004890182516020809173ffffffffffffffffffffffffffffffffffffffff81511684520151910152565b60208181015160448a01529101516064880152815173ffffffffffffffffffffffffffffffffffffffff166084880152015160a4860152565b3360c485015261010060e48501526101048401916129d9565b03925af180156103f2576115ca575b506001805580f35b67ffffffffffffffff81116115e257604052816115c2565b6024827f4e487b710000000000000000000000000000000000000000000000000000000081526041600452fd5b8480fd5b5073ffffffffffffffffffffffffffffffffffffffff8251169161141e565b611641916105a3913691612375565b60027fffffffffffffffffffffffffffffffffffffffffffffffffffffffffffffff008254161790558680611411565b60027fffffffffffffffffffffffffffffffffffffffffffffffffffffffffffffff007ff8bb2a4b5b30792eb350607495ebe7f79c5a5066287187429654459fae715b225416177ff8bb2a4b5b30792eb350607495ebe7f79c5a5066287187429654459fae715b2255611400565b60646040517f08c379a000000000000000000000000000000000000000000000000000000000815260206004820152601460248201527f414c4c4f434154494f4e5f4e4f545f464f554e440000000000000000000000006044820152fd5b8135815260209182019101611299565b8980fd5b868461175e818994612a8b565b61179b6040519485947f2877ff9e0000000000000000000000000000000000000000000000000000000086526060600487015260648601916129d9565b91602484015260448301520390fd5b6117ec92506117f76040519384937f5f08440f0000000000000000000000000000000000000000000000000000000085526040600486015260448501906125e8565b916024840190612589565b0390fd5b60248a7f4e487b710000000000000000000000000000000000000000000000000000000081526021600452fd5b60249061185f604051917fb293db190000000000000000000000000000000000000000000000000000000083526004830190612589565bfd5b6024897f4e487b710000000000000000000000000000000000000000000000000000000081526021600452fd5b8261189b81604493612a8b565b604051917fcced311a00000000000000000000000000000000000000000000000000000000835260048301526024820152fd5b60646040517f08c379a000000000000000000000000000000000000000000000000000000000815260206004820152601a60248201527f6d73672e73656e6465723a204e4f545f415554484f52495a45440000000000006044820152fd5b61193e60449182602435013590612a8b565b604051907fadaa553200000000000000000000000000000000000000000000000000000000825282602435013560048301526024820152fd5b6024867f4e487b710000000000000000000000000000000000000000000000000000000081526021600452fd5b60646040517f08c379a000000000000000000000000000000000000000000000000000000000815260206004820152601f60248201527f5265656e7472616e637947756172643a207265656e7472616e742063616c6c006044820152fd5b50346101b757806003193601126101b75773ffffffffffffffffffffffffffffffffffffffff6020915460101c16604051908152f35b50346101b75760206003193601126101b75760043567ffffffffffffffff81116103e7576108b0611a6d9136906004016123ac565b60017fffffffffffffffffffffffffffffffffffffffffffffffffffffffffffffff0082541617905580f35b50346101b75760206003193601126101b757610444611ab66121c6565b611abe612676565b73ffffffffffffffffffffffffffffffffffffffff7ff8bb2a4b5b30792eb350607495ebe7f79c5a5066287187429654459fae715b1e91167fffffffffffffffffffffffff0000000000000000000000000000000000000000825416179055565b50346101b757806003193601126101b7577ff8bb2a4b5b30792eb350607495ebe7f79c5a5066287187429654459fae715b2090815491611b5e836123ca565b91611b6c60405193846122fa565b83835260209384840190819383527fd7213b7e353de0745ec7a29ec9ef3e1ace06ddce4f5a2658513c501175cdd8779183905b828210611c225750505050604051928484019085855251809152604084019460408260051b8601019392955b828710611bd85785850386f35b909192938280611c12837fffffffffffffffffffffffffffffffffffffffffffffffffffffffffffffffc08a6001960301865288516125e8565b9601920196019592919092611bcb565b60409796949751878992865492611c3884612914565b808252600194808616908115611caa5750600114611c72575b50611c608160019603826122fa565b81520194019101909296939596611b9f565b888d52838d2095508c905b808210611c935750810183019450611c60611c51565b8654838301860152958501958c9490910190611c7d565b7fffffffffffffffffffffffffffffffffffffffffffffffffffffffffffffff00168584015250151560051b810183019450611c60611c51565b50346101b75760206003193601126101b757611cfe6121c6565b611d06612676565b73ffffffffffffffffffffffffffffffffffffffff7ff8bb2a4b5b30792eb350607495ebe7f79c5a5066287187429654459fae715b1c91167fffffffffffffffffffffffff000000000000000000000000000000000000000082541617905580f35b50346101b75760206003193601126101b75760043567ffffffffffffffff81116103e757611d9d611dce9136906004016123ac565b8260a0604051611dac8161225b565b828152826020820152826040820152826060820152826080820152015261280c565b9060405191611ddc8361225b565b60ff815416916004831015611e8d5750826004918360c09552600181015460208301908152600282015460408401916fffffffffffffffffffffffffffffffff9283918284168252606087019360801c845260a06003870154966080890197885273ffffffffffffffffffffffffffffffffffffffff998a910154169701968752611e6a604051809a612589565b5160208901525116604087015251166060850152516080840152511660a0820152f35b807f4e487b7100000000000000000000000000000000000000000000000000000000602492526021600452fd5b50346101b757806003193601126101b757611ed3612676565b8073ffffffffffffffffffffffffffffffffffffffff81547fffffffffffffffffffff0000000000000000000000000000000000000000ffff8116835560101c167f8be0079c531659141344cd1fd0a4f28419497f9722a3daafe3b4186f6b6457e08280a380f35b50346101b75760406003193601126101b75767ffffffffffffffff6004358181116103b357611f6e9036906004016123e2565b6024359182116103b357611f89610444923690600401612480565b90611f92612676565b612bd4565b50346101b757806003193601126101b757611fb0612676565b7ff8bb2a4b5b30792eb350607495ebe7f79c5a5066287187429654459fae715b2260017fffffffffffffffffffffffffffffffffffffffffffffffffffffffffffffff0082541617905580f35b50346101b75760406003193601126101b75760043567ffffffffffffffff81116103e75761202f9036906004016123ac565b6003610e9c60243592612040612676565b61206c7ff8bb2a4b5b30792eb350607495ebe7f79c5a5066287187429654459fae715b1f548583612f96565b5061280c565b50346101b757806003193601126101b75761208b612676565b7ff8bb2a4b5b30792eb350607495ebe7f79c5a5066287187429654459fae715b2260037fffffffffffffffffffffffffffffffffffffffffffffffffffffffffffffff0082541617905580f35b50346101b75760406003193601126101b7576120f26121c6565b906024359067ffffffffffffffff82116101b757602061216a8461216461211c366004880161222d565b91909273ffffffffffffffffffffffffffffffffffffffff166000527ff8bb2a4b5b30792eb350607495ebe7f79c5a5066287187429654459fae715b25602052604060002090565b916127f3565b54604051908152f35b50346101b757806003193601126101b757606061218e612851565b73ffffffffffffffffffffffffffffffffffffffff908282825116926040830151169101519060405192835260208301526040820152f35b6004359073ffffffffffffffffffffffffffffffffffffffff8216820361078b57565b6024359073ffffffffffffffffffffffffffffffffffffffff8216820361078b57565b359073ffffffffffffffffffffffffffffffffffffffff8216820361078b57565b9181601f8401121561078b5782359167ffffffffffffffff831161078b576020838186019501011161078b57565b60c0810190811067ffffffffffffffff82111761227757604052565b7f4e487b7100000000000000000000000000000000000000000000000000000000600052604160045260246000fd5b6060810190811067ffffffffffffffff82111761227757604052565b6040810190811067ffffffffffffffff82111761227757604052565b6080810190811067ffffffffffffffff82111761227757604052565b90601f7fffffffffffffffffffffffffffffffffffffffffffffffffffffffffffffffe0910116810190811067ffffffffffffffff82111761227757604052565b67ffffffffffffffff811161227757601f017fffffffffffffffffffffffffffffffffffffffffffffffffffffffffffffffe01660200190565b9291926123818261233b565b9161238f60405193846122fa565b82948184528183011161078b578281602093846000960137010152565b9080601f8301121561078b578160206123c793359101612375565b90565b67ffffffffffffffff81116122775760051b60200190565b9080601f8301121561078b578135906123fa826123ca565b9261240860405194856122fa565b828452602092838086019160051b8301019280841161078b57848301915b8483106124365750505050505090565b823567ffffffffffffffff811161078b578691612458848480948901016123ac565b815201920191612426565b35906fffffffffffffffffffffffffffffffff8216820361078b57565b81601f8201121561078b57803590612497826123ca565b926040906124a7825195866122fa565b838552602091828601918360c08097028601019481861161078b578401925b8584106124d7575050505050505090565b868483031261078b5782519087820182811067ffffffffffffffff82111761255b578452843590600482101561078b578287928a94528287013583820152612520868801612463565b868201526060612531818901612463565b908201526080808801359082015260a061254c81890161220c565b908201528152019301926124c6565b602460007f4e487b710000000000000000000000000000000000000000000000000000000081526041600452fd5b9060048210156125965752565b7f4e487b7100000000000000000000000000000000000000000000000000000000600052602160045260246000fd5b60005b8381106125d85750506000910152565b81810151838201526020016125c8565b907fffffffffffffffffffffffffffffffffffffffffffffffffffffffffffffffe0601f602093612624815180928187528780880191016125c5565b0116010190565b604060031982011261078b576004359067ffffffffffffffff821161078b57612656916004016123ac565b906024356fffffffffffffffffffffffffffffffff8116810361078b5790565b73ffffffffffffffffffffffffffffffffffffffff60005460101c16330361269a57565b60646040517f08c379a000000000000000000000000000000000000000000000000000000000815260206004820152602060248201527f4f776e61626c653a2063616c6c6572206973206e6f7420746865206f776e65726044820152fd5b6000549075ffffffffffffffffffffffffffffffffffffffff00008160101b167fffffffffffffffffffff0000000000000000000000000000000000000000ffff83161760005573ffffffffffffffffffffffffffffffffffffffff8091169160101c167f8be0079c531659141344cd1fd0a4f28419497f9722a3daafe3b4186f6b6457e0600080a3565b60209082604051938492833781017ff8bb2a4b5b30792eb350607495ebe7f79c5a5066287187429654459fae715b2181520301902090565b60209082604051938492833781017ff8bb2a4b5b30792eb350607495ebe7f79c5a5066287187429654459fae715b2481520301902090565b6020919283604051948593843782019081520301902090565b60206128259181604051938285809451938492016125c5565b81017ff8bb2a4b5b30792eb350607495ebe7f79c5a5066287187429654459fae715b2181520301902090565b6040519061285e826122de565b8173ffffffffffffffffffffffffffffffffffffffff807ff8bb2a4b5b30792eb350607495ebe7f79c5a5066287187429654459fae715b1c54168252807ff8bb2a4b5b30792eb350607495ebe7f79c5a5066287187429654459fae715b1d541660208301527ff8bb2a4b5b30792eb350607495ebe7f79c5a5066287187429654459fae715b1e5416604082015260607ff8bb2a4b5b30792eb350607495ebe7f79c5a5066287187429654459fae715b1f54910152565b90600182811c9216801561295d575b602083101461292e57565b7f4e487b7100000000000000000000000000000000000000000000000000000000600052602260045260246000fd5b91607f1691612923565b9035907fffffffffffffffffffffffffffffffffffffffffffffffffffffffffffffffe18136030182121561078b570180359067ffffffffffffffff821161078b5760200191813603831361078b57565b3573ffffffffffffffffffffffffffffffffffffffff8116810361078b5790565b601f82602094937fffffffffffffffffffffffffffffffffffffffffffffffffffffffffffffffe0938186528686013760008582860101520116010190565b91908201809211612a2557565b7f4e487b7100000000000000000000000000000000000000000000000000000000600052601160045260246000fd5b9060048110156125965760ff7fffffffffffffffffffffffffffffffffffffffffffffffffffffffffffffff008354169116179055565b91908203918211612a2557565b7fffffffffffffffffffffffffffffffffffffffffffffffffffffffffffffffff8114612a255760010190565b8051821015612ad95760209160051b010190565b7f4e487b7100000000000000000000000000000000000000000000000000000000600052603260045260246000fd5b91929015612b835750815115612b1c575090565b3b15612b255790565b60646040517f08c379a000000000000000000000000000000000000000000000000000000000815260206004820152601d60248201527f416464726573733a2063616c6c20746f206e6f6e2d636f6e74726163740000006044820152fd5b825190915015612b965750805190602001fd5b6117f7906040519182917f08c379a00000000000000000000000000000000000000000000000000000000083526020600484015260248301906125e8565b8051825103612f38578051907ff8bb2a4b5b30792eb350607495ebe7f79c5a5066287187429654459fae715b1f5460005b838110612c13575050505050565b612c1d8184612ac5565b51612c398360809283612c30868b612ac5565b51015190612f96565b50612c448285612ac5565b517ff8bb2a4b5b30792eb350607495ebe7f79c5a5066287187429654459fae715b209081546801000000000000000081101561227757600192838201808255821015612ad9576000527fd7213b7e353de0745ec7a29ec9ef3e1ace06ddce4f5a2658513c501175cdd877019080519067ffffffffffffffff8211612277578190612cce8454612914565b90601f91828111612edf575b506020918311600114612e4257600092612e37575b50507fffffffffffffffffffffffffffffffffffffffffffffffffffffffffffffffff82851b9260031b1c19161790555b612d2a8388612ac5565b5191612d3f612d398588612ac5565b5161280c565b9083519260049384811015612e09579260a092612e0497969592612d7873ffffffffffffffffffffffffffffffffffffffff9684612a54565b6020870151908301556040860151606087015160801b7fffffffffffffffffffffffffffffffff00000000000000000000000000000000166fffffffffffffffffffffffffffffffff91909116176002830155850151600382015501920151167fffffffffffffffffffffffff0000000000000000000000000000000000000000825416179055612a98565b612c05565b6021857f4e487b71000000000000000000000000000000000000000000000000000000006000525260246000fd5b015190503880612cef565b907fffffffffffffffffffffffffffffffffffffffffffffffffffffffffffffffe08694169185600052816000209260005b818110612ec757508411612e90575b505050811b019055612d20565b01517fffffffffffffffffffffffffffffffffffffffffffffffffffffffffffffffff60f88460031b161c19169055388080612e83565b82840151855588969094019360209384019301612e74565b9091925084600052602090816000209084600591818801831c8401948810612f2f575b9187968a93969594929601901c01915b828110612f20575050612cda565b60008155869550889101612f12565b93508293612f02565b60646040517f08c379a000000000000000000000000000000000000000000000000000000000815260206004820152601f60248201527f49474f5772697461626c653a207461677320617272617973206c656e677468006044820152fd5b91808211612fa657505050600090565b61179b93506040519384937fbf45f2210000000000000000000000000000000000000000000000000000000085526060600486015260648501906125e856fea26469706673582212200efd4d87395036ee16090e3dbf3967998af1894c082d589c3b0c2803dfeaccdd64736f6c63430008110033",
    "linkReferences": {}
  },
  "methodIdentifiers": {
    "createIGO(string,address,address,address,uint256,string[],(uint8,bytes32,uint128,uint128,uint256,address)[])": "c454eec9",
    "defaultIgo()": "f07df8b4",
    "igoCount()": "dd89440f",
    "igoNames()": "303194a5",
    "igoWithName(string)": "7510d458",
    "owner()": "8da5cb5b",
    "renounceOwnership()": "715018a6",
    "transferOwnership(address)": "f2fde38b",
    "updateDefaultIgo(address)": "7253b0bd"
  },
  "id": 48
}