{
  "abi": [
    {
      "anonymous": false,
      "inputs": [
        {
          "indexed": true,
          "internalType": "address",
          "name": "oldDefaultVesting",
          "type": "address"
        },
        {
          "indexed": false,
          "internalType": "bytes",
          "name": "oldVestingCreationCode",
          "type": "bytes"
        },
        {
          "indexed": true,
          "internalType": "address",
          "name": "newDefaultVesting",
          "type": "address"
        },
        {
          "indexed": true,
          "internalType": "bytes",
          "name": "newVestingCreationCode",
          "type": "bytes"
        }
      ],
      "name": "DefaultVestingUpdated",
      "type": "event"
    },
    {
      "anonymous": false,
      "inputs": [
        {
          "indexed": true,
          "internalType": "string",
          "name": "igoName",
          "type": "string"
        },
        {
          "indexed": true,
          "internalType": "address",
          "name": "igo",
          "type": "address"
        },
        {
          "indexed": true,
          "internalType": "address",
          "name": "vesting",
          "type": "address"
        }
      ],
      "name": "IGOCreated",
      "type": "event"
    },
    {
      "anonymous": false,
      "inputs": [
        {
          "indexed": true,
          "internalType": "address",
          "name": "previousOwner",
          "type": "address"
        },
        {
          "indexed": true,
          "internalType": "address",
          "name": "newOwner",
          "type": "address"
        }
      ],
      "name": "OwnershipTransferred",
      "type": "event"
    },
    {
      "inputs": [
        {
          "internalType": "string",
          "name": "igoName",
          "type": "string"
        },
        {
          "components": [
            {
              "internalType": "address",
              "name": "vestingContract",
              "type": "address"
            },
            {
              "internalType": "address",
              "name": "paymentToken",
              "type": "address"
            },
            {
              "internalType": "address",
              "name": "permit2",
              "type": "address"
            },
            {
              "internalType": "uint256",
              "name": "grandTotal",
              "type": "uint256"
            },
            {
              "internalType": "uint256",
              "name": "summedMaxTagCap",
              "type": "uint256"
            },
            {
              "internalType": "uint256",
              "name": "refundFeeDecimals",
              "type": "uint256"
            }
          ],
          "internalType": "struct IGOStorage.SetUp",
          "name": "setUp",
          "type": "tuple"
        },
        {
          "internalType": "string[]",
          "name": "tagIds",
          "type": "string[]"
        },
        {
          "components": [
            {
              "internalType": "enum ISharedInternal.Stage",
              "name": "stage",
              "type": "uint8"
            },
            {
              "internalType": "bytes32",
              "name": "merkleRoot",
              "type": "bytes32"
            },
            {
              "internalType": "uint128",
              "name": "startAt",
              "type": "uint128"
            },
            {
              "internalType": "uint128",
              "name": "endAt",
              "type": "uint128"
            },
            {
              "internalType": "uint256",
              "name": "maxTagCap",
              "type": "uint256"
            },
            {
              "internalType": "address",
              "name": "paymentToken",
              "type": "address"
            },
            {
              "internalType": "uint256",
              "name": "projectTokenPrice",
              "type": "uint256"
            }
          ],
          "internalType": "struct ISharedInternal.Tag[]",
          "name": "tags",
          "type": "tuple[]"
        },
        {
          "components": [
            {
              "internalType": "address",
              "name": "_innovator",
              "type": "address"
            },
            {
              "internalType": "address",
              "name": "_paymentReceiver",
              "type": "address"
            },
            {
              "internalType": "address",
              "name": "_admin",
              "type": "address"
            },
            {
              "internalType": "address",
              "name": "_vestedToken",
              "type": "address"
            },
            {
              "internalType": "uint256",
              "name": "_platformFee",
              "type": "uint256"
            },
            {
              "internalType": "uint256",
              "name": "_totalTokenOnSale",
              "type": "uint256"
            },
            {
              "internalType": "uint256",
              "name": "_gracePeriod",
              "type": "uint256"
            },
            {
              "internalType": "uint256",
              "name": "_decimals",
              "type": "uint256"
            }
          ],
          "internalType": "struct IIGOVesting.ContractSetup",
          "name": "contractSetup",
          "type": "tuple"
        },
        {
          "components": [
            {
              "internalType": "uint32",
              "name": "_startTime",
              "type": "uint32"
            },
            {
              "internalType": "uint32",
              "name": "_cliff",
              "type": "uint32"
            },
            {
              "internalType": "uint32",
              "name": "_duration",
              "type": "uint32"
            },
            {
              "internalType": "uint16",
              "name": "_initialUnlockPercent",
              "type": "uint16"
            }
          ],
          "internalType": "struct IIGOVesting.VestingSetup",
          "name": "vestingSetup",
          "type": "tuple"
        }
      ],
      "name": "createIGO",
      "outputs": [
        {
          "internalType": "address",
          "name": "igo",
          "type": "address"
        },
        {
          "internalType": "address",
          "name": "vesting",
          "type": "address"
        }
      ],
      "stateMutability": "nonpayable",
      "type": "function"
    },
    {
      "inputs": [],
      "name": "defaultVesting",
      "outputs": [
        {
          "internalType": "address",
          "name": "",
          "type": "address"
        }
      ],
      "stateMutability": "view",
      "type": "function"
    },
    {
      "inputs": [],
      "name": "igoCount",
      "outputs": [
        {
          "internalType": "uint256",
          "name": "",
          "type": "uint256"
        }
      ],
      "stateMutability": "view",
      "type": "function"
    },
    {
      "inputs": [],
      "name": "igoNames",
      "outputs": [
        {
          "internalType": "string[]",
          "name": "",
          "type": "string[]"
        }
      ],
      "stateMutability": "view",
      "type": "function"
    },
    {
      "inputs": [
        {
          "internalType": "string",
          "name": "igoName",
          "type": "string"
        }
      ],
      "name": "igoWithName",
      "outputs": [
        {
          "internalType": "address",
          "name": "",
          "type": "address"
        }
      ],
      "stateMutability": "view",
      "type": "function"
    },
    {
      "inputs": [],
      "name": "owner",
      "outputs": [
        {
          "internalType": "address",
          "name": "",
          "type": "address"
        }
      ],
      "stateMutability": "view",
      "type": "function"
    },
    {
      "inputs": [],
      "name": "renounceOwnership",
      "outputs": [],
      "stateMutability": "nonpayable",
      "type": "function"
    },
    {
      "inputs": [
        {
          "internalType": "address",
          "name": "newOwner",
          "type": "address"
        }
      ],
      "name": "transferOwnership",
      "outputs": [],
      "stateMutability": "nonpayable",
      "type": "function"
    },
    {
      "inputs": [
        {
          "internalType": "address",
          "name": "newDefaultVesting",
          "type": "address"
        },
        {
          "internalType": "bytes",
          "name": "newVestingCreationCode",
          "type": "bytes"
        }
      ],
      "name": "updateDefaultVesting",
      "outputs": [],
      "stateMutability": "nonpayable",
      "type": "function"
    },
    {
      "inputs": [],
      "name": "vestingCreationCode",
      "outputs": [
        {
          "internalType": "bytes",
          "name": "",
          "type": "bytes"
        }
      ],
      "stateMutability": "view",
      "type": "function"
    }
  ],
  "bytecode": {
    "object": "0x6080806040523461005f5760008054336001600160a01b0319821681178355916001600160a01b03909116907f8be0079c531659141344cd1fd0a4f28419497f9722a3daafe3b4186f6b6457e09080a36001805561577990816100658239f35b600080fdfe604060808152600436101561001357600080fd5b600090813560e01c918263303194a5146100e15750508063715018a6146100d85780637510d458146100cf57806385f2f68a146100c65780638da5cb5b146100bd578063b9a0a03f146100b4578063b9edb3a5146100ab578063cd8a77d3146100a2578063dd89440f146100995763f2fde38b14610091575b600080fd5b61008c610b51565b5061008c610b14565b5061008c610a41565b5061008c6109ee565b5061008c6108ae565b5061008c6106eb565b5061008c6105c8565b5061008c610371565b5061008c6102a5565b346101b157807ffffffffffffffffffffffffffffffffffffffffffffffffffffffffffffffffc3601126101b15760045467ffffffffffffffff81116101a4575b8251916020610136818460051b01856104ab565b828452600482527f8a35acfbc15ff81a39ae7d344fd709f28e8600b4aa8c65c6b64bfe7fe36bd19b8185015b84841061017a578651806101768882610225565b0390f35b600183819289516101968161018f818961178e565b03826104ab565b815201920193019290610162565b6101ac61043e565b610122565b80fd5b600091031261008c57565b60005b8381106101d25750506000910152565b81810151838201526020016101c2565b907fffffffffffffffffffffffffffffffffffffffffffffffffffffffffffffffe0601f60209361021e815180928187528780880191016101bf565b0116010190565b602080820190808352835180925260408301928160408460051b8301019501936000915b8483106102595750505050505090565b9091929394958480610295837fffffffffffffffffffffffffffffffffffffffffffffffffffffffffffffffc086600196030187528a516101e2565b9801930193019194939290610249565b503461008c576000807ffffffffffffffffffffffffffffffffffffffffffffffffffffffffffffffffc3601126101b1576102de610c87565b8073ffffffffffffffffffffffffffffffffffffffff81547fffffffffffffffffffffffff000000000000000000000000000000000000000081168355167f8be0079c531659141344cd1fd0a4f28419497f9722a3daafe3b4186f6b6457e08280a380f35b9181601f8401121561008c5782359167ffffffffffffffff831161008c576020838186019501011161008c57565b503461008c5760207ffffffffffffffffffffffffffffffffffffffffffffffffffffffffffffffffc36011261008c5760043567ffffffffffffffff811161008c5773ffffffffffffffffffffffffffffffffffffffff6103e16103db6020933690600401610343565b906110b9565b5416604051908152f35b90600182811c92168015610434575b602083101461040557565b7f4e487b7100000000000000000000000000000000000000000000000000000000600052602260045260246000fd5b91607f16916103fa565b507f4e487b7100000000000000000000000000000000000000000000000000000000600052604160045260246000fd5b60c0810190811067ffffffffffffffff82111761048a57604052565b61049261043e565b604052565b67ffffffffffffffff811161048a57604052565b90601f7fffffffffffffffffffffffffffffffffffffffffffffffffffffffffffffffe0910116810190811067ffffffffffffffff82111761048a57604052565b6040519060008260035491610500836103eb565b808352926001908181169081156105885750600114610529575b50610527925003836104ab565b565b6003600090815291507fc2575a0e9e593c00f959f8c92f12db2869c3395a3b0502d05e2516446f71f85b5b84831061056d575061052793505081016020013861051a565b81935090816020925483858a01015201910190918592610554565b602093506105279592507fffffffffffffffffffffffffffffffffffffffffffffffffffffffffffffff0091501682840152151560051b8201013861051a565b503461008c576000807ffffffffffffffffffffffffffffffffffffffffffffffffffffffffffffffffc3601126101b157604051908060035461060a816103eb565b808552916001918083169081156106a35750600114610648575b61017685610634818703826104ab565b6040519182916020835260208301906101e2565b9250600383527fc2575a0e9e593c00f959f8c92f12db2869c3395a3b0502d05e2516446f71f85b5b82841061068b57505050810160200161063482610176610624565b80546020858701810191909152909301928101610670565b869550610176969350602092506106349491507fffffffffffffffffffffffffffffffffffffffffffffffffffffffffffffff001682840152151560051b8201019293610624565b503461008c5760007ffffffffffffffffffffffffffffffffffffffffffffffffffffffffffffffffc36011261008c57602073ffffffffffffffffffffffffffffffffffffffff60005416604051908152f35b6024359073ffffffffffffffffffffffffffffffffffffffff8216820361008c57565b6044359073ffffffffffffffffffffffffffffffffffffffff8216820361008c57565b6064359073ffffffffffffffffffffffffffffffffffffffff8216820361008c57565b6004359073ffffffffffffffffffffffffffffffffffffffff8216820361008c57565b359073ffffffffffffffffffffffffffffffffffffffff8216820361008c57565b9181601f8401121561008c5782359167ffffffffffffffff831161008c576020808501948460051b01011161008c57565b9181601f8401121561008c5782359167ffffffffffffffff831161008c5760208085019460e0850201011161008c57565b7ffffffffffffffffffffffffffffffffffffffffffffffffffffffffffffffedc61010091011261008c5761012490565b7ffffffffffffffffffffffffffffffffffffffffffffffffffffffffffffffddc608091011261008c5761022490565b503461008c576102a07ffffffffffffffffffffffffffffffffffffffffffffffffffffffffffffffffc36011261008c5767ffffffffffffffff60043581811161008c57610900903690600401610343565b60c07fffffffffffffffffffffffffffffffffffffffffffffffffffffffffffffffdc36011261008c576040516109368161046e565b61093e61073e565b8152610948610761565b6020820152610955610784565b6040820152608435606082015260a435608082015260c43560a082015260e43584811161008c5761098a9036906004016107eb565b6101049291923595861161008c576109a96109c596369060040161081c565b9390926109b53661084d565b956109bf3661087e565b97610d06565b6040805173ffffffffffffffffffffffffffffffffffffffff9384168152919092166020820152f35b503461008c5760007ffffffffffffffffffffffffffffffffffffffffffffffffffffffffffffffffc36011261008c57602073ffffffffffffffffffffffffffffffffffffffff60025416604051908152f35b503461008c5760407ffffffffffffffffffffffffffffffffffffffffffffffffffffffffffffffffc36011261008c57610a796107a7565b6024359067ffffffffffffffff9081831161008c573660238401121561008c578260040135918211610b07575b60405191610adc60207fffffffffffffffffffffffffffffffffffffffffffffffffffffffffffffffe0601f84011601846104ab565b808352366024828601011161008c576020816000926024610b0597018387013784010152611843565b005b610b0f61043e565b610aa6565b503461008c5760007ffffffffffffffffffffffffffffffffffffffffffffffffffffffffffffffffc36011261008c576020600454604051908152f35b503461008c5760207ffffffffffffffffffffffffffffffffffffffffffffffffffffffffffffffffc36011261008c57610b896107a7565b610b91610c87565b73ffffffffffffffffffffffffffffffffffffffff8091168015610c03576000918254827fffffffffffffffffffffffff00000000000000000000000000000000000000008216178455167f8be0079c531659141344cd1fd0a4f28419497f9722a3daafe3b4186f6b6457e08380a380f35b60846040517f08c379a000000000000000000000000000000000000000000000000000000000815260206004820152602660248201527f4f776e61626c653a206e6577206f776e657220697320746865207a65726f206160448201527f64647265737300000000000000000000000000000000000000000000000000006064820152fd5b73ffffffffffffffffffffffffffffffffffffffff600054163303610ca857565b60646040517f08c379a000000000000000000000000000000000000000000000000000000000815260206004820152602060248201527f4f776e61626c653a2063616c6c6572206973206e6f7420746865206f776e65726044820152fd5b92989791909396959660026001541461105b57610e1e996002600155610d2a610c87565b73ffffffffffffffffffffffffffffffffffffffff92610d7284610d6b610d518a8a6110b9565b5473ffffffffffffffffffffffffffffffffffffffff1690565b16156110d2565b6040516020810190610db681610d8a8b8b3387611137565b037fffffffffffffffffffffffffffffffffffffffffffffffffffffffffffffffe081018352826104ab565b519020996040519885613ac19a8b81019b8c67ffffffffffffffff83821091111761104e575b611c8382398060009c03908cf08015611041575b169b610dfa6104ec565b6020815191018cf573ffffffffffffffffffffffffffffffffffffffff811684529d565b89608084015260e08b013560a0840152610e388989611244565b610e868c610e468b8b6110b9565b9073ffffffffffffffffffffffffffffffffffffffff167fffffffffffffffffffffffff0000000000000000000000000000000000000000825416179055565b8b3b1561103d5789939291610eca9160405196879586957f897c1b7900000000000000000000000000000000000000000000000000000000875233600488016115e2565b0381838c5af18015611030575b61101d575b50881694853b1561101957610f2191859160405193849283927fd926f1e9000000000000000000000000000000000000000000000000000000008452600484016116c8565b038183895af1801561100c575b610ff9575b50833b15610ff5576040517ff2fde38b00000000000000000000000000000000000000000000000000000000815273ffffffffffffffffffffffffffffffffffffffff861660048201528593927f8c941e5813d81a78a88724badffabc2b2cf670a135b2abaccd8e9ae0c57f3dcf92610fc1928581602481838c5af18015610fe8575b610fcf575b50611779565b9180a4919061052760018055565b80610fdc610fe292610497565b806101b4565b38610fbb565b610ff0611172565b610fb6565b8280fd5b80610fdc61100692610497565b38610f33565b611014611172565b610f2e565b8480fd5b80610fdc61102a92610497565b38610edc565b611038611172565b610ed7565b8980fd5b611049611172565b610df0565b61105661043e565b610ddc565b60646040517f08c379a000000000000000000000000000000000000000000000000000000000815260206004820152601f60248201527f5265656e7472616e637947756172643a207265656e7472616e742063616c6c006044820152fd5b6020908260405193849283378101600581520301902090565b156110d957565b60646040517f08c379a000000000000000000000000000000000000000000000000000000000815260206004820152601e60248201527f49474f466163746f72793a2049474f20616c72656164792065786973747300006044820152fd5b909280927fffffffffffffffffffffffffffffffffffffffff00000000000000000000000060149560601b1683528483013701016000815290565b506040513d6000823e3d90fd5b601f811161118b575050565b600090600382527fc2575a0e9e593c00f959f8c92f12db2869c3395a3b0502d05e2516446f71f85b906020601f850160051c830194106111e6575b601f0160051c01915b8281106111db57505050565b8181556001016111cf565b90925082906111c6565b90601f81116111fe57505050565b600091825260208220906020601f850160051c8301941061123a575b601f0160051c01915b82811061122f57505050565b818155600101611223565b909250829061121a565b906004546801000000000000000081101561140d575b600190818101806004558110156113de5760046000527f8a35acfbc15ff81a39ae7d344fd709f28e8600b4aa8c65c6b64bfe7fe36bd19b019267ffffffffffffffff83116113d1575b6112b7836112b186546103eb565b866111f0565b600090601f841160011461132d57600091849182611302575b50507fffffffffffffffffffffffffffffffffffffffffffffffffffffffffffffffff91921b9260031b1c1916179055565b013591507fffffffffffffffffffffffffffffffffffffffffffffffffffffffffffffffff386112d0565b7fffffffffffffffffffffffffffffffffffffffffffffffffffffffffffffffe084939416918361136387600052602060002090565b93825b878282106113b857505010611380575b505050811b019055565b7fffffffffffffffffffffffffffffffffffffffffffffffffffffffffffffffff60f88560031b161c19910135169055388080611376565b8585013587559095019460209384019387935001611366565b6113d961043e565b6112a3565b7f4e487b7100000000000000000000000000000000000000000000000000000000600052603260045260246000fd5b61141561043e565b61125a565b601f82602094937fffffffffffffffffffffffffffffffffffffffffffffffffffffffffffffffe0938186528686013760008582860101520116010190565b90808352602080930192838260051b850194846000925b858410611481575050505050505090565b90919293949596818103845287357fffffffffffffffffffffffffffffffffffffffffffffffffffffffffffffffe18436030181121561008c57830186810191903567ffffffffffffffff811161008c57803603831361008c576114ea8892839260019561141a565b990194019401929594939190611470565b35906fffffffffffffffffffffffffffffffff8216820361008c57565b918181526020809101929160009182905b82821061153857505050505090565b9091929394853560048110156115de578152858201358282015260019061157d6040611565818a016114fb565b6fffffffffffffffffffffffffffffffff1690830152565b61158d6060611565818a016114fb565b608080880135908201526115c360a06115a7818a016107ca565b73ffffffffffffffffffffffffffffffffffffffff1690830152565b60c0878101359082015260e090810196019493920190611529565b8580fd5b9492909360a061165693611665989673ffffffffffffffffffffffffffffffffffffffff80911689528082511660208a01528060208301511660408a0152604082015116606089015260608101516080890152608081015182890152015160c08701526101208060e0880152860191611459565b92610100818503910152611518565b90565b359063ffffffff8216820361008c57565b60609063ffffffff8061168b83611668565b1684528061169b60208401611668565b1660208501526116ad60408301611668565b16604084015201359061ffff821680920361008c5760600152565b9161010061052792949360e061018082019673ffffffffffffffffffffffffffffffffffffffff806116f9836107ca565b16845280611709602084016107ca565b16602085015261171b604083016107ca565b16604084015261174d611730606083016107ca565b73ffffffffffffffffffffffffffffffffffffffff166060850152565b6080810135608084015260a081013560a084015260c081013560c0840152013560e08201520190611679565b81604051928392833781016000815203902090565b906000929180549161179f836103eb565b91828252600193848116908160001461180157506001146117c1575b50505050565b90919394506000526020928360002092846000945b8386106117ed5750505050010190388080806117bb565b8054858701830152940193859082016117d6565b91505060209495507fffffffffffffffffffffffffffffffffffffffffffffffffffffffffffffff009193501683830152151560051b010190388080806117bb565b9061184c610c87565b73ffffffffffffffffffffffffffffffffffffffff821680156119b8578151156119355761052792611930916118b361189a60025473ffffffffffffffffffffffffffffffffffffffff1690565b73ffffffffffffffffffffffffffffffffffffffff1690565b906118bd85611a3c565b917fca14a4be31156fca70d9e52976142d5c698a3b780ceb17828587ca627a9004e2604051806118ec81611a5c565b0390a473ffffffffffffffffffffffffffffffffffffffff167fffffffffffffffffffffffff00000000000000000000000000000000000000006002541617600255565b611b31565b60846040517f08c379a0000000000000000000000000000000000000000000000000000000008152602060048201526024808201527f49474f466163746f72795f5f64656661756c7456657374696e675f5a45524f5f60448201527f434f4445000000000000000000000000000000000000000000000000000000006064820152fd5b60846040517f08c379a000000000000000000000000000000000000000000000000000000000815260206004820152602760248201527f49474f466163746f72795f5f64656661756c7456657374696e675f5a45524f5f60448201527f41444452455353000000000000000000000000000000000000000000000000006064820152fd5b611a54906020604051928284809451938492016101bf565b810103902090565b602080825260009160035491611a71836103eb565b9283828401526001908181169081600014611aef5750600114611a96575b5050505090565b600360009081529394507fc2575a0e9e593c00f959f8c92f12db2869c3395a3b0502d05e2516446f71f85b5b858510611adb5750505060409250010138808080611a8f565b805485850160400152938201938101611ac2565b915050604094507fffffffffffffffffffffffffffffffffffffffffffffffffffffffffffffff0091509291921683830152151560051b010138808080611a8f565b90815167ffffffffffffffff8111611c75575b611b5881611b536003546103eb565b61117f565b602080601f8311600114611bb15750819293600092611ba6575b50507fffffffffffffffffffffffffffffffffffffffffffffffffffffffffffffffff8260011b9260031b1c191617600355565b015190503880611b72565b907fffffffffffffffffffffffffffffffffffffffffffffffffffffffffffffffe0831694611c0260036000527fc2575a0e9e593c00f959f8c92f12db2869c3395a3b0502d05e2516446f71f85b90565b926000905b878210611c5d575050836001959610611c26575b505050811b01600355565b01517fffffffffffffffffffffffffffffffffffffffffffffffffffffffffffffffff60f88460031b161c19169055388080611c1b565b80600185968294968601518155019501930190611c07565b611c7d61043e565b611b4456fe60808060405234610074576000805462010000600160b01b0319811633601081811b62010000600160b01b03169290921784559291901c6001600160a01b0316907f8be0079c531659141344cd1fd0a4f28419497f9722a3daafe3b4186f6b6457e09080a360018055613a47908161007a8239f35b600080fdfe6080604052600436101561001257600080fd5b6000803560e01c806302912bd3146127d15780630a9254e4146127695780630fa34ede146126ce5780631bcaddc21461268657806328d5796f14611a0a5780635625671e1461198c5780635a5fdab714611944578063715018a6146118c25780637518d35c146117a75780637eae687e14611600578063852c49a7146115bd578063897c1b7914610e595780638da5cb5b14610e23578063907d308514610d7057806398e3fdc414610d1b578063a102491214610c74578063ae00ee1f14610c2d578063c5c4744c14610bf0578063db365f8414610b0f578063e6807afd14610a44578063f1efb93114610970578063f2fde38b146108a2578063f86df59b14610422578063faf0c5811461018c5763ff77d0be1461013057600080fd5b346101895760206101578161014436612c9d565b8160405193828580945193849201612ce9565b81017ff8bb2a4b5b30792eb350607495ebe7f79c5a5066287187429654459fae715b2681520301902054604051908152f35b80fd5b5034610189576040600319360112610189576101a6612b2f565b6024359073ffffffffffffffffffffffffffffffffffffffff9081831680930361041d576101d2612dcc565b16906101df8215156134fd565b604051907f70a082310000000000000000000000000000000000000000000000000000000082523060048301526020928383602481845afa9283156104125785936103df575b5060405192848401927fa9059cbb0000000000000000000000000000000000000000000000000000000084526024850152604484015260448352608083019183831067ffffffffffffffff8411176103b0578580916102e6958560405261028b86612bcf565b8786527f5361666545524332303a206c6f772d6c6576656c2063616c6c206661696c656460a0820152519082855af13d156103a8573d916102cb83612c2c565b926102d96040519485612beb565b83523d878785013e613562565b8051828115918215610384575b5050905015610300575080f35b608490604051907f08c379a00000000000000000000000000000000000000000000000000000000082526004820152602a60248201527f5361666545524332303a204552433230206f7065726174696f6e20646964206e60448201527f6f742073756363656564000000000000000000000000000000000000000000006064820152fd5b83809293500103126103a45781015180151581036103a4578082386102f3565b8280fd5b606091613562565b7f4e487b7100000000000000000000000000000000000000000000000000000000600052604160045260246000fd5b9092508381813d831161040b575b6103f78183612beb565b8101031261040757519138610225565b8480fd5b503d6103ed565b6040513d87823e3d90fd5b600080fd5b50346101895760406003193601126101895767ffffffffffffffff6004358181116103a457610455903690600401612b52565b9160243590811161089e5761046e903690600401612d4f565b90610477612dcc565b818403610840577ff8bb2a4b5b30792eb350607495ebe7f79c5a5066287187429654459fae715b1f547ff8bb2a4b5b30792eb350607495ebe7f79c5a5066287187429654459fae715b2054946104cb6130c9565b5060005b8181106104fd5787877ff8bb2a4b5b30792eb350607495ebe7f79c5a5066287187429654459fae715b205580f35b61051161050b8284896138f8565b90612ed9565b966040519761051f89612b83565b60ff8154169060048210156107b0576005918a52600181015460208b015260028101546fffffffffffffffffffffffffffffffff811660408c015260801c60608b0152600381015460808b015273ffffffffffffffffffffffffffffffffffffffff60048201541660a08b0152015460c08901526105c16105a1838888613913565b602081013515159081610816575b816107ed575b816107df575b5061362e565b87519060048210156107b05761063161064591610627608094898d8c60c061061f8b73ffffffffffffffffffffffffffffffffffffffff60a086015116938361061660a061061085858c613913565b01613249565b96015196613913565b013593613923565b838b0151906132fe565b8261063d858a8a613913565b0135906132a9565b97610650858a6139cc565b015115610797575b610663818686613913565b9061067261050b82858a6138f8565b60048335101561041d57600560c08461068f6107929635856132e5565b60208101356001850155610731600285016fffffffffffffffffffffffffffffffff6106bd604085016138db565b167fffffffffffffffffffffffffffffffff000000000000000000000000000000008254161781556106f1606084016138db565b6fffffffffffffffffffffffffffffffff7fffffffffffffffffffffffffffffffff0000000000000000000000000000000083549260801b169116179055565b608081013560038501556004840173ffffffffffffffffffffffffffffffffffffffff61076060a08401613249565b167fffffffffffffffffffffffff000000000000000000000000000000000000000082541617905501359101556134d0565b6104cf565b6107ab6107a58284896138f8565b90613693565b610658565b7f4e487b7100000000000000000000000000000000000000000000000000000000600052602160045260246000fd5b6080915001351515386105bb565b90506107fb606082016138db565b6fffffffffffffffffffffffffffffffff42911611906105b5565b9050610824604082016138db565b6fffffffffffffffffffffffffffffffff4291161015906105af565b60646040517f08c379a000000000000000000000000000000000000000000000000000000000815260206004820152601f60248201527f49474f5772697461626c653a207461677320617272617973206c656e677468006044820152fd5b8380fd5b5034610189576020600319360112610189576108bc612b2f565b6108c4612dcc565b73ffffffffffffffffffffffffffffffffffffffff8116156108ec576108e990612e4e565b80f35b60846040517f08c379a000000000000000000000000000000000000000000000000000000000815260206004820152602660248201527f4f776e61626c653a206e6577206f776e657220697320746865207a65726f206160448201527f64647265737300000000000000000000000000000000000000000000000000006064820152fd5b50346101895760206003193601126101895760043561098d612dcc565b6103e881106109e6576109c1817ff8bb2a4b5b30792eb350607495ebe7f79c5a5066287187429654459fae715b20546139cc565b7ff8bb2a4b5b30792eb350607495ebe7f79c5a5066287187429654459fae715b1f5580f35b60646040517f08c379a000000000000000000000000000000000000000000000000000000000815260206004820152601b60248201527f6772616e64546f74616c5f4c6f7765725468616e5f5f315f30303000000000006044820152fd5b5034610189576fffffffffffffffffffffffffffffffff610a6436612d80565b610a7093919293612dcc565b1691428310610ab157600291610a8591612ed9565b01907fffffffffffffffffffffffffffffffff0000000000000000000000000000000082541617905580f35b60646040517f08c379a000000000000000000000000000000000000000000000000000000000815260206004820152600d60248201527f53544152545f494e5f50415354000000000000000000000000000000000000006044820152fd5b503461018957610b1e36612d80565b90610b27612dcc565b426fffffffffffffffffffffffffffffffff83161115610b9257610b506002916108e994612ed9565b01906fffffffffffffffffffffffffffffffff7fffffffffffffffffffffffffffffffff0000000000000000000000000000000083549260801b169116179055565b60646040517f08c379a000000000000000000000000000000000000000000000000000000000815260206004820152600b60248201527f454e445f494e5f504153540000000000000000000000000000000000000000006044820152fd5b503461018957806003193601126101895760207ff8bb2a4b5b30792eb350607495ebe7f79c5a5066287187429654459fae715b2554604051908152f35b5034610189578060031936011261018957602060ff7ff8bb2a4b5b30792eb350607495ebe7f79c5a5066287187429654459fae715b245416610c726040518092612cdc565bf35b5034610189576020600319360112610189576108e9610c91612b2f565b610c99612dcc565b610cba73ffffffffffffffffffffffffffffffffffffffff821615156134fd565b73ffffffffffffffffffffffffffffffffffffffff7ff8bb2a4b5b30792eb350607495ebe7f79c5a5066287187429654459fae715b1d91167fffffffffffffffffffffffff0000000000000000000000000000000000000000825416179055565b50346101895760206003193601126101895760043567ffffffffffffffff8111610d6c57610d50610d5e913690600401612b01565b90610d59612dcc565b612ed9565b600360ff1982541617905580f35b5080fd5b50346101895760406003193601126101895760043567ffffffffffffffff8111610d6c57610da2903690600401612b01565b60243591610dae612dcc565b8215610dc557600191610dc091612ed9565b015580f35b60646040517f08c379a000000000000000000000000000000000000000000000000000000000815260206004820152601060248201527f4d65726b6c65526f6f745f454d505459000000000000000000000000000000006044820152fd5b503461018957806003193601126101895773ffffffffffffffffffffffffffffffffffffffff6020915460101c16604051908152f35b50346101895761012060031936011261018957610e74612b2f565b60c07fffffffffffffffffffffffffffffffffffffffffffffffffffffffffffffffdc360112610d6c5767ffffffffffffffff60e43581811161089e57610ebf903690600401612b52565b916101043590811161040757610ed9903690600401612d4f565b929085549460ff8660081c1615958680976115b0575b8015611599575b156115155786600160ff1983161789556114e7575b50610f14612dcc565b73ffffffffffffffffffffffffffffffffffffffff8116156114895773ffffffffffffffffffffffffffffffffffffffff610f4d6131e0565b16156114055773ffffffffffffffffffffffffffffffffffffffff610f70613203565b16156113815773ffffffffffffffffffffffffffffffffffffffff610f93613226565b16156112fd576084351561129f57610faa90612e4e565b73ffffffffffffffffffffffffffffffffffffffff610fc76131e0565b167ff8bb2a4b5b30792eb350607495ebe7f79c5a5066287187429654459fae715b1c907fffffffffffffffffffffffff000000000000000000000000000000000000000082541617905561101c610cba613203565b73ffffffffffffffffffffffffffffffffffffffff611039613226565b167ff8bb2a4b5b30792eb350607495ebe7f79c5a5066287187429654459fae715b1e907fffffffffffffffffffffffff00000000000000000000000000000000000000008254161790556084357ff8bb2a4b5b30792eb350607495ebe7f79c5a5066287187429654459fae715b1f5560a435807ff8bb2a4b5b30792eb350607495ebe7f79c5a5066287187429654459fae715b205560c4357ff8bb2a4b5b30792eb350607495ebe7f79c5a5066287187429654459fae715b215584830361084057936111036130c9565b5060005b83811061118e578787877ff8bb2a4b5b30792eb350607495ebe7f79c5a5066287187429654459fae715b205561113a5780f35b7fffffffffffffffffffffffffffffffffffffffffffffffffffffffffffff00ff81541681557f7f26b83ff96e1f2b6a682f133852f6798a09c465da95921460cefb3847402498602060405160018152a180f35b61119c61050b8286886138f8565b604051966111a988612b83565b60ff82541660048110156107b057608061123b926005829561122f948d528c602060018301549101528c606060028301546fffffffffffffffffffffffffffffffff81166040840152861c9101528c600382015494859101528c60a073ffffffffffffffffffffffffffffffffffffffff600484015416910152015460c08c01526132fe565b8261063d858789613913565b96611248608435896139cc565b01511561128c575b61125b818385613913565b9061126a61050b8287896138f8565b60048335101561041d57600560c08461068f6112879635856132e5565b611107565b61129a6107a58286886138f8565b611250565b60646040517f08c379a000000000000000000000000000000000000000000000000000000000815260206004820152601c60248201527f49474f5772697461626c655f5f6772616e64546f74616c5f5a45524f000000006044820152fd5b60846040517f08c379a000000000000000000000000000000000000000000000000000000000815260206004820152602160248201527f49474f5772697461626c655f5f7065726d6974325f5a45524f5f41444452455360448201527f53000000000000000000000000000000000000000000000000000000000000006064820152fd5b60846040517f08c379a000000000000000000000000000000000000000000000000000000000815260206004820152602660248201527f49474f5772697461626c655f5f7061796d656e74546f6b656e5f5a45524f5f4160448201527f44445245535300000000000000000000000000000000000000000000000000006064820152fd5b60846040517f08c379a000000000000000000000000000000000000000000000000000000000815260206004820152602960248201527f49474f5772697461626c655f5f76657374696e67436f6e74726163745f5a455260448201527f4f5f4144445245535300000000000000000000000000000000000000000000006064820152fd5b60646040517f08c379a000000000000000000000000000000000000000000000000000000000815260206004820152601f60248201527f49474f5772697461626c655f5f6f776e65725f5a45524f5f41444452455353006044820152fd5b7fffffffffffffffffffffffffffffffffffffffffffffffffffffffffffff00001661010117875538610f0b565b60846040517f08c379a000000000000000000000000000000000000000000000000000000000815260206004820152602e60248201527f496e697469616c697a61626c653a20636f6e747261637420697320616c72656160448201527f647920696e697469616c697a65640000000000000000000000000000000000006064820152fd5b50303b158015610ef65750600160ff821614610ef6565b50600160ff821610610eef565b50346101895760206003193601126101895760043567ffffffffffffffff8111610d6c57610d506115f2913690600401612b01565b600160ff1982541617905580f35b50346101895780600319360112610189577ff8bb2a4b5b30792eb350607495ebe7f79c5a5066287187429654459fae715b229081549161163f83613101565b9161164d6040519384612beb565b83835260209384840190819383527f65081cd3ad5fc84209c8310f7404cee8bc03efec5e3d920e46e7ba762f27ce4c9183905b8282106117035750505050604051928484019085855251809152604084019460408260051b8601019392955b8287106116b95785850386f35b9091929382806116f3837fffffffffffffffffffffffffffffffffffffffffffffffffffffffffffffffc08a600196030186528851612d0c565b96019201960195929190926116ac565b6040979694975187899286549261171984613119565b80825260019480861690811561178b5750600114611753575b50611741816001960382612beb565b81520194019101909296939596611680565b888d52838d2095508c905b8082106117745750810183019450611741611732565b8654838301860152958501958c949091019061175e565b60ff19168584015250151560051b810183019450611741611732565b5034610189576117c76117b936612c9d565b6117c16130c9565b50612f62565b6040516117d381612b83565b60ff8254169160048310156118955760e0935082825260018101549060208301918252600281015460408401906fffffffffffffffffffffffffffffffff908181168352606086019060801c8152816003850154936080880194855273ffffffffffffffffffffffffffffffffffffffff9660c060058960048a0154169860a08c01998a520154990198895261186c604051809b612cdc565b5160208a01525116604088015251166060860152516080850152511660a08301525160c0820152f35b6024847f4e487b710000000000000000000000000000000000000000000000000000000081526021600452fd5b50346101895780600319360112610189576118db612dcc565b600073ffffffffffffffffffffffffffffffffffffffff81547fffffffffffffffffffff0000000000000000000000000000000000000000ffff8116835560101c167f8be0079c531659141344cd1fd0a4f28419497f9722a3daafe3b4186f6b6457e08280a380f35b503461018957806003193601126101895761195d612dcc565b7ff8bb2a4b5b30792eb350607495ebe7f79c5a5066287187429654459fae715b24600160ff1982541617905580f35b50346101895760406003193601126101895760043567ffffffffffffffff8111610d6c5760036119c3610dc0923690600401612b01565b60243593916119d0612dcc565b610d596119db612fa7565b6060611a01886119fc60808501518a6119f48a8a612ed9565b0154906132fe565b6132a9565b910151906139cc565b503461018957600319608081360112610d6c5767ffffffffffffffff60243511610d6c5760808160243536030112610d6c5760443567ffffffffffffffff81116103a457611a5c903690600401612b52565b91906064359167ffffffffffffffff831161040757606090833603011261089e57600260015414612628576002600155611a9b6004602435018061316c565b611aa58183612ed9565b9060405191611ab383612b83565b60ff81541660048110156125fb579060059184526001810154602085015260028101546fffffffffffffffffffffffffffffffff8116604086015260801c60608501526003810154608085015273ffffffffffffffffffffffffffffffffffffffff60048201541660a0850152015460c0830152611b2f612fa7565b94608083015195606081015196611ba7611b9e611b97611b526024803501613249565b73ffffffffffffffffffffffffffffffffffffffff166000527ff8bb2a4b5b30792eb350607495ebe7f79c5a5066287187429654459fae715b27602052604060002090565b8689612f49565b546004356132a9565b6044602435013581116125b05750611bc26024803501613249565b73ffffffffffffffffffffffffffffffffffffffff3391160361255257611c0c7ff8bb2a4b5b30792eb350607495ebe7f79c5a5066287187429654459fae715b25546004356132a9565b888111612512575060ff7ff8bb2a4b5b30792eb350607495ebe7f79c5a5066287187429654459fae715b24541660048110156124e557600181036124ac5750611c6c611c67611c606004602435018061316c565b3691612c66565b61330b565b611c79611b9e8588612f11565b81811161245357506001611c9561050b6004602435018061316c565b0154986040516020808201527fffffffffffffffffffffffffffffffffffffffffffffffffffffffffffffffdd60243536030160243560040135121561244f57602435602435600401350167ffffffffffffffff60048201351161244b5760048101353603602482011361244b57611d21906080604084015260c083019060246004820135910161326a565b60248035013573ffffffffffffffffffffffffffffffffffffffff811681036124475773ffffffffffffffffffffffffffffffffffffffff166060830152602435604481013560808401526064013560a08301528190037fffffffffffffffffffffffffffffffffffffffffffffffffffffffffffffffe081018252611da79082612beb565b6020815191012090611db881613101565b98611dc66040519a8b612beb565b818a5260208a0190368360051b8201116124475780915b8360051b820183106124375750505050978a985b88518a1015611e3a5760208a60051b8a01015190818110600014611e28578c52602052611e2260408c205b996134d0565b98611df1565b908c52602052611e2260408c20611e1c565b8b98508a036123d957611f03611b97611e566024803501613249565b611e836004357ff8bb2a4b5b30792eb350607495ebe7f79c5a5066287187429654459fae715b25546132a9565b7ff8bb2a4b5b30792eb350607495ebe7f79c5a5066287187429654459fae715b2555611eaf888b612f11565b611ebc60043582546132a9565b905573ffffffffffffffffffffffffffffffffffffffff166000527ff8bb2a4b5b30792eb350607495ebe7f79c5a5066287187429654459fae715b27602052604060002090565b611f1060043582546132a9565b90557ff8bb2a4b5b30792eb350607495ebe7f79c5a5066287187429654459fae715b255414612389575b611f448487612f11565b541461236b575b6002611f578487612ed9565b015460801c421015612348575b60a084015173ffffffffffffffffffffffffffffffffffffffff16801561232657935b73ffffffffffffffffffffffffffffffffffffffff8251169060c0611faf6024803501613249565b9101519160043583600435020483146004351517156122f957908189923b156103a45788838861203894670de0b6b3a764000073ffffffffffffffffffffffffffffffffffffffff98898e6040519b8c9a8b998a987f37a97db7000000000000000000000000000000000000000000000000000000008a5260c060048b015260c48a019161326a565b951660248701526004356044870152166064850152600435020460848301526064602435013560a483015203925af180156122ee576122d9575b50908173ffffffffffffffffffffffffffffffffffffffff6040889401511691600060206040516120a281612bcf565b828152015283604080516120b581612bb3565b81516120c081612bcf565b600081526000602082015281528260208201520152600060206040516120e581612bcf565b828152015261216273ffffffffffffffffffffffffffffffffffffffff6040519361210f85612bcf565b818916855260043560208601526040519461212986612bb3565b855260448401356020860152602484013560408601525116916040519261214f84612bcf565b835260043560208401526004018061316c565b8491943b156122d55785809461222461220b976040948551998a98899788967f30f28b7a0000000000000000000000000000000000000000000000000000000088526121d26004890182516020809173ffffffffffffffffffffffffffffffffffffffff81511684520151910152565b60208181015160448a01529101516064880152815173ffffffffffffffffffffffffffffffffffffffff166084880152015160a4860152565b3360c485015261010060e485015261010484019161326a565b03925af180156122ca576122b6575b50506122426024803501613249565b92816040519283928337810185815203902073ffffffffffffffffffffffffffffffffffffffff604051921682527f24b17f7cc1c323d081ca24ebe682df530605d2207ecdde5a86c1d0bb44a88a6d602073ffffffffffffffffffffffffffffffffffffffff600435951693a46001805580f35b6122bf90612b9f565b61089e578385612233565b6040513d84823e3d90fd5b8580fd5b6122e69096919296612b9f565b949086612072565b6040513d89823e3d90fd5b6024897f4e487b710000000000000000000000000000000000000000000000000000000081526011600452fd5b5073ffffffffffffffffffffffffffffffffffffffff60208201511693611f87565b61235b612356368588612c66565b612f62565b600260ff19825416179055611f64565b612379612356368588612c66565b600260ff19825416179055611f4b565b600260ff197ff8bb2a4b5b30792eb350607495ebe7f79c5a5066287187429654459fae715b245416177ff8bb2a4b5b30792eb350607495ebe7f79c5a5066287187429654459fae715b2455611f3a565b60646040517f08c379a000000000000000000000000000000000000000000000000000000000815260206004820152601460248201527f414c4c4f434154494f4e5f4e4f545f464f554e440000000000000000000000006044820152fd5b8235815260209283019201611ddd565b8d80fd5b8c80fd5b8b80fd5b81612460889387936132fe565b61249d6040519485947f2877ff9e00000000000000000000000000000000000000000000000000000000865260606004870152606486019161326a565b91602484015260448301520390fd5b6024906124e3604051917fb293db190000000000000000000000000000000000000000000000000000000083526004830190612cdc565bfd5b60248b7f4e487b710000000000000000000000000000000000000000000000000000000081526021600452fd5b8861251f816044936132fe565b604051917fcced311a00000000000000000000000000000000000000000000000000000000835260048301526024820152fd5b60646040517f08c379a000000000000000000000000000000000000000000000000000000000815260206004820152601a60248201527f6d73672e73656e6465723a204e4f545f415554484f52495a45440000000000006044820152fd5b6125c2604491826024350135906132fe565b604051907fadaa553200000000000000000000000000000000000000000000000000000000825282602435013560048301526024820152fd5b6024897f4e487b710000000000000000000000000000000000000000000000000000000081526021600452fd5b60646040517f08c379a000000000000000000000000000000000000000000000000000000000815260206004820152601f60248201527f5265656e7472616e637947756172643a207265656e7472616e742063616c6c006044820152fd5b503461018957806003193601126101895761269f612dcc565b7ff8bb2a4b5b30792eb350607495ebe7f79c5a5066287187429654459fae715b24600360ff1982541617905580f35b5034610189576040600319360112610189576126e8612b2f565b906024359067ffffffffffffffff82116101895760206127608461275a6127123660048801612b01565b91909273ffffffffffffffffffffffffffffffffffffffff166000527ff8bb2a4b5b30792eb350607495ebe7f79c5a5066287187429654459fae715b27602052604060002090565b91612f49565b54604051908152f35b503461018957806003193601126101895760a0612784612fa7565b73ffffffffffffffffffffffffffffffffffffffff908181511691602082015116906060810151846080830151920151926040519485526020850152604084015260608301526080820152f35b5034610189576101006003193601126101895760043567ffffffffffffffff8111610d6c57612804903690600401612b01565b60e07fffffffffffffffffffffffffffffffffffffffffffffffffffffffffffffffdc939293360112610d6c57612839612dcc565b6044359081151580612adb575b80612ab6575b80612aab575b61285b9061362e565b6128658185612ed9565b906040519261287384612b83565b60ff835416936004851015612a7e5760c09596858252600185015460208301526129846002860154946fffffffffffffffffffffffffffffffff95868116604086015260801c60608501526003870154926080850193845273ffffffffffffffffffffffffffffffffffffffff9460058660048b015416998a60a084015201549a8b9101526129617ff8bb2a4b5b30792eb350607495ebe7f79c5a5066287187429654459fae715b1f549a6129597ff8bb2a4b5b30792eb350607495ebe7f79c5a5066287187429654459fae715b209b8c549261294e6131bd565b60e4359d8e93613923565b8551906132fe565b9361297961297260a43580976132a9565b9b8c6139cc565b5115612a7457612ed9565b926024356004811015612a705761299b90856132e5565b600184015560028301606435858116809103612a70577fffffffffffffffffffffffffffffffff000000000000000000000000000000008254161781556084359485168503612a6c57600594612a2c91906fffffffffffffffffffffffffffffffff7fffffffffffffffffffffffffffffffff0000000000000000000000000000000083549260801b169116179055565b60038301556004820190612a3e6131bd565b167fffffffffffffffffffffffff000000000000000000000000000000000000000082541617905501555580f35b8880fd5b8980fd5b610d598282613693565b6024867f4e487b710000000000000000000000000000000000000000000000000000000081526021600452fd5b5060a4351515612852565b506084356fffffffffffffffffffffffffffffffff811680910361089e57421061284c565b506064356fffffffffffffffffffffffffffffffff811680910361089e57421115612846565b9181601f8401121561041d5782359167ffffffffffffffff831161041d576020838186019501011161041d57565b6004359073ffffffffffffffffffffffffffffffffffffffff8216820361041d57565b9181601f8401121561041d5782359167ffffffffffffffff831161041d576020808501948460051b01011161041d57565b60e0810190811067ffffffffffffffff8211176103b057604052565b67ffffffffffffffff81116103b057604052565b6060810190811067ffffffffffffffff8211176103b057604052565b6040810190811067ffffffffffffffff8211176103b057604052565b90601f7fffffffffffffffffffffffffffffffffffffffffffffffffffffffffffffffe0910116810190811067ffffffffffffffff8211176103b057604052565b67ffffffffffffffff81116103b057601f017fffffffffffffffffffffffffffffffffffffffffffffffffffffffffffffffe01660200190565b929192612c7282612c2c565b91612c806040519384612beb565b82948184528183011161041d578281602093846000960137010152565b602060031982011261041d576004359067ffffffffffffffff821161041d578060238301121561041d57816024612cd993600401359101612c66565b90565b9060048210156107b05752565b60005b838110612cfc5750506000910152565b8181015183820152602001612cec565b907fffffffffffffffffffffffffffffffffffffffffffffffffffffffffffffffe0601f602093612d4881518092818752878088019101612ce9565b0116010190565b9181601f8401121561041d5782359167ffffffffffffffff831161041d5760208085019460e0850201011161041d57565b604060031982011261041d576004359067ffffffffffffffff821161041d57612dab91600401612b01565b90916024356fffffffffffffffffffffffffffffffff8116810361041d5790565b73ffffffffffffffffffffffffffffffffffffffff60005460101c163303612df057565b60646040517f08c379a000000000000000000000000000000000000000000000000000000000815260206004820152602060248201527f4f776e61626c653a2063616c6c6572206973206e6f7420746865206f776e65726044820152fd5b6000549075ffffffffffffffffffffffffffffffffffffffff00008160101b167fffffffffffffffffffff0000000000000000000000000000000000000000ffff83161760005573ffffffffffffffffffffffffffffffffffffffff8091169160101c167f8be0079c531659141344cd1fd0a4f28419497f9722a3daafe3b4186f6b6457e0600080a3565b60209082604051938492833781017ff8bb2a4b5b30792eb350607495ebe7f79c5a5066287187429654459fae715b2381520301902090565b60209082604051938492833781017ff8bb2a4b5b30792eb350607495ebe7f79c5a5066287187429654459fae715b2681520301902090565b6020919283604051948593843782019081520301902090565b6020612f7b918160405193828580945193849201612ce9565b81017ff8bb2a4b5b30792eb350607495ebe7f79c5a5066287187429654459fae715b2381520301902090565b6040519060c0820182811067ffffffffffffffff8211176103b0576040528173ffffffffffffffffffffffffffffffffffffffff807ff8bb2a4b5b30792eb350607495ebe7f79c5a5066287187429654459fae715b1c54168252807ff8bb2a4b5b30792eb350607495ebe7f79c5a5066287187429654459fae715b1d541660208301527ff8bb2a4b5b30792eb350607495ebe7f79c5a5066287187429654459fae715b1e541660408201527ff8bb2a4b5b30792eb350607495ebe7f79c5a5066287187429654459fae715b1f5460608201527ff8bb2a4b5b30792eb350607495ebe7f79c5a5066287187429654459fae715b2054608082015260a07ff8bb2a4b5b30792eb350607495ebe7f79c5a5066287187429654459fae715b2154910152565b604051906130d682612b83565b8160c06000918281528260208201528260408201528260608201528260808201528260a08201520152565b67ffffffffffffffff81116103b05760051b60200190565b90600182811c92168015613162575b602083101461313357565b7f4e487b7100000000000000000000000000000000000000000000000000000000600052602260045260246000fd5b91607f1691613128565b9035907fffffffffffffffffffffffffffffffffffffffffffffffffffffffffffffffe18136030182121561041d570180359067ffffffffffffffff821161041d5760200191813603831361041d57565b60c43573ffffffffffffffffffffffffffffffffffffffff8116810361041d5790565b60243573ffffffffffffffffffffffffffffffffffffffff8116810361041d5790565b60443573ffffffffffffffffffffffffffffffffffffffff8116810361041d5790565b60643573ffffffffffffffffffffffffffffffffffffffff8116810361041d5790565b3573ffffffffffffffffffffffffffffffffffffffff8116810361041d5790565b601f82602094937fffffffffffffffffffffffffffffffffffffffffffffffffffffffffffffffe0938186528686013760008582860101520116010190565b919082018092116132b657565b7f4e487b7100000000000000000000000000000000000000000000000000000000600052601160045260246000fd5b9060048110156107b05760ff60ff198354169116179055565b919082039182116132b657565b61331481612f62565b60405161332081612b83565b60ff825416600492838210156134a2578183526001810154602084015260028101549160056fffffffffffffffffffffffffffffffff84169384604087015260801c928360608701526003810154608087015273ffffffffffffffffffffffffffffffffffffffff878201541660a0870152015460c0850152159182613497575b508161348d575b5061347557805182811015613447576001036133c357505050565b51818110156134195761341561340a60409485519586957f5f08440f0000000000000000000000000000000000000000000000000000000087528601526044850190612d0c565b916024840190612cdc565b0390fd5b6021827f4e487b71000000000000000000000000000000000000000000000000000000006000525260246000fd5b6021837f4e487b71000000000000000000000000000000000000000000000000000000006000525260246000fd5b505061348090612f62565b600160ff19825416179055565b90504210386133a8565b4210159150386133a1565b6021847f4e487b71000000000000000000000000000000000000000000000000000000006000525260246000fd5b7fffffffffffffffffffffffffffffffffffffffffffffffffffffffffffffffff81146132b65760010190565b1561350457565b60646040517f08c379a000000000000000000000000000000000000000000000000000000000815260206004820152601260248201527f546f6b656e5f5a45524f5f4144445245535300000000000000000000000000006044820152fd5b919290156135dd5750815115613576575090565b3b1561357f5790565b60646040517f08c379a000000000000000000000000000000000000000000000000000000000815260206004820152601d60248201527f416464726573733a2063616c6c20746f206e6f6e2d636f6e74726163740000006044820152fd5b8251909150156135f05750805190602001fd5b613415906040519182917f08c379a0000000000000000000000000000000000000000000000000000000008352602060048401526024830190612d0c565b1561363557565b60646040517f08c379a000000000000000000000000000000000000000000000000000000000815260206004820152600b60248201527f494e56414c49445f5441470000000000000000000000000000000000000000006044820152fd5b907ff8bb2a4b5b30792eb350607495ebe7f79c5a5066287187429654459fae715b2290815491680100000000000000008310156103b0576001928381018083558110156138ac5760009182527f65081cd3ad5fc84209c8310f7404cee8bc03efec5e3d920e46e7ba762f27ce4c019367ffffffffffffffff831161387f5761371b8554613119565b601f8111613837575b5081601f841160011461379a579293929184918261376f575b50507fffffffffffffffffffffffffffffffffffffffffffffffffffffffffffffffff91921b9260031b1c1916179055565b013591507fffffffffffffffffffffffffffffffffffffffffffffffffffffffffffffffff3861373d565b91837fffffffffffffffffffffffffffffffffffffffffffffffffffffffffffffffe08116878552602080862095905b8883831061381d57505050106137e5575b505050811b019055565b7fffffffffffffffffffffffffffffffffffffffffffffffffffffffffffffffff60f88560031b161c199101351690553880806137db565b8686013588559096019593840193879350908101906137ca565b85835260208320601f850160051c81019160208610613875575b601f0160051c019085905b82811061386a575050613724565b84815501859061385c565b9091508190613851565b6024827f4e487b710000000000000000000000000000000000000000000000000000000081526041600452fd5b7f4e487b7100000000000000000000000000000000000000000000000000000000600052603260045260246000fd5b356fffffffffffffffffffffffffffffffff8116810361041d5790565b908210156138ac5761390f9160051b81019061316c565b9091565b91908110156138ac5760e0020190565b93929391909160048110156107b05761396b57505090501561394157565b60046040517f93c16572000000000000000000000000000000000000000000000000000000008152fd5b73ffffffffffffffffffffffffffffffffffffffff809116911614918215926139c1575b505061399757565b60046040517ff85d06f8000000000000000000000000000000000000000000000000000000008152fd5b14159050388061398f565b8181116139d7575050565b6024916139e3916132fe565b604051907f2e2a58540000000000000000000000000000000000000000000000000000000082526004820152fdfea2646970667358221220943eda61f2e75998e1b5e7cb29c298f0ec7b86f57eda156e43ad0be4ae10b68964736f6c63430008110033a26469706673582212201cf8874ab2b057ca7287916518dd39a734713d1e470d4a218ddc3ea418cf206e64736f6c63430008110033",
    "linkReferences": {}
  },
  "methodIdentifiers": {
    "createIGO(string,(address,address,address,uint256,uint256,uint256),string[],(uint8,bytes32,uint128,uint128,uint256,address,uint256)[],(address,address,address,address,uint256,uint256,uint256,uint256),(uint32,uint32,uint32,uint16))": "b9a0a03f",
    "defaultVesting()": "b9edb3a5",
    "igoCount()": "dd89440f",
    "igoNames()": "303194a5",
    "igoWithName(string)": "7510d458",
    "owner()": "8da5cb5b",
    "renounceOwnership()": "715018a6",
    "transferOwnership(address)": "f2fde38b",
    "updateDefaultVesting(address,bytes)": "cd8a77d3",
    "vestingCreationCode()": "85f2f68a"
  },
  "id": 55
}