{
  "abi": [
    {
      "anonymous": false,
      "inputs": [
        {
          "indexed": true,
          "internalType": "address",
          "name": "oldDefaultVesting",
          "type": "address"
        },
        {
          "indexed": false,
          "internalType": "bytes",
          "name": "oldVestingCreationCode",
          "type": "bytes"
        },
        {
          "indexed": true,
          "internalType": "address",
          "name": "newDefaultVesting",
          "type": "address"
        },
        {
          "indexed": true,
          "internalType": "bytes",
          "name": "newVestingCreationCode",
          "type": "bytes"
        }
      ],
      "name": "DefaultVestingUpdated",
      "type": "event"
    },
    {
      "anonymous": false,
      "inputs": [
        {
          "indexed": true,
          "internalType": "string",
          "name": "igoName",
          "type": "string"
        },
        {
          "indexed": true,
          "internalType": "address",
          "name": "igo",
          "type": "address"
        },
        {
          "indexed": true,
          "internalType": "address",
          "name": "vesting",
          "type": "address"
        }
      ],
      "name": "IGOCreated",
      "type": "event"
    },
    {
      "anonymous": false,
      "inputs": [
        {
          "indexed": true,
          "internalType": "address",
          "name": "previousOwner",
          "type": "address"
        },
        {
          "indexed": true,
          "internalType": "address",
          "name": "newOwner",
          "type": "address"
        }
      ],
      "name": "OwnershipTransferred",
      "type": "event"
    },
    {
      "inputs": [
        {
          "internalType": "string",
          "name": "igoName",
          "type": "string"
        },
        {
          "components": [
            {
              "internalType": "address",
              "name": "vestingContract",
              "type": "address"
            },
            {
              "internalType": "address",
              "name": "paymentToken",
              "type": "address"
            },
            {
              "internalType": "address",
              "name": "permit2",
              "type": "address"
            },
            {
              "internalType": "uint256",
              "name": "grandTotal",
              "type": "uint256"
            },
            {
              "internalType": "uint256",
              "name": "summedMaxTagCap",
              "type": "uint256"
            },
            {
              "internalType": "uint256",
              "name": "refundFeeDecimals",
              "type": "uint256"
            }
          ],
          "internalType": "struct IGOStorage.SetUp",
          "name": "setUp",
          "type": "tuple"
        },
        {
          "internalType": "string[]",
          "name": "tagIds",
          "type": "string[]"
        },
        {
          "components": [
            {
              "internalType": "enum ISharedInternal.Status",
              "name": "status",
              "type": "uint8"
            },
            {
              "internalType": "bytes32",
              "name": "merkleRoot",
              "type": "bytes32"
            },
            {
              "internalType": "uint128",
              "name": "startAt",
              "type": "uint128"
            },
            {
              "internalType": "uint128",
              "name": "endAt",
              "type": "uint128"
            },
            {
              "internalType": "uint256",
              "name": "maxTagCap",
              "type": "uint256"
            },
            {
              "internalType": "address",
              "name": "paymentToken",
              "type": "address"
            },
            {
              "internalType": "uint256",
              "name": "projectTokenPrice",
              "type": "uint256"
            }
          ],
          "internalType": "struct ISharedInternal.Tag[]",
          "name": "tags",
          "type": "tuple[]"
        },
        {
          "components": [
            {
              "internalType": "address",
              "name": "_innovator",
              "type": "address"
            },
            {
              "internalType": "address",
              "name": "_paymentReceiver",
              "type": "address"
            },
            {
              "internalType": "address",
              "name": "_admin",
              "type": "address"
            },
            {
              "internalType": "address",
              "name": "_vestedToken",
              "type": "address"
            },
            {
              "internalType": "uint256",
              "name": "_platformFee",
              "type": "uint256"
            },
            {
              "internalType": "uint256",
              "name": "_totalTokenOnSale",
              "type": "uint256"
            },
            {
              "internalType": "uint256",
              "name": "_gracePeriod",
              "type": "uint256"
            },
            {
              "internalType": "uint256",
              "name": "_decimals",
              "type": "uint256"
            }
          ],
          "internalType": "struct IIGOVesting.ContractSetup",
          "name": "contractSetup",
          "type": "tuple"
        },
        {
          "components": [
            {
              "internalType": "uint32",
              "name": "_startTime",
              "type": "uint32"
            },
            {
              "internalType": "uint32",
              "name": "_cliff",
              "type": "uint32"
            },
            {
              "internalType": "uint32",
              "name": "_duration",
              "type": "uint32"
            },
            {
              "internalType": "uint16",
              "name": "_initialUnlockPercent",
              "type": "uint16"
            }
          ],
          "internalType": "struct IIGOVesting.VestingSetup",
          "name": "vestingSetup",
          "type": "tuple"
        }
      ],
      "name": "createIGO",
      "outputs": [
        {
          "internalType": "address",
          "name": "igo",
          "type": "address"
        },
        {
          "internalType": "address",
          "name": "vesting",
          "type": "address"
        }
      ],
      "stateMutability": "nonpayable",
      "type": "function"
    },
    {
      "inputs": [],
      "name": "defaultVesting",
      "outputs": [
        {
          "internalType": "address",
          "name": "",
          "type": "address"
        }
      ],
      "stateMutability": "view",
      "type": "function"
    },
    {
      "inputs": [
        {
          "internalType": "uint256",
          "name": "from",
          "type": "uint256"
        },
        {
          "internalType": "uint256",
          "name": "to",
          "type": "uint256"
        }
      ],
      "name": "getIgosDetails",
      "outputs": [
        {
          "components": [
            {
              "internalType": "string",
              "name": "name",
              "type": "string"
            },
            {
              "internalType": "address",
              "name": "igo",
              "type": "address"
            },
            {
              "internalType": "address",
              "name": "vesting",
              "type": "address"
            },
            {
              "components": [
                {
                  "internalType": "address",
                  "name": "vestingContract",
                  "type": "address"
                },
                {
                  "internalType": "address",
                  "name": "paymentToken",
                  "type": "address"
                },
                {
                  "internalType": "address",
                  "name": "permit2",
                  "type": "address"
                },
                {
                  "internalType": "uint256",
                  "name": "grandTotal",
                  "type": "uint256"
                },
                {
                  "internalType": "uint256",
                  "name": "summedMaxTagCap",
                  "type": "uint256"
                },
                {
                  "internalType": "uint256",
                  "name": "refundFeeDecimals",
                  "type": "uint256"
                }
              ],
              "internalType": "struct IGOStorage.SetUp",
              "name": "setUp",
              "type": "tuple"
            }
          ],
          "internalType": "struct IGOFactory.IGODetail[]",
          "name": "igos",
          "type": "tuple[]"
        },
        {
          "internalType": "uint256",
          "name": "lastEvaludatedIndex",
          "type": "uint256"
        },
        {
          "internalType": "uint256",
          "name": "totalItems",
          "type": "uint256"
        }
      ],
      "stateMutability": "view",
      "type": "function"
    },
    {
      "inputs": [],
      "name": "owner",
      "outputs": [
        {
          "internalType": "address",
          "name": "",
          "type": "address"
        }
      ],
      "stateMutability": "view",
      "type": "function"
    },
    {
      "inputs": [],
      "name": "renounceOwnership",
      "outputs": [],
      "stateMutability": "nonpayable",
      "type": "function"
    },
    {
      "inputs": [
        {
          "internalType": "address",
          "name": "newOwner",
          "type": "address"
        }
      ],
      "name": "transferOwnership",
      "outputs": [],
      "stateMutability": "nonpayable",
      "type": "function"
    },
    {
      "inputs": [
        {
          "internalType": "address",
          "name": "newDefaultVesting",
          "type": "address"
        },
        {
          "internalType": "bytes",
          "name": "newVestingCreationCode",
          "type": "bytes"
        }
      ],
      "name": "updateDefaultVesting",
      "outputs": [],
      "stateMutability": "nonpayable",
      "type": "function"
    },
    {
      "inputs": [],
      "name": "vestingCreationCode",
      "outputs": [
        {
          "internalType": "bytes",
          "name": "",
          "type": "bytes"
        }
      ],
      "stateMutability": "view",
      "type": "function"
    }
  ],
  "bytecode": {
    "object": "0x6080806040523461005f5760008054336001600160a01b0319821681178355916001600160a01b03909116907f8be0079c531659141344cd1fd0a4f28419497f9722a3daafe3b4186f6b6457e09080a360018055615dd790816100658239f35b600080fdfe60806040526004361015610013575b600080fd5b6000803560e01c908163715018a6146100b65750806385f2f68a146100ad5780638da5cb5b146100a4578063a905a3b91461009b578063b9a0a03f14610092578063b9edb3a514610089578063cd8a77d3146100805763f2fde38b1461007857600080fd5b61000e610cec565b5061000e610b07565b5061000e610a41565b5061000e610952565b5061000e61062f565b5061000e6104bb565b5061000e610394565b346100f757807ffffffffffffffffffffffffffffffffffffffffffffffffffffffffffffffffc3601126100f7576100ec610e22565b6100f4610ea1565b80f35b80fd5b600091031261000e57565b507f4e487b7100000000000000000000000000000000000000000000000000000000600052600060045260246000fd5b90600182811c9216801561017e575b602083101461014f57565b7f4e487b7100000000000000000000000000000000000000000000000000000000600052602260045260246000fd5b91607f1691610144565b507f4e487b7100000000000000000000000000000000000000000000000000000000600052604160045260246000fd5b67ffffffffffffffff81116101cc57604052565b6101d4610188565b604052565b6080810190811067ffffffffffffffff8211176101cc57604052565b60c0810190811067ffffffffffffffff8211176101cc57604052565b90601f7fffffffffffffffffffffffffffffffffffffffffffffffffffffffffffffffe0910116810190811067ffffffffffffffff8211176101cc57604052565b604051906000826005549161026683610135565b808352926001908181169081156102ee575060011461028f575b5061028d92500383610211565b565b6005600090815291507f036b6384b5eca791c62761152d0c79bb0604c104a5fb6f4eb0703f3154bb3db05b8483106102d3575061028d935050810160200138610280565b81935090816020925483858a010152019101909185926102ba565b6020935061028d9592507fffffffffffffffffffffffffffffffffffffffffffffffffffffffffffffff0091501682840152151560051b82010138610280565b60005b8381106103415750506000910152565b8181015183820152602001610331565b907fffffffffffffffffffffffffffffffffffffffffffffffffffffffffffffffe0601f60209361038d8151809281875287808801910161032e565b0116010190565b503461000e576000807ffffffffffffffffffffffffffffffffffffffffffffffffffffffffffffffffc3601126100f75760405190806005546103d681610135565b808552916001918083169081156104735750600114610418575b6104148561040081870382610211565b604051918291602083526020830190610351565b0390f35b9250600583527f036b6384b5eca791c62761152d0c79bb0604c104a5fb6f4eb0703f3154bb3db05b82841061045b575050508101602001610400826104146103f0565b80546020858701810191909152909301928101610440565b869550610414969350602092506104009491507fffffffffffffffffffffffffffffffffffffffffffffffffffffffffffffff001682840152151560051b82010192936103f0565b503461000e5760007ffffffffffffffffffffffffffffffffffffffffffffffffffffffffffffffffc36011261000e57602073ffffffffffffffffffffffffffffffffffffffff60005416604051908152f35b9093929160608083018184528651809152608084019060808160051b860101926020809901926000915b8a848410610553575050505050509060409291958201520152565b80877fffffffffffffffffffffffffffffffffffffffffffffffffffffffffffffff808b600195969798999a03018652610620895191868061059e8551610120808652850190610351565b9473ffffffffffffffffffffffffffffffffffffffff80888301511688860152604090818301511690850152015191019060a0809173ffffffffffffffffffffffffffffffffffffffff808251168552806020830151166020860152604082015116604085015260608101516060850152608081015160808501520151910152565b97019301930191939290610538565b503461000e5760407ffffffffffffffffffffffffffffffffffffffffffffffffffffffffffffffffc36011261000e576024356004358181116106ed576002548083116106e5575b6106896106848385611c64565b611ca0565b91805b8481106106a5575050610414906040519384938461050e565b806106da6106b56106e0936113fc565b506106c96106c38685611c64565b91611e69565b6106d38289611d92565b5286611d92565b50611d58565b61068c565b915081610677565b60646040517f08c379a000000000000000000000000000000000000000000000000000000000815260206004820152601b60248201527f49474f466163746f72795f494e44455845535f524556455253454400000000006044820152fd5b6040519061028d826101d9565b6004359073ffffffffffffffffffffffffffffffffffffffff8216820361000e57565b6044359073ffffffffffffffffffffffffffffffffffffffff8216820361000e57565b6064359073ffffffffffffffffffffffffffffffffffffffff8216820361000e57565b359073ffffffffffffffffffffffffffffffffffffffff8216820361000e57565b7fffffffffffffffffffffffffffffffffffffffffffffffffffffffffffffffdc60c091011261000e576040519060c0820182811067ffffffffffffffff821117610882575b6040528160243573ffffffffffffffffffffffffffffffffffffffff8116810361000e57815261085661077b565b602082015261086361079e565b6040820152608435606082015260a435608082015260a060c435910152565b61088a610188565b610828565b9181601f8401121561000e5782359167ffffffffffffffff831161000e576020808501948460051b01011161000e57565b9181601f8401121561000e5782359167ffffffffffffffff831161000e5760208085019460e0850201011161000e57565b7ffffffffffffffffffffffffffffffffffffffffffffffffffffffffffffffedc61010091011261000e5761012490565b7ffffffffffffffffffffffffffffffffffffffffffffffffffffffffffffffddc608091011261000e5761022490565b503461000e576102a07ffffffffffffffffffffffffffffffffffffffffffffffffffffffffffffffffc36011261000e5767ffffffffffffffff60043581811161000e573660238201121561000e57806004013582811161000e57366024828401011161000e576109c2366107e2565b60e43584811161000e576109da90369060040161088f565b6101049291923595861161000e576109f9610a189636906004016108c0565b939092610a05366108f1565b956024610a1136610922565b9801610f06565b6040805173ffffffffffffffffffffffffffffffffffffffff9384168152919092166020820152f35b503461000e5760007ffffffffffffffffffffffffffffffffffffffffffffffffffffffffffffffffc36011261000e57602073ffffffffffffffffffffffffffffffffffffffff60045416604051908152f35b92919267ffffffffffffffff8211610afa575b60405191610add60207fffffffffffffffffffffffffffffffffffffffffffffffffffffffffffffffe0601f8401160184610211565b82948184528183011161000e578281602093846000960137010152565b610b02610188565b610aa7565b503461000e5760407ffffffffffffffffffffffffffffffffffffffffffffffffffffffffffffffffc36011261000e57610b3f610758565b60243567ffffffffffffffff811161000e573660238201121561000e57610b70903690602481600401359101610a94565b610b78610e22565b73ffffffffffffffffffffffffffffffffffffffff82168015610c6857610c6692610c6191610ba984511515611f5f565b610be4610bcb60045473ffffffffffffffffffffffffffffffffffffffff1690565b73ffffffffffffffffffffffffffffffffffffffff1690565b90610bee85611fe9565b917fca14a4be31156fca70d9e52976142d5c698a3b780ceb17828587ca627a9004e260405180610c1d81612009565b0390a473ffffffffffffffffffffffffffffffffffffffff167fffffffffffffffffffffffff00000000000000000000000000000000000000006004541617600455565b6120de565b005b60846040517f08c379a000000000000000000000000000000000000000000000000000000000815260206004820152602760248201527f49474f466163746f72795f5f64656661756c7456657374696e675f5a45524f5f60448201527f41444452455353000000000000000000000000000000000000000000000000006064820152fd5b503461000e5760207ffffffffffffffffffffffffffffffffffffffffffffffffffffffffffffffffc36011261000e57610d24610758565b610d2c610e22565b73ffffffffffffffffffffffffffffffffffffffff8091168015610d9e576000918254827fffffffffffffffffffffffff00000000000000000000000000000000000000008216178455167f8be0079c531659141344cd1fd0a4f28419497f9722a3daafe3b4186f6b6457e08380a380f35b60846040517f08c379a000000000000000000000000000000000000000000000000000000000815260206004820152602660248201527f4f776e61626c653a206e6577206f776e657220697320746865207a65726f206160448201527f64647265737300000000000000000000000000000000000000000000000000006064820152fd5b73ffffffffffffffffffffffffffffffffffffffff600054163303610e4357565b60646040517f08c379a000000000000000000000000000000000000000000000000000000000815260206004820152602060248201527f4f776e61626c653a2063616c6c6572206973206e6f7420746865206f776e65726044820152fd5b600073ffffffffffffffffffffffffffffffffffffffff81547fffffffffffffffffffffffff000000000000000000000000000000000000000081168355167f8be0079c531659141344cd1fd0a4f28419497f9722a3daafe3b4186f6b6457e08280a3565b9291969594989790936002600154146112a8576002600155610f26610e22565b73ffffffffffffffffffffffffffffffffffffffff90610f6e82610f67610f4d8989611306565b5473ffffffffffffffffffffffffffffffffffffffff1690565b161561131f565b60409384516020810190610fb481610f888b8b3387611384565b037fffffffffffffffffffffffffffffffffffffffffffffffffffffffffffffffe08101835282610211565b5190209985519884613b729a8b81019b8c67ffffffffffffffff83821091111761129b575b6200223082398060009c03908cf0801561128e575b169d8e9c610ffa610252565b8051906020018df573ffffffffffffffffffffffffffffffffffffffff811684529e8f8d8d608087015260e0013560a0860152816110388d8d611306565b9061107d919073ffffffffffffffffffffffffffffffffffffffff167fffffffffffffffffffffffff0000000000000000000000000000000000000000825416179055565b61108561074b565b91611091368e8e610a94565b835273ffffffffffffffffffffffffffffffffffffffff16602083015273ffffffffffffffffffffffffffffffffffffffff16818a01528360608201526110d790611623565b8c3b1561128a578a93929161111a91895196879586957f897c1b7900000000000000000000000000000000000000000000000000000000875233600488016119b3565b0381838d5af1801561127d575b61126a575b50891695863b1561126657611170918691845193849283927fd926f1e900000000000000000000000000000000000000000000000000000000845260048401611b6e565b0381838a5af18015611259575b611246575b50843b1561124257517ff2fde38b00000000000000000000000000000000000000000000000000000000815273ffffffffffffffffffffffffffffffffffffffff861660048201528593927f8c941e5813d81a78a88724badffabc2b2cf670a135b2abaccd8e9ae0c57f3dcf9261120e928581602481838c5af18015611235575b61121c575b50611c1f565b9180a4919061028d60018055565b8061122961122f926101b8565b806100fa565b38611208565b61123d6113bf565b611203565b8380fd5b80611229611253926101b8565b38611182565b6112616113bf565b61117d565b8580fd5b80611229611277926101b8565b3861112c565b6112856113bf565b611127565b8a80fd5b6112966113bf565b610fee565b6112a3610188565b610fd9565b60646040517f08c379a000000000000000000000000000000000000000000000000000000000815260206004820152601f60248201527f5265656e7472616e637947756172643a207265656e7472616e742063616c6c006044820152fd5b6020908260405193849283378101600381520301902090565b1561132657565b60646040517f08c379a000000000000000000000000000000000000000000000000000000000815260206004820152601e60248201527f49474f466163746f72793a2049474f20616c72656164792065786973747300006044820152fd5b909280927fffffffffffffffffffffffffffffffffffffffff00000000000000000000000060149560601b1683528483013701016000815290565b506040513d6000823e3d90fd5b507f4e487b7100000000000000000000000000000000000000000000000000000000600052603260045260246000fd5b600990600254811015611438575b6002600052027f405787fa12a823e0f2b7631cc41b3ba8828b3321ca811111fa75cd3aa3bb5ace0190600090565b6114406113cc565b61140a565b601f8111611451575050565b600090600582527f036b6384b5eca791c62761152d0c79bb0604c104a5fb6f4eb0703f3154bb3db0906020601f850160051c830194106114ac575b601f0160051c01915b8281106114a157505050565b818155600101611495565b909250829061148c565b90601f81116114c457505050565b600091825260208220906020601f850160051c83019410611500575b601f0160051c01915b8281106114f557505050565b8181556001016114e9565b90925082906114e0565b9060a060059161160873ffffffffffffffffffffffffffffffffffffffff61157081845116879073ffffffffffffffffffffffffffffffffffffffff167fffffffffffffffffffffffff0000000000000000000000000000000000000000825416179055565b6115be81602085015116600188019073ffffffffffffffffffffffffffffffffffffffff167fffffffffffffffffffffffff0000000000000000000000000000000000000000825416179055565b604083015116600286019073ffffffffffffffffffffffffffffffffffffffff167fffffffffffffffffffffffff0000000000000000000000000000000000000000825416179055565b60608101516003850155608081015160048501550151910155565b906002549168010000000000000000831015611884575b61164b6001938481016002556113fc565b919091611877575b805193845167ffffffffffffffff811161186a575b61167c816116768654610135565b866114b6565b6020958690601f83116001146117b457926116f561028d97988460039795611738956060986000926117a9575b50507fffffffffffffffffffffffffffffffffffffffffffffffffffffffffffffffff82861b928a1b1c19161788555b84015173ffffffffffffffffffffffffffffffffffffffff1690565b9086019073ffffffffffffffffffffffffffffffffffffffff167fffffffffffffffffffffffff0000000000000000000000000000000000000000825416179055565b6117a061175c604083015173ffffffffffffffffffffffffffffffffffffffff1690565b600286019073ffffffffffffffffffffffffffffffffffffffff167fffffffffffffffffffffffff0000000000000000000000000000000000000000825416179055565b0151910161150a565b0151905038806116a9565b907fffffffffffffffffffffffffffffffffffffffffffffffffffffffffffffffe08316916117e887600052602060002090565b9260005b818110611855575098858561173895606098956116f59560039b9961028d9e9f1061181f575b505050811b0188556116d9565b01517fffffffffffffffffffffffffffffffffffffffffffffffffffffffffffffffff60f8848d1b161c19169055388080611812565b82840151855593860193928a01928a016117ec565b611872610188565b611668565b61187f610105565b611653565b61188c610188565b61163a565b601f82602094937fffffffffffffffffffffffffffffffffffffffffffffffffffffffffffffffe0938186528686013760008582860101520116010190565b35906fffffffffffffffffffffffffffffffff8216820361000e57565b918181526020809101929160009182905b82821061190d57505050505090565b9091929394853560048110156112665781528582013582820152600190611952604061193a818a016118d0565b6fffffffffffffffffffffffffffffffff1690830152565b611962606061193a818a016118d0565b6080808801359082015261199860a061197c818a016107c1565b73ffffffffffffffffffffffffffffffffffffffff1690830152565b60c0878101359082015260e0908101960194939201906118fe565b969593809195939561012073ffffffffffffffffffffffffffffffffffffffff818b0192168a52611a35602095868c019060a0809173ffffffffffffffffffffffffffffffffffffffff808251168552806020830151166020860152604082015116604085015260608101516060850152608081015160808501520151910152565b60e08a01525261014091828801928260051b8901019580936000915b848310611a745750505050505084610100611a71959685039101526118ed565b90565b9091929394977ffffffffffffffffffffffffffffffffffffffffffffffffffffffffffffffec08b820301835288357fffffffffffffffffffffffffffffffffffffffffffffffffffffffffffffffe18336030181121561000e57820185810191903567ffffffffffffffff811161000e57803603831361000e57611afe87928392600195611891565b9a01930193019194939290611a51565b359063ffffffff8216820361000e57565b60609063ffffffff80611b3183611b0e565b16845280611b4160208401611b0e565b166020850152611b5360408301611b0e565b16604084015201359061ffff821680920361000e5760600152565b9161010061028d92949360e061018082019673ffffffffffffffffffffffffffffffffffffffff80611b9f836107c1565b16845280611baf602084016107c1565b166020850152611bc1604083016107c1565b166040840152611bf3611bd6606083016107c1565b73ffffffffffffffffffffffffffffffffffffffff166060850152565b6080810135608084015260a081013560a084015260c081013560c0840152013560e08201520190611b1f565b81604051928392833781016000815203902090565b507f4e487b7100000000000000000000000000000000000000000000000000000000600052601160045260246000fd5b91908203918211611c7157565b61028d611c34565b60209067ffffffffffffffff8111611c93575b60051b0190565b611c9b610188565b611c8c565b90611caa82611c79565b604090611cb982519182610211565b8381527fffffffffffffffffffffffffffffffffffffffffffffffffffffffffffffffe0611ce78295611c79565b019160005b838110611cf95750505050565b6020908251611d07816101d9565b60608082528390600082840152600086840152855190611d26826101f5565b6000825260008383015260008783015260008183015260006080830152600060a0830152830152828601015201611cec565b6001907fffffffffffffffffffffffffffffffffffffffffffffffffffffffffffffffff8114611d86570190565b611d8e611c34565b0190565b6020918151811015611da7575b60051b010190565b611daf6113cc565b611d9f565b9060009291805491611dc583610135565b918282526001938481169081600014611e275750600114611de7575b50505050565b90919394506000526020928360002092846000945b838610611e13575050505001019038808080611de1565b805485870183015294019385908201611dfc565b91505060209495507fffffffffffffffffffffffffffffffffffffffffffffffffffffffffffffff009193501683830152151560051b01019038808080611de1565b9060405191611e77836101d9565b606083604051611e9281611e8b8187611db4565b0382610211565b8152600873ffffffffffffffffffffffffffffffffffffffff93846001820154166020840152846002820154166040840152611f0060405195611ed4876101f5565b60038301548116875260048301541673ffffffffffffffffffffffffffffffffffffffff166020870152565b611f41611f24600583015473ffffffffffffffffffffffffffffffffffffffff1690565b73ffffffffffffffffffffffffffffffffffffffff166040870152565b60068101548486015260078101546080860152015460a08401520152565b15611f6657565b60846040517f08c379a0000000000000000000000000000000000000000000000000000000008152602060048201526024808201527f49474f466163746f72795f5f64656661756c7456657374696e675f5a45524f5f60448201527f434f4445000000000000000000000000000000000000000000000000000000006064820152fd5b6120019060206040519282848094519384920161032e565b810103902090565b60208082526000916005549161201e83610135565b928382840152600190818116908160001461209c5750600114612043575b5050505090565b600560009081529394507f036b6384b5eca791c62761152d0c79bb0604c104a5fb6f4eb0703f3154bb3db05b858510612088575050506040925001013880808061203c565b80548585016040015293820193810161206f565b915050604094507fffffffffffffffffffffffffffffffffffffffffffffffffffffffffffffff0091509291921683830152151560051b01013880808061203c565b90815167ffffffffffffffff8111612222575b61210581612100600554610135565b611445565b602080601f831160011461215e5750819293600092612153575b50507fffffffffffffffffffffffffffffffffffffffffffffffffffffffffffffffff8260011b9260031b1c191617600555565b01519050388061211f565b907fffffffffffffffffffffffffffffffffffffffffffffffffffffffffffffffe08316946121af60056000527f036b6384b5eca791c62761152d0c79bb0604c104a5fb6f4eb0703f3154bb3db090565b926000905b87821061220a5750508360019596106121d3575b505050811b01600555565b01517fffffffffffffffffffffffffffffffffffffffffffffffffffffffffffffffff60f88460031b161c191690553880806121c8565b806001859682949686015181550195019301906121b4565b61222a610188565b6120f156fe60808060405234610074576000805462010000600160b01b0319811633601081811b62010000600160b01b03169290921784559291901c6001600160a01b0316907f8be0079c531659141344cd1fd0a4f28419497f9722a3daafe3b4186f6b6457e09080a360018055613af8908161007a8239f35b600080fdfe6080604052600436101561001257600080fd5b6000803560e01c806302912bd3146121bb5780630a9254e4146121535780631bcaddc21461210b57806328d5796f1461148d57806333e21bec146114465780635625671e146113c85780635a5fdab714611380578063715018a6146112fe5780637518d35c146111e35780637eae687e1461103c5780638393080814610fa1578063852c49a714610f5e578063897c1b791461099a5780638da5cb5b14610964578063907d3085146108b157806398e3fdc41461085c578063c5c4744c1461081f578063db365f841461073e578063e6807afd14610673578063f1efb9311461059f578063f2fde38b146104d4578063f86df59b1461046e578063faf0c581146101815763ff77d0be1461012557600080fd5b3461017e57602061014c8161013936612a07565b8160405193828580945193849201612a46565b81017ff8bb2a4b5b30792eb350607495ebe7f79c5a5066287187429654459fae715b2681520301902054604051908152f35b80fd5b503461017e57604060031936011261017e5761019b612aac565b602480359173ffffffffffffffffffffffffffffffffffffffff90818416809403610469576101c8612b4c565b16801561040b57604051907f70a0823100000000000000000000000000000000000000000000000000000000825230600483015260209384838581855afa9283156104005786936103cd575b5060405192858401917fa9059cbb00000000000000000000000000000000000000000000000000000000835285850152604484015260448352608083019280841067ffffffffffffffff85111761039f578684939281926102d69660405261027b86612939565b8886527f5361666545524332303a206c6f772d6c6576656c2063616c6c206661696c656460a0820152519082855af13d15610397573d916102bb83612996565b926102c96040519485612955565b83523d888885013e61325a565b8051838115918215610373575b50509050156102f0578280f35b90602a608492604051927f08c379a000000000000000000000000000000000000000000000000000000000845260048401528201527f5361666545524332303a204552433230206f7065726174696f6e20646964206e60448201527f6f742073756363656564000000000000000000000000000000000000000000006064820152fd5b8380929350010312610393578201518015158103610393578083386102e3565b8380fd5b60609161325a565b847f4e487b710000000000000000000000000000000000000000000000000000000060005260416004526000fd5b9092508481813d83116103f9575b6103e58183612955565b810103126103f557519138610214565b8580fd5b503d6103db565b6040513d88823e3d90fd5b6064826012604051917f08c379a0000000000000000000000000000000000000000000000000000000008352602060048401528201527f546f6b656e5f5a45524f5f4144445245535300000000000000000000000000006044820152fd5b600080fd5b503461017e57604060031936011261017e5767ffffffffffffffff6004358181116104d0576104a1903690600401612851565b90602435928311610393576104bd6104cd933690600401612acf565b9290916104c8612b4c565b61339d565b80f35b8280fd5b503461017e57602060031936011261017e576104ee612aac565b6104f6612b4c565b73ffffffffffffffffffffffffffffffffffffffff81161561051b576104cd90612bce565b60846040517f08c379a000000000000000000000000000000000000000000000000000000000815260206004820152602660248201527f4f776e61626c653a206e6577206f776e657220697320746865207a65726f206160448201527f64647265737300000000000000000000000000000000000000000000000000006064820152fd5b503461017e57602060031936011261017e576004356105bc612b4c565b6103e88110610615576105f0817ff8bb2a4b5b30792eb350607495ebe7f79c5a5066287187429654459fae715b2054613a7d565b7ff8bb2a4b5b30792eb350607495ebe7f79c5a5066287187429654459fae715b1f5580f35b60646040517f08c379a000000000000000000000000000000000000000000000000000000000815260206004820152601b60248201527f6772616e64546f74616c5f4c6f7765725468616e5f5f315f30303000000000006044820152fd5b503461017e576fffffffffffffffffffffffffffffffff61069336612b00565b61069f93919293612b4c565b16914283106106e0576002916106b491612c59565b01907fffffffffffffffffffffffffffffffff0000000000000000000000000000000082541617905580f35b60646040517f08c379a000000000000000000000000000000000000000000000000000000000815260206004820152600d60248201527f53544152545f494e5f50415354000000000000000000000000000000000000006044820152fd5b503461017e5761074d36612b00565b90610756612b4c565b426fffffffffffffffffffffffffffffffff831611156107c15761077f6002916104cd94612c59565b01906fffffffffffffffffffffffffffffffff7fffffffffffffffffffffffffffffffff0000000000000000000000000000000083549260801b169116179055565b60646040517f08c379a000000000000000000000000000000000000000000000000000000000815260206004820152600b60248201527f454e445f494e5f504153540000000000000000000000000000000000000000006044820152fd5b503461017e578060031936011261017e5760207ff8bb2a4b5b30792eb350607495ebe7f79c5a5066287187429654459fae715b2554604051908152f35b503461017e57602060031936011261017e5760043567ffffffffffffffff81116108ad5761089161089f913690600401612823565b9061089a612b4c565b612c59565b600360ff1982541617905580f35b5080fd5b503461017e57604060031936011261017e5760043567ffffffffffffffff81116108ad576108e3903690600401612823565b602435916108ef612b4c565b82156109065760019161090191612c59565b015580f35b60646040517f08c379a000000000000000000000000000000000000000000000000000000000815260206004820152601060248201527f4d65726b6c65526f6f745f454d505459000000000000000000000000000000006044820152fd5b503461017e578060031936011261017e5773ffffffffffffffffffffffffffffffffffffffff6020915460101c16604051908152f35b503461017e5761012060031936011261017e576109b5612aac565b60c07fffffffffffffffffffffffffffffffffffffffffffffffffffffffffffffffdc3601126108ad5767ffffffffffffffff9060e43582811161039357610a01903690600401612851565b909261010435908111610f5a57610a1c903690600401612acf565b9185549460ff8660081c161595868097610f4d575b8015610f36575b15610eb25786600160ff198316178955610e84575b50610a56612b4c565b73ffffffffffffffffffffffffffffffffffffffff80861615610e265780610a7c612f3d565b1615610da25780610a8b612f60565b1615610d1e5780610a9a612f83565b1615610c9a57608435908115610c3c57610ab6610be197612bce565b80610abf612f3d565b16907fffffffffffffffffffffffff0000000000000000000000000000000000000000917ff8bb2a4b5b30792eb350607495ebe7f79c5a5066287187429654459fae715b1c908382541617905580610b15612f60565b167ff8bb2a4b5b30792eb350607495ebe7f79c5a5066287187429654459fae715b1d9083825416179055610b47612f83565b167ff8bb2a4b5b30792eb350607495ebe7f79c5a5066287187429654459fae715b1e918254161790557ff8bb2a4b5b30792eb350607495ebe7f79c5a5066287187429654459fae715b1f5560a4357ff8bb2a4b5b30792eb350607495ebe7f79c5a5066287187429654459fae715b205560c4357ff8bb2a4b5b30792eb350607495ebe7f79c5a5066287187429654459fae715b215561339d565b610be85780f35b7fffffffffffffffffffffffffffffffffffffffffffffffffffffffffffff00ff81541681557f7f26b83ff96e1f2b6a682f133852f6798a09c465da95921460cefb3847402498602060405160018152a180f35b60646040517f08c379a000000000000000000000000000000000000000000000000000000000815260206004820152601c60248201527f49474f5772697461626c655f5f6772616e64546f74616c5f5a45524f000000006044820152fd5b60846040517f08c379a000000000000000000000000000000000000000000000000000000000815260206004820152602160248201527f49474f5772697461626c655f5f7065726d6974325f5a45524f5f41444452455360448201527f53000000000000000000000000000000000000000000000000000000000000006064820152fd5b60846040517f08c379a000000000000000000000000000000000000000000000000000000000815260206004820152602660248201527f49474f5772697461626c655f5f7061796d656e74546f6b656e5f5a45524f5f4160448201527f44445245535300000000000000000000000000000000000000000000000000006064820152fd5b60846040517f08c379a000000000000000000000000000000000000000000000000000000000815260206004820152602960248201527f49474f5772697461626c655f5f76657374696e67436f6e74726163745f5a455260448201527f4f5f4144445245535300000000000000000000000000000000000000000000006064820152fd5b60646040517f08c379a000000000000000000000000000000000000000000000000000000000815260206004820152601f60248201527f49474f5772697461626c655f5f6f776e65725f5a45524f5f41444452455353006044820152fd5b7fffffffffffffffffffffffffffffffffffffffffffffffffffffffffffff00001661010117875538610a4d565b60846040517f08c379a000000000000000000000000000000000000000000000000000000000815260206004820152602e60248201527f496e697469616c697a61626c653a20636f6e747261637420697320616c72656160448201527f647920696e697469616c697a65640000000000000000000000000000000000006064820152fd5b50303b158015610a385750600160ff821614610a38565b50600160ff821610610a31565b8480fd5b503461017e57602060031936011261017e5760043567ffffffffffffffff81116108ad57610891610f93913690600401612823565b600160ff1982541617905580f35b503461017e57604060031936011261017e57610fbb612aac565b906024359067ffffffffffffffff821161017e5760206110338461102d610fe53660048801612823565b91909273ffffffffffffffffffffffffffffffffffffffff166000527ff8bb2a4b5b30792eb350607495ebe7f79c5a5066287187429654459fae715b27602052604060002090565b91612cc9565b54604051908152f35b503461017e578060031936011261017e577ff8bb2a4b5b30792eb350607495ebe7f79c5a5066287187429654459fae715b229081549161107b83612e81565b916110896040519384612955565b83835260209384840190819383527f65081cd3ad5fc84209c8310f7404cee8bc03efec5e3d920e46e7ba762f27ce4c9183905b82821061113f5750505050604051928484019085855251809152604084019460408260051b8601019392955b8287106110f55785850386f35b90919293828061112f837fffffffffffffffffffffffffffffffffffffffffffffffffffffffffffffffc08a600196030186528851612a69565b96019201960195929190926110e8565b6040979694975187899286549261115584612e99565b8082526001948086169081156111c7575060011461118f575b5061117d816001960382612955565b815201940191019092969395966110bc565b888d52838d2095508c905b8082106111b0575081018301945061117d61116e565b8654838301860152958501958c949091019061119a565b60ff19168584015250151560051b81018301945061117d61116e565b503461017e576112036111f536612a07565b6111fd612e49565b50612ce2565b60405161120f816128be565b60ff8254169160048310156112d15760e0935082825260018101549060208301918252600281015460408401906fffffffffffffffffffffffffffffffff908181168352606086019060801c8152816003850154936080880194855273ffffffffffffffffffffffffffffffffffffffff9660c060058960048a0154169860a08c01998a52015499019889526112a8604051809b612882565b5160208a01525116604088015251166060860152516080850152511660a08301525160c0820152f35b6024847f4e487b710000000000000000000000000000000000000000000000000000000081526021600452fd5b503461017e578060031936011261017e57611317612b4c565b600073ffffffffffffffffffffffffffffffffffffffff81547fffffffffffffffffffff0000000000000000000000000000000000000000ffff8116835560101c167f8be0079c531659141344cd1fd0a4f28419497f9722a3daafe3b4186f6b6457e08280a380f35b503461017e578060031936011261017e57611399612b4c565b7ff8bb2a4b5b30792eb350607495ebe7f79c5a5066287187429654459fae715b24600160ff1982541617905580f35b503461017e57604060031936011261017e5760043567ffffffffffffffff81116108ad5760036113ff610901923690600401612823565b602435939161140c612b4c565b61089a611417612d27565b606061143d8861143860808501518a6114308a8a612c59565b01549061305b565b613006565b91015190613a7d565b503461017e578060031936011261017e57602060ff7ff8bb2a4b5b30792eb350607495ebe7f79c5a5066287187429654459fae715b24541661148b6040518092612882565bf35b503461017e576003196080813601126108ad5767ffffffffffffffff602435116108ad57608081602435360301126108ad5760443567ffffffffffffffff81116104d0576114df903690600401612851565b91906064359167ffffffffffffffff8311610f5a576060908336030112610393576002600154146120ad57600260015561151e60046024350180612eec565b6115288183612c59565b9060405191611536836128be565b60ff8154166004811015612080579060059184526001810154602085015260028101546fffffffffffffffffffffffffffffffff8116604086015260801c60608501526003810154608085015273ffffffffffffffffffffffffffffffffffffffff60048201541660a0850152015460c08301526115b2612d27565b9460808301519560608101519661162a61162161161a6115d56024803501612fa6565b73ffffffffffffffffffffffffffffffffffffffff166000527ff8bb2a4b5b30792eb350607495ebe7f79c5a5066287187429654459fae715b27602052604060002090565b8689612cc9565b54600435613006565b60446024350135811161203557506116456024803501612fa6565b73ffffffffffffffffffffffffffffffffffffffff33911603611fd75761168f7ff8bb2a4b5b30792eb350607495ebe7f79c5a5066287187429654459fae715b2554600435613006565b888111611f97575060ff7ff8bb2a4b5b30792eb350607495ebe7f79c5a5066287187429654459fae715b2454166004811015611f6a5760018103611f3157506116ef6116ea6116e360046024350180612eec565b36916129d0565b613068565b6116fc6116218588612c91565b818111611ed85750600161171e61171860046024350180612eec565b90612c59565b0154986040516020808201527fffffffffffffffffffffffffffffffffffffffffffffffffffffffffffffffdd602435360301602435600401351215611ed457602435602435600401350167ffffffffffffffff600482013511611ed057600481013536036024820113611ed0576117aa906080604084015260c0830190602460048201359101612fc7565b60248035013573ffffffffffffffffffffffffffffffffffffffff81168103611ecc5773ffffffffffffffffffffffffffffffffffffffff166060830152602435604481013560808401526064013560a08301528190037fffffffffffffffffffffffffffffffffffffffffffffffffffffffffffffffe0810182526118309082612955565b602081519101209061184181612e81565b9861184f6040519a8b612955565b818a5260208a0190368360051b820111611ecc5780915b8360051b82018310611ebc5750505050978a985b88518a10156118c35760208a60051b8a010151908181106000146118b1578c526020526118ab60408c205b9961322d565b9861187a565b908c526020526118ab60408c206118a5565b8b98508a03611e5e5761198c61161a6118df6024803501612fa6565b61190c6004357ff8bb2a4b5b30792eb350607495ebe7f79c5a5066287187429654459fae715b2554613006565b7ff8bb2a4b5b30792eb350607495ebe7f79c5a5066287187429654459fae715b2555611938888b612c91565b6119456004358254613006565b905573ffffffffffffffffffffffffffffffffffffffff166000527ff8bb2a4b5b30792eb350607495ebe7f79c5a5066287187429654459fae715b27602052604060002090565b6119996004358254613006565b90557ff8bb2a4b5b30792eb350607495ebe7f79c5a5066287187429654459fae715b255414611e0e575b6119cd8487612c91565b5414611df0575b60026119e08487612c59565b015460801c421015611dcd575b60a084015173ffffffffffffffffffffffffffffffffffffffff168015611dab57935b73ffffffffffffffffffffffffffffffffffffffff8251169060c0611a386024803501612fa6565b910151916004358360043502048314600435151715611d7e57908189923b156104d057888388611ac194670de0b6b3a764000073ffffffffffffffffffffffffffffffffffffffff98898e6040519b8c9a8b998a987f37a97db7000000000000000000000000000000000000000000000000000000008a5260c060048b015260c48a0191612fc7565b951660248701526004356044870152166064850152600435020460848301526064602435013560a483015203925af18015611d7357611d5e575b50908173ffffffffffffffffffffffffffffffffffffffff604088940151169160006020604051611b2b81612939565b82815201528360408051611b3e8161291d565b8151611b4981612939565b60008152600060208201528152826020820152015260006020604051611b6e81612939565b8281520152611beb73ffffffffffffffffffffffffffffffffffffffff60405193611b9885612939565b8189168552600435602086015260405194611bb28661291d565b8552604484013560208601526024840135604086015251169160405192611bd884612939565b8352600435602084015260040180612eec565b8491943b156103f557858094611cad611c94976040948551998a98899788967f30f28b7a000000000000000000000000000000000000000000000000000000008852611c5b6004890182516020809173ffffffffffffffffffffffffffffffffffffffff81511684520151910152565b60208181015160448a01529101516064880152815173ffffffffffffffffffffffffffffffffffffffff166084880152015160a4860152565b3360c485015261010060e4850152610104840191612fc7565b03925af18015611d5357611d3f575b5050611ccb6024803501612fa6565b92816040519283928337810185815203902073ffffffffffffffffffffffffffffffffffffffff604051921682527f24b17f7cc1c323d081ca24ebe682df530605d2207ecdde5a86c1d0bb44a88a6d602073ffffffffffffffffffffffffffffffffffffffff600435951693a46001805580f35b611d4890612909565b610393578385611cbc565b6040513d84823e3d90fd5b611d6b9096919296612909565b949086611afb565b6040513d89823e3d90fd5b6024897f4e487b710000000000000000000000000000000000000000000000000000000081526011600452fd5b5073ffffffffffffffffffffffffffffffffffffffff60208201511693611a10565b611de0611ddb3685886129d0565b612ce2565b600260ff198254161790556119ed565b611dfe611ddb3685886129d0565b600260ff198254161790556119d4565b600260ff197ff8bb2a4b5b30792eb350607495ebe7f79c5a5066287187429654459fae715b245416177ff8bb2a4b5b30792eb350607495ebe7f79c5a5066287187429654459fae715b24556119c3565b60646040517f08c379a000000000000000000000000000000000000000000000000000000000815260206004820152601460248201527f414c4c4f434154494f4e5f4e4f545f464f554e440000000000000000000000006044820152fd5b8235815260209283019201611866565b8d80fd5b8c80fd5b8b80fd5b81611ee58893879361305b565b611f226040519485947f2877ff9e000000000000000000000000000000000000000000000000000000008652606060048701526064860191612fc7565b91602484015260448301520390fd5b602490611f68604051917fb293db190000000000000000000000000000000000000000000000000000000083526004830190612882565bfd5b60248b7f4e487b710000000000000000000000000000000000000000000000000000000081526021600452fd5b88611fa48160449361305b565b604051917fcced311a00000000000000000000000000000000000000000000000000000000835260048301526024820152fd5b60646040517f08c379a000000000000000000000000000000000000000000000000000000000815260206004820152601a60248201527f6d73672e73656e6465723a204e4f545f415554484f52495a45440000000000006044820152fd5b6120476044918260243501359061305b565b604051907fadaa553200000000000000000000000000000000000000000000000000000000825282602435013560048301526024820152fd5b6024897f4e487b710000000000000000000000000000000000000000000000000000000081526021600452fd5b60646040517f08c379a000000000000000000000000000000000000000000000000000000000815260206004820152601f60248201527f5265656e7472616e637947756172643a207265656e7472616e742063616c6c006044820152fd5b503461017e578060031936011261017e57612124612b4c565b7ff8bb2a4b5b30792eb350607495ebe7f79c5a5066287187429654459fae715b24600360ff1982541617905580f35b503461017e578060031936011261017e5760a061216e612d27565b73ffffffffffffffffffffffffffffffffffffffff908181511691602082015116906060810151846080830151920151926040519485526020850152604084015260608301526080820152f35b503461017e5761010060031936011261017e5767ffffffffffffffff6004358181116104d0576121ef903690600401612823565b60e07fffffffffffffffffffffffffffffffffffffffffffffffffffffffffffffffdc93929336011261039357612224612b4c565b61222e8184612c59565b6040519161223b836128be565b60ff82541660048110156127f65783526001928383015490602091828201526002840154916fffffffffffffffffffffffffffffffff92838116604084015260801c60608301526003850154936080830194855273ffffffffffffffffffffffffffffffffffffffff956005876004830154169160a08601928352015460c0850190815260443594851515806127e0575b806127cb575b806127c0575b156127625751916004831015612735578890511660c435988916809903611ed05788915192156000146126ed5750505060e435156126c3575b7ff8bb2a4b5b30792eb350607495ebe7f79c5a5066287187429654459fae715b1f54987ff8bb2a4b5b30792eb350607495ebe7f79c5a5066287187429654459fae715b20986123648a549751809861305b565b9661237c61237560a435809a613006565b9c8d613a7d565b15612474575b5061238d9250612c59565b946024356004811015612470576123a49087613042565b850155600284019060643581811680910361246c577fffffffffffffffffffffffffffffffff0000000000000000000000000000000083541617825560843590811681036124685781546fffffffffffffffffffffffffffffffff1660809190911b7fffffffffffffffffffffffffffffffff0000000000000000000000000000000016179055600383015560048201907fffffffffffffffffffffffff0000000000000000000000000000000000000000825416179055600560e4359101555580f35b8780fd5b8880fd5b8980fd5b7ff8bb2a4b5b30792eb350607495ebe7f79c5a5066287187429654459fae715b229081549168010000000000000000831015612696578a8301808255831015612669578d52831161263c577f65081cd3ad5fc84209c8310f7404cee8bc03efec5e3d920e46e7ba762f27ce4c016124eb8154612e99565b601f81116125f4575b508b8c601f85116001146125505761238d95509084612545575b50838a1b907fffffffffffffffffffffffffffffffffffffffffffffffffffffffffffffffff8560031b1c19161790555b38612382565b90508201353861250e565b908a957fffffffffffffffffffffffffffffffffffffffffffffffffffffffffffffffe086169084845280842093905b8282106125db57505061238d965085116125a3575b50508883811b01905561253f565b7fffffffffffffffffffffffffffffffffffffffffffffffffffffffffffffffff60f88660031b161c19908401351690553880612595565b8684013585558d98909401939283019290810190612580565b818d52848d20601f850160051c810191868610612632575b601f0160051c01908a908e5b838210612627575050506124f4565b8155018a908e612618565b909150819061260c565b60248c7f4e487b710000000000000000000000000000000000000000000000000000000081526041600452fd5b60248e7f4e487b710000000000000000000000000000000000000000000000000000000081526032600452fd5b60248e7f4e487b710000000000000000000000000000000000000000000000000000000081526041600452fd5b60046040517f93c16572000000000000000000000000000000000000000000000000000000008152fd5b1490811591612728575b5015612311575b60046040517ff85d06f8000000000000000000000000000000000000000000000000000000008152fd5b905060e4351415386126f7565b60248d7f4e487b710000000000000000000000000000000000000000000000000000000081526021600452fd5b606485604051907f08c379a00000000000000000000000000000000000000000000000000000000082526004820152600960248201527f454d5054595f54414700000000000000000000000000000000000000000000006044820152fd5b5060a43515156122d8565b50608435878116809103611ecc5742106122d2565b50606435878116809103611ecc574211156122cc565b6024877f4e487b710000000000000000000000000000000000000000000000000000000081526021600452fd5b9181601f840112156104695782359167ffffffffffffffff8311610469576020838186019501011161046957565b9181601f840112156104695782359167ffffffffffffffff8311610469576020808501948460051b01011161046957565b90600482101561288f5752565b7f4e487b7100000000000000000000000000000000000000000000000000000000600052602160045260246000fd5b60e0810190811067ffffffffffffffff8211176128da57604052565b7f4e487b7100000000000000000000000000000000000000000000000000000000600052604160045260246000fd5b67ffffffffffffffff81116128da57604052565b6060810190811067ffffffffffffffff8211176128da57604052565b6040810190811067ffffffffffffffff8211176128da57604052565b90601f7fffffffffffffffffffffffffffffffffffffffffffffffffffffffffffffffe0910116810190811067ffffffffffffffff8211176128da57604052565b67ffffffffffffffff81116128da57601f017fffffffffffffffffffffffffffffffffffffffffffffffffffffffffffffffe01660200190565b9291926129dc82612996565b916129ea6040519384612955565b829481845281830111610469578281602093846000960137010152565b6020600319820112610469576004359067ffffffffffffffff8211610469578060238301121561046957816024612a43936004013591016129d0565b90565b60005b838110612a595750506000910152565b8181015183820152602001612a49565b907fffffffffffffffffffffffffffffffffffffffffffffffffffffffffffffffe0601f602093612aa581518092818752878088019101612a46565b0116010190565b6004359073ffffffffffffffffffffffffffffffffffffffff8216820361046957565b9181601f840112156104695782359167ffffffffffffffff83116104695760208085019460e0850201011161046957565b6040600319820112610469576004359067ffffffffffffffff821161046957612b2b91600401612823565b90916024356fffffffffffffffffffffffffffffffff811681036104695790565b73ffffffffffffffffffffffffffffffffffffffff60005460101c163303612b7057565b60646040517f08c379a000000000000000000000000000000000000000000000000000000000815260206004820152602060248201527f4f776e61626c653a2063616c6c6572206973206e6f7420746865206f776e65726044820152fd5b6000549075ffffffffffffffffffffffffffffffffffffffff00008160101b167fffffffffffffffffffff0000000000000000000000000000000000000000ffff83161760005573ffffffffffffffffffffffffffffffffffffffff8091169160101c167f8be0079c531659141344cd1fd0a4f28419497f9722a3daafe3b4186f6b6457e0600080a3565b60209082604051938492833781017ff8bb2a4b5b30792eb350607495ebe7f79c5a5066287187429654459fae715b2381520301902090565b60209082604051938492833781017ff8bb2a4b5b30792eb350607495ebe7f79c5a5066287187429654459fae715b2681520301902090565b6020919283604051948593843782019081520301902090565b6020612cfb918160405193828580945193849201612a46565b81017ff8bb2a4b5b30792eb350607495ebe7f79c5a5066287187429654459fae715b2381520301902090565b6040519060c0820182811067ffffffffffffffff8211176128da576040528173ffffffffffffffffffffffffffffffffffffffff807ff8bb2a4b5b30792eb350607495ebe7f79c5a5066287187429654459fae715b1c54168252807ff8bb2a4b5b30792eb350607495ebe7f79c5a5066287187429654459fae715b1d541660208301527ff8bb2a4b5b30792eb350607495ebe7f79c5a5066287187429654459fae715b1e541660408201527ff8bb2a4b5b30792eb350607495ebe7f79c5a5066287187429654459fae715b1f5460608201527ff8bb2a4b5b30792eb350607495ebe7f79c5a5066287187429654459fae715b2054608082015260a07ff8bb2a4b5b30792eb350607495ebe7f79c5a5066287187429654459fae715b2154910152565b60405190612e56826128be565b8160c06000918281528260208201528260408201528260608201528260808201528260a08201520152565b67ffffffffffffffff81116128da5760051b60200190565b90600182811c92168015612ee2575b6020831014612eb357565b7f4e487b7100000000000000000000000000000000000000000000000000000000600052602260045260246000fd5b91607f1691612ea8565b9035907fffffffffffffffffffffffffffffffffffffffffffffffffffffffffffffffe181360301821215610469570180359067ffffffffffffffff82116104695760200191813603831361046957565b60243573ffffffffffffffffffffffffffffffffffffffff811681036104695790565b60443573ffffffffffffffffffffffffffffffffffffffff811681036104695790565b60643573ffffffffffffffffffffffffffffffffffffffff811681036104695790565b3573ffffffffffffffffffffffffffffffffffffffff811681036104695790565b601f82602094937fffffffffffffffffffffffffffffffffffffffffffffffffffffffffffffffe0938186528686013760008582860101520116010190565b9190820180921161301357565b7f4e487b7100000000000000000000000000000000000000000000000000000000600052601160045260246000fd5b90600481101561288f5760ff60ff198354169116179055565b9190820391821161301357565b61307181612ce2565b60405161307d816128be565b60ff825416600492838210156131ff578183526001810154602084015260028101549160056fffffffffffffffffffffffffffffffff84169384604087015260801c928360608701526003810154608087015273ffffffffffffffffffffffffffffffffffffffff878201541660a0870152015460c08501521591826131f4575b50816131ea575b506131d2578051828110156131a45760010361312057505050565b51818110156131765761317261316760409485519586957f5f08440f0000000000000000000000000000000000000000000000000000000087528601526044850190612a69565b916024840190612882565b0390fd5b6021827f4e487b71000000000000000000000000000000000000000000000000000000006000525260246000fd5b6021837f4e487b71000000000000000000000000000000000000000000000000000000006000525260246000fd5b50506131dd90612ce2565b600160ff19825416179055565b9050421038613105565b4210159150386130fe565b6021847f4e487b71000000000000000000000000000000000000000000000000000000006000525260246000fd5b7fffffffffffffffffffffffffffffffffffffffffffffffffffffffffffffffff81146130135760010190565b919290156132d5575081511561326e575090565b3b156132775790565b60646040517f08c379a000000000000000000000000000000000000000000000000000000000815260206004820152601d60248201527f416464726573733a2063616c6c20746f206e6f6e2d636f6e74726163740000006044820152fd5b8251909150156132e85750805190602001fd5b613172906040519182917f08c379a0000000000000000000000000000000000000000000000000000000008352602060048401526024830190612a69565b356fffffffffffffffffffffffffffffffff811681036104695790565b9082101561335e5761335a9160051b810190612eec565b9091565b7f4e487b7100000000000000000000000000000000000000000000000000000000600052603260045260246000fd5b919081101561335e5760e0020190565b9192808203613a1f579291907ff8bb2a4b5b30792eb350607495ebe7f79c5a5066287187429654459fae715b1f547ff8bb2a4b5b30792eb350607495ebe7f79c5a5066287187429654459fae715b2054946133f6612e49565b506000945b83861061342c575050505050507ff8bb2a4b5b30792eb350607495ebe7f79c5a5066287187429654459fae715b2055565b909192939495613440611718888789613343565b6040519061344d826128be565b60ff81541690600482101561288f5760059183526001810154602084015260028101546fffffffffffffffffffffffffffffffff8116604085015260801c60608401526003810154608084015273ffffffffffffffffffffffffffffffffffffffff60048201541660a0840152015460c08201526134cc88858561338d565b60208101351515806139f7575b806139d0575b806139c3575b15613965578151600481101561288f5773ffffffffffffffffffffffffffffffffffffffff60a08401511661351c60a08401612fa6565b60c0858101519401359261392c5750509050156126c3576080905b01518061354589868661338d565b9261356a61355f6135578c8b8d613343565b94909361305b565b608086013590613006565b926135758885613a7d565b156136b0575b9061358591612c59565b60048335101561046957600560c0846135a26136a6963585613042565b60208101356001850155613644600285016fffffffffffffffffffffffffffffffff6135d060408501613326565b167fffffffffffffffffffffffffffffffff0000000000000000000000000000000082541617815561360460608401613326565b6fffffffffffffffffffffffffffffffff7fffffffffffffffffffffffffffffffff0000000000000000000000000000000083549260801b169116179055565b608081013560038501556004840173ffffffffffffffffffffffffffffffffffffffff61367360a08401612fa6565b167fffffffffffffffffffffffff000000000000000000000000000000000000000082541617905501359101559661322d565b94939291906133fb565b7ff8bb2a4b5b30792eb350607495ebe7f79c5a5066287187429654459fae715b22805490680100000000000000008210156128da576001820180825582101561335e5760005267ffffffffffffffff83116128da57613731817f65081cd3ad5fc84209c8310f7404cee8bc03efec5e3d920e46e7ba762f27ce4c0154612e99565b601f81116138c6575b506000601f84116001146137bf5790836135859493926000916137b4575b508360011b907fffffffffffffffffffffffffffffffffffffffffffffffffffffffffffffffff8560031b1c191617907f65081cd3ad5fc84209c8310f7404cee8bc03efec5e3d920e46e7ba762f27ce4c01555b90915061357b565b905082013538613758565b929190807f65081cd3ad5fc84209c8310f7404cee8bc03efec5e3d920e46e7ba762f27ce4c01845260208420845b7fffffffffffffffffffffffffffffffffffffffffffffffffffffffffffffffe0851686106138ae576135859550847fffffffffffffffffffffffffffffffffffffffffffffffffffffffffffffffe0811610613876575b5050600183811b01907f65081cd3ad5fc84209c8310f7404cee8bc03efec5e3d920e46e7ba762f27ce4c01556137ac565b7fffffffffffffffffffffffffffffffffffffffffffffffffffffffffffffffff60f88660031b161c19908401351690553880613845565b838101358255602095860195600190920191016137ed565b817f65081cd3ad5fc84209c8310f7404cee8bc03efec5e3d920e46e7ba762f27ce4c016000526020600020601f850160051c810160208610613925575b601f830160051c8201811061391957505061373a565b60008155600101613903565b5080613903565b73ffffffffffffffffffffffffffffffffffffffff16149182159261395a575b50506126fe57608090613537565b14159050388061394c565b60646040517f08c379a000000000000000000000000000000000000000000000000000000000815260206004820152600960248201527f454d5054595f54414700000000000000000000000000000000000000000000006044820152fd5b50608081013515156134e5565b506139dd60608201613326565b6fffffffffffffffffffffffffffffffff429116116134df565b50613a0460408201613326565b6fffffffffffffffffffffffffffffffff42911610156134d9565b60646040517f08c379a000000000000000000000000000000000000000000000000000000000815260206004820152601f60248201527f49474f5772697461626c653a207461677320617272617973206c656e677468006044820152fd5b818111613a88575050565b602491613a949161305b565b604051907f2e2a58540000000000000000000000000000000000000000000000000000000082526004820152fdfea26469706673582212209d5ed1f71c4715e634a1e78b5807aefc968efa9c05a6f24e73be266f8475fba164736f6c63430008110033a26469706673582212204bc1579636660146569500da99d62dd25399cc1f5e49718849157d721bb1fcdd64736f6c63430008110033",
    "linkReferences": {}
  },
  "methodIdentifiers": {
    "createIGO(string,(address,address,address,uint256,uint256,uint256),string[],(uint8,bytes32,uint128,uint128,uint256,address,uint256)[],(address,address,address,address,uint256,uint256,uint256,uint256),(uint32,uint32,uint32,uint16))": "b9a0a03f",
    "defaultVesting()": "b9edb3a5",
    "getIgosDetails(uint256,uint256)": "a905a3b9",
    "owner()": "8da5cb5b",
    "renounceOwnership()": "715018a6",
    "transferOwnership(address)": "f2fde38b",
    "updateDefaultVesting(address,bytes)": "cd8a77d3",
    "vestingCreationCode()": "85f2f68a"
  },
  "id": 53
}