{
  "abi": [
    {
      "inputs": [],
      "stateMutability": "nonpayable",
      "type": "constructor"
    },
    {
      "anonymous": false,
      "inputs": [
        {
          "indexed": false,
          "internalType": "address",
          "name": "oldDefaultIgo",
          "type": "address"
        },
        {
          "indexed": false,
          "internalType": "address",
          "name": "newDefaultIgo",
          "type": "address"
        }
      ],
      "name": "DefaultIgoUpdated",
      "type": "event"
    },
    {
      "anonymous": false,
      "inputs": [
        {
          "indexed": false,
          "internalType": "address",
          "name": "oldDefaultVesting",
          "type": "address"
        },
        {
          "indexed": false,
          "internalType": "address",
          "name": "newDefaultVesting",
          "type": "address"
        }
      ],
      "name": "DefaultVestingUpdated",
      "type": "event"
    },
    {
      "anonymous": false,
      "inputs": [
        {
          "indexed": true,
          "internalType": "string",
          "name": "igoName",
          "type": "string"
        },
        {
          "indexed": true,
          "internalType": "address",
          "name": "igo",
          "type": "address"
        },
        {
          "indexed": true,
          "internalType": "address",
          "name": "vesting",
          "type": "address"
        }
      ],
      "name": "IGOCreated",
      "type": "event"
    },
    {
      "anonymous": false,
      "inputs": [
        {
          "indexed": true,
          "internalType": "address",
          "name": "previousOwner",
          "type": "address"
        },
        {
          "indexed": true,
          "internalType": "address",
          "name": "newOwner",
          "type": "address"
        }
      ],
      "name": "OwnershipTransferred",
      "type": "event"
    },
    {
      "inputs": [
        {
          "internalType": "string",
          "name": "igoName",
          "type": "string"
        },
        {
          "components": [
            {
              "internalType": "address",
              "name": "vestingContract",
              "type": "address"
            },
            {
              "internalType": "address",
              "name": "paymentToken",
              "type": "address"
            },
            {
              "internalType": "address",
              "name": "permit2",
              "type": "address"
            },
            {
              "internalType": "uint256",
              "name": "grandTotal",
              "type": "uint256"
            },
            {
              "internalType": "uint256",
              "name": "summedMaxTagCap",
              "type": "uint256"
            },
            {
              "internalType": "uint256",
              "name": "refundFeeDecimals",
              "type": "uint256"
            }
          ],
          "internalType": "struct IGOStorage.SetUp",
          "name": "setUp",
          "type": "tuple"
        },
        {
          "internalType": "string[]",
          "name": "tagIds",
          "type": "string[]"
        },
        {
          "components": [
            {
              "internalType": "enum ISharedInternal.Stage",
              "name": "stage",
              "type": "uint8"
            },
            {
              "internalType": "bytes32",
              "name": "merkleRoot",
              "type": "bytes32"
            },
            {
              "internalType": "uint128",
              "name": "startAt",
              "type": "uint128"
            },
            {
              "internalType": "uint128",
              "name": "endAt",
              "type": "uint128"
            },
            {
              "internalType": "uint256",
              "name": "maxTagCap",
              "type": "uint256"
            },
            {
              "internalType": "address",
              "name": "paymentToken",
              "type": "address"
            },
            {
              "internalType": "uint256",
              "name": "projectTokenPrice",
              "type": "uint256"
            }
          ],
          "internalType": "struct ISharedInternal.Tag[]",
          "name": "tags",
          "type": "tuple[]"
        },
        {
          "components": [
            {
              "internalType": "address",
              "name": "_innovator",
              "type": "address"
            },
            {
              "internalType": "address",
              "name": "_paymentReceiver",
              "type": "address"
            },
            {
              "internalType": "address",
              "name": "_admin",
              "type": "address"
            },
            {
              "internalType": "address",
              "name": "_vestedToken",
              "type": "address"
            },
            {
              "internalType": "address",
              "name": "_tiers",
              "type": "address"
            },
            {
              "internalType": "uint256",
              "name": "_platformFee",
              "type": "uint256"
            },
            {
              "internalType": "uint256",
              "name": "_totalTokenOnSale",
              "type": "uint256"
            },
            {
              "internalType": "uint256",
              "name": "_gracePeriod",
              "type": "uint256"
            },
            {
              "internalType": "uint256",
              "name": "_decimals",
              "type": "uint256"
            }
          ],
          "internalType": "struct IIGOVesting.ContractSetup",
          "name": "contractSetup",
          "type": "tuple"
        },
        {
          "components": [
            {
              "internalType": "uint32",
              "name": "_startTime",
              "type": "uint32"
            },
            {
              "internalType": "uint32",
              "name": "_cliff",
              "type": "uint32"
            },
            {
              "internalType": "uint32",
              "name": "_duration",
              "type": "uint32"
            },
            {
              "internalType": "uint16",
              "name": "_initialUnlockPercent",
              "type": "uint16"
            }
          ],
          "internalType": "struct IIGOVesting.VestingSetup",
          "name": "vestingSetup",
          "type": "tuple"
        }
      ],
      "name": "createIGO",
      "outputs": [
        {
          "internalType": "address",
          "name": "igo",
          "type": "address"
        },
        {
          "internalType": "address",
          "name": "vesting",
          "type": "address"
        }
      ],
      "stateMutability": "nonpayable",
      "type": "function"
    },
    {
      "inputs": [],
      "name": "defaultIgo",
      "outputs": [
        {
          "internalType": "address",
          "name": "",
          "type": "address"
        }
      ],
      "stateMutability": "view",
      "type": "function"
    },
    {
      "inputs": [],
      "name": "defaultVesting",
      "outputs": [
        {
          "internalType": "address",
          "name": "",
          "type": "address"
        }
      ],
      "stateMutability": "view",
      "type": "function"
    },
    {
      "inputs": [],
      "name": "igoCount",
      "outputs": [
        {
          "internalType": "uint256",
          "name": "",
          "type": "uint256"
        }
      ],
      "stateMutability": "view",
      "type": "function"
    },
    {
      "inputs": [],
      "name": "igoNames",
      "outputs": [
        {
          "internalType": "string[]",
          "name": "",
          "type": "string[]"
        }
      ],
      "stateMutability": "view",
      "type": "function"
    },
    {
      "inputs": [
        {
          "internalType": "string",
          "name": "igoName",
          "type": "string"
        }
      ],
      "name": "igoWithName",
      "outputs": [
        {
          "internalType": "address",
          "name": "",
          "type": "address"
        }
      ],
      "stateMutability": "view",
      "type": "function"
    },
    {
      "inputs": [],
      "name": "owner",
      "outputs": [
        {
          "internalType": "address",
          "name": "",
          "type": "address"
        }
      ],
      "stateMutability": "view",
      "type": "function"
    },
    {
      "inputs": [],
      "name": "renounceOwnership",
      "outputs": [],
      "stateMutability": "nonpayable",
      "type": "function"
    },
    {
      "inputs": [
        {
          "internalType": "address",
          "name": "newOwner",
          "type": "address"
        }
      ],
      "name": "transferOwnership",
      "outputs": [],
      "stateMutability": "nonpayable",
      "type": "function"
    },
    {
      "inputs": [
        {
          "internalType": "address",
          "name": "newDefaultIgo",
          "type": "address"
        }
      ],
      "name": "updateDefaultIgo",
      "outputs": [],
      "stateMutability": "nonpayable",
      "type": "function"
    },
    {
      "inputs": [
        {
          "internalType": "address",
          "name": "newDefaultVesting",
          "type": "address"
        }
      ],
      "name": "updateDefaultVesting",
      "outputs": [],
      "stateMutability": "nonpayable",
      "type": "function"
    }
  ],
  "bytecode": {
    "object": "0x608080604052346101145760008054336001600160a01b031980831682178455936001600160a01b03939290919084167f8be0079c531659141344cd1fd0a4f28419497f9722a3daafe3b4186f6b6457e08480a3600180556001600160401b0390613d138181019083821183831017610100579082916200a06e8339039083f080156100f55783168460025416176002556040519061247380830191838310908311176100e15790829162007bfb8339039082f09081156100d5575016906003541617600355604051617ae190816200011a8239f35b604051903d90823e3d90fd5b634e487b7160e01b84526041600452602484fd5b6040513d84823e3d90fd5b634e487b7160e01b85526041600452602485fd5b600080fdfe60806040526004361015610013575b600080fd5b60003560e01c8063303194a5146100ef578063715018a6146100e65780637253b0bd146100dd5780637510d458146100d45780637f89e208146100cb5780638da5cb5b146100c2578063b9edb3a5146100b9578063cf2d268a146100b0578063dd89440f146100a7578063f07df8b41461009e5763f2fde38b1461009657600080fd5b61000e610e10565b5061000e610ddb565b5061000e610dbc565b5061000e610c8d565b5061000e610c58565b5061000e610c23565b5061000e610b06565b5061000e6107b5565b5061000e6104dd565b5061000e6102fc565b5061000e6101c9565b600091031261000e57565b60005b8381106101165750506000910152565b8181015183820152602001610106565b908082519081815260208091019281808460051b8301019501936000915b8483106101545750505050505090565b9091929394958480806001937fffffffffffffffffffffffffffffffffffffffffffffffffffffffffffffffe080878303018852601f8c516101a181518092818752878088019101610103565b011601019801930193019194939290610144565b9060206101c6928181520190610126565b90565b503461000e576000806003193601126102f9576004546101e881610810565b906040906101f8825193846106c0565b808352600484527f8a35acfbc15ff81a39ae7d344fd709f28e8600b4aa8c65c6b64bfe7fe36bd19b938060208086015b8483106102405785518061023c89826101b5565b0390f35b85518285928a549261025184611403565b8082526001948086169081156102bf5750600114610287575b506102798160019603826106c0565b815201980192019196610228565b8c8952838920955088905b8082106102a8575081018301945061027961026a565b865483830186015295850195879490910190610292565b7fffffffffffffffffffffffffffffffffffffffffffffffffffffffffffffff00168584015250151560051b81018301945061027961026a565b80fd5b503461000e576000806003193601126102f957610317610f28565b8073ffffffffffffffffffffffffffffffffffffffff81547fffffffffffffffffffffffff000000000000000000000000000000000000000081168355167f8be0079c531659141344cd1fd0a4f28419497f9722a3daafe3b4186f6b6457e08280a380f35b6004359073ffffffffffffffffffffffffffffffffffffffff8216820361000e57565b6024359073ffffffffffffffffffffffffffffffffffffffff8216820361000e57565b6044359073ffffffffffffffffffffffffffffffffffffffff8216820361000e57565b6064359073ffffffffffffffffffffffffffffffffffffffff8216820361000e57565b610124359073ffffffffffffffffffffffffffffffffffffffff8216820361000e57565b610144359073ffffffffffffffffffffffffffffffffffffffff8216820361000e57565b610164359073ffffffffffffffffffffffffffffffffffffffff8216820361000e57565b610184359073ffffffffffffffffffffffffffffffffffffffff8216820361000e57565b6101a4359073ffffffffffffffffffffffffffffffffffffffff8216820361000e57565b359073ffffffffffffffffffffffffffffffffffffffff8216820361000e57565b503461000e57602060031936011261000e576104f761037c565b6104ff610f28565b73ffffffffffffffffffffffffffffffffffffffff90818116156105b3577fdc1fbbe95c641e10d25dd4241251e6f887162c2bac8094f84455ae33b8511df591600254166105888273ffffffffffffffffffffffffffffffffffffffff167fffffffffffffffffffffffff00000000000000000000000000000000000000006002541617600255565b6040805173ffffffffffffffffffffffffffffffffffffffff928316815292909116602083015290a1005b60846040517f08c379a000000000000000000000000000000000000000000000000000000000815260206004820152602360248201527f49474f466163746f72795f5f64656661756c7449676f5f5a45524f5f4144445260448201527f45535300000000000000000000000000000000000000000000000000000000006064820152fd5b507f4e487b7100000000000000000000000000000000000000000000000000000000600052604160045260246000fd5b60e0810190811067ffffffffffffffff82111761068357604052565b61068b610637565b604052565b60c0810190811067ffffffffffffffff82111761068357604052565b67ffffffffffffffff811161068357604052565b90601f7fffffffffffffffffffffffffffffffffffffffffffffffffffffffffffffffe0910116810190811067ffffffffffffffff82111761068357604052565b60405190610120820182811067ffffffffffffffff82111761068357604052565b9061073060405192836106c0565b565b81601f8201121561000e5780359067ffffffffffffffff82116107a8575b6040519261078660207fffffffffffffffffffffffffffffffffffffffffffffffffffffffffffffffe0601f86011601856106c0565b8284526020838301011161000e57816000926020809301838601378301015290565b6107b0610637565b610750565b503461000e57602060031936011261000e5760043567ffffffffffffffff811161000e5773ffffffffffffffffffffffffffffffffffffffff6108066108016020933690600401610732565b611335565b5416604051908152f35b60209067ffffffffffffffff811161082a575b60051b0190565b610832610637565b610823565b9080601f8301121561000e5781359061084f82610810565b9261085d60405194856106c0565b828452602092838086019160051b8301019280841161000e57848301915b84831061088b5750505050505090565b823567ffffffffffffffff811161000e5786916108ad84848094890101610732565b81520192019161087b565b35906fffffffffffffffffffffffffffffffff8216820361000e57565b81601f8201121561000e578035906108ec82610810565b926040906108fc825195866106c0565b838552602091828601918360e08097028601019481861161000e578401925b85841061092c575050505050505090565b868483031261000e5782519061094182610667565b843590600482101561000e578287928a945282870135838201526109668688016108b8565b8682015260606109778189016108b8565b908201526080808801359082015260a06109928189016104bc565b9082015260c0808801359082015281520193019261091b565b7ffffffffffffffffffffffffffffffffffffffffffffffffffffffffffffffedc61012091011261000e576109de610701565b906109e7610408565b82526109f161042c565b60208301526109fe610450565b6040830152610a0b610474565b6060830152610a18610498565b60808301526101c43560a08301526101e43560c08301526102043560e083015261022435610100830152565b610264359063ffffffff8216820361000e57565b610284359063ffffffff8216820361000e57565b7ffffffffffffffffffffffffffffffffffffffffffffffffffffffffffffffdbc608091011261000e57604051906080820182811067ffffffffffffffff821117610af9575b604052816102443563ffffffff8116810361000e578152610ad1610a44565b6020820152610ade610a58565b60408201526102a4359061ffff8216820361000e5760600152565b610b01610637565b610ab2565b503461000e576102c060031936011261000e5767ffffffffffffffff60043581811161000e57610b3a903690600401610732565b60c07fffffffffffffffffffffffffffffffffffffffffffffffffffffffffffffffdc36011261000e57604051610b7081610690565b610b7861039f565b8152610b826103c2565b6020820152610b8f6103e5565b6040820152608435606082015260a435608082015260c43560a082015260e43583811161000e57610bc4903690600401610837565b6101043593841161000e57610be0610bfa9436906004016108d5565b90610bea366109ab565b92610bf436610a6c565b94610fa7565b6040805173ffffffffffffffffffffffffffffffffffffffff9384168152919092166020820152f35b503461000e57600060031936011261000e57602073ffffffffffffffffffffffffffffffffffffffff60005416604051908152f35b503461000e57600060031936011261000e57602073ffffffffffffffffffffffffffffffffffffffff60035416604051908152f35b503461000e57602060031936011261000e57610ca761037c565b610caf610f28565b73ffffffffffffffffffffffffffffffffffffffff9081811615610d38577f936390d9322c2cbc8a5d9e4228427bfbc546c141dc5e7568a0f8d873304c6c0d91600354166105888273ffffffffffffffffffffffffffffffffffffffff167fffffffffffffffffffffffff00000000000000000000000000000000000000006003541617600355565b60846040517f08c379a000000000000000000000000000000000000000000000000000000000815260206004820152602760248201527f49474f466163746f72795f5f64656661756c7456657374696e675f5a45524f5f60448201527f41444452455353000000000000000000000000000000000000000000000000006064820152fd5b503461000e57600060031936011261000e576020600454604051908152f35b503461000e57600060031936011261000e57602073ffffffffffffffffffffffffffffffffffffffff60025416604051908152f35b503461000e57602060031936011261000e57610e2a61037c565b610e32610f28565b73ffffffffffffffffffffffffffffffffffffffff8091168015610ea4576000918254827fffffffffffffffffffffffff00000000000000000000000000000000000000008216178455167f8be0079c531659141344cd1fd0a4f28419497f9722a3daafe3b4186f6b6457e08380a380f35b60846040517f08c379a000000000000000000000000000000000000000000000000000000000815260206004820152602660248201527f4f776e61626c653a206e6577206f776e657220697320746865207a65726f206160448201527f64647265737300000000000000000000000000000000000000000000000000006064820152fd5b73ffffffffffffffffffffffffffffffffffffffff600054163303610f4957565b60646040517f08c379a000000000000000000000000000000000000000000000000000000000815260206004820152602060248201527f4f776e61626c653a2063616c6c6572206973206e6f7420746865206f776e65726044820152fd5b95949091959392936002600154146112d7576002600155610fc6610f28565b73ffffffffffffffffffffffffffffffffffffffff9161100d83611006610fec85611335565b5473ffffffffffffffffffffffffffffffffffffffff1690565b161561135b565b613d139261101d60208501610722565b96848852602088019462003d998639604051602081019061106f816110438833866113c0565b037fffffffffffffffffffffffffffffffffffffffffffffffffffffffffffffffe081018352826106c0565b51902080985160009687f59761247361108a60208201610722565b8181526020810191620019268339519087f573ffffffffffffffffffffffffffffffffffffffff811687529985608088015261010088015160a08801526110d0856114aa565b61111d896110dd87611335565b9073ffffffffffffffffffffffffffffffffffffffff167fffffffffffffffffffffffff0000000000000000000000000000000000000000825416179055565b82891696873b156112d35790869161116360405194859384937f897c1b79000000000000000000000000000000000000000000000000000000008552336004860161177f565b0381838a5af180156112c6575b6112b3575b50881694853b156112af576111ba91849160405193849283927f458fd4360000000000000000000000000000000000000000000000000000000084526004840161180c565b038183895af180156112a2575b61128f575b50833b1561128b576040517ff2fde38b00000000000000000000000000000000000000000000000000000000815273ffffffffffffffffffffffffffffffffffffffff861660048201527f8c941e5813d81a78a88724badffabc2b2cf670a135b2abaccd8e9ae0c57f3dcf91611257918481602481838b5af1801561127e575b611265575b50611905565b9180a4919061073060018055565b80611272611278926106ac565b806100f8565b38611251565b6112866117ff565b61124c565b5080fd5b8061127261129c926106ac565b386111cc565b6112aa6117ff565b6111c7565b8380fd5b806112726112c0926106ac565b38611175565b6112ce6117ff565b611170565b8680fd5b60646040517f08c379a000000000000000000000000000000000000000000000000000000000815260206004820152601f60248201527f5265656e7472616e637947756172643a207265656e7472616e742063616c6c006044820152fd5b602061134e918160405193828580945193849201610103565b8101600581520301902090565b1561136257565b60646040517f08c379a000000000000000000000000000000000000000000000000000000000815260206004820152601e60248201527f49474f466163746f72793a2049474f20616c72656164792065786973747300006044820152fd5b7fffffffffffffffffffffffffffffffffffffffff0000000000000000000000006014939260601b1681526113fe8251809360208685019101610103565b010190565b90600182811c9216801561144c575b602083101461141d57565b7f4e487b7100000000000000000000000000000000000000000000000000000000600052602260045260246000fd5b91607f1691611412565b90601f811161146457505050565b600091825260208220906020601f850160051c830194106114a0575b601f0160051c01915b82811061149557505050565b818155600101611489565b9092508290611480565b600454906801000000000000000082101561167c575b6001918281018060045581101561164d5760046000527f8a35acfbc15ff81a39ae7d344fd709f28e8600b4aa8c65c6b64bfe7fe36bd19b019181519167ffffffffffffffff8311611640575b6115208361151a8654611403565b86611456565b60209081601f8511600114611598575060009184918261156d575b50507fffffffffffffffffffffffffffffffffffffffffffffffffffffffffffffffff91921b9260031b1c1916179055565b015191507fffffffffffffffffffffffffffffffffffffffffffffffffffffffffffffffff3861153b565b9190847fffffffffffffffffffffffffffffffffffffffffffffffffffffffffffffffe0819596166115cf88600052602060002090565b946000905b8883831061162657505050106115ef575b505050811b019055565b01517fffffffffffffffffffffffffffffffffffffffffffffffffffffffffffffffff60f88460031b161c191690553880806115e5565b8587015188559096019594850194879350908101906115d4565b611648610637565b61150c565b7f4e487b7100000000000000000000000000000000000000000000000000000000600052603260045260246000fd5b611684610637565b6114c0565b90815190818152602080809201930191600091825b8281106116ad57505050505090565b909192939485518051600480821015611753575082859260e09260019552838101518483015260406fffffffffffffffffffffffffffffffff818301511690830152611712606080830151908401906fffffffffffffffffffffffffffffffff169052565b6080818101519083015260a08082015173ffffffffffffffffffffffffffffffffffffffff169083015260c09081015190820152019601949392910161169e565b8760216024927f4e487b7100000000000000000000000000000000000000000000000000000000835252fd5b9260a06101c695936117f09373ffffffffffffffffffffffffffffffffffffffff8091168752808251166020880152806020830151166040880152604082015116606087015260608101516080870152608081015182870152015160c08501526101208060e0860152840190610126565b91610100818403910152611689565b506040513d6000823e3d90fd5b916101206107309294936101a081019573ffffffffffffffffffffffffffffffffffffffff80825116835260208201511660208301526118696040820151604084019073ffffffffffffffffffffffffffffffffffffffff169052565b60608181015173ffffffffffffffffffffffffffffffffffffffff169083015260808181015173ffffffffffffffffffffffffffffffffffffffff169083015260a081015160a083015260c081015160c083015260e081015160e08301526101008091015190820152019061ffff6060809263ffffffff8082511686528060208301511660208701526040820151166040860152015116910152565b61191d90602060405192828480945193849201610103565b81010390209056fe6080806040523461005b5760008054336001600160a01b0319821681178355916001600160a01b03909116907f8be0079c531659141344cd1fd0a4f28419497f9722a3daafe3b4186f6b6457e09080a361241290816100618239f35b600080fdfe6080604081815260048036101561001557600080fd5b600092833560e01c9081630e71dea8146117a057508063144fa6d71461173457806318126a411461163c57806326232a2e1461161d5780632afd1a7d146115f7578063305b3eaf146115b357806330edc0f5146114f9578063313ce567146114da5780633154b10e146114945783816337a97db714611166575080633ba955a614610fc05780634344f6c514610fa1578063458fd43614610b4d5780634c10a55b14610b0b5780635357a94a14610ad65780635de2974114610aa157806362015bdc14610982578063715018a6146109045780638cdb7e8b146108b85780638da5cb5b146108855780638e25805b14610866578063a06db7dc14610847578063a19d21b01461078c578063c14024081461076d578063cb37f3b214610738578063dc25a300146106bc578063e555730414610608578063e63318d5146105db578063f2fde38b14610504578063f777e0081461048e578063f851a440146104555763fe5f2e881461018557600080fd5b34610451576020918260031936011261044d57813567ffffffffffffffff8111610449576101b69036908401611a71565b90338652600385526101d060ff6001858920015416611c7b565b338652600385526101e383872054611ce0565b50918351818382378681838101600781520301902033885286528387209163ffffffff60015416610216600b5482611d4a565b4210908161043f575b50156103e35782549561023560ff881615611d57565b60028501546103875750908683926001829695015493600381015461025a9086611dbc565b600f5461026691611dcf565b956102718787611e08565b994260081b64ffffffff0016907fffffffffffffffffffffffffffffffffffffffffffffffffffffff00000000001617600117825588519585848837858701600681528773ffffffffffffffffffffffffffffffffffffffff9a8b998a930301902054168d5260058552898d20908154906102eb91611d4a565b90556001019081546009549061030091611d4a565b6009556002015481549061031391611e08565b90558651838282378885858301926006845285813395030190205416916103399261212f565b828751938492833781016006815203019020541691600d541661035b9261212f565b5190815233917fbb28353e4598c3b9199101a66e0989549b659a59a54d2c27fbb183f1932c8e6d91a280f35b606490888751917f08c379a0000000000000000000000000000000000000000000000000000000008352820152601460248201527f7573657220616c726561647920636c61696d65640000000000000000000000006044820152fd5b606486888751917f08c379a0000000000000000000000000000000000000000000000000000000008352820152601360248201527f4e6f7420696e20677261636520706572696f64000000000000000000000000006044820152fd5b905042113861021f565b8480fd5b8380fd5b8280fd5b50503461048a578160031936011261048a5760209073ffffffffffffffffffffffffffffffffffffffff601154169051908152f35b5080fd5b5091346105015760206003193601126105015782359067ffffffffffffffff821161050157506104ee60206104dc819573ffffffffffffffffffffffffffffffffffffffff94369101611b65565b81855193828580945193849201611bac565b8101600681520301902054169051908152f35b80fd5b50346104515760206003193601126104515761051e611a03565b91610527612043565b61052f612043565b73ffffffffffffffffffffffffffffffffffffffff8316156105585783610555846120c2565b80f35b90602060849251917f08c379a0000000000000000000000000000000000000000000000000000000008352820152602660248201527f4f776e61626c653a206e6577206f776e657220697320746865207a65726f206160448201527f64647265737300000000000000000000000000000000000000000000000000006064820152fd5b50503461048a57602060031936011261048a576020906106016105fc611a03565b611eb3565b9051908152f35b5034610451578160031936011261045157803567ffffffffffffffff811161044d579261063b839260a095369101611b65565b73ffffffffffffffffffffffffffffffffffffffff610670602061065d611a2b565b9381875193828580945193849201611bac565b810160078152030190209116825260205220908154916001810154600360028301549201549263ffffffff81519560ff8116875260081c16602086015284015260608301526080820152f35b50503461048a578160031936011261048a576080906106d9611e15565b5060015463ffffffff808216928051916106f283611a9f565b8483526020830192818560201c168452816060848301928288871c168452019461ffff809760601c16865284519788525116602087015251169084015251166060820152f35b50503461048a578160031936011261048a5760209073ffffffffffffffffffffffffffffffffffffffff600d54169051908152f35b50503461048a578160031936011261048a576020906008549051908152f35b5091903461048a5760209283600319360112610451578373ffffffffffffffffffffffffffffffffffffffff6107c0611a03565b169160248451809481937f70a0823100000000000000000000000000000000000000000000000000000000835230908301525afa92831561083c57809361080a575b505051908152f35b909192508382813d8311610835575b6108238183611aea565b81010312610501575051903880610802565b503d610819565b8251903d90823e3d90fd5b50503461048a578160031936011261048a57602090600b549051908152f35b50503461048a578160031936011261048a576020906009549051908152f35b50503461048a578160031936011261048a5773ffffffffffffffffffffffffffffffffffffffff60209254169051908152f35b50503461048a57602060031936011261048a5760ff60018260209473ffffffffffffffffffffffffffffffffffffffff6108f0611a03565b168152600386522001541690519015158152f35b833461050157806003193601126105015761091d612043565b8073ffffffffffffffffffffffffffffffffffffffff81547fffffffffffffffffffffffff000000000000000000000000000000000000000081168355167f8be0079c531659141344cd1fd0a4f28419497f9722a3daafe3b4186f6b6457e08280a380f35b5091346105015760206003193601126105015761099d611a03565b73ffffffffffffffffffffffffffffffffffffffff906109ca848383169485815260036020522054611ce0565b50916109db60018401541515611d57565b6109e482611fe0565b928315610a4457602096508386937f34fcbac0073d7c3d388e51312faf357774904998eeb8fca628b9e6f65ee1cbf795936002610a329401610a27848254611d4a565b90556010541661212f565b81519081524286820152a25160018152f35b60648760208851917f08c379a0000000000000000000000000000000000000000000000000000000008352820152600b60248201527f5a65726f20616d6f756e740000000000000000000000000000000000000000006044820152fd5b50503461048a578160031936011261048a5760209073ffffffffffffffffffffffffffffffffffffffff601054169051908152f35b50503461048a578160031936011261048a5760209073ffffffffffffffffffffffffffffffffffffffff600c54169051908152f35b503461045157602060031936011261045157602092829173ffffffffffffffffffffffffffffffffffffffff610b3f611a03565b168252845220549051908152f35b50346104515760031936016101a0808212610449576101208092126104495760807ffffffffffffffffffffffffffffffffffffffffffffffffffffffffffffffedc3601126104495784549260ff8460a81c161593848095610f91575b8015610f77575b15610ef45784740100000000000000000000000000000000000000007fffffffffffffffffffffff00ffffffffffffffffffffffffffffffffffffffff8316178855610eb2575b503573ffffffffffffffffffffffffffffffffffffffff92838216809203610eae577fffffffffffffffffffffffff00000000000000000000000000000000000000009182600c541617600c55602435848116809103610eaa5782600d541617600d5560443591848316809303610eaa578281601154161760115560643590858216809203610ea657601054161760105560e4359081600b5560c43580600a5560a4359384600e55610104359283600f55610cb2336120c2565b610144359363ffffffff9586861694858703610ea2576101243598888a1695868b03610e9e5761016435998a1698898b03610e99578f9b610184359161ffff83169c8d8403610e9157610d148f93926bffffffff000000000000000093611bcf565b937fffffffffffffffffffffffffffffffffffff000000000000000000000000000067ffffffff000000006dffff0000000000000000000000006001549360601b169660201b169116178b17921b1617176001557f8b2bfe599bf9e0b744a947eec87d2b85b086f600a3c5f8901ca919b9c30f034b60808c8b8151918c83528b60208401528201528c6060820152a18a519a8d610daf611a03565b168c528d610dbb611a2b565b1660208d01528b01528b610dcd611a4e565b1660608b01526084359b8c16809c03610e8d577f7a30a642cae58f6f367b5b398f01ed1d655e5e00b2c37266785c2a71362686209b60808b015260a08a015260c089015260e0880152610100870152850152610140840152610160830152610180820152a1610e3a575080f35b60207f7f26b83ff96e1f2b6a682f133852f6798a09c465da95921460cefb3847402498917fffffffffffffffffffff00ffffffffffffffffffffffffffffffffffffffffff84541684555160018152a180f35b8e80fd5b505050508f80fd5b508f80fd5b8f80fd5b8d80fd5b8880fd5b8780fd5b8680fd5b7fffffffffffffffffffff0000ffffffffffffffffffffffffffffffffffffffff16750101000000000000000000000000000000000000000017865538610bf8565b60848260208851917f08c379a0000000000000000000000000000000000000000000000000000000008352820152602e60248201527f496e697469616c697a61626c653a20636f6e747261637420697320616c72656160448201527f647920696e697469616c697a65640000000000000000000000000000000000006064820152fd5b50303b158015610bb15750600160ff8260a01c1614610bb1565b50600160ff8260a01c1610610baa565b50503461048a578160031936011261048a57602090600a549051908152f35b5091903461048a578060031936011261048a578235602490813594610fe486611e87565b95610ff185519788611aea565b8087527fffffffffffffffffffffffffffffffffffffffffffffffffffffffffffffffe061101e82611e87565b01865b81811061114f5750506110349083611d4a565b91805b8381106110c35786868981519160208080850192818652845180945285019301945b8281106110665784840385f35b909192826080826110b46001948a516060809173ffffffffffffffffffffffffffffffffffffffff815116845263ffffffff6020820151166020850152604081015160408501520151910152565b01960191019492919094611059565b6110f46110cf82611ce0565b506110e36110dd8585611e08565b91611e3a565b6110ed828c611e9f565b5289611e9f565b507fffffffffffffffffffffffffffffffffffffffffffffffffffffffffffffffff811461112457600101611037565b84876011857f4e487b7100000000000000000000000000000000000000000000000000000000835252fd5b60209061115a611e15565b82828c01015201611021565b929050346114905760c060031936011261149057813567ffffffffffffffff811161148b576111989036908401611a71565b906111a1611a2b565b91604435916111ae611a4e565b95608435946111bb612043565b73ffffffffffffffffffffffffffffffffffffffff80911697888a5260209460038652888b2090895181878237878183810160078152030190208b8d528752868a8d2096858c518483823783818681016006815203019020541615611447575b50505060018101805460ff166114025760017fffffffffffffffffffffffffffffffffffffffffffffffffffffffffffffff0082541617905560025480915588519061126682611a9f565b8a825286820163ffffffff421681528a8301918a8352606084019e8f52680100000000000000008110156113d6578060016112a49201600255611ce0565b9390936113ab57917fdb76cc8d16d8e51a4a8b73f914539ac9f9e4e42ff5f0140ddd580c48e89477989c9d9e918660029451167fffffffffffffffff00000000000000000000000000000000000000000000000077ffffffff0000000000000000000000000000000000000000875493837fffffffffffffffffffffffff000000000000000000000000000000000000000086161789555160a01b16921617178455516001840155519101555b1689528252848820611364848254611d4a565b905561137284600854611d4a565b60085560018101611384848254611d4a565b905560028101611395858254611d4a565b9055600360a4359101558351928352820152a280f35b60248e80897f4e487b7100000000000000000000000000000000000000000000000000000000825252fd5b60248e6041897f4e487b7100000000000000000000000000000000000000000000000000000000835252fd5b507fdb76cc8d16d8e51a4a8b73f914539ac9f9e4e42ff5f0140ddd580c48e8947798999a5061143360019154611ce0565b5001611440888254611d4a565b9055611351565b828c519384928337810160068152030190208383167fffffffffffffffffffffffff000000000000000000000000000000000000000082541617905538868161121b565b505050fd5b5050fd5b50503461048a578160031936011261048a5760809061ffff60015482519263ffffffff8083168552808360201c16602086015282821c169084015260601c166060820152f35b50503461048a578160031936011261048a57602090600f549051908152f35b50503461048a57602060031936011261048a576115b161156e6115688360809573ffffffffffffffffffffffffffffffffffffffff611536611a03565b61153e611e15565b5016808252600360205261155a60ff6001858520015416611c7b565b815260036020522054611ce0565b50611e3a565b915180926060809173ffffffffffffffffffffffffffffffffffffffff815116845263ffffffff6020820151166020850152604081015160408501520151910152565bf35b50503461048a57602060031936011261048a578060209273ffffffffffffffffffffffffffffffffffffffff6115e7611a03565b1681526005845220549051908152f35b50503461048a57602060031936011261048a57602090610601611618611a03565b611fe0565b50503461048a578160031936011261048a57602090600e549051908152f35b5091903461048a57602060031936011261048a5763ffffffff833581811692918382036104495761168673ffffffffffffffffffffffffffffffffffffffff601154163314611c16565b60015491818316828460201c16039182116117085791847fffffffffffffffffffffffffffffffffffffffffffffffff000000000000000067ffffffff000000006116f6602097957fff8711dd93e6fc7dadd01b3277e5f30916069e3b3647013462e142f8ea22dd539997611bcf565b871b169216171760015551908152a180f35b6024866011897f4e487b7100000000000000000000000000000000000000000000000000000000835252fd5b83346105015760206003193601126105015761174e611a03565b73ffffffffffffffffffffffffffffffffffffffff9061177382601154163314611c16565b167fffffffffffffffffffffffff0000000000000000000000000000000000000000601054161760105580f35b8484849234610451576020908160031936011261044d576117bf611a03565b9173ffffffffffffffffffffffffffffffffffffffff80600c5416928333036119a957506117f8600b5463ffffffff6001541690611d4a565b42111561194d5780806010541694169384146118f1578596847f6414532af447bc814fac232567913fadd11eb1714ee73e08ab1f005a893a9a009752825261186c61184e8689205460058552878a205490611e08565b61186661185d600e5483611dbc565b600f5490611dcf565b90611e08565b9361188861187f600a5460085490611e08565b60095490611d4a565b9385806118e0575b5050836118c7575b600e5490816118b1575b5050508351928352820152a180f35b6118bf92600d54169061212f565b8680806118a2565b6118db84836010541684600c54169061212f565b611898565b6118ea918361212f565b8885611890565b606487838751917f08c379a0000000000000000000000000000000000000000000000000000000008352820152601560248201527f696e76616c6964207061796d656e7420746f6b656e00000000000000000000006044820152fd5b606487838751917f08c379a0000000000000000000000000000000000000000000000000000000008352820152601860248201527f677261636520706572696f6420696e2070726f677265737300000000000000006044820152fd5b8083897f08c379a00000000000000000000000000000000000000000000000000000000060649452820152600e60248201527f496e76616c6964206163636573730000000000000000000000000000000000006044820152fd5b6004359073ffffffffffffffffffffffffffffffffffffffff82168203611a2657565b600080fd5b6024359073ffffffffffffffffffffffffffffffffffffffff82168203611a2657565b6064359073ffffffffffffffffffffffffffffffffffffffff82168203611a2657565b9181601f84011215611a265782359167ffffffffffffffff8311611a265760208381860195010111611a2657565b6080810190811067ffffffffffffffff821117611abb57604052565b7f4e487b7100000000000000000000000000000000000000000000000000000000600052604160045260246000fd5b90601f7fffffffffffffffffffffffffffffffffffffffffffffffffffffffffffffffe0910116810190811067ffffffffffffffff821117611abb57604052565b67ffffffffffffffff8111611abb57601f017fffffffffffffffffffffffffffffffffffffffffffffffffffffffffffffffe01660200190565b81601f82011215611a2657803590611b7c82611b2b565b92611b8a6040519485611aea565b82845260208383010111611a2657816000926020809301838601378301015290565b60005b838110611bbf5750506000910152565b8181015183820152602001611baf565b91909163ffffffff80809416911601918211611be757565b7f4e487b7100000000000000000000000000000000000000000000000000000000600052601160045260246000fd5b15611c1d57565b60646040517f08c379a000000000000000000000000000000000000000000000000000000000815260206004820152600a60248201527f4f6e6c792061646d696e000000000000000000000000000000000000000000006044820152fd5b15611c8257565b60646040517f08c379a000000000000000000000000000000000000000000000000000000000815260206004820152601060248201527f4e6f7420696e2077686974656c697374000000000000000000000000000000006044820152fd5b600254811015611d1b576003906002600052027f405787fa12a823e0f2b7631cc41b3ba8828b3321ca811111fa75cd3aa3bb5ace0190600090565b7f4e487b7100000000000000000000000000000000000000000000000000000000600052603260045260246000fd5b91908201809211611be757565b15611d5e57565b60646040517f08c379a000000000000000000000000000000000000000000000000000000000815260206004820152601560248201527f7573657220616c726561647920726566756e64656400000000000000000000006044820152fd5b81810292918115918404141715611be757565b8115611dd9570490565b7f4e487b7100000000000000000000000000000000000000000000000000000000600052601260045260246000fd5b91908203918211611be757565b60405190611e2282611a9f565b60006060838281528260208201528260408201520152565b90604051611e4781611a9f565b60606002829463ffffffff815473ffffffffffffffffffffffffffffffffffffffff8116865260a01c166020850152600181015460408501520154910152565b67ffffffffffffffff8111611abb5760051b60200190565b8051821015611d1b5760209160051b010190565b611eef9073ffffffffffffffffffffffffffffffffffffffff81166000526003602052611eea60ff60016040600020015416611c7b565b611ef2565b90565b73ffffffffffffffffffffffffffffffffffffffff1660005260036020526001611f20604060002054611ce0565b500154600154906103e8611f3b61ffff8460601c1683611dbc565b049163ffffffff90818116421015611f565750505050600090565b60201c16421015611f65575090565b611eef91506001546103e8611f8161ffff8360601c1684611dbc565b0490611f8d8284611e08565b63ffffffff9182808260201c169160401c1692611faa8483611bcf565b164210611fb8575050505090565b611eef9450611fda9291611fcf611fd59242611e08565b90611dbc565b611dcf565b90611d4a565b611eef9073ffffffffffffffffffffffffffffffffffffffff811680600052600360205261201860ff60016040600020015416611c7b565b6000526003602052600261203a61203460406000205493611eb3565b92611ce0565b50015490611e08565b73ffffffffffffffffffffffffffffffffffffffff60005416330361206457565b60646040517f08c379a000000000000000000000000000000000000000000000000000000000815260206004820152602060248201527f4f776e61626c653a2063616c6c6572206973206e6f7420746865206f776e65726044820152fd5b6000549073ffffffffffffffffffffffffffffffffffffffff80911691827fffffffffffffffffffffffff0000000000000000000000000000000000000000821617600055167f8be0079c531659141344cd1fd0a4f28419497f9722a3daafe3b4186f6b6457e0600080a3565b91604091825190602094858301937fa9059cbb00000000000000000000000000000000000000000000000000000000855273ffffffffffffffffffffffffffffffffffffffff809316602485015260448401526044835261218f83611a9f565b168351908482019282841067ffffffffffffffff851117611abb5761220f9386528683527f5361666545524332303a206c6f772d6c6576656c2063616c6c206661696c656487840152600080958192519082855af13d156122d2573d916121f583611b2b565b9261220288519485611aea565b83523d868985013e6122d6565b8051918215918583156122ae575b50505090501561222b575050565b6084925051907f08c379a00000000000000000000000000000000000000000000000000000000082526004820152602a60248201527f5361666545524332303a204552433230206f7065726174696f6e20646964206e60448201527f6f742073756363656564000000000000000000000000000000000000000000006064820152fd5b91938180945001031261048a5783015190811515820361050157508038808561221d565b6060915b9192901561235157508151156122ea575090565b3b156122f35790565b60646040517f08c379a000000000000000000000000000000000000000000000000000000000815260206004820152601d60248201527f416464726573733a2063616c6c20746f206e6f6e2d636f6e74726163740000006044820152fd5b8251909150156123645750805190602001fd5b6044601f917fffffffffffffffffffffffffffffffffffffffffffffffffffffffffffffffe06040519384927f08c379a0000000000000000000000000000000000000000000000000000000008452602060048501526123d38151809281602488015260208888019101611bac565b01168101030190fdfea2646970667358221220da6c1841a309e816bfb2caf26e42765d313b3ce50c2f5c148eec608e98386c0064736f6c6343000811003360808060405234610074576000805462010000600160b01b0319811633601081811b62010000600160b01b03169290921784559291901c6001600160a01b0316907f8be0079c531659141344cd1fd0a4f28419497f9722a3daafe3b4186f6b6457e09080a360018055613c99908161007a8239f35b600080fdfe6080604052600436101561001257600080fd5b6000803560e01c806302912bd31461239a5780630a9254e4146123325780630fa34ede146122975780631bcaddc21461224f57806328d5796f146115b05780635625671e146115345780635a5fdab7146114ec578063715018a61461146a5780637518d35c1461132c5780637eae687e14611185578063852c49a714611142578063897c1b7914610a485780638da5cb5b14610a12578063907d30851461096057806398e3fdc41461090c578063a102491214610865578063ae00ee1f1461081e578063c5c4744c146107e1578063db365f8414610702578063e6807afd14610639578063f1efb93114610565578063f2fde38b1461049a578063f86df59b1461043b578063faf0c581146101af5763ff77d0be1461013057600080fd5b346101ac5760206003193601126101ac576004359067ffffffffffffffff82116101ac57602061017a816101673660048701612a55565b8160405193828580945193849201612aaf565b81017ff8bb2a4b5b30792eb350607495ebe7f79c5a5066287187429654459fae715b2681520301902054604051908152f35b80fd5b50346101ac5760406003193601126101ac576101c96128d4565b6101d16128f7565b906101da612cec565b73ffffffffffffffffffffffffffffffffffffffff809116916101fe8315156133df565b604051927f70a082310000000000000000000000000000000000000000000000000000000084523060048501526020938481602481855afa9081156104305786916103ff575b5060405193858501937fa9059cbb000000000000000000000000000000000000000000000000000000008552166024850152604484015260448352608083019183831067ffffffffffffffff8411176103d05785809161030695856040526102ab86612987565b8786527f5361666545524332303a206c6f772d6c6576656c2063616c6c206661696c656460a0820152519082855af13d156103c8573d916102eb836129e4565b926102f960405194856129a3565b83523d878785013e613444565b80518281159182156103a4575b5050905015610320575080f35b608490604051907f08c379a00000000000000000000000000000000000000000000000000000000082526004820152602a60248201527f5361666545524332303a204552433230206f7065726174696f6e20646964206e60448201527f6f742073756363656564000000000000000000000000000000000000000000006064820152fd5b83809293500103126103c45781015180151581036103c457808238610313565b8280fd5b606091613444565b7f4e487b7100000000000000000000000000000000000000000000000000000000600052604160045260246000fd5b90508481813d8311610429575b61041681836129a3565b81010312610425575138610244565b8580fd5b503d61040c565b6040513d88823e3d90fd5b50346101ac5760406003193601126101ac5767ffffffffffffffff6004358181116103c45761046e903690600401612b2d565b6024359182116103c457610489610497923690600401612bcb565b90610492612cec565b61361e565b80f35b50346101ac5760206003193601126101ac576104b46128d4565b6104bc612cec565b73ffffffffffffffffffffffffffffffffffffffff8116156104e15761049790612d6e565b60846040517f08c379a000000000000000000000000000000000000000000000000000000000815260206004820152602660248201527f4f776e61626c653a206e6577206f776e657220697320746865207a65726f206160448201527f64647265737300000000000000000000000000000000000000000000000000006064820152fd5b50346101ac5760206003193601126101ac57600435610582612cec565b6103e881106105db576105b6817ff8bb2a4b5b30792eb350607495ebe7f79c5a5066287187429654459fae715b2054613c1e565b7ff8bb2a4b5b30792eb350607495ebe7f79c5a5066287187429654459fae715b1f5580f35b60646040517f08c379a000000000000000000000000000000000000000000000000000000000815260206004820152601b60248201527f6772616e64546f74616c5f4c6f7765725468616e5f5f315f30303000000000006044820152fd5b50346101ac576fffffffffffffffffffffffffffffffff61065936612ca1565b610664929192612cec565b16904282106106a457610678600291612e82565b01907fffffffffffffffffffffffffffffffff0000000000000000000000000000000082541617905580f35b60646040517f08c379a000000000000000000000000000000000000000000000000000000000815260206004820152600d60248201527f53544152545f494e5f50415354000000000000000000000000000000000000006044820152fd5b50346101ac5761071136612ca1565b610719612cec565b426fffffffffffffffffffffffffffffffff8216111561078357600261074161049793612e82565b01906fffffffffffffffffffffffffffffffff7fffffffffffffffffffffffffffffffff0000000000000000000000000000000083549260801b169116179055565b60646040517f08c379a000000000000000000000000000000000000000000000000000000000815260206004820152600b60248201527f454e445f494e5f504153540000000000000000000000000000000000000000006044820152fd5b50346101ac57806003193601126101ac5760207ff8bb2a4b5b30792eb350607495ebe7f79c5a5066287187429654459fae715b2554604051908152f35b50346101ac57806003193601126101ac57602060ff7ff8bb2a4b5b30792eb350607495ebe7f79c5a5066287187429654459fae715b2454166108636040518092612a73565bf35b50346101ac5760206003193601126101ac576104976108826128d4565b61088a612cec565b6108ab73ffffffffffffffffffffffffffffffffffffffff821615156133df565b73ffffffffffffffffffffffffffffffffffffffff7ff8bb2a4b5b30792eb350607495ebe7f79c5a5066287187429654459fae715b1d91167fffffffffffffffffffffffff0000000000000000000000000000000000000000825416179055565b50346101ac5760206003193601126101ac5760043567ffffffffffffffff811161095c5761094161094e913690600401612a55565b610949612cec565b612e82565b600360ff1982541617905580f35b5080fd5b50346101ac5760406003193601126101ac5760043567ffffffffffffffff811161095c57610992903690600401612a55565b6024359061099e612cec565b81156109b4576109af600191612e82565b015580f35b60646040517f08c379a000000000000000000000000000000000000000000000000000000000815260206004820152601060248201527f4d65726b6c65526f6f745f454d505459000000000000000000000000000000006044820152fd5b50346101ac57806003193601126101ac5773ffffffffffffffffffffffffffffffffffffffff6020915460101c16604051908152f35b50346101ac576101206003193601126101ac57610a636128d4565b60c07fffffffffffffffffffffffffffffffffffffffffffffffffffffffffffffffdc36011261095c5760405160c0810181811067ffffffffffffffff8211176103d057604052610ab26128f7565b815260443573ffffffffffffffffffffffffffffffffffffffff8116810361113d57602082015260643573ffffffffffffffffffffffffffffffffffffffff8116810361113d576040820152608435606082015260a435608082015260c43560a082015260e43567ffffffffffffffff811161113957610b36903690600401612b2d565b67ffffffffffffffff610104351161113957610b583661010435600401612bcb565b9084549360ff8560081c16159485809661112c575b8015611115575b156110915785600160ff198316178855611063575b50610b92612cec565b73ffffffffffffffffffffffffffffffffffffffff8116156110055773ffffffffffffffffffffffffffffffffffffffff84511615610f815773ffffffffffffffffffffffffffffffffffffffff60208501511615610efd5773ffffffffffffffffffffffffffffffffffffffff60408501511615610e7957606084015115610e1b57610dc093610c2460a092612d6e565b73ffffffffffffffffffffffffffffffffffffffff8151167fffffffffffffffffffffffff0000000000000000000000000000000000000000907ff8bb2a4b5b30792eb350607495ebe7f79c5a5066287187429654459fae715b1c9082825416179055610d0673ffffffffffffffffffffffffffffffffffffffff60208401511673ffffffffffffffffffffffffffffffffffffffff7ff8bb2a4b5b30792eb350607495ebe7f79c5a5066287187429654459fae715b1d91167fffffffffffffffffffffffff0000000000000000000000000000000000000000825416179055565b73ffffffffffffffffffffffffffffffffffffffff6040830151167ff8bb2a4b5b30792eb350607495ebe7f79c5a5066287187429654459fae715b1e9182541617905560608101517ff8bb2a4b5b30792eb350607495ebe7f79c5a5066287187429654459fae715b1f5560808101517ff8bb2a4b5b30792eb350607495ebe7f79c5a5066287187429654459fae715b205501517ff8bb2a4b5b30792eb350607495ebe7f79c5a5066287187429654459fae715b215561361e565b610dc75780f35b7fffffffffffffffffffffffffffffffffffffffffffffffffffffffffffff00ff81541681557f7f26b83ff96e1f2b6a682f133852f6798a09c465da95921460cefb3847402498602060405160018152a180f35b60646040517f08c379a000000000000000000000000000000000000000000000000000000000815260206004820152601c60248201527f49474f5772697461626c655f5f6772616e64546f74616c5f5a45524f000000006044820152fd5b60846040517f08c379a000000000000000000000000000000000000000000000000000000000815260206004820152602160248201527f49474f5772697461626c655f5f7065726d6974325f5a45524f5f41444452455360448201527f53000000000000000000000000000000000000000000000000000000000000006064820152fd5b60846040517f08c379a000000000000000000000000000000000000000000000000000000000815260206004820152602660248201527f49474f5772697461626c655f5f7061796d656e74546f6b656e5f5a45524f5f4160448201527f44445245535300000000000000000000000000000000000000000000000000006064820152fd5b60846040517f08c379a000000000000000000000000000000000000000000000000000000000815260206004820152602960248201527f49474f5772697461626c655f5f76657374696e67436f6e74726163745f5a455260448201527f4f5f4144445245535300000000000000000000000000000000000000000000006064820152fd5b60646040517f08c379a000000000000000000000000000000000000000000000000000000000815260206004820152601f60248201527f49474f5772697461626c655f5f6f776e65725f5a45524f5f41444452455353006044820152fd5b7fffffffffffffffffffffffffffffffffffffffffffffffffffffffffffff00001661010117865538610b89565b60846040517f08c379a000000000000000000000000000000000000000000000000000000000815260206004820152602e60248201527f496e697469616c697a61626c653a20636f6e747261637420697320616c72656160448201527f647920696e697469616c697a65640000000000000000000000000000000000006064820152fd5b50303b158015610b745750600160ff821614610b74565b50600160ff821610610b6d565b8380fd5b600080fd5b50346101ac5760206003193601126101ac5760043567ffffffffffffffff811161095c57610941611177913690600401612a55565b600160ff1982541617905580f35b50346101ac57806003193601126101ac577ff8bb2a4b5b30792eb350607495ebe7f79c5a5066287187429654459fae715b22908154916111c483612b15565b916111d260405193846129a3565b83835260209384840190819383527f65081cd3ad5fc84209c8310f7404cee8bc03efec5e3d920e46e7ba762f27ce4c9183905b8282106112885750505050604051928484019085855251809152604084019460408260051b8601019392955b82871061123e5785850386f35b909192938280611278837fffffffffffffffffffffffffffffffffffffffffffffffffffffffffffffffc08a600196030186528851612ad2565b9601920196019592919092611231565b6040979694975187899286549261129e84613021565b80825260019480861690811561131057506001146112d8575b506112c68160019603826129a3565b81520194019101909296939596611205565b888d52838d2095508c905b8082106112f957508101830194506112c66112b7565b8654838301860152958501958c94909101906112e3565b60ff19168584015250151560051b8101830194506112c66112b7565b50346101ac5760206003193601126101ac5760043567ffffffffffffffff811161095c5761136161136f913690600401612a55565b611369612fe9565b50612e82565b60405161137b8161293b565b60ff82541691600483101561143d5760e0935082825260018101549060208301918252600281015460408401906fffffffffffffffffffffffffffffffff908181168352606086019060801c8152816003850154936080880194855273ffffffffffffffffffffffffffffffffffffffff9660c060058960048a0154169860a08c01998a5201549901988952611414604051809b612a73565b5160208a01525116604088015251166060860152516080850152511660a08301525160c0820152f35b6024847f4e487b710000000000000000000000000000000000000000000000000000000081526021600452fd5b50346101ac57806003193601126101ac57611483612cec565b600073ffffffffffffffffffffffffffffffffffffffff81547fffffffffffffffffffff0000000000000000000000000000000000000000ffff8116835560101c167f8be0079c531659141344cd1fd0a4f28419497f9722a3daafe3b4186f6b6457e08280a380f35b50346101ac57806003193601126101ac57611505612cec565b7ff8bb2a4b5b30792eb350607495ebe7f79c5a5066287187429654459fae715b24600160ff1982541617905580f35b50346101ac5760406003193601126101ac5760043567ffffffffffffffff811161095c57611566903690600401612a55565b60036109af60243592611577612cec565b610949611582612ec7565b60606115a7876115a260808501518961159a89612e82565b01549061319d565b613148565b91015190613c1e565b50346101ac5760031960808136011261095c5767ffffffffffffffff6024351161095c576080816024353603011261095c5767ffffffffffffffff6044351161095c5736602360443501121561095c5767ffffffffffffffff604435600401351161095c573660246044356004013560051b60443501011161095c576064359067ffffffffffffffff82116103c457606090823603011261095c576002600154146121f157600260015561166960046024350180613074565b61167581839493612df9565b92604051936116838561293b565b60ff81541660048110156121c4579060059186526001810154602087015260028101546fffffffffffffffffffffffffffffffff8116604088015260801c60608701526003810154608087015273ffffffffffffffffffffffffffffffffffffffff60048201541660a0870152015460c08501526116ff612ec7565b9360808101519260608601519461177761176e61176761172260248035016130e8565b73ffffffffffffffffffffffffffffffffffffffff166000527ff8bb2a4b5b30792eb350607495ebe7f79c5a5066287187429654459fae715b27602052604060002090565b8487612e69565b54600435613148565b604460243501358111612179575061179260248035016130e8565b73ffffffffffffffffffffffffffffffffffffffff3391160361211b576117dc7ff8bb2a4b5b30792eb350607495ebe7f79c5a5066287187429654459fae715b2554600435613148565b8681116120db575060ff7ff8bb2a4b5b30792eb350607495ebe7f79c5a5066287187429654459fae715b24541660048110156120ae5760018103612075575061183c61183761183060046024350180613074565b3691612a1e565b6131aa565b61184961176e8386612e31565b85811161201c5750600161186b61186560046024350180613074565b90612df9565b0154966040516020808201527fffffffffffffffffffffffffffffffffffffffffffffffffffffffffffffffdd6024353603016024356004013512156120185767ffffffffffffffff60046024356024358201350101351161201857600460248035828101350191820135360391011361201857608060408201526119718161190760c082016004602480358281013501918201359101613109565b73ffffffffffffffffffffffffffffffffffffffff611929602480350161291a565b166060830152602435604481013560808401526064013560a0830152037fffffffffffffffffffffffffffffffffffffffffffffffffffffffffffffffe081018352826129a3565b602081519101209561198860443560040135612b15565b9661199660405198896129a3565b60443560048101358952602401602089015b60246044356004013560051b60443501018210612008575050978a985b88518a1015611a0d576119d88a8a61339c565b5190818110156119fb578c526020526119f560408c205b9961336f565b986119c5565b908c526020526119f560408c206119ef565b8b98508a03611faa57611add611ad6611a2960248035016130e8565b611a566004357ff8bb2a4b5b30792eb350607495ebe7f79c5a5066287187429654459fae715b2554613148565b7ff8bb2a4b5b30792eb350607495ebe7f79c5a5066287187429654459fae715b2555611a82888b612e31565b611a8f6004358254613148565b905573ffffffffffffffffffffffffffffffffffffffff166000527ff8bb2a4b5b30792eb350607495ebe7f79c5a5066287187429654459fae715b27602052604060002090565b8689612e69565b611aea6004358254613148565b90557ff8bb2a4b5b30792eb350607495ebe7f79c5a5066287187429654459fae715b255414611f5a575b611b1e8487612e31565b5414611f3c575b6002611b318487612df9565b015460801c421015611f1e575b60a084015173ffffffffffffffffffffffffffffffffffffffff168015611efc57935b73ffffffffffffffffffffffffffffffffffffffff8251169060c0611b8960248035016130e8565b910151916004358360043502048314600435151715611ecf57908189923b156103c457888388611c1294670de0b6b3a764000073ffffffffffffffffffffffffffffffffffffffff98898e6040519b8c9a8b998a987f37a97db7000000000000000000000000000000000000000000000000000000008a5260c060048b015260c48a0191613109565b951660248701526004356044870152166064850152600435020460848301526064602435013560a483015203925af18015611ec457611eaf575b50908173ffffffffffffffffffffffffffffffffffffffff604088940151169160006020604051611c7c81612987565b82815201528360408051611c8f8161296b565b8151611c9a81612987565b60008152600060208201528152826020820152015260006020604051611cbf81612987565b8281520152611d3c73ffffffffffffffffffffffffffffffffffffffff60405193611ce985612987565b8189168552600435602086015260405194611d038661296b565b8552604484013560208601526024840135604086015251169160405192611d2984612987565b8352600435602084015260040180613074565b8491943b1561042557858094611dfe611de5976040948551998a98899788967f30f28b7a000000000000000000000000000000000000000000000000000000008852611dac6004890182516020809173ffffffffffffffffffffffffffffffffffffffff81511684520151910152565b60208181015160448a01529101516064880152815173ffffffffffffffffffffffffffffffffffffffff166084880152015160a4860152565b3360c485015261010060e4850152610104840191613109565b03925af18015611ea457611e90575b5050611e1c60248035016130e8565b92816040519283928337810185815203902073ffffffffffffffffffffffffffffffffffffffff604051921682527f24b17f7cc1c323d081ca24ebe682df530605d2207ecdde5a86c1d0bb44a88a6d602073ffffffffffffffffffffffffffffffffffffffff600435951693a46001805580f35b611e9990612957565b611139578385611e0d565b6040513d84823e3d90fd5b611ebc9096919296612957565b949086611c4c565b6040513d89823e3d90fd5b6024897f4e487b710000000000000000000000000000000000000000000000000000000081526011600452fd5b5073ffffffffffffffffffffffffffffffffffffffff60208201511693611b61565b611f2c610949368588612a1e565b600260ff19825416179055611b3e565b611f4a610949368588612a1e565b600260ff19825416179055611b25565b600260ff197ff8bb2a4b5b30792eb350607495ebe7f79c5a5066287187429654459fae715b245416177ff8bb2a4b5b30792eb350607495ebe7f79c5a5066287187429654459fae715b2455611b14565b60646040517f08c379a000000000000000000000000000000000000000000000000000000000815260206004820152601460248201527f414c4c4f434154494f4e5f4e4f545f464f554e440000000000000000000000006044820152fd5b81358152602091820191016119a8565b8980fd5b828661202981889461319d565b6120666040519485947f2877ff9e000000000000000000000000000000000000000000000000000000008652606060048701526064860191613109565b91602484015260448301520390fd5b6024906120ac604051917fb293db190000000000000000000000000000000000000000000000000000000083526004830190612a73565bfd5b6024897f4e487b710000000000000000000000000000000000000000000000000000000081526021600452fd5b866120e88160449361319d565b604051917fcced311a00000000000000000000000000000000000000000000000000000000835260048301526024820152fd5b60646040517f08c379a000000000000000000000000000000000000000000000000000000000815260206004820152601a60248201527f6d73672e73656e6465723a204e4f545f415554484f52495a45440000000000006044820152fd5b61218b6044918260243501359061319d565b604051907fadaa553200000000000000000000000000000000000000000000000000000000825282602435013560048301526024820152fd5b6024877f4e487b710000000000000000000000000000000000000000000000000000000081526021600452fd5b60646040517f08c379a000000000000000000000000000000000000000000000000000000000815260206004820152601f60248201527f5265656e7472616e637947756172643a207265656e7472616e742063616c6c006044820152fd5b50346101ac57806003193601126101ac57612268612cec565b7ff8bb2a4b5b30792eb350607495ebe7f79c5a5066287187429654459fae715b24600360ff1982541617905580f35b50346101ac5760406003193601126101ac576122b16128d4565b906024359067ffffffffffffffff82116101ac576020612329846123236122db36600488016128a6565b91909273ffffffffffffffffffffffffffffffffffffffff166000527ff8bb2a4b5b30792eb350607495ebe7f79c5a5066287187429654459fae715b27602052604060002090565b91612e69565b54604051908152f35b50346101ac57806003193601126101ac5760a061234d612ec7565b73ffffffffffffffffffffffffffffffffffffffff908181511691602082015116906060810151846080830151920151926040519485526020850152604084015260608301526080820152f35b50346101ac576101006003193601126101ac5760043567ffffffffffffffff811161095c576123cd9036906004016128a6565b60e07fffffffffffffffffffffffffffffffffffffffffffffffffffffffffffffffdc3601126103c4576123ff612cec565b6040519061240c8261293b565b600460243510156111395760243582526044356020830152606435916fffffffffffffffffffffffffffffffff831683036128a2578260408201526fffffffffffffffffffffffffffffffff60843516608435036128a257608435606082015260a435608082015260c43573ffffffffffffffffffffffffffffffffffffffff8116810361042557816124ae9160a06124b394015260e43560c0820152613b0c565b613510565b6124bd8184612df9565b926040516124ca8161293b565b60ff85541660048110156121c457906125bc6125b58360809484526001890154602085015260028901546fffffffffffffffffffffffffffffffff81166040860152851c60608501526003890154858501526125a4600573ffffffffffffffffffffffffffffffffffffffff60048c0154169a8b60a08801520154998a60c08701527ff8bb2a4b5b30792eb350607495ebe7f79c5a5066287187429654459fae715b1f549a7ff8bb2a4b5b30792eb350607495ebe7f79c5a5066287187429654459fae715b20549360e4359261259e6130c5565b91613b75565b6115a260a43591868601519061319d565b9687613c1e565b0151156126a6575b612628916125d191612df9565b916125de60243584613184565b60443560018401556fffffffffffffffffffffffffffffffff167fffffffffffffffffffffffffffffffff0000000000000000000000000000000060843560801b16176002830155565b60a43560038201556004810173ffffffffffffffffffffffffffffffffffffffff6126516130c5565b167fffffffffffffffffffffffff0000000000000000000000000000000000000000825416179055600560e4359101557ff8bb2a4b5b30792eb350607495ebe7f79c5a5066287187429654459fae715b205580f35b7ff8bb2a4b5b30792eb350607495ebe7f79c5a5066287187429654459fae715b2280549068010000000000000000821015612875576001820190556126ea90613575565b6128495767ffffffffffffffff831161281c576127118361270b8354613021565b836135ca565b85601f841160011461277557918391612628946125d194899161276a575b508360011b907fffffffffffffffffffffffffffffffffffffffffffffffffffffffffffffffff8560031b1c19161790555b915091506125c4565b90508201353861272f565b81875260208720907fffffffffffffffffffffffffffffffffffffffffffffffffffffffffffffffe08516885b818110612804575091859391612628966125d19694106127cc575b5050600183811b019055612761565b7fffffffffffffffffffffffffffffffffffffffffffffffffffffffffffffffff60f88660031b161c199084013516905538806127bd565b919260206001819286890135815501940192016127a2565b6024867f4e487b710000000000000000000000000000000000000000000000000000000081526041600452fd5b6024867f4e487b7100000000000000000000000000000000000000000000000000000000815280600452fd5b6024877f4e487b710000000000000000000000000000000000000000000000000000000081526041600452fd5b8480fd5b9181601f8401121561113d5782359167ffffffffffffffff831161113d576020838186019501011161113d57565b6004359073ffffffffffffffffffffffffffffffffffffffff8216820361113d57565b6024359073ffffffffffffffffffffffffffffffffffffffff8216820361113d57565b359073ffffffffffffffffffffffffffffffffffffffff8216820361113d57565b60e0810190811067ffffffffffffffff8211176103d057604052565b67ffffffffffffffff81116103d057604052565b6060810190811067ffffffffffffffff8211176103d057604052565b6040810190811067ffffffffffffffff8211176103d057604052565b90601f7fffffffffffffffffffffffffffffffffffffffffffffffffffffffffffffffe0910116810190811067ffffffffffffffff8211176103d057604052565b67ffffffffffffffff81116103d057601f017fffffffffffffffffffffffffffffffffffffffffffffffffffffffffffffffe01660200190565b929192612a2a826129e4565b91612a3860405193846129a3565b82948184528183011161113d578281602093846000960137010152565b9080601f8301121561113d57816020612a7093359101612a1e565b90565b906004821015612a805752565b7f4e487b7100000000000000000000000000000000000000000000000000000000600052602160045260246000fd5b60005b838110612ac25750506000910152565b8181015183820152602001612ab2565b907fffffffffffffffffffffffffffffffffffffffffffffffffffffffffffffffe0601f602093612b0e81518092818752878088019101612aaf565b0116010190565b67ffffffffffffffff81116103d05760051b60200190565b9080601f8301121561113d57813590612b4582612b15565b92612b5360405194856129a3565b828452602092838086019160051b8301019280841161113d57848301915b848310612b815750505050505090565b823567ffffffffffffffff811161113d578691612ba384848094890101612a55565b815201920191612b71565b35906fffffffffffffffffffffffffffffffff8216820361113d57565b81601f8201121561113d57803590612be282612b15565b92604090612bf2825195866129a3565b838552602091828601918360e08097028601019481861161113d578401925b858410612c22575050505050505090565b868483031261113d57825190612c378261293b565b843590600482101561113d578287928a94528287013583820152612c5c868801612bae565b868201526060612c6d818901612bae565b908201526080808801359082015260a0612c8881890161291a565b9082015260c08088013590820152815201930192612c11565b604060031982011261113d576004359067ffffffffffffffff821161113d57612ccc91600401612a55565b906024356fffffffffffffffffffffffffffffffff8116810361113d5790565b73ffffffffffffffffffffffffffffffffffffffff60005460101c163303612d1057565b60646040517f08c379a000000000000000000000000000000000000000000000000000000000815260206004820152602060248201527f4f776e61626c653a2063616c6c6572206973206e6f7420746865206f776e65726044820152fd5b6000549075ffffffffffffffffffffffffffffffffffffffff00008160101b167fffffffffffffffffffff0000000000000000000000000000000000000000ffff83161760005573ffffffffffffffffffffffffffffffffffffffff8091169160101c167f8be0079c531659141344cd1fd0a4f28419497f9722a3daafe3b4186f6b6457e0600080a3565b60209082604051938492833781017ff8bb2a4b5b30792eb350607495ebe7f79c5a5066287187429654459fae715b2381520301902090565b60209082604051938492833781017ff8bb2a4b5b30792eb350607495ebe7f79c5a5066287187429654459fae715b2681520301902090565b6020919283604051948593843782019081520301902090565b6020612e9b918160405193828580945193849201612aaf565b81017ff8bb2a4b5b30792eb350607495ebe7f79c5a5066287187429654459fae715b2381520301902090565b6040519060c0820182811067ffffffffffffffff8211176103d0576040528173ffffffffffffffffffffffffffffffffffffffff807ff8bb2a4b5b30792eb350607495ebe7f79c5a5066287187429654459fae715b1c54168252807ff8bb2a4b5b30792eb350607495ebe7f79c5a5066287187429654459fae715b1d541660208301527ff8bb2a4b5b30792eb350607495ebe7f79c5a5066287187429654459fae715b1e541660408201527ff8bb2a4b5b30792eb350607495ebe7f79c5a5066287187429654459fae715b1f5460608201527ff8bb2a4b5b30792eb350607495ebe7f79c5a5066287187429654459fae715b2054608082015260a07ff8bb2a4b5b30792eb350607495ebe7f79c5a5066287187429654459fae715b2154910152565b60405190612ff68261293b565b8160c06000918281528260208201528260408201528260608201528260808201528260a08201520152565b90600182811c9216801561306a575b602083101461303b57565b7f4e487b7100000000000000000000000000000000000000000000000000000000600052602260045260246000fd5b91607f1691613030565b9035907fffffffffffffffffffffffffffffffffffffffffffffffffffffffffffffffe18136030182121561113d570180359067ffffffffffffffff821161113d5760200191813603831361113d57565b60c43573ffffffffffffffffffffffffffffffffffffffff8116810361113d5790565b3573ffffffffffffffffffffffffffffffffffffffff8116810361113d5790565b601f82602094937fffffffffffffffffffffffffffffffffffffffffffffffffffffffffffffffe0938186528686013760008582860101520116010190565b9190820180921161315557565b7f4e487b7100000000000000000000000000000000000000000000000000000000600052601160045260246000fd5b906004811015612a805760ff60ff198354169116179055565b9190820391821161315557565b6131b381612e82565b6040516131bf8161293b565b60ff82541660049283821015613341578183526001810154602084015260028101549160056fffffffffffffffffffffffffffffffff84169384604087015260801c928360608701526003810154608087015273ffffffffffffffffffffffffffffffffffffffff878201541660a0870152015460c0850152159182613336575b508161332c575b50613314578051828110156132e65760010361326257505050565b51818110156132b8576132b46132a960409485519586957f5f08440f0000000000000000000000000000000000000000000000000000000087528601526044850190612ad2565b916024840190612a73565b0390fd5b6021827f4e487b71000000000000000000000000000000000000000000000000000000006000525260246000fd5b6021837f4e487b71000000000000000000000000000000000000000000000000000000006000525260246000fd5b505061331f90612e82565b600160ff19825416179055565b9050421038613247565b421015915038613240565b6021847f4e487b71000000000000000000000000000000000000000000000000000000006000525260246000fd5b7fffffffffffffffffffffffffffffffffffffffffffffffffffffffffffffffff81146131555760010190565b80518210156133b05760209160051b010190565b7f4e487b7100000000000000000000000000000000000000000000000000000000600052603260045260246000fd5b156133e657565b60646040517f08c379a000000000000000000000000000000000000000000000000000000000815260206004820152601260248201527f546f6b656e5f5a45524f5f4144445245535300000000000000000000000000006044820152fd5b919290156134bf5750815115613458575090565b3b156134615790565b60646040517f08c379a000000000000000000000000000000000000000000000000000000000815260206004820152601d60248201527f416464726573733a2063616c6c20746f206e6f6e2d636f6e74726163740000006044820152fd5b8251909150156134d25750805190602001fd5b6132b4906040519182917f08c379a0000000000000000000000000000000000000000000000000000000008352602060048401526024830190612ad2565b1561351757565b60646040517f08c379a000000000000000000000000000000000000000000000000000000000815260206004820152600b60248201527f494e56414c49445f5441470000000000000000000000000000000000000000006044820152fd5b7ff8bb2a4b5b30792eb350607495ebe7f79c5a5066287187429654459fae715b2280548210156133b0576000527f65081cd3ad5fc84209c8310f7404cee8bc03efec5e3d920e46e7ba762f27ce4c0190600090565b90601f81116135d857505050565b600091825260208220906020601f850160051c83019410613614575b601f0160051c01915b82811061360957505050565b8181556001016135fd565b90925082906135f4565b8051825103613aae5780517ff8bb2a4b5b30792eb350607495ebe7f79c5a5066287187429654459fae715b1f54927ff8bb2a4b5b30792eb350607495ebe7f79c5a5066287187429654459fae715b205493613677612fe9565b5060005b8381106136ab5750505050507ff8bb2a4b5b30792eb350607495ebe7f79c5a5066287187429654459fae715b2055565b6136be6136b8828761339c565b51612e82565b95604051966136cc8861293b565b60ff815416906004821015612a80576005918952600181015460208a015260028101546fffffffffffffffffffffffffffffffff811660408b015260801c60608a0152600381015460808a015273ffffffffffffffffffffffffffffffffffffffff60048201541660a08a0152015460c08801526137566124ae613750848761339c565b51613b0c565b8651906004821015612a80576137d46137e8916137ca608094888c73ffffffffffffffffffffffffffffffffffffffff60a08201511660c06137c18b8273ffffffffffffffffffffffffffffffffffffffff60a06137b4848a61339c565b510151169501519561339c565b51015193613b75565b838a01519061319d565b826137df858861339c565b51015190613148565b966137f38489613c1e565b0151156138e5575b613805818461339c565b51906138146136b8828861339c565b8251926004841015612a805760c06005916138326138e09685613184565b602081015160018501556040810151606082015160801b7fffffffffffffffffffffffffffffffff00000000000000000000000000000000166fffffffffffffffffffffffffffffffff91909116176002850155608081015160038501556004840173ffffffffffffffffffffffffffffffffffffffff60a0830151167fffffffffffffffffffffffff0000000000000000000000000000000000000000825416179055015191015561336f565b61367b565b6138ef818661339c565b517ff8bb2a4b5b30792eb350607495ebe7f79c5a5066287187429654459fae715b228054680100000000000000008110156103d05761393391600182019055613575565b919091613a7f5780519067ffffffffffffffff82116103d05781906139628261395c8654613021565b866135ca565b602090601f83116001146139b9576000926139ae575b50507fffffffffffffffffffffffffffffffffffffffffffffffffffffffffffffffff8260011b9260031b1c19161790556137fb565b015190503880613978565b9250836000526020600020906000935b7fffffffffffffffffffffffffffffffffffffffffffffffffffffffffffffffe084168510613a645760019450837fffffffffffffffffffffffffffffffffffffffffffffffffffffffffffffffe0811610613a2d575b505050811b0190556137fb565b01517fffffffffffffffffffffffffffffffffffffffffffffffffffffffffffffffff60f88460031b161c19169055388080613a20565b818101518355602094850194600190930192909101906139c9565b7f4e487b7100000000000000000000000000000000000000000000000000000000600052600060045260246000fd5b60646040517f08c379a000000000000000000000000000000000000000000000000000000000815260206004820152601f60248201527f49474f5772697461626c653a207461677320617272617973206c656e677468006044820152fd5b602081015115159081613b54575b81613b34575b81613b29575090565b608091500151151590565b60608101516fffffffffffffffffffffffffffffffff1642109150613b20565b60408101516fffffffffffffffffffffffffffffffff164211159150613b1a565b9392939190916004811015612a8057613bbd575050905015613b9357565b60046040517f93c16572000000000000000000000000000000000000000000000000000000008152fd5b73ffffffffffffffffffffffffffffffffffffffff80911691161491821592613c13575b5050613be957565b60046040517ff85d06f8000000000000000000000000000000000000000000000000000000008152fd5b141590503880613be1565b818111613c29575050565b602491613c359161319d565b604051907f2e2a58540000000000000000000000000000000000000000000000000000000082526004820152fdfea26469706673582212204f0f393e79dc0b9ca897139ed0392dcaf33d28871c626e10dc69ea132c7d556864736f6c63430008110033a2646970667358221220655ea1deb1381d09e5042b0f028925fcd52bd377d142412e91bc9c6a14a51b6064736f6c634300081100336080806040523461005b5760008054336001600160a01b0319821681178355916001600160a01b03909116907f8be0079c531659141344cd1fd0a4f28419497f9722a3daafe3b4186f6b6457e09080a361241290816100618239f35b600080fdfe6080604081815260048036101561001557600080fd5b600092833560e01c9081630e71dea8146117a057508063144fa6d71461173457806318126a411461163c57806326232a2e1461161d5780632afd1a7d146115f7578063305b3eaf146115b357806330edc0f5146114f9578063313ce567146114da5780633154b10e146114945783816337a97db714611166575080633ba955a614610fc05780634344f6c514610fa1578063458fd43614610b4d5780634c10a55b14610b0b5780635357a94a14610ad65780635de2974114610aa157806362015bdc14610982578063715018a6146109045780638cdb7e8b146108b85780638da5cb5b146108855780638e25805b14610866578063a06db7dc14610847578063a19d21b01461078c578063c14024081461076d578063cb37f3b214610738578063dc25a300146106bc578063e555730414610608578063e63318d5146105db578063f2fde38b14610504578063f777e0081461048e578063f851a440146104555763fe5f2e881461018557600080fd5b34610451576020918260031936011261044d57813567ffffffffffffffff8111610449576101b69036908401611a71565b90338652600385526101d060ff6001858920015416611c7b565b338652600385526101e383872054611ce0565b50918351818382378681838101600781520301902033885286528387209163ffffffff60015416610216600b5482611d4a565b4210908161043f575b50156103e35782549561023560ff881615611d57565b60028501546103875750908683926001829695015493600381015461025a9086611dbc565b600f5461026691611dcf565b956102718787611e08565b994260081b64ffffffff0016907fffffffffffffffffffffffffffffffffffffffffffffffffffffff00000000001617600117825588519585848837858701600681528773ffffffffffffffffffffffffffffffffffffffff9a8b998a930301902054168d5260058552898d20908154906102eb91611d4a565b90556001019081546009549061030091611d4a565b6009556002015481549061031391611e08565b90558651838282378885858301926006845285813395030190205416916103399261212f565b828751938492833781016006815203019020541691600d541661035b9261212f565b5190815233917fbb28353e4598c3b9199101a66e0989549b659a59a54d2c27fbb183f1932c8e6d91a280f35b606490888751917f08c379a0000000000000000000000000000000000000000000000000000000008352820152601460248201527f7573657220616c726561647920636c61696d65640000000000000000000000006044820152fd5b606486888751917f08c379a0000000000000000000000000000000000000000000000000000000008352820152601360248201527f4e6f7420696e20677261636520706572696f64000000000000000000000000006044820152fd5b905042113861021f565b8480fd5b8380fd5b8280fd5b50503461048a578160031936011261048a5760209073ffffffffffffffffffffffffffffffffffffffff601154169051908152f35b5080fd5b5091346105015760206003193601126105015782359067ffffffffffffffff821161050157506104ee60206104dc819573ffffffffffffffffffffffffffffffffffffffff94369101611b65565b81855193828580945193849201611bac565b8101600681520301902054169051908152f35b80fd5b50346104515760206003193601126104515761051e611a03565b91610527612043565b61052f612043565b73ffffffffffffffffffffffffffffffffffffffff8316156105585783610555846120c2565b80f35b90602060849251917f08c379a0000000000000000000000000000000000000000000000000000000008352820152602660248201527f4f776e61626c653a206e6577206f776e657220697320746865207a65726f206160448201527f64647265737300000000000000000000000000000000000000000000000000006064820152fd5b50503461048a57602060031936011261048a576020906106016105fc611a03565b611eb3565b9051908152f35b5034610451578160031936011261045157803567ffffffffffffffff811161044d579261063b839260a095369101611b65565b73ffffffffffffffffffffffffffffffffffffffff610670602061065d611a2b565b9381875193828580945193849201611bac565b810160078152030190209116825260205220908154916001810154600360028301549201549263ffffffff81519560ff8116875260081c16602086015284015260608301526080820152f35b50503461048a578160031936011261048a576080906106d9611e15565b5060015463ffffffff808216928051916106f283611a9f565b8483526020830192818560201c168452816060848301928288871c168452019461ffff809760601c16865284519788525116602087015251169084015251166060820152f35b50503461048a578160031936011261048a5760209073ffffffffffffffffffffffffffffffffffffffff600d54169051908152f35b50503461048a578160031936011261048a576020906008549051908152f35b5091903461048a5760209283600319360112610451578373ffffffffffffffffffffffffffffffffffffffff6107c0611a03565b169160248451809481937f70a0823100000000000000000000000000000000000000000000000000000000835230908301525afa92831561083c57809361080a575b505051908152f35b909192508382813d8311610835575b6108238183611aea565b81010312610501575051903880610802565b503d610819565b8251903d90823e3d90fd5b50503461048a578160031936011261048a57602090600b549051908152f35b50503461048a578160031936011261048a576020906009549051908152f35b50503461048a578160031936011261048a5773ffffffffffffffffffffffffffffffffffffffff60209254169051908152f35b50503461048a57602060031936011261048a5760ff60018260209473ffffffffffffffffffffffffffffffffffffffff6108f0611a03565b168152600386522001541690519015158152f35b833461050157806003193601126105015761091d612043565b8073ffffffffffffffffffffffffffffffffffffffff81547fffffffffffffffffffffffff000000000000000000000000000000000000000081168355167f8be0079c531659141344cd1fd0a4f28419497f9722a3daafe3b4186f6b6457e08280a380f35b5091346105015760206003193601126105015761099d611a03565b73ffffffffffffffffffffffffffffffffffffffff906109ca848383169485815260036020522054611ce0565b50916109db60018401541515611d57565b6109e482611fe0565b928315610a4457602096508386937f34fcbac0073d7c3d388e51312faf357774904998eeb8fca628b9e6f65ee1cbf795936002610a329401610a27848254611d4a565b90556010541661212f565b81519081524286820152a25160018152f35b60648760208851917f08c379a0000000000000000000000000000000000000000000000000000000008352820152600b60248201527f5a65726f20616d6f756e740000000000000000000000000000000000000000006044820152fd5b50503461048a578160031936011261048a5760209073ffffffffffffffffffffffffffffffffffffffff601054169051908152f35b50503461048a578160031936011261048a5760209073ffffffffffffffffffffffffffffffffffffffff600c54169051908152f35b503461045157602060031936011261045157602092829173ffffffffffffffffffffffffffffffffffffffff610b3f611a03565b168252845220549051908152f35b50346104515760031936016101a0808212610449576101208092126104495760807ffffffffffffffffffffffffffffffffffffffffffffffffffffffffffffffedc3601126104495784549260ff8460a81c161593848095610f91575b8015610f77575b15610ef45784740100000000000000000000000000000000000000007fffffffffffffffffffffff00ffffffffffffffffffffffffffffffffffffffff8316178855610eb2575b503573ffffffffffffffffffffffffffffffffffffffff92838216809203610eae577fffffffffffffffffffffffff00000000000000000000000000000000000000009182600c541617600c55602435848116809103610eaa5782600d541617600d5560443591848316809303610eaa578281601154161760115560643590858216809203610ea657601054161760105560e4359081600b5560c43580600a5560a4359384600e55610104359283600f55610cb2336120c2565b610144359363ffffffff9586861694858703610ea2576101243598888a1695868b03610e9e5761016435998a1698898b03610e99578f9b610184359161ffff83169c8d8403610e9157610d148f93926bffffffff000000000000000093611bcf565b937fffffffffffffffffffffffffffffffffffff000000000000000000000000000067ffffffff000000006dffff0000000000000000000000006001549360601b169660201b169116178b17921b1617176001557f8b2bfe599bf9e0b744a947eec87d2b85b086f600a3c5f8901ca919b9c30f034b60808c8b8151918c83528b60208401528201528c6060820152a18a519a8d610daf611a03565b168c528d610dbb611a2b565b1660208d01528b01528b610dcd611a4e565b1660608b01526084359b8c16809c03610e8d577f7a30a642cae58f6f367b5b398f01ed1d655e5e00b2c37266785c2a71362686209b60808b015260a08a015260c089015260e0880152610100870152850152610140840152610160830152610180820152a1610e3a575080f35b60207f7f26b83ff96e1f2b6a682f133852f6798a09c465da95921460cefb3847402498917fffffffffffffffffffff00ffffffffffffffffffffffffffffffffffffffffff84541684555160018152a180f35b8e80fd5b505050508f80fd5b508f80fd5b8f80fd5b8d80fd5b8880fd5b8780fd5b8680fd5b7fffffffffffffffffffff0000ffffffffffffffffffffffffffffffffffffffff16750101000000000000000000000000000000000000000017865538610bf8565b60848260208851917f08c379a0000000000000000000000000000000000000000000000000000000008352820152602e60248201527f496e697469616c697a61626c653a20636f6e747261637420697320616c72656160448201527f647920696e697469616c697a65640000000000000000000000000000000000006064820152fd5b50303b158015610bb15750600160ff8260a01c1614610bb1565b50600160ff8260a01c1610610baa565b50503461048a578160031936011261048a57602090600a549051908152f35b5091903461048a578060031936011261048a578235602490813594610fe486611e87565b95610ff185519788611aea565b8087527fffffffffffffffffffffffffffffffffffffffffffffffffffffffffffffffe061101e82611e87565b01865b81811061114f5750506110349083611d4a565b91805b8381106110c35786868981519160208080850192818652845180945285019301945b8281106110665784840385f35b909192826080826110b46001948a516060809173ffffffffffffffffffffffffffffffffffffffff815116845263ffffffff6020820151166020850152604081015160408501520151910152565b01960191019492919094611059565b6110f46110cf82611ce0565b506110e36110dd8585611e08565b91611e3a565b6110ed828c611e9f565b5289611e9f565b507fffffffffffffffffffffffffffffffffffffffffffffffffffffffffffffffff811461112457600101611037565b84876011857f4e487b7100000000000000000000000000000000000000000000000000000000835252fd5b60209061115a611e15565b82828c01015201611021565b929050346114905760c060031936011261149057813567ffffffffffffffff811161148b576111989036908401611a71565b906111a1611a2b565b91604435916111ae611a4e565b95608435946111bb612043565b73ffffffffffffffffffffffffffffffffffffffff80911697888a5260209460038652888b2090895181878237878183810160078152030190208b8d528752868a8d2096858c518483823783818681016006815203019020541615611447575b50505060018101805460ff166114025760017fffffffffffffffffffffffffffffffffffffffffffffffffffffffffffffff0082541617905560025480915588519061126682611a9f565b8a825286820163ffffffff421681528a8301918a8352606084019e8f52680100000000000000008110156113d6578060016112a49201600255611ce0565b9390936113ab57917fdb76cc8d16d8e51a4a8b73f914539ac9f9e4e42ff5f0140ddd580c48e89477989c9d9e918660029451167fffffffffffffffff00000000000000000000000000000000000000000000000077ffffffff0000000000000000000000000000000000000000875493837fffffffffffffffffffffffff000000000000000000000000000000000000000086161789555160a01b16921617178455516001840155519101555b1689528252848820611364848254611d4a565b905561137284600854611d4a565b60085560018101611384848254611d4a565b905560028101611395858254611d4a565b9055600360a4359101558351928352820152a280f35b60248e80897f4e487b7100000000000000000000000000000000000000000000000000000000825252fd5b60248e6041897f4e487b7100000000000000000000000000000000000000000000000000000000835252fd5b507fdb76cc8d16d8e51a4a8b73f914539ac9f9e4e42ff5f0140ddd580c48e8947798999a5061143360019154611ce0565b5001611440888254611d4a565b9055611351565b828c519384928337810160068152030190208383167fffffffffffffffffffffffff000000000000000000000000000000000000000082541617905538868161121b565b505050fd5b5050fd5b50503461048a578160031936011261048a5760809061ffff60015482519263ffffffff8083168552808360201c16602086015282821c169084015260601c166060820152f35b50503461048a578160031936011261048a57602090600f549051908152f35b50503461048a57602060031936011261048a576115b161156e6115688360809573ffffffffffffffffffffffffffffffffffffffff611536611a03565b61153e611e15565b5016808252600360205261155a60ff6001858520015416611c7b565b815260036020522054611ce0565b50611e3a565b915180926060809173ffffffffffffffffffffffffffffffffffffffff815116845263ffffffff6020820151166020850152604081015160408501520151910152565bf35b50503461048a57602060031936011261048a578060209273ffffffffffffffffffffffffffffffffffffffff6115e7611a03565b1681526005845220549051908152f35b50503461048a57602060031936011261048a57602090610601611618611a03565b611fe0565b50503461048a578160031936011261048a57602090600e549051908152f35b5091903461048a57602060031936011261048a5763ffffffff833581811692918382036104495761168673ffffffffffffffffffffffffffffffffffffffff601154163314611c16565b60015491818316828460201c16039182116117085791847fffffffffffffffffffffffffffffffffffffffffffffffff000000000000000067ffffffff000000006116f6602097957fff8711dd93e6fc7dadd01b3277e5f30916069e3b3647013462e142f8ea22dd539997611bcf565b871b169216171760015551908152a180f35b6024866011897f4e487b7100000000000000000000000000000000000000000000000000000000835252fd5b83346105015760206003193601126105015761174e611a03565b73ffffffffffffffffffffffffffffffffffffffff9061177382601154163314611c16565b167fffffffffffffffffffffffff0000000000000000000000000000000000000000601054161760105580f35b8484849234610451576020908160031936011261044d576117bf611a03565b9173ffffffffffffffffffffffffffffffffffffffff80600c5416928333036119a957506117f8600b5463ffffffff6001541690611d4a565b42111561194d5780806010541694169384146118f1578596847f6414532af447bc814fac232567913fadd11eb1714ee73e08ab1f005a893a9a009752825261186c61184e8689205460058552878a205490611e08565b61186661185d600e5483611dbc565b600f5490611dcf565b90611e08565b9361188861187f600a5460085490611e08565b60095490611d4a565b9385806118e0575b5050836118c7575b600e5490816118b1575b5050508351928352820152a180f35b6118bf92600d54169061212f565b8680806118a2565b6118db84836010541684600c54169061212f565b611898565b6118ea918361212f565b8885611890565b606487838751917f08c379a0000000000000000000000000000000000000000000000000000000008352820152601560248201527f696e76616c6964207061796d656e7420746f6b656e00000000000000000000006044820152fd5b606487838751917f08c379a0000000000000000000000000000000000000000000000000000000008352820152601860248201527f677261636520706572696f6420696e2070726f677265737300000000000000006044820152fd5b8083897f08c379a00000000000000000000000000000000000000000000000000000000060649452820152600e60248201527f496e76616c6964206163636573730000000000000000000000000000000000006044820152fd5b6004359073ffffffffffffffffffffffffffffffffffffffff82168203611a2657565b600080fd5b6024359073ffffffffffffffffffffffffffffffffffffffff82168203611a2657565b6064359073ffffffffffffffffffffffffffffffffffffffff82168203611a2657565b9181601f84011215611a265782359167ffffffffffffffff8311611a265760208381860195010111611a2657565b6080810190811067ffffffffffffffff821117611abb57604052565b7f4e487b7100000000000000000000000000000000000000000000000000000000600052604160045260246000fd5b90601f7fffffffffffffffffffffffffffffffffffffffffffffffffffffffffffffffe0910116810190811067ffffffffffffffff821117611abb57604052565b67ffffffffffffffff8111611abb57601f017fffffffffffffffffffffffffffffffffffffffffffffffffffffffffffffffe01660200190565b81601f82011215611a2657803590611b7c82611b2b565b92611b8a6040519485611aea565b82845260208383010111611a2657816000926020809301838601378301015290565b60005b838110611bbf5750506000910152565b8181015183820152602001611baf565b91909163ffffffff80809416911601918211611be757565b7f4e487b7100000000000000000000000000000000000000000000000000000000600052601160045260246000fd5b15611c1d57565b60646040517f08c379a000000000000000000000000000000000000000000000000000000000815260206004820152600a60248201527f4f6e6c792061646d696e000000000000000000000000000000000000000000006044820152fd5b15611c8257565b60646040517f08c379a000000000000000000000000000000000000000000000000000000000815260206004820152601060248201527f4e6f7420696e2077686974656c697374000000000000000000000000000000006044820152fd5b600254811015611d1b576003906002600052027f405787fa12a823e0f2b7631cc41b3ba8828b3321ca811111fa75cd3aa3bb5ace0190600090565b7f4e487b7100000000000000000000000000000000000000000000000000000000600052603260045260246000fd5b91908201809211611be757565b15611d5e57565b60646040517f08c379a000000000000000000000000000000000000000000000000000000000815260206004820152601560248201527f7573657220616c726561647920726566756e64656400000000000000000000006044820152fd5b81810292918115918404141715611be757565b8115611dd9570490565b7f4e487b7100000000000000000000000000000000000000000000000000000000600052601260045260246000fd5b91908203918211611be757565b60405190611e2282611a9f565b60006060838281528260208201528260408201520152565b90604051611e4781611a9f565b60606002829463ffffffff815473ffffffffffffffffffffffffffffffffffffffff8116865260a01c166020850152600181015460408501520154910152565b67ffffffffffffffff8111611abb5760051b60200190565b8051821015611d1b5760209160051b010190565b611eef9073ffffffffffffffffffffffffffffffffffffffff81166000526003602052611eea60ff60016040600020015416611c7b565b611ef2565b90565b73ffffffffffffffffffffffffffffffffffffffff1660005260036020526001611f20604060002054611ce0565b500154600154906103e8611f3b61ffff8460601c1683611dbc565b049163ffffffff90818116421015611f565750505050600090565b60201c16421015611f65575090565b611eef91506001546103e8611f8161ffff8360601c1684611dbc565b0490611f8d8284611e08565b63ffffffff9182808260201c169160401c1692611faa8483611bcf565b164210611fb8575050505090565b611eef9450611fda9291611fcf611fd59242611e08565b90611dbc565b611dcf565b90611d4a565b611eef9073ffffffffffffffffffffffffffffffffffffffff811680600052600360205261201860ff60016040600020015416611c7b565b6000526003602052600261203a61203460406000205493611eb3565b92611ce0565b50015490611e08565b73ffffffffffffffffffffffffffffffffffffffff60005416330361206457565b60646040517f08c379a000000000000000000000000000000000000000000000000000000000815260206004820152602060248201527f4f776e61626c653a2063616c6c6572206973206e6f7420746865206f776e65726044820152fd5b6000549073ffffffffffffffffffffffffffffffffffffffff80911691827fffffffffffffffffffffffff0000000000000000000000000000000000000000821617600055167f8be0079c531659141344cd1fd0a4f28419497f9722a3daafe3b4186f6b6457e0600080a3565b91604091825190602094858301937fa9059cbb00000000000000000000000000000000000000000000000000000000855273ffffffffffffffffffffffffffffffffffffffff809316602485015260448401526044835261218f83611a9f565b168351908482019282841067ffffffffffffffff851117611abb5761220f9386528683527f5361666545524332303a206c6f772d6c6576656c2063616c6c206661696c656487840152600080958192519082855af13d156122d2573d916121f583611b2b565b9261220288519485611aea565b83523d868985013e6122d6565b8051918215918583156122ae575b50505090501561222b575050565b6084925051907f08c379a00000000000000000000000000000000000000000000000000000000082526004820152602a60248201527f5361666545524332303a204552433230206f7065726174696f6e20646964206e60448201527f6f742073756363656564000000000000000000000000000000000000000000006064820152fd5b91938180945001031261048a5783015190811515820361050157508038808561221d565b6060915b9192901561235157508151156122ea575090565b3b156122f35790565b60646040517f08c379a000000000000000000000000000000000000000000000000000000000815260206004820152601d60248201527f416464726573733a2063616c6c20746f206e6f6e2d636f6e74726163740000006044820152fd5b8251909150156123645750805190602001fd5b6044601f917fffffffffffffffffffffffffffffffffffffffffffffffffffffffffffffffe06040519384927f08c379a0000000000000000000000000000000000000000000000000000000008452602060048501526123d38151809281602488015260208888019101611bac565b01168101030190fdfea2646970667358221220da6c1841a309e816bfb2caf26e42765d313b3ce50c2f5c148eec608e98386c0064736f6c6343000811003360808060405234610074576000805462010000600160b01b0319811633601081811b62010000600160b01b03169290921784559291901c6001600160a01b0316907f8be0079c531659141344cd1fd0a4f28419497f9722a3daafe3b4186f6b6457e09080a360018055613c99908161007a8239f35b600080fdfe6080604052600436101561001257600080fd5b6000803560e01c806302912bd31461239a5780630a9254e4146123325780630fa34ede146122975780631bcaddc21461224f57806328d5796f146115b05780635625671e146115345780635a5fdab7146114ec578063715018a61461146a5780637518d35c1461132c5780637eae687e14611185578063852c49a714611142578063897c1b7914610a485780638da5cb5b14610a12578063907d30851461096057806398e3fdc41461090c578063a102491214610865578063ae00ee1f1461081e578063c5c4744c146107e1578063db365f8414610702578063e6807afd14610639578063f1efb93114610565578063f2fde38b1461049a578063f86df59b1461043b578063faf0c581146101af5763ff77d0be1461013057600080fd5b346101ac5760206003193601126101ac576004359067ffffffffffffffff82116101ac57602061017a816101673660048701612a55565b8160405193828580945193849201612aaf565b81017ff8bb2a4b5b30792eb350607495ebe7f79c5a5066287187429654459fae715b2681520301902054604051908152f35b80fd5b50346101ac5760406003193601126101ac576101c96128d4565b6101d16128f7565b906101da612cec565b73ffffffffffffffffffffffffffffffffffffffff809116916101fe8315156133df565b604051927f70a082310000000000000000000000000000000000000000000000000000000084523060048501526020938481602481855afa9081156104305786916103ff575b5060405193858501937fa9059cbb000000000000000000000000000000000000000000000000000000008552166024850152604484015260448352608083019183831067ffffffffffffffff8411176103d05785809161030695856040526102ab86612987565b8786527f5361666545524332303a206c6f772d6c6576656c2063616c6c206661696c656460a0820152519082855af13d156103c8573d916102eb836129e4565b926102f960405194856129a3565b83523d878785013e613444565b80518281159182156103a4575b5050905015610320575080f35b608490604051907f08c379a00000000000000000000000000000000000000000000000000000000082526004820152602a60248201527f5361666545524332303a204552433230206f7065726174696f6e20646964206e60448201527f6f742073756363656564000000000000000000000000000000000000000000006064820152fd5b83809293500103126103c45781015180151581036103c457808238610313565b8280fd5b606091613444565b7f4e487b7100000000000000000000000000000000000000000000000000000000600052604160045260246000fd5b90508481813d8311610429575b61041681836129a3565b81010312610425575138610244565b8580fd5b503d61040c565b6040513d88823e3d90fd5b50346101ac5760406003193601126101ac5767ffffffffffffffff6004358181116103c45761046e903690600401612b2d565b6024359182116103c457610489610497923690600401612bcb565b90610492612cec565b61361e565b80f35b50346101ac5760206003193601126101ac576104b46128d4565b6104bc612cec565b73ffffffffffffffffffffffffffffffffffffffff8116156104e15761049790612d6e565b60846040517f08c379a000000000000000000000000000000000000000000000000000000000815260206004820152602660248201527f4f776e61626c653a206e6577206f776e657220697320746865207a65726f206160448201527f64647265737300000000000000000000000000000000000000000000000000006064820152fd5b50346101ac5760206003193601126101ac57600435610582612cec565b6103e881106105db576105b6817ff8bb2a4b5b30792eb350607495ebe7f79c5a5066287187429654459fae715b2054613c1e565b7ff8bb2a4b5b30792eb350607495ebe7f79c5a5066287187429654459fae715b1f5580f35b60646040517f08c379a000000000000000000000000000000000000000000000000000000000815260206004820152601b60248201527f6772616e64546f74616c5f4c6f7765725468616e5f5f315f30303000000000006044820152fd5b50346101ac576fffffffffffffffffffffffffffffffff61065936612ca1565b610664929192612cec565b16904282106106a457610678600291612e82565b01907fffffffffffffffffffffffffffffffff0000000000000000000000000000000082541617905580f35b60646040517f08c379a000000000000000000000000000000000000000000000000000000000815260206004820152600d60248201527f53544152545f494e5f50415354000000000000000000000000000000000000006044820152fd5b50346101ac5761071136612ca1565b610719612cec565b426fffffffffffffffffffffffffffffffff8216111561078357600261074161049793612e82565b01906fffffffffffffffffffffffffffffffff7fffffffffffffffffffffffffffffffff0000000000000000000000000000000083549260801b169116179055565b60646040517f08c379a000000000000000000000000000000000000000000000000000000000815260206004820152600b60248201527f454e445f494e5f504153540000000000000000000000000000000000000000006044820152fd5b50346101ac57806003193601126101ac5760207ff8bb2a4b5b30792eb350607495ebe7f79c5a5066287187429654459fae715b2554604051908152f35b50346101ac57806003193601126101ac57602060ff7ff8bb2a4b5b30792eb350607495ebe7f79c5a5066287187429654459fae715b2454166108636040518092612a73565bf35b50346101ac5760206003193601126101ac576104976108826128d4565b61088a612cec565b6108ab73ffffffffffffffffffffffffffffffffffffffff821615156133df565b73ffffffffffffffffffffffffffffffffffffffff7ff8bb2a4b5b30792eb350607495ebe7f79c5a5066287187429654459fae715b1d91167fffffffffffffffffffffffff0000000000000000000000000000000000000000825416179055565b50346101ac5760206003193601126101ac5760043567ffffffffffffffff811161095c5761094161094e913690600401612a55565b610949612cec565b612e82565b600360ff1982541617905580f35b5080fd5b50346101ac5760406003193601126101ac5760043567ffffffffffffffff811161095c57610992903690600401612a55565b6024359061099e612cec565b81156109b4576109af600191612e82565b015580f35b60646040517f08c379a000000000000000000000000000000000000000000000000000000000815260206004820152601060248201527f4d65726b6c65526f6f745f454d505459000000000000000000000000000000006044820152fd5b50346101ac57806003193601126101ac5773ffffffffffffffffffffffffffffffffffffffff6020915460101c16604051908152f35b50346101ac576101206003193601126101ac57610a636128d4565b60c07fffffffffffffffffffffffffffffffffffffffffffffffffffffffffffffffdc36011261095c5760405160c0810181811067ffffffffffffffff8211176103d057604052610ab26128f7565b815260443573ffffffffffffffffffffffffffffffffffffffff8116810361113d57602082015260643573ffffffffffffffffffffffffffffffffffffffff8116810361113d576040820152608435606082015260a435608082015260c43560a082015260e43567ffffffffffffffff811161113957610b36903690600401612b2d565b67ffffffffffffffff610104351161113957610b583661010435600401612bcb565b9084549360ff8560081c16159485809661112c575b8015611115575b156110915785600160ff198316178855611063575b50610b92612cec565b73ffffffffffffffffffffffffffffffffffffffff8116156110055773ffffffffffffffffffffffffffffffffffffffff84511615610f815773ffffffffffffffffffffffffffffffffffffffff60208501511615610efd5773ffffffffffffffffffffffffffffffffffffffff60408501511615610e7957606084015115610e1b57610dc093610c2460a092612d6e565b73ffffffffffffffffffffffffffffffffffffffff8151167fffffffffffffffffffffffff0000000000000000000000000000000000000000907ff8bb2a4b5b30792eb350607495ebe7f79c5a5066287187429654459fae715b1c9082825416179055610d0673ffffffffffffffffffffffffffffffffffffffff60208401511673ffffffffffffffffffffffffffffffffffffffff7ff8bb2a4b5b30792eb350607495ebe7f79c5a5066287187429654459fae715b1d91167fffffffffffffffffffffffff0000000000000000000000000000000000000000825416179055565b73ffffffffffffffffffffffffffffffffffffffff6040830151167ff8bb2a4b5b30792eb350607495ebe7f79c5a5066287187429654459fae715b1e9182541617905560608101517ff8bb2a4b5b30792eb350607495ebe7f79c5a5066287187429654459fae715b1f5560808101517ff8bb2a4b5b30792eb350607495ebe7f79c5a5066287187429654459fae715b205501517ff8bb2a4b5b30792eb350607495ebe7f79c5a5066287187429654459fae715b215561361e565b610dc75780f35b7fffffffffffffffffffffffffffffffffffffffffffffffffffffffffffff00ff81541681557f7f26b83ff96e1f2b6a682f133852f6798a09c465da95921460cefb3847402498602060405160018152a180f35b60646040517f08c379a000000000000000000000000000000000000000000000000000000000815260206004820152601c60248201527f49474f5772697461626c655f5f6772616e64546f74616c5f5a45524f000000006044820152fd5b60846040517f08c379a000000000000000000000000000000000000000000000000000000000815260206004820152602160248201527f49474f5772697461626c655f5f7065726d6974325f5a45524f5f41444452455360448201527f53000000000000000000000000000000000000000000000000000000000000006064820152fd5b60846040517f08c379a000000000000000000000000000000000000000000000000000000000815260206004820152602660248201527f49474f5772697461626c655f5f7061796d656e74546f6b656e5f5a45524f5f4160448201527f44445245535300000000000000000000000000000000000000000000000000006064820152fd5b60846040517f08c379a000000000000000000000000000000000000000000000000000000000815260206004820152602960248201527f49474f5772697461626c655f5f76657374696e67436f6e74726163745f5a455260448201527f4f5f4144445245535300000000000000000000000000000000000000000000006064820152fd5b60646040517f08c379a000000000000000000000000000000000000000000000000000000000815260206004820152601f60248201527f49474f5772697461626c655f5f6f776e65725f5a45524f5f41444452455353006044820152fd5b7fffffffffffffffffffffffffffffffffffffffffffffffffffffffffffff00001661010117865538610b89565b60846040517f08c379a000000000000000000000000000000000000000000000000000000000815260206004820152602e60248201527f496e697469616c697a61626c653a20636f6e747261637420697320616c72656160448201527f647920696e697469616c697a65640000000000000000000000000000000000006064820152fd5b50303b158015610b745750600160ff821614610b74565b50600160ff821610610b6d565b8380fd5b600080fd5b50346101ac5760206003193601126101ac5760043567ffffffffffffffff811161095c57610941611177913690600401612a55565b600160ff1982541617905580f35b50346101ac57806003193601126101ac577ff8bb2a4b5b30792eb350607495ebe7f79c5a5066287187429654459fae715b22908154916111c483612b15565b916111d260405193846129a3565b83835260209384840190819383527f65081cd3ad5fc84209c8310f7404cee8bc03efec5e3d920e46e7ba762f27ce4c9183905b8282106112885750505050604051928484019085855251809152604084019460408260051b8601019392955b82871061123e5785850386f35b909192938280611278837fffffffffffffffffffffffffffffffffffffffffffffffffffffffffffffffc08a600196030186528851612ad2565b9601920196019592919092611231565b6040979694975187899286549261129e84613021565b80825260019480861690811561131057506001146112d8575b506112c68160019603826129a3565b81520194019101909296939596611205565b888d52838d2095508c905b8082106112f957508101830194506112c66112b7565b8654838301860152958501958c94909101906112e3565b60ff19168584015250151560051b8101830194506112c66112b7565b50346101ac5760206003193601126101ac5760043567ffffffffffffffff811161095c5761136161136f913690600401612a55565b611369612fe9565b50612e82565b60405161137b8161293b565b60ff82541691600483101561143d5760e0935082825260018101549060208301918252600281015460408401906fffffffffffffffffffffffffffffffff908181168352606086019060801c8152816003850154936080880194855273ffffffffffffffffffffffffffffffffffffffff9660c060058960048a0154169860a08c01998a5201549901988952611414604051809b612a73565b5160208a01525116604088015251166060860152516080850152511660a08301525160c0820152f35b6024847f4e487b710000000000000000000000000000000000000000000000000000000081526021600452fd5b50346101ac57806003193601126101ac57611483612cec565b600073ffffffffffffffffffffffffffffffffffffffff81547fffffffffffffffffffff0000000000000000000000000000000000000000ffff8116835560101c167f8be0079c531659141344cd1fd0a4f28419497f9722a3daafe3b4186f6b6457e08280a380f35b50346101ac57806003193601126101ac57611505612cec565b7ff8bb2a4b5b30792eb350607495ebe7f79c5a5066287187429654459fae715b24600160ff1982541617905580f35b50346101ac5760406003193601126101ac5760043567ffffffffffffffff811161095c57611566903690600401612a55565b60036109af60243592611577612cec565b610949611582612ec7565b60606115a7876115a260808501518961159a89612e82565b01549061319d565b613148565b91015190613c1e565b50346101ac5760031960808136011261095c5767ffffffffffffffff6024351161095c576080816024353603011261095c5767ffffffffffffffff6044351161095c5736602360443501121561095c5767ffffffffffffffff604435600401351161095c573660246044356004013560051b60443501011161095c576064359067ffffffffffffffff82116103c457606090823603011261095c576002600154146121f157600260015561166960046024350180613074565b61167581839493612df9565b92604051936116838561293b565b60ff81541660048110156121c4579060059186526001810154602087015260028101546fffffffffffffffffffffffffffffffff8116604088015260801c60608701526003810154608087015273ffffffffffffffffffffffffffffffffffffffff60048201541660a0870152015460c08501526116ff612ec7565b9360808101519260608601519461177761176e61176761172260248035016130e8565b73ffffffffffffffffffffffffffffffffffffffff166000527ff8bb2a4b5b30792eb350607495ebe7f79c5a5066287187429654459fae715b27602052604060002090565b8487612e69565b54600435613148565b604460243501358111612179575061179260248035016130e8565b73ffffffffffffffffffffffffffffffffffffffff3391160361211b576117dc7ff8bb2a4b5b30792eb350607495ebe7f79c5a5066287187429654459fae715b2554600435613148565b8681116120db575060ff7ff8bb2a4b5b30792eb350607495ebe7f79c5a5066287187429654459fae715b24541660048110156120ae5760018103612075575061183c61183761183060046024350180613074565b3691612a1e565b6131aa565b61184961176e8386612e31565b85811161201c5750600161186b61186560046024350180613074565b90612df9565b0154966040516020808201527fffffffffffffffffffffffffffffffffffffffffffffffffffffffffffffffdd6024353603016024356004013512156120185767ffffffffffffffff60046024356024358201350101351161201857600460248035828101350191820135360391011361201857608060408201526119718161190760c082016004602480358281013501918201359101613109565b73ffffffffffffffffffffffffffffffffffffffff611929602480350161291a565b166060830152602435604481013560808401526064013560a0830152037fffffffffffffffffffffffffffffffffffffffffffffffffffffffffffffffe081018352826129a3565b602081519101209561198860443560040135612b15565b9661199660405198896129a3565b60443560048101358952602401602089015b60246044356004013560051b60443501018210612008575050978a985b88518a1015611a0d576119d88a8a61339c565b5190818110156119fb578c526020526119f560408c205b9961336f565b986119c5565b908c526020526119f560408c206119ef565b8b98508a03611faa57611add611ad6611a2960248035016130e8565b611a566004357ff8bb2a4b5b30792eb350607495ebe7f79c5a5066287187429654459fae715b2554613148565b7ff8bb2a4b5b30792eb350607495ebe7f79c5a5066287187429654459fae715b2555611a82888b612e31565b611a8f6004358254613148565b905573ffffffffffffffffffffffffffffffffffffffff166000527ff8bb2a4b5b30792eb350607495ebe7f79c5a5066287187429654459fae715b27602052604060002090565b8689612e69565b611aea6004358254613148565b90557ff8bb2a4b5b30792eb350607495ebe7f79c5a5066287187429654459fae715b255414611f5a575b611b1e8487612e31565b5414611f3c575b6002611b318487612df9565b015460801c421015611f1e575b60a084015173ffffffffffffffffffffffffffffffffffffffff168015611efc57935b73ffffffffffffffffffffffffffffffffffffffff8251169060c0611b8960248035016130e8565b910151916004358360043502048314600435151715611ecf57908189923b156103c457888388611c1294670de0b6b3a764000073ffffffffffffffffffffffffffffffffffffffff98898e6040519b8c9a8b998a987f37a97db7000000000000000000000000000000000000000000000000000000008a5260c060048b015260c48a0191613109565b951660248701526004356044870152166064850152600435020460848301526064602435013560a483015203925af18015611ec457611eaf575b50908173ffffffffffffffffffffffffffffffffffffffff604088940151169160006020604051611c7c81612987565b82815201528360408051611c8f8161296b565b8151611c9a81612987565b60008152600060208201528152826020820152015260006020604051611cbf81612987565b8281520152611d3c73ffffffffffffffffffffffffffffffffffffffff60405193611ce985612987565b8189168552600435602086015260405194611d038661296b565b8552604484013560208601526024840135604086015251169160405192611d2984612987565b8352600435602084015260040180613074565b8491943b1561042557858094611dfe611de5976040948551998a98899788967f30f28b7a000000000000000000000000000000000000000000000000000000008852611dac6004890182516020809173ffffffffffffffffffffffffffffffffffffffff81511684520151910152565b60208181015160448a01529101516064880152815173ffffffffffffffffffffffffffffffffffffffff166084880152015160a4860152565b3360c485015261010060e4850152610104840191613109565b03925af18015611ea457611e90575b5050611e1c60248035016130e8565b92816040519283928337810185815203902073ffffffffffffffffffffffffffffffffffffffff604051921682527f24b17f7cc1c323d081ca24ebe682df530605d2207ecdde5a86c1d0bb44a88a6d602073ffffffffffffffffffffffffffffffffffffffff600435951693a46001805580f35b611e9990612957565b611139578385611e0d565b6040513d84823e3d90fd5b611ebc9096919296612957565b949086611c4c565b6040513d89823e3d90fd5b6024897f4e487b710000000000000000000000000000000000000000000000000000000081526011600452fd5b5073ffffffffffffffffffffffffffffffffffffffff60208201511693611b61565b611f2c610949368588612a1e565b600260ff19825416179055611b3e565b611f4a610949368588612a1e565b600260ff19825416179055611b25565b600260ff197ff8bb2a4b5b30792eb350607495ebe7f79c5a5066287187429654459fae715b245416177ff8bb2a4b5b30792eb350607495ebe7f79c5a5066287187429654459fae715b2455611b14565b60646040517f08c379a000000000000000000000000000000000000000000000000000000000815260206004820152601460248201527f414c4c4f434154494f4e5f4e4f545f464f554e440000000000000000000000006044820152fd5b81358152602091820191016119a8565b8980fd5b828661202981889461319d565b6120666040519485947f2877ff9e000000000000000000000000000000000000000000000000000000008652606060048701526064860191613109565b91602484015260448301520390fd5b6024906120ac604051917fb293db190000000000000000000000000000000000000000000000000000000083526004830190612a73565bfd5b6024897f4e487b710000000000000000000000000000000000000000000000000000000081526021600452fd5b866120e88160449361319d565b604051917fcced311a00000000000000000000000000000000000000000000000000000000835260048301526024820152fd5b60646040517f08c379a000000000000000000000000000000000000000000000000000000000815260206004820152601a60248201527f6d73672e73656e6465723a204e4f545f415554484f52495a45440000000000006044820152fd5b61218b6044918260243501359061319d565b604051907fadaa553200000000000000000000000000000000000000000000000000000000825282602435013560048301526024820152fd5b6024877f4e487b710000000000000000000000000000000000000000000000000000000081526021600452fd5b60646040517f08c379a000000000000000000000000000000000000000000000000000000000815260206004820152601f60248201527f5265656e7472616e637947756172643a207265656e7472616e742063616c6c006044820152fd5b50346101ac57806003193601126101ac57612268612cec565b7ff8bb2a4b5b30792eb350607495ebe7f79c5a5066287187429654459fae715b24600360ff1982541617905580f35b50346101ac5760406003193601126101ac576122b16128d4565b906024359067ffffffffffffffff82116101ac576020612329846123236122db36600488016128a6565b91909273ffffffffffffffffffffffffffffffffffffffff166000527ff8bb2a4b5b30792eb350607495ebe7f79c5a5066287187429654459fae715b27602052604060002090565b91612e69565b54604051908152f35b50346101ac57806003193601126101ac5760a061234d612ec7565b73ffffffffffffffffffffffffffffffffffffffff908181511691602082015116906060810151846080830151920151926040519485526020850152604084015260608301526080820152f35b50346101ac576101006003193601126101ac5760043567ffffffffffffffff811161095c576123cd9036906004016128a6565b60e07fffffffffffffffffffffffffffffffffffffffffffffffffffffffffffffffdc3601126103c4576123ff612cec565b6040519061240c8261293b565b600460243510156111395760243582526044356020830152606435916fffffffffffffffffffffffffffffffff831683036128a2578260408201526fffffffffffffffffffffffffffffffff60843516608435036128a257608435606082015260a435608082015260c43573ffffffffffffffffffffffffffffffffffffffff8116810361042557816124ae9160a06124b394015260e43560c0820152613b0c565b613510565b6124bd8184612df9565b926040516124ca8161293b565b60ff85541660048110156121c457906125bc6125b58360809484526001890154602085015260028901546fffffffffffffffffffffffffffffffff81166040860152851c60608501526003890154858501526125a4600573ffffffffffffffffffffffffffffffffffffffff60048c0154169a8b60a08801520154998a60c08701527ff8bb2a4b5b30792eb350607495ebe7f79c5a5066287187429654459fae715b1f549a7ff8bb2a4b5b30792eb350607495ebe7f79c5a5066287187429654459fae715b20549360e4359261259e6130c5565b91613b75565b6115a260a43591868601519061319d565b9687613c1e565b0151156126a6575b612628916125d191612df9565b916125de60243584613184565b60443560018401556fffffffffffffffffffffffffffffffff167fffffffffffffffffffffffffffffffff0000000000000000000000000000000060843560801b16176002830155565b60a43560038201556004810173ffffffffffffffffffffffffffffffffffffffff6126516130c5565b167fffffffffffffffffffffffff0000000000000000000000000000000000000000825416179055600560e4359101557ff8bb2a4b5b30792eb350607495ebe7f79c5a5066287187429654459fae715b205580f35b7ff8bb2a4b5b30792eb350607495ebe7f79c5a5066287187429654459fae715b2280549068010000000000000000821015612875576001820190556126ea90613575565b6128495767ffffffffffffffff831161281c576127118361270b8354613021565b836135ca565b85601f841160011461277557918391612628946125d194899161276a575b508360011b907fffffffffffffffffffffffffffffffffffffffffffffffffffffffffffffffff8560031b1c19161790555b915091506125c4565b90508201353861272f565b81875260208720907fffffffffffffffffffffffffffffffffffffffffffffffffffffffffffffffe08516885b818110612804575091859391612628966125d19694106127cc575b5050600183811b019055612761565b7fffffffffffffffffffffffffffffffffffffffffffffffffffffffffffffffff60f88660031b161c199084013516905538806127bd565b919260206001819286890135815501940192016127a2565b6024867f4e487b710000000000000000000000000000000000000000000000000000000081526041600452fd5b6024867f4e487b7100000000000000000000000000000000000000000000000000000000815280600452fd5b6024877f4e487b710000000000000000000000000000000000000000000000000000000081526041600452fd5b8480fd5b9181601f8401121561113d5782359167ffffffffffffffff831161113d576020838186019501011161113d57565b6004359073ffffffffffffffffffffffffffffffffffffffff8216820361113d57565b6024359073ffffffffffffffffffffffffffffffffffffffff8216820361113d57565b359073ffffffffffffffffffffffffffffffffffffffff8216820361113d57565b60e0810190811067ffffffffffffffff8211176103d057604052565b67ffffffffffffffff81116103d057604052565b6060810190811067ffffffffffffffff8211176103d057604052565b6040810190811067ffffffffffffffff8211176103d057604052565b90601f7fffffffffffffffffffffffffffffffffffffffffffffffffffffffffffffffe0910116810190811067ffffffffffffffff8211176103d057604052565b67ffffffffffffffff81116103d057601f017fffffffffffffffffffffffffffffffffffffffffffffffffffffffffffffffe01660200190565b929192612a2a826129e4565b91612a3860405193846129a3565b82948184528183011161113d578281602093846000960137010152565b9080601f8301121561113d57816020612a7093359101612a1e565b90565b906004821015612a805752565b7f4e487b7100000000000000000000000000000000000000000000000000000000600052602160045260246000fd5b60005b838110612ac25750506000910152565b8181015183820152602001612ab2565b907fffffffffffffffffffffffffffffffffffffffffffffffffffffffffffffffe0601f602093612b0e81518092818752878088019101612aaf565b0116010190565b67ffffffffffffffff81116103d05760051b60200190565b9080601f8301121561113d57813590612b4582612b15565b92612b5360405194856129a3565b828452602092838086019160051b8301019280841161113d57848301915b848310612b815750505050505090565b823567ffffffffffffffff811161113d578691612ba384848094890101612a55565b815201920191612b71565b35906fffffffffffffffffffffffffffffffff8216820361113d57565b81601f8201121561113d57803590612be282612b15565b92604090612bf2825195866129a3565b838552602091828601918360e08097028601019481861161113d578401925b858410612c22575050505050505090565b868483031261113d57825190612c378261293b565b843590600482101561113d578287928a94528287013583820152612c5c868801612bae565b868201526060612c6d818901612bae565b908201526080808801359082015260a0612c8881890161291a565b9082015260c08088013590820152815201930192612c11565b604060031982011261113d576004359067ffffffffffffffff821161113d57612ccc91600401612a55565b906024356fffffffffffffffffffffffffffffffff8116810361113d5790565b73ffffffffffffffffffffffffffffffffffffffff60005460101c163303612d1057565b60646040517f08c379a000000000000000000000000000000000000000000000000000000000815260206004820152602060248201527f4f776e61626c653a2063616c6c6572206973206e6f7420746865206f776e65726044820152fd5b6000549075ffffffffffffffffffffffffffffffffffffffff00008160101b167fffffffffffffffffffff0000000000000000000000000000000000000000ffff83161760005573ffffffffffffffffffffffffffffffffffffffff8091169160101c167f8be0079c531659141344cd1fd0a4f28419497f9722a3daafe3b4186f6b6457e0600080a3565b60209082604051938492833781017ff8bb2a4b5b30792eb350607495ebe7f79c5a5066287187429654459fae715b2381520301902090565b60209082604051938492833781017ff8bb2a4b5b30792eb350607495ebe7f79c5a5066287187429654459fae715b2681520301902090565b6020919283604051948593843782019081520301902090565b6020612e9b918160405193828580945193849201612aaf565b81017ff8bb2a4b5b30792eb350607495ebe7f79c5a5066287187429654459fae715b2381520301902090565b6040519060c0820182811067ffffffffffffffff8211176103d0576040528173ffffffffffffffffffffffffffffffffffffffff807ff8bb2a4b5b30792eb350607495ebe7f79c5a5066287187429654459fae715b1c54168252807ff8bb2a4b5b30792eb350607495ebe7f79c5a5066287187429654459fae715b1d541660208301527ff8bb2a4b5b30792eb350607495ebe7f79c5a5066287187429654459fae715b1e541660408201527ff8bb2a4b5b30792eb350607495ebe7f79c5a5066287187429654459fae715b1f5460608201527ff8bb2a4b5b30792eb350607495ebe7f79c5a5066287187429654459fae715b2054608082015260a07ff8bb2a4b5b30792eb350607495ebe7f79c5a5066287187429654459fae715b2154910152565b60405190612ff68261293b565b8160c06000918281528260208201528260408201528260608201528260808201528260a08201520152565b90600182811c9216801561306a575b602083101461303b57565b7f4e487b7100000000000000000000000000000000000000000000000000000000600052602260045260246000fd5b91607f1691613030565b9035907fffffffffffffffffffffffffffffffffffffffffffffffffffffffffffffffe18136030182121561113d570180359067ffffffffffffffff821161113d5760200191813603831361113d57565b60c43573ffffffffffffffffffffffffffffffffffffffff8116810361113d5790565b3573ffffffffffffffffffffffffffffffffffffffff8116810361113d5790565b601f82602094937fffffffffffffffffffffffffffffffffffffffffffffffffffffffffffffffe0938186528686013760008582860101520116010190565b9190820180921161315557565b7f4e487b7100000000000000000000000000000000000000000000000000000000600052601160045260246000fd5b906004811015612a805760ff60ff198354169116179055565b9190820391821161315557565b6131b381612e82565b6040516131bf8161293b565b60ff82541660049283821015613341578183526001810154602084015260028101549160056fffffffffffffffffffffffffffffffff84169384604087015260801c928360608701526003810154608087015273ffffffffffffffffffffffffffffffffffffffff878201541660a0870152015460c0850152159182613336575b508161332c575b50613314578051828110156132e65760010361326257505050565b51818110156132b8576132b46132a960409485519586957f5f08440f0000000000000000000000000000000000000000000000000000000087528601526044850190612ad2565b916024840190612a73565b0390fd5b6021827f4e487b71000000000000000000000000000000000000000000000000000000006000525260246000fd5b6021837f4e487b71000000000000000000000000000000000000000000000000000000006000525260246000fd5b505061331f90612e82565b600160ff19825416179055565b9050421038613247565b421015915038613240565b6021847f4e487b71000000000000000000000000000000000000000000000000000000006000525260246000fd5b7fffffffffffffffffffffffffffffffffffffffffffffffffffffffffffffffff81146131555760010190565b80518210156133b05760209160051b010190565b7f4e487b7100000000000000000000000000000000000000000000000000000000600052603260045260246000fd5b156133e657565b60646040517f08c379a000000000000000000000000000000000000000000000000000000000815260206004820152601260248201527f546f6b656e5f5a45524f5f4144445245535300000000000000000000000000006044820152fd5b919290156134bf5750815115613458575090565b3b156134615790565b60646040517f08c379a000000000000000000000000000000000000000000000000000000000815260206004820152601d60248201527f416464726573733a2063616c6c20746f206e6f6e2d636f6e74726163740000006044820152fd5b8251909150156134d25750805190602001fd5b6132b4906040519182917f08c379a0000000000000000000000000000000000000000000000000000000008352602060048401526024830190612ad2565b1561351757565b60646040517f08c379a000000000000000000000000000000000000000000000000000000000815260206004820152600b60248201527f494e56414c49445f5441470000000000000000000000000000000000000000006044820152fd5b7ff8bb2a4b5b30792eb350607495ebe7f79c5a5066287187429654459fae715b2280548210156133b0576000527f65081cd3ad5fc84209c8310f7404cee8bc03efec5e3d920e46e7ba762f27ce4c0190600090565b90601f81116135d857505050565b600091825260208220906020601f850160051c83019410613614575b601f0160051c01915b82811061360957505050565b8181556001016135fd565b90925082906135f4565b8051825103613aae5780517ff8bb2a4b5b30792eb350607495ebe7f79c5a5066287187429654459fae715b1f54927ff8bb2a4b5b30792eb350607495ebe7f79c5a5066287187429654459fae715b205493613677612fe9565b5060005b8381106136ab5750505050507ff8bb2a4b5b30792eb350607495ebe7f79c5a5066287187429654459fae715b2055565b6136be6136b8828761339c565b51612e82565b95604051966136cc8861293b565b60ff815416906004821015612a80576005918952600181015460208a015260028101546fffffffffffffffffffffffffffffffff811660408b015260801c60608a0152600381015460808a015273ffffffffffffffffffffffffffffffffffffffff60048201541660a08a0152015460c08801526137566124ae613750848761339c565b51613b0c565b8651906004821015612a80576137d46137e8916137ca608094888c73ffffffffffffffffffffffffffffffffffffffff60a08201511660c06137c18b8273ffffffffffffffffffffffffffffffffffffffff60a06137b4848a61339c565b510151169501519561339c565b51015193613b75565b838a01519061319d565b826137df858861339c565b51015190613148565b966137f38489613c1e565b0151156138e5575b613805818461339c565b51906138146136b8828861339c565b8251926004841015612a805760c06005916138326138e09685613184565b602081015160018501556040810151606082015160801b7fffffffffffffffffffffffffffffffff00000000000000000000000000000000166fffffffffffffffffffffffffffffffff91909116176002850155608081015160038501556004840173ffffffffffffffffffffffffffffffffffffffff60a0830151167fffffffffffffffffffffffff0000000000000000000000000000000000000000825416179055015191015561336f565b61367b565b6138ef818661339c565b517ff8bb2a4b5b30792eb350607495ebe7f79c5a5066287187429654459fae715b228054680100000000000000008110156103d05761393391600182019055613575565b919091613a7f5780519067ffffffffffffffff82116103d05781906139628261395c8654613021565b866135ca565b602090601f83116001146139b9576000926139ae575b50507fffffffffffffffffffffffffffffffffffffffffffffffffffffffffffffffff8260011b9260031b1c19161790556137fb565b015190503880613978565b9250836000526020600020906000935b7fffffffffffffffffffffffffffffffffffffffffffffffffffffffffffffffe084168510613a645760019450837fffffffffffffffffffffffffffffffffffffffffffffffffffffffffffffffe0811610613a2d575b505050811b0190556137fb565b01517fffffffffffffffffffffffffffffffffffffffffffffffffffffffffffffffff60f88460031b161c19169055388080613a20565b818101518355602094850194600190930192909101906139c9565b7f4e487b7100000000000000000000000000000000000000000000000000000000600052600060045260246000fd5b60646040517f08c379a000000000000000000000000000000000000000000000000000000000815260206004820152601f60248201527f49474f5772697461626c653a207461677320617272617973206c656e677468006044820152fd5b602081015115159081613b54575b81613b34575b81613b29575090565b608091500151151590565b60608101516fffffffffffffffffffffffffffffffff1642109150613b20565b60408101516fffffffffffffffffffffffffffffffff164211159150613b1a565b9392939190916004811015612a8057613bbd575050905015613b9357565b60046040517f93c16572000000000000000000000000000000000000000000000000000000008152fd5b73ffffffffffffffffffffffffffffffffffffffff80911691161491821592613c13575b5050613be957565b60046040517ff85d06f8000000000000000000000000000000000000000000000000000000008152fd5b141590503880613be1565b818111613c29575050565b602491613c359161319d565b604051907f2e2a58540000000000000000000000000000000000000000000000000000000082526004820152fdfea26469706673582212204f0f393e79dc0b9ca897139ed0392dcaf33d28871c626e10dc69ea132c7d556864736f6c63430008110033",
    "linkReferences": {}
  },
  "methodIdentifiers": {
    "createIGO(string,(address,address,address,uint256,uint256,uint256),string[],(uint8,bytes32,uint128,uint128,uint256,address,uint256)[],(address,address,address,address,address,uint256,uint256,uint256,uint256),(uint32,uint32,uint32,uint16))": "7f89e208",
    "defaultIgo()": "f07df8b4",
    "defaultVesting()": "b9edb3a5",
    "igoCount()": "dd89440f",
    "igoNames()": "303194a5",
    "igoWithName(string)": "7510d458",
    "owner()": "8da5cb5b",
    "renounceOwnership()": "715018a6",
    "transferOwnership(address)": "f2fde38b",
    "updateDefaultIgo(address)": "7253b0bd",
    "updateDefaultVesting(address)": "cf2d268a"
  },
  "id": 52
}