{
  "abi": [
    {
      "inputs": [
        {
          "internalType": "enum ISharedInternal.Stage",
          "name": "current",
          "type": "uint8"
        }
      ],
      "name": "IGOWritableInternal_IGONotOpened",
      "type": "error"
    },
    {
      "inputs": [
        {
          "internalType": "string",
          "name": "tagId",
          "type": "string"
        },
        {
          "internalType": "enum ISharedInternal.Stage",
          "name": "current",
          "type": "uint8"
        }
      ],
      "name": "IGOWritableInternal_TagNotOpened",
      "type": "error"
    },
    {
      "inputs": [
        {
          "internalType": "uint256",
          "name": "allocation",
          "type": "uint256"
        },
        {
          "internalType": "uint256",
          "name": "exceedsBy",
          "type": "uint256"
        }
      ],
      "name": "IGOWritable_AllocationExceeded",
      "type": "error"
    },
    {
      "inputs": [
        {
          "internalType": "uint256",
          "name": "grandTotal",
          "type": "uint256"
        },
        {
          "internalType": "uint256",
          "name": "exceedsBy",
          "type": "uint256"
        }
      ],
      "name": "IGOWritable_GrandTotalExceeded",
      "type": "error"
    },
    {
      "inputs": [
        {
          "internalType": "string",
          "name": "tagId",
          "type": "string"
        },
        {
          "internalType": "uint256",
          "name": "maxTagAllocation",
          "type": "uint256"
        },
        {
          "internalType": "uint256",
          "name": "grandTotal",
          "type": "uint256"
        }
      ],
      "name": "IGOWritable_GreaterThanGrandTotal",
      "type": "error"
    },
    {
      "inputs": [
        {
          "internalType": "string",
          "name": "tagId",
          "type": "string"
        },
        {
          "internalType": "uint256",
          "name": "maxTagCap",
          "type": "uint256"
        },
        {
          "internalType": "uint256",
          "name": "exceedsBy",
          "type": "uint256"
        }
      ],
      "name": "IGOWritable_MaxTagCapExceeded",
      "type": "error"
    },
    {
      "inputs": [
        {
          "internalType": "address",
          "name": "account",
          "type": "address"
        },
        {
          "internalType": "string",
          "name": "tagId",
          "type": "string"
        }
      ],
      "name": "boughtByIn",
      "outputs": [
        {
          "internalType": "uint256",
          "name": "",
          "type": "uint256"
        }
      ],
      "stateMutability": "view",
      "type": "function"
    },
    {
      "inputs": [],
      "name": "igoStage",
      "outputs": [
        {
          "internalType": "enum ISharedInternal.Stage",
          "name": "",
          "type": "uint8"
        }
      ],
      "stateMutability": "view",
      "type": "function"
    },
    {
      "inputs": [
        {
          "internalType": "string",
          "name": "tagId",
          "type": "string"
        }
      ],
      "name": "raisedInTag",
      "outputs": [
        {
          "internalType": "uint256",
          "name": "",
          "type": "uint256"
        }
      ],
      "stateMutability": "view",
      "type": "function"
    },
    {
      "inputs": [],
      "name": "setUp",
      "outputs": [
        {
          "internalType": "address",
          "name": "token",
          "type": "address"
        },
        {
          "internalType": "address",
          "name": "treasuryWallet",
          "type": "address"
        },
        {
          "internalType": "uint256",
          "name": "grandTotal",
          "type": "uint256"
        }
      ],
      "stateMutability": "view",
      "type": "function"
    },
    {
      "inputs": [
        {
          "internalType": "string",
          "name": "tagId",
          "type": "string"
        }
      ],
      "name": "tag",
      "outputs": [
        {
          "components": [
            {
              "internalType": "enum ISharedInternal.Stage",
              "name": "stage",
              "type": "uint8"
            },
            {
              "internalType": "bytes32",
              "name": "merkleRoot",
              "type": "bytes32"
            },
            {
              "internalType": "uint128",
              "name": "startAt",
              "type": "uint128"
            },
            {
              "internalType": "uint128",
              "name": "endAt",
              "type": "uint128"
            },
            {
              "internalType": "uint256",
              "name": "maxTagCap",
              "type": "uint256"
            },
            {
              "internalType": "address",
              "name": "paymentToken",
              "type": "address"
            }
          ],
          "internalType": "struct ISharedInternal.Tag",
          "name": "tag_",
          "type": "tuple"
        }
      ],
      "stateMutability": "view",
      "type": "function"
    },
    {
      "inputs": [],
      "name": "tagIds",
      "outputs": [
        {
          "internalType": "string[]",
          "name": "tagIds_",
          "type": "string[]"
        }
      ],
      "stateMutability": "view",
      "type": "function"
    },
    {
      "inputs": [],
      "name": "totalRaised",
      "outputs": [
        {
          "internalType": "uint256",
          "name": "",
          "type": "uint256"
        }
      ],
      "stateMutability": "view",
      "type": "function"
    }
  ],
  "bytecode": {
    "object": "0x6080806040523461001657610969908161001c8239f35b600080fdfe608060408181526004918236101561001657600080fd5b600092833560e01c9182630a9254e414610654575081630fa34ede1461057b5781637518d35c1461041d5781637eae687e1461018e57508063ae00ee1f14610129578063c5c4744c146100ce5763ff77d0be1461007257600080fd5b346100ca576020906100998261008736610822565b81845193828580945193849201610910565b81017ff8bb2a4b5b30792eb350607495ebe7f79c5a5066287187429654459fae715b24815203019020549051908152f35b5080fd5b50346100ca57817ffffffffffffffffffffffffffffffffffffffffffffffffffffffffffffffffc3601126100ca576020907ff8bb2a4b5b30792eb350607495ebe7f79c5a5066287187429654459fae715b23549051908152f35b50346100ca57817ffffffffffffffffffffffffffffffffffffffffffffffffffffffffffffffffc3601126100ca5760209061018c60ff7ff8bb2a4b5b30792eb350607495ebe7f79c5a5066287187429654459fae715b225416915180926108d4565bf35b839150346100ca57817ffffffffffffffffffffffffffffffffffffffffffffffffffffffffffffffffc3601126100ca577ff8bb2a4b5b30792eb350607495ebe7f79c5a5066287187429654459fae715b2090815467ffffffffffffffff81116103f1579290845190602094610209868260051b01846107e1565b808352858301809585527fd7213b7e353de0745ec7a29ec9ef3e1ace06ddce4f5a2658513c501175cdd87785915b8383106102ec5750505050508451938085019181865251809252858501958260051b8601019392955b82871061026d5785850386f35b90919293828080837fffffffffffffffffffffffffffffffffffffffffffffffffffffffffffffffc08a600196030186527fffffffffffffffffffffffffffffffffffffffffffffffffffffffffffffffe0601f8a516102d881518092818752878088019101610910565b011601019601920196019592919092610260565b899895969851899183549160019280841c9084811680156103e7575b8b831081146103bb578284528b9493929181156103815750600114610349575b506103378160019603826107e1565b81520192019201919097959497610237565b868e52838e2095508d905b80821061036a5750810183019450610337610328565b8654838301860152958501958b9490910190610354565b7fffffffffffffffffffffffffffffffffffffffffffffffffffffffffffffff00168584015250151560051b810183019450610337610328565b60248f60228d7f4e487b7100000000000000000000000000000000000000000000000000000000835252fd5b91607f1691610308565b6024846041847f4e487b7100000000000000000000000000000000000000000000000000000000835252fd5b839150346100ca5761046e602061043336610822565b8460a0875161044181610796565b82815282858201528289820152826060820152826080820152015281865193828580945193849201610910565b81017ff8bb2a4b5b30792eb350607495ebe7f79c5a5066287187429654459fae715b218152030190208351906104a382610796565b60ff815416938385101561054f575060c09484835260018201549060208401918252600283015490808501926fffffffffffffffffffffffffffffffff9384918285168252606088019460801c855260a060038801549760808a0198895273ffffffffffffffffffffffffffffffffffffffff9a8b91015416980197885261052d8451809b6108d4565b5160208a015251169087015251166060850152516080840152511660a0820152f35b806021857f4e487b71000000000000000000000000000000000000000000000000000000006024945252fd5b82843461065157817ffffffffffffffffffffffffffffffffffffffffffffffffffffffffffffffffc3601126106515782359073ffffffffffffffffffffffffffffffffffffffff8216809203610651576024359167ffffffffffffffff9485841161064d573660238501121561064d578301359485116100ca5736602486850101116100ca579160209484836024958895527ff8bb2a4b5b30792eb350607495ebe7f79c5a5066287187429654459fae715b2585522090808651958694018437820190815203019020549051908152f35b8280fd5b80fd5b83853461065157807ffffffffffffffffffffffffffffffffffffffffffffffffffffffffffffffffc36011261065157608083019083821067ffffffffffffffff83111761076a57606084818585815273ffffffffffffffffffffffffffffffffffffffff92837ff8bb2a4b5b30792eb350607495ebe7f79c5a5066287187429654459fae715b1c541693848252807ff8bb2a4b5b30792eb350607495ebe7f79c5a5066287187429654459fae715b1d541660208301527ff8bb2a4b5b30792eb350607495ebe7f79c5a5066287187429654459fae715b1e54169081838201527ff8bb2a4b5b30792eb350607495ebe7f79c5a5066287187429654459fae715b1f54938491015281519384526020840152820152f35b806041867f4e487b71000000000000000000000000000000000000000000000000000000006024945252fd5b60c0810190811067ffffffffffffffff8211176107b257604052565b7f4e487b7100000000000000000000000000000000000000000000000000000000600052604160045260246000fd5b90601f7fffffffffffffffffffffffffffffffffffffffffffffffffffffffffffffffe0910116810190811067ffffffffffffffff8211176107b257604052565b60207ffffffffffffffffffffffffffffffffffffffffffffffffffffffffffffffffc8201126108cf5767ffffffffffffffff6004358181116108cf57826023820112156108cf5780600401359182116107b257604051926108ac60207fffffffffffffffffffffffffffffffffffffffffffffffffffffffffffffffe0601f86011601856107e1565b828452602483830101116108cf5781600092602460209301838601378301015290565b600080fd5b9060048210156108e15752565b7f4e487b7100000000000000000000000000000000000000000000000000000000600052602160045260246000fd5b60005b8381106109235750506000910152565b818101518382015260200161091356fea2646970667358221220befef28c95f12b64766034b421640d34caebf564df912fa43fa23eee54b8d29d64736f6c63430008110033",
    "linkReferences": {}
  },
  "methodIdentifiers": {
    "boughtByIn(address,string)": "0fa34ede",
    "igoStage()": "ae00ee1f",
    "raisedInTag(string)": "ff77d0be",
    "setUp()": "0a9254e4",
    "tag(string)": "7518d35c",
    "tagIds()": "7eae687e",
    "totalRaised()": "c5c4744c"
  },
  "id": 50
}