{
  "abi": [
    {
      "inputs": [
        {
          "internalType": "enum ISharedInternal.Stage",
          "name": "current",
          "type": "uint8"
        }
      ],
      "name": "IGOWritableInternal_IGONotOpened",
      "type": "error"
    },
    {
      "inputs": [
        {
          "internalType": "string",
          "name": "tagId",
          "type": "string"
        },
        {
          "internalType": "enum ISharedInternal.Stage",
          "name": "current",
          "type": "uint8"
        }
      ],
      "name": "IGOWritableInternal_TagNotOpened",
      "type": "error"
    },
    {
      "inputs": [
        {
          "internalType": "uint256",
          "name": "allocation",
          "type": "uint256"
        },
        {
          "internalType": "uint256",
          "name": "exceedsBy",
          "type": "uint256"
        }
      ],
      "name": "IGOWritable_AllocationExceeded",
      "type": "error"
    },
    {
      "inputs": [
        {
          "internalType": "uint256",
          "name": "grandTotal",
          "type": "uint256"
        },
        {
          "internalType": "uint256",
          "name": "exceedsBy",
          "type": "uint256"
        }
      ],
      "name": "IGOWritable_GrandTotalExceeded",
      "type": "error"
    },
    {
      "inputs": [
        {
          "internalType": "string",
          "name": "tagId",
          "type": "string"
        },
        {
          "internalType": "uint256",
          "name": "maxTagCap",
          "type": "uint256"
        },
        {
          "internalType": "uint256",
          "name": "exceedsBy",
          "type": "uint256"
        }
      ],
      "name": "IGOWritable_MaxTagCapExceeded",
      "type": "error"
    },
    {
      "inputs": [],
      "name": "IGOWritable_NoPaymentTokenOrPriceUpdate",
      "type": "error"
    },
    {
      "inputs": [],
      "name": "IGOWritable_ProjectTokenPrice_ZERO",
      "type": "error"
    },
    {
      "inputs": [
        {
          "internalType": "uint256",
          "name": "greaterBy",
          "type": "uint256"
        }
      ],
      "name": "IGOWritable_SummedMaxTagCapGtGrandTotal",
      "type": "error"
    },
    {
      "anonymous": false,
      "inputs": [
        {
          "indexed": true,
          "internalType": "string",
          "name": "tagId",
          "type": "string"
        },
        {
          "indexed": true,
          "internalType": "address",
          "name": "buyer",
          "type": "address"
        },
        {
          "indexed": true,
          "internalType": "uint256",
          "name": "paymentTokenAmount",
          "type": "uint256"
        },
        {
          "indexed": false,
          "internalType": "address",
          "name": "paymentToken",
          "type": "address"
        }
      ],
      "name": "AllocationReserved",
      "type": "event"
    },
    {
      "inputs": [
        {
          "internalType": "address",
          "name": "account",
          "type": "address"
        },
        {
          "internalType": "string",
          "name": "tagId",
          "type": "string"
        }
      ],
      "name": "boughtByIn",
      "outputs": [
        {
          "internalType": "uint256",
          "name": "",
          "type": "uint256"
        }
      ],
      "stateMutability": "view",
      "type": "function"
    },
    {
      "inputs": [],
      "name": "igoStage",
      "outputs": [
        {
          "internalType": "enum ISharedInternal.Stage",
          "name": "",
          "type": "uint8"
        }
      ],
      "stateMutability": "view",
      "type": "function"
    },
    {
      "inputs": [
        {
          "internalType": "string",
          "name": "tagId",
          "type": "string"
        }
      ],
      "name": "raisedInTag",
      "outputs": [
        {
          "internalType": "uint256",
          "name": "",
          "type": "uint256"
        }
      ],
      "stateMutability": "view",
      "type": "function"
    },
    {
      "inputs": [],
      "name": "setUp",
      "outputs": [
        {
          "internalType": "address",
          "name": "vestingContract",
          "type": "address"
        },
        {
          "internalType": "address",
          "name": "paymentToken",
          "type": "address"
        },
        {
          "internalType": "uint256",
          "name": "grandTotal",
          "type": "uint256"
        },
        {
          "internalType": "uint256",
          "name": "summedMaxTagCap",
          "type": "uint256"
        },
        {
          "internalType": "uint256",
          "name": "refundFeeDecimals",
          "type": "uint256"
        }
      ],
      "stateMutability": "view",
      "type": "function"
    },
    {
      "inputs": [
        {
          "internalType": "string",
          "name": "tagId",
          "type": "string"
        }
      ],
      "name": "tag",
      "outputs": [
        {
          "components": [
            {
              "internalType": "enum ISharedInternal.Stage",
              "name": "stage",
              "type": "uint8"
            },
            {
              "internalType": "bytes32",
              "name": "merkleRoot",
              "type": "bytes32"
            },
            {
              "internalType": "uint128",
              "name": "startAt",
              "type": "uint128"
            },
            {
              "internalType": "uint128",
              "name": "endAt",
              "type": "uint128"
            },
            {
              "internalType": "uint256",
              "name": "maxTagCap",
              "type": "uint256"
            },
            {
              "internalType": "address",
              "name": "paymentToken",
              "type": "address"
            },
            {
              "internalType": "uint256",
              "name": "projectTokenPrice",
              "type": "uint256"
            }
          ],
          "internalType": "struct ISharedInternal.Tag",
          "name": "tag_",
          "type": "tuple"
        }
      ],
      "stateMutability": "view",
      "type": "function"
    },
    {
      "inputs": [],
      "name": "tagIds",
      "outputs": [
        {
          "internalType": "string[]",
          "name": "tagIds_",
          "type": "string[]"
        }
      ],
      "stateMutability": "view",
      "type": "function"
    },
    {
      "inputs": [],
      "name": "totalRaised",
      "outputs": [
        {
          "internalType": "uint256",
          "name": "",
          "type": "uint256"
        }
      ],
      "stateMutability": "view",
      "type": "function"
    }
  ],
  "bytecode": {
    "object": "0x60808060405234610016576109dc908161001c8239f35b600080fdfe608060408181526004918236101561001657600080fd5b600092833560e01c9182630a9254e41461066b575081630fa34ede146105925781637518d35c1461041d5781637eae687e1461018e57508063ae00ee1f14610129578063c5c4744c146100ce5763ff77d0be1461007257600080fd5b346100ca576020906100998261008736610895565b81845193828580945193849201610983565b81017ff8bb2a4b5b30792eb350607495ebe7f79c5a5066287187429654459fae715b26815203019020549051908152f35b5080fd5b50346100ca57817ffffffffffffffffffffffffffffffffffffffffffffffffffffffffffffffffc3601126100ca576020907ff8bb2a4b5b30792eb350607495ebe7f79c5a5066287187429654459fae715b25549051908152f35b50346100ca57817ffffffffffffffffffffffffffffffffffffffffffffffffffffffffffffffffc3601126100ca5760209061018c60ff7ff8bb2a4b5b30792eb350607495ebe7f79c5a5066287187429654459fae715b24541691518092610947565bf35b839150346100ca57817ffffffffffffffffffffffffffffffffffffffffffffffffffffffffffffffffc3601126100ca577ff8bb2a4b5b30792eb350607495ebe7f79c5a5066287187429654459fae715b2290815467ffffffffffffffff81116103f1579290845190602094610209868260051b0184610854565b808352858301809585527f65081cd3ad5fc84209c8310f7404cee8bc03efec5e3d920e46e7ba762f27ce4c85915b8383106102ec5750505050508451938085019181865251809252858501958260051b8601019392955b82871061026d5785850386f35b90919293828080837fffffffffffffffffffffffffffffffffffffffffffffffffffffffffffffffc08a600196030186527fffffffffffffffffffffffffffffffffffffffffffffffffffffffffffffffe0601f8a516102d881518092818752878088019101610983565b011601019601920196019592919092610260565b899895969851899183549160019280841c9084811680156103e7575b8b831081146103bb578284528b9493929181156103815750600114610349575b50610337816001960382610854565b81520192019201919097959497610237565b868e52838e2095508d905b80821061036a5750810183019450610337610328565b8654838301860152958501958b9490910190610354565b7fffffffffffffffffffffffffffffffffffffffffffffffffffffffffffffff00168584015250151560051b810183019450610337610328565b60248f60228d7f4e487b7100000000000000000000000000000000000000000000000000000000835252fd5b91607f1691610308565b6024846041847f4e487b7100000000000000000000000000000000000000000000000000000000835252fd5b839150346100ca57610474602061043336610895565b8460c0875161044181610809565b828152828582015282898201528260608201528260808201528260a0820152015281865193828580945193849201610983565b81017ff8bb2a4b5b30792eb350607495ebe7f79c5a5066287187429654459fae715b23815203019020908351916104aa83610809565b60ff8154169382851015610566575060e094848452600182015490602085019182526002830154818601916fffffffffffffffffffffffffffffffff80938184168152606089019360801c845260038701549560808a0196875260c0600573ffffffffffffffffffffffffffffffffffffffff809b8b0154169960a08d019a8b5201549a01998a5261053e8451809c610947565b5160208b015251169088015251166060860152516080850152511660a08301525160c0820152f35b806021847f4e487b71000000000000000000000000000000000000000000000000000000006024945252fd5b82843461066857817ffffffffffffffffffffffffffffffffffffffffffffffffffffffffffffffffc3601126106685782359073ffffffffffffffffffffffffffffffffffffffff8216809203610668576024359167ffffffffffffffff948584116106645736602385011215610664578301359485116100ca5736602486850101116100ca579160209484836024958895527ff8bb2a4b5b30792eb350607495ebe7f79c5a5066287187429654459fae715b2785522090808651958694018437820190815203019020549051908152f35b8280fd5b80fd5b9150923461066857807ffffffffffffffffffffffffffffffffffffffffffffffffffffffffffffffffc3601126106685760c082019082821067ffffffffffffffff8311176107dd5760a084818585835273ffffffffffffffffffffffffffffffffffffffff807ff8bb2a4b5b30792eb350607495ebe7f79c5a5066287187429654459fae715b1c541693848352817ff8bb2a4b5b30792eb350607495ebe7f79c5a5066287187429654459fae715b1d5416918260208501527ff8bb2a4b5b30792eb350607495ebe7f79c5a5066287187429654459fae715b1e5416818401527ff8bb2a4b5b30792eb350607495ebe7f79c5a5066287187429654459fae715b1f54918260608501527ff8bb2a4b5b30792eb350607495ebe7f79c5a5066287187429654459fae715b2054938460808201527ff8bb2a4b5b30792eb350607495ebe7f79c5a5066287187429654459fae715b215495869101528151958652602086015284015260608301526080820152f35b806041867f4e487b71000000000000000000000000000000000000000000000000000000006024945252fd5b60e0810190811067ffffffffffffffff82111761082557604052565b7f4e487b7100000000000000000000000000000000000000000000000000000000600052604160045260246000fd5b90601f7fffffffffffffffffffffffffffffffffffffffffffffffffffffffffffffffe0910116810190811067ffffffffffffffff82111761082557604052565b60207ffffffffffffffffffffffffffffffffffffffffffffffffffffffffffffffffc8201126109425767ffffffffffffffff6004358181116109425782602382011215610942578060040135918211610825576040519261091f60207fffffffffffffffffffffffffffffffffffffffffffffffffffffffffffffffe0601f8601160185610854565b828452602483830101116109425781600092602460209301838601378301015290565b600080fd5b9060048210156109545752565b7f4e487b7100000000000000000000000000000000000000000000000000000000600052602160045260246000fd5b60005b8381106109965750506000910152565b818101518382015260200161098656fea264697066735822122002f5988c3724d4853b58bb0e9f3e467482acfd6611e90d244078e0e8b8bb25da64736f6c63430008110033",
    "linkReferences": {}
  },
  "methodIdentifiers": {
    "boughtByIn(address,string)": "0fa34ede",
    "igoStage()": "ae00ee1f",
    "raisedInTag(string)": "ff77d0be",
    "setUp()": "0a9254e4",
    "tag(string)": "7518d35c",
    "tagIds()": "7eae687e",
    "totalRaised()": "c5c4744c"
  },
  "id": 58
}