{
  "abi": [
    {
      "inputs": [
        {
          "internalType": "enum ISharedInternal.Status",
          "name": "current",
          "type": "uint8"
        }
      ],
      "name": "IGOWritableInternal_IGONotOpened",
      "type": "error"
    },
    {
      "inputs": [
        {
          "internalType": "string",
          "name": "tagId",
          "type": "string"
        },
        {
          "internalType": "enum ISharedInternal.Status",
          "name": "current",
          "type": "uint8"
        }
      ],
      "name": "IGOWritableInternal_TagNotOpened",
      "type": "error"
    },
    {
      "inputs": [
        {
          "internalType": "uint256",
          "name": "allocation",
          "type": "uint256"
        },
        {
          "internalType": "uint256",
          "name": "exceedsBy",
          "type": "uint256"
        }
      ],
      "name": "IGOWritable_AllocationExceeded",
      "type": "error"
    },
    {
      "inputs": [
        {
          "internalType": "uint256",
          "name": "grandTotal",
          "type": "uint256"
        },
        {
          "internalType": "uint256",
          "name": "exceedsBy",
          "type": "uint256"
        }
      ],
      "name": "IGOWritable_GrandTotalExceeded",
      "type": "error"
    },
    {
      "inputs": [
        {
          "internalType": "string",
          "name": "tagId",
          "type": "string"
        },
        {
          "internalType": "uint256",
          "name": "maxTagCap",
          "type": "uint256"
        },
        {
          "internalType": "uint256",
          "name": "exceedsBy",
          "type": "uint256"
        }
      ],
      "name": "IGOWritable_MaxTagCapExceeded",
      "type": "error"
    },
    {
      "inputs": [],
      "name": "IGOWritable_NoPaymentTokenOrPriceUpdate",
      "type": "error"
    },
    {
      "inputs": [],
      "name": "IGOWritable_ProjectTokenPrice_ZERO",
      "type": "error"
    },
    {
      "inputs": [
        {
          "internalType": "uint256",
          "name": "greaterBy",
          "type": "uint256"
        }
      ],
      "name": "IGOWritable_SummedMaxTagCapGtGrandTotal",
      "type": "error"
    },
    {
      "anonymous": false,
      "inputs": [
        {
          "indexed": true,
          "internalType": "string",
          "name": "tagId",
          "type": "string"
        },
        {
          "indexed": true,
          "internalType": "address",
          "name": "buyer",
          "type": "address"
        },
        {
          "indexed": true,
          "internalType": "uint256",
          "name": "maxAllocation",
          "type": "uint256"
        },
        {
          "indexed": false,
          "internalType": "address",
          "name": "paymentToken",
          "type": "address"
        }
      ],
      "name": "AllocationReserved",
      "type": "event"
    },
    {
      "inputs": [
        {
          "internalType": "address",
          "name": "account",
          "type": "address"
        },
        {
          "internalType": "string",
          "name": "tagId",
          "type": "string"
        }
      ],
      "name": "allocationReservedByIn",
      "outputs": [
        {
          "internalType": "uint256",
          "name": "",
          "type": "uint256"
        }
      ],
      "stateMutability": "view",
      "type": "function"
    },
    {
      "inputs": [],
      "name": "igoStatus",
      "outputs": [
        {
          "internalType": "enum ISharedInternal.Status",
          "name": "",
          "type": "uint8"
        }
      ],
      "stateMutability": "view",
      "type": "function"
    },
    {
      "inputs": [
        {
          "internalType": "string",
          "name": "tagId",
          "type": "string"
        }
      ],
      "name": "raisedInTag",
      "outputs": [
        {
          "internalType": "uint256",
          "name": "",
          "type": "uint256"
        }
      ],
      "stateMutability": "view",
      "type": "function"
    },
    {
      "inputs": [],
      "name": "setUp",
      "outputs": [
        {
          "internalType": "address",
          "name": "vestingContract",
          "type": "address"
        },
        {
          "internalType": "address",
          "name": "paymentToken",
          "type": "address"
        },
        {
          "internalType": "uint256",
          "name": "grandTotal",
          "type": "uint256"
        },
        {
          "internalType": "uint256",
          "name": "summedMaxTagCap",
          "type": "uint256"
        },
        {
          "internalType": "uint256",
          "name": "refundFeeDecimals",
          "type": "uint256"
        }
      ],
      "stateMutability": "view",
      "type": "function"
    },
    {
      "inputs": [
        {
          "internalType": "string",
          "name": "tagId",
          "type": "string"
        }
      ],
      "name": "tag",
      "outputs": [
        {
          "components": [
            {
              "internalType": "enum ISharedInternal.Status",
              "name": "status",
              "type": "uint8"
            },
            {
              "internalType": "bytes32",
              "name": "merkleRoot",
              "type": "bytes32"
            },
            {
              "internalType": "uint128",
              "name": "startAt",
              "type": "uint128"
            },
            {
              "internalType": "uint128",
              "name": "endAt",
              "type": "uint128"
            },
            {
              "internalType": "uint256",
              "name": "maxTagCap",
              "type": "uint256"
            },
            {
              "internalType": "address",
              "name": "paymentToken",
              "type": "address"
            },
            {
              "internalType": "uint256",
              "name": "projectTokenPrice",
              "type": "uint256"
            }
          ],
          "internalType": "struct ISharedInternal.Tag",
          "name": "tag_",
          "type": "tuple"
        }
      ],
      "stateMutability": "view",
      "type": "function"
    },
    {
      "inputs": [],
      "name": "tagIds",
      "outputs": [
        {
          "internalType": "string[]",
          "name": "tagIds_",
          "type": "string[]"
        }
      ],
      "stateMutability": "view",
      "type": "function"
    },
    {
      "inputs": [],
      "name": "totalRaised",
      "outputs": [
        {
          "internalType": "uint256",
          "name": "",
          "type": "uint256"
        }
      ],
      "stateMutability": "view",
      "type": "function"
    }
  ],
  "bytecode": {
    "object": "0x60808060405234610016576109dd908161001c8239f35b600080fdfe608060408181526004918236101561001657600080fd5b600092833560e01c9182630a9254e41461066c5750816333e21bec146106065781637518d35c146104915781637eae687e14610202578163839308081461012957508063c5c4744c146100ce5763ff77d0be1461007257600080fd5b346100ca5760209061009982610087366108d2565b81845193828580945193849201610984565b81017ff8bb2a4b5b30792eb350607495ebe7f79c5a5066287187429654459fae715b26815203019020549051908152f35b5080fd5b50346100ca57817ffffffffffffffffffffffffffffffffffffffffffffffffffffffffffffffffc3601126100ca576020907ff8bb2a4b5b30792eb350607495ebe7f79c5a5066287187429654459fae715b25549051908152f35b8284346101ff57817ffffffffffffffffffffffffffffffffffffffffffffffffffffffffffffffffc3601126101ff5782359073ffffffffffffffffffffffffffffffffffffffff82168092036101ff576024359167ffffffffffffffff948584116101fb57366023850112156101fb578301359485116100ca5736602486850101116100ca579160209484836024958895527ff8bb2a4b5b30792eb350607495ebe7f79c5a5066287187429654459fae715b2785522090808651958694018437820190815203019020549051908152f35b8280fd5b80fd5b839150346100ca57817ffffffffffffffffffffffffffffffffffffffffffffffffffffffffffffffffc3601126100ca577ff8bb2a4b5b30792eb350607495ebe7f79c5a5066287187429654459fae715b2290815467ffffffffffffffff811161046557929084519060209461027d868260051b0184610891565b808352858301809585527f65081cd3ad5fc84209c8310f7404cee8bc03efec5e3d920e46e7ba762f27ce4c85915b8383106103605750505050508451938085019181865251809252858501958260051b8601019392955b8287106102e15785850386f35b90919293828080837fffffffffffffffffffffffffffffffffffffffffffffffffffffffffffffffc08a600196030186527fffffffffffffffffffffffffffffffffffffffffffffffffffffffffffffffe0601f8a5161034c81518092818752878088019101610984565b0116010196019201960195929190926102d4565b899895969851899183549160019280841c90848116801561045b575b8b8310811461042f578284528b9493929181156103f557506001146103bd575b506103ab816001960382610891565b815201920192019190979594976102ab565b868e52838e2095508d905b8082106103de57508101830194506103ab61039c565b8654838301860152958501958b94909101906103c8565b7fffffffffffffffffffffffffffffffffffffffffffffffffffffffffffffff00168584015250151560051b8101830194506103ab61039c565b60248f60228d7f4e487b7100000000000000000000000000000000000000000000000000000000835252fd5b91607f169161037c565b6024846041847f4e487b7100000000000000000000000000000000000000000000000000000000835252fd5b839150346100ca576104e860206104a7366108d2565b8460c087516104b581610846565b828152828582015282898201528260608201528260808201528260a0820152015281865193828580945193849201610984565b81017ff8bb2a4b5b30792eb350607495ebe7f79c5a5066287187429654459fae715b238152030190209083519161051e83610846565b60ff81541693828510156105da575060e094848452600182015490602085019182526002830154818601916fffffffffffffffffffffffffffffffff80938184168152606089019360801c845260038701549560808a0196875260c0600573ffffffffffffffffffffffffffffffffffffffff809b8b0154169960a08d019a8b5201549a01998a526105b28451809c61080a565b5160208b015251169088015251166060860152516080850152511660a08301525160c0820152f35b806021847f4e487b71000000000000000000000000000000000000000000000000000000006024945252fd5b5050346100ca57817ffffffffffffffffffffffffffffffffffffffffffffffffffffffffffffffffc3601126100ca5760209061066a60ff7ff8bb2a4b5b30792eb350607495ebe7f79c5a5066287187429654459fae715b2454169151809261080a565bf35b915092346101ff57807ffffffffffffffffffffffffffffffffffffffffffffffffffffffffffffffffc3601126101ff5760c082019082821067ffffffffffffffff8311176107de5760a084818585835273ffffffffffffffffffffffffffffffffffffffff807ff8bb2a4b5b30792eb350607495ebe7f79c5a5066287187429654459fae715b1c541693848352817ff8bb2a4b5b30792eb350607495ebe7f79c5a5066287187429654459fae715b1d5416918260208501527ff8bb2a4b5b30792eb350607495ebe7f79c5a5066287187429654459fae715b1e5416818401527ff8bb2a4b5b30792eb350607495ebe7f79c5a5066287187429654459fae715b1f54918260608501527ff8bb2a4b5b30792eb350607495ebe7f79c5a5066287187429654459fae715b2054938460808201527ff8bb2a4b5b30792eb350607495ebe7f79c5a5066287187429654459fae715b215495869101528151958652602086015284015260608301526080820152f35b806041867f4e487b71000000000000000000000000000000000000000000000000000000006024945252fd5b9060048210156108175752565b7f4e487b7100000000000000000000000000000000000000000000000000000000600052602160045260246000fd5b60e0810190811067ffffffffffffffff82111761086257604052565b7f4e487b7100000000000000000000000000000000000000000000000000000000600052604160045260246000fd5b90601f7fffffffffffffffffffffffffffffffffffffffffffffffffffffffffffffffe0910116810190811067ffffffffffffffff82111761086257604052565b60207ffffffffffffffffffffffffffffffffffffffffffffffffffffffffffffffffc82011261097f5767ffffffffffffffff60043581811161097f578260238201121561097f578060040135918211610862576040519261095c60207fffffffffffffffffffffffffffffffffffffffffffffffffffffffffffffffe0601f8601160185610891565b8284526024838301011161097f5781600092602460209301838601378301015290565b600080fd5b60005b8381106109975750506000910152565b818101518382015260200161098756fea2646970667358221220fffec200bfcd094e54a51c6e193316cb885ec747de188828488646dc8a29ea6964736f6c63430008110033",
    "linkReferences": {}
  },
  "methodIdentifiers": {
    "allocationReservedByIn(address,string)": "83930808",
    "igoStatus()": "33e21bec",
    "raisedInTag(string)": "ff77d0be",
    "setUp()": "0a9254e4",
    "tag(string)": "7518d35c",
    "tagIds()": "7eae687e",
    "totalRaised()": "c5c4744c"
  },
  "id": 58
}