{
  "abi": [
    {
      "inputs": [
        {
          "internalType": "enum ISharedInternal.Stage",
          "name": "current",
          "type": "uint8"
        }
      ],
      "name": "IGOWritableInternal_IGONotOpened",
      "type": "error"
    },
    {
      "inputs": [
        {
          "internalType": "string",
          "name": "tagId",
          "type": "string"
        },
        {
          "internalType": "enum ISharedInternal.Stage",
          "name": "current",
          "type": "uint8"
        }
      ],
      "name": "IGOWritableInternal_TagNotOpened",
      "type": "error"
    },
    {
      "inputs": [
        {
          "internalType": "uint256",
          "name": "allocation",
          "type": "uint256"
        },
        {
          "internalType": "uint256",
          "name": "exceedsBy",
          "type": "uint256"
        }
      ],
      "name": "IGOWritable_AllocationExceeded",
      "type": "error"
    },
    {
      "inputs": [
        {
          "internalType": "uint256",
          "name": "grandTotal",
          "type": "uint256"
        },
        {
          "internalType": "uint256",
          "name": "exceedsBy",
          "type": "uint256"
        }
      ],
      "name": "IGOWritable_GrandTotalExceeded",
      "type": "error"
    },
    {
      "inputs": [
        {
          "internalType": "string",
          "name": "tagId",
          "type": "string"
        },
        {
          "internalType": "uint256",
          "name": "maxTagCap",
          "type": "uint256"
        },
        {
          "internalType": "uint256",
          "name": "exceedsBy",
          "type": "uint256"
        }
      ],
      "name": "IGOWritable_MaxTagCapExceeded",
      "type": "error"
    },
    {
      "inputs": [],
      "name": "IGOWritable_NoPaymentTokenOrPriceUpdate",
      "type": "error"
    },
    {
      "inputs": [],
      "name": "IGOWritable_ProjectTokenPrice_ZERO",
      "type": "error"
    },
    {
      "inputs": [
        {
          "internalType": "uint256",
          "name": "greaterBy",
          "type": "uint256"
        }
      ],
      "name": "IGOWritable_SummedMaxTagCapGtGrandTotal",
      "type": "error"
    },
    {
      "anonymous": false,
      "inputs": [
        {
          "indexed": true,
          "internalType": "string",
          "name": "tagId",
          "type": "string"
        },
        {
          "indexed": true,
          "internalType": "address",
          "name": "buyer",
          "type": "address"
        },
        {
          "indexed": true,
          "internalType": "uint256",
          "name": "paymentTokenAmount",
          "type": "uint256"
        },
        {
          "indexed": false,
          "internalType": "address",
          "name": "paymentToken",
          "type": "address"
        }
      ],
      "name": "AllocationReserved",
      "type": "event"
    },
    {
      "inputs": [
        {
          "internalType": "address",
          "name": "account",
          "type": "address"
        },
        {
          "internalType": "string",
          "name": "tagId",
          "type": "string"
        }
      ],
      "name": "boughtByIn",
      "outputs": [
        {
          "internalType": "uint256",
          "name": "",
          "type": "uint256"
        }
      ],
      "stateMutability": "view",
      "type": "function"
    },
    {
      "inputs": [],
      "name": "igoStage",
      "outputs": [
        {
          "internalType": "enum ISharedInternal.Stage",
          "name": "",
          "type": "uint8"
        }
      ],
      "stateMutability": "view",
      "type": "function"
    },
    {
      "inputs": [
        {
          "internalType": "string",
          "name": "tagId",
          "type": "string"
        }
      ],
      "name": "raisedInTag",
      "outputs": [
        {
          "internalType": "uint256",
          "name": "",
          "type": "uint256"
        }
      ],
      "stateMutability": "view",
      "type": "function"
    },
    {
      "inputs": [],
      "name": "setUp",
      "outputs": [
        {
          "internalType": "address",
          "name": "token",
          "type": "address"
        },
        {
          "internalType": "address",
          "name": "treasuryWallet",
          "type": "address"
        },
        {
          "internalType": "uint256",
          "name": "grandTotal",
          "type": "uint256"
        }
      ],
      "stateMutability": "view",
      "type": "function"
    },
    {
      "inputs": [],
      "name": "summedMaxTagCap",
      "outputs": [
        {
          "internalType": "uint256",
          "name": "",
          "type": "uint256"
        }
      ],
      "stateMutability": "view",
      "type": "function"
    },
    {
      "inputs": [
        {
          "internalType": "string",
          "name": "tagId",
          "type": "string"
        }
      ],
      "name": "tag",
      "outputs": [
        {
          "components": [
            {
              "internalType": "enum ISharedInternal.Stage",
              "name": "stage",
              "type": "uint8"
            },
            {
              "internalType": "bytes32",
              "name": "merkleRoot",
              "type": "bytes32"
            },
            {
              "internalType": "uint128",
              "name": "startAt",
              "type": "uint128"
            },
            {
              "internalType": "uint128",
              "name": "endAt",
              "type": "uint128"
            },
            {
              "internalType": "uint256",
              "name": "maxTagCap",
              "type": "uint256"
            },
            {
              "internalType": "address",
              "name": "paymentToken",
              "type": "address"
            },
            {
              "internalType": "uint256",
              "name": "projectTokenPrice",
              "type": "uint256"
            }
          ],
          "internalType": "struct ISharedInternal.Tag",
          "name": "tag_",
          "type": "tuple"
        }
      ],
      "stateMutability": "view",
      "type": "function"
    },
    {
      "inputs": [],
      "name": "tagIds",
      "outputs": [
        {
          "internalType": "string[]",
          "name": "tagIds_",
          "type": "string[]"
        }
      ],
      "stateMutability": "view",
      "type": "function"
    },
    {
      "inputs": [],
      "name": "totalRaised",
      "outputs": [
        {
          "internalType": "uint256",
          "name": "",
          "type": "uint256"
        }
      ],
      "stateMutability": "view",
      "type": "function"
    }
  ],
  "bytecode": {
    "object": "0x6080806040523461001657610a0d908161001c8239f35b600080fdfe608060408181526004918236101561001657600080fd5b600092833560e01c9182630a9254e4146106d1575081630fa34ede146105f85781637518d35c146104835781637eae687e146101f457508063ae00ee1f1461018f578063c5c4744c14610134578063e09195dc146100d95763ff77d0be1461007d57600080fd5b346100d5576020906100a482610092366108c6565b818451938285809451938492016109b4565b81017ff8bb2a4b5b30792eb350607495ebe7f79c5a5066287187429654459fae715b25815203019020549051908152f35b5080fd5b50346100d557817ffffffffffffffffffffffffffffffffffffffffffffffffffffffffffffffffc3601126100d5576020907ff8bb2a4b5b30792eb350607495ebe7f79c5a5066287187429654459fae715b20549051908152f35b50346100d557817ffffffffffffffffffffffffffffffffffffffffffffffffffffffffffffffffc3601126100d5576020907ff8bb2a4b5b30792eb350607495ebe7f79c5a5066287187429654459fae715b24549051908152f35b50346100d557817ffffffffffffffffffffffffffffffffffffffffffffffffffffffffffffffffc3601126100d5576020906101f260ff7ff8bb2a4b5b30792eb350607495ebe7f79c5a5066287187429654459fae715b23541691518092610978565bf35b839150346100d557817ffffffffffffffffffffffffffffffffffffffffffffffffffffffffffffffffc3601126100d5577ff8bb2a4b5b30792eb350607495ebe7f79c5a5066287187429654459fae715b2190815467ffffffffffffffff811161045757929084519060209461026f868260051b0184610885565b808352858301809585527f6fb13110a1c1a9ede6e6ea609efd6e6179fc9f1e56a50856c4379cfccb95521585915b8383106103525750505050508451938085019181865251809252858501958260051b8601019392955b8287106102d35785850386f35b90919293828080837fffffffffffffffffffffffffffffffffffffffffffffffffffffffffffffffc08a600196030186527fffffffffffffffffffffffffffffffffffffffffffffffffffffffffffffffe0601f8a5161033e815180928187528780880191016109b4565b0116010196019201960195929190926102c6565b899895969851899183549160019280841c90848116801561044d575b8b83108114610421578284528b9493929181156103e757506001146103af575b5061039d816001960382610885565b8152019201920191909795949761029d565b868e52838e2095508d905b8082106103d0575081018301945061039d61038e565b8654838301860152958501958b94909101906103ba565b7fffffffffffffffffffffffffffffffffffffffffffffffffffffffffffffff00168584015250151560051b81018301945061039d61038e565b60248f60228d7f4e487b7100000000000000000000000000000000000000000000000000000000835252fd5b91607f169161036e565b6024846041847f4e487b7100000000000000000000000000000000000000000000000000000000835252fd5b839150346100d5576104da6020610499366108c6565b8460c087516104a78161083a565b828152828582015282898201528260608201528260808201528260a08201520152818651938285809451938492016109b4565b81017ff8bb2a4b5b30792eb350607495ebe7f79c5a5066287187429654459fae715b22815203019020908351916105108361083a565b60ff81541693828510156105cc575060e094848452600182015490602085019182526002830154818601916fffffffffffffffffffffffffffffffff80938184168152606089019360801c845260038701549560808a0196875260c0600573ffffffffffffffffffffffffffffffffffffffff809b8b0154169960a08d019a8b5201549a01998a526105a48451809c610978565b5160208b015251169088015251166060860152516080850152511660a08301525160c0820152f35b806021847f4e487b71000000000000000000000000000000000000000000000000000000006024945252fd5b8284346106ce57817ffffffffffffffffffffffffffffffffffffffffffffffffffffffffffffffffc3601126106ce5782359073ffffffffffffffffffffffffffffffffffffffff82168092036106ce576024359167ffffffffffffffff948584116106ca57366023850112156106ca578301359485116100d55736602486850101116100d5579160209484836024958895527ff8bb2a4b5b30792eb350607495ebe7f79c5a5066287187429654459fae715b2685522090808651958694018437820190815203019020549051908152f35b8280fd5b80fd5b915092346106ce57807ffffffffffffffffffffffffffffffffffffffffffffffffffffffffffffffffc3601126106ce5760a082019082821067ffffffffffffffff83111761080e575060609350825273ffffffffffffffffffffffffffffffffffffffff91827ff8bb2a4b5b30792eb350607495ebe7f79c5a5066287187429654459fae715b1c541692838352807ff8bb2a4b5b30792eb350607495ebe7f79c5a5066287187429654459fae715b1d541660208401527ff8bb2a4b5b30792eb350607495ebe7f79c5a5066287187429654459fae715b1e541680828401527ff8bb2a4b5b30792eb350607495ebe7f79c5a5066287187429654459fae715b1f5492838682015260807ff8bb2a4b5b30792eb350607495ebe7f79c5a5066287187429654459fae715b205491015281519384526020840152820152f35b806041867f4e487b71000000000000000000000000000000000000000000000000000000006024945252fd5b60e0810190811067ffffffffffffffff82111761085657604052565b7f4e487b7100000000000000000000000000000000000000000000000000000000600052604160045260246000fd5b90601f7fffffffffffffffffffffffffffffffffffffffffffffffffffffffffffffffe0910116810190811067ffffffffffffffff82111761085657604052565b60207ffffffffffffffffffffffffffffffffffffffffffffffffffffffffffffffffc8201126109735767ffffffffffffffff6004358181116109735782602382011215610973578060040135918211610856576040519261095060207fffffffffffffffffffffffffffffffffffffffffffffffffffffffffffffffe0601f8601160185610885565b828452602483830101116109735781600092602460209301838601378301015290565b600080fd5b9060048210156109855752565b7f4e487b7100000000000000000000000000000000000000000000000000000000600052602160045260246000fd5b60005b8381106109c75750506000910152565b81810151838201526020016109b756fea26469706673582212203be75393639d6f0025e4d1cc42b905164dec3e57566c14aafd7e9d793c942b3464736f6c63430008110033",
    "linkReferences": {}
  },
  "methodIdentifiers": {
    "boughtByIn(address,string)": "0fa34ede",
    "igoStage()": "ae00ee1f",
    "raisedInTag(string)": "ff77d0be",
    "setUp()": "0a9254e4",
    "summedMaxTagCap()": "e09195dc",
    "tag(string)": "7518d35c",
    "tagIds()": "7eae687e",
    "totalRaised()": "c5c4744c"
  },
  "id": 51
}