{
  "abi": [
    {
      "anonymous": false,
      "inputs": [
        {
          "indexed": false,
          "internalType": "uint256",
          "name": "amount",
          "type": "uint256"
        }
      ],
      "name": "BuybackAndBurn",
      "type": "event"
    },
    {
      "anonymous": false,
      "inputs": [
        {
          "indexed": true,
          "internalType": "address",
          "name": "token",
          "type": "address"
        },
        {
          "indexed": false,
          "internalType": "uint256",
          "name": "amount",
          "type": "uint256"
        },
        {
          "indexed": false,
          "internalType": "uint256",
          "name": "time",
          "type": "uint256"
        }
      ],
      "name": "Claim",
      "type": "event"
    },
    {
      "anonymous": false,
      "inputs": [
        {
          "components": [
            {
              "internalType": "address",
              "name": "_innovator",
              "type": "address"
            },
            {
              "internalType": "address",
              "name": "_paymentReceiver",
              "type": "address"
            },
            {
              "internalType": "address",
              "name": "_admin",
              "type": "address"
            },
            {
              "internalType": "address",
              "name": "_vestedToken",
              "type": "address"
            },
            {
              "internalType": "uint256",
              "name": "_platformFee",
              "type": "uint256"
            },
            {
              "internalType": "uint256",
              "name": "_totalTokenOnSale",
              "type": "uint256"
            },
            {
              "internalType": "uint256",
              "name": "_gracePeriod",
              "type": "uint256"
            },
            {
              "internalType": "uint256",
              "name": "_decimals",
              "type": "uint256"
            }
          ],
          "indexed": false,
          "internalType": "struct IIGOVesting.ContractSetup",
          "name": "c",
          "type": "tuple"
        },
        {
          "components": [
            {
              "internalType": "uint32",
              "name": "_startTime",
              "type": "uint32"
            },
            {
              "internalType": "uint32",
              "name": "_cliff",
              "type": "uint32"
            },
            {
              "internalType": "uint32",
              "name": "_duration",
              "type": "uint32"
            },
            {
              "internalType": "uint16",
              "name": "_initialUnlockPercent",
              "type": "uint16"
            }
          ],
          "indexed": false,
          "internalType": "struct IIGOVesting.VestingSetup",
          "name": "p",
          "type": "tuple"
        }
      ],
      "name": "CrowdfundingInitialized",
      "type": "event"
    },
    {
      "anonymous": false,
      "inputs": [
        {
          "indexed": false,
          "internalType": "uint8",
          "name": "version",
          "type": "uint8"
        }
      ],
      "name": "Initialized",
      "type": "event"
    },
    {
      "anonymous": false,
      "inputs": [
        {
          "indexed": true,
          "internalType": "address",
          "name": "previousOwner",
          "type": "address"
        },
        {
          "indexed": true,
          "internalType": "address",
          "name": "newOwner",
          "type": "address"
        }
      ],
      "name": "OwnershipTransferred",
      "type": "event"
    },
    {
      "anonymous": false,
      "inputs": [
        {
          "indexed": false,
          "internalType": "uint256",
          "name": "payment",
          "type": "uint256"
        },
        {
          "indexed": false,
          "internalType": "uint256",
          "name": "remaining",
          "type": "uint256"
        }
      ],
      "name": "RaisedFundsClaimed",
      "type": "event"
    },
    {
      "anonymous": false,
      "inputs": [
        {
          "indexed": true,
          "internalType": "address",
          "name": "wallet",
          "type": "address"
        },
        {
          "indexed": false,
          "internalType": "uint256",
          "name": "amount",
          "type": "uint256"
        }
      ],
      "name": "Refund",
      "type": "event"
    },
    {
      "anonymous": false,
      "inputs": [
        {
          "indexed": false,
          "internalType": "uint256",
          "name": "_newStart",
          "type": "uint256"
        }
      ],
      "name": "SetVestingStartTime",
      "type": "event"
    },
    {
      "anonymous": false,
      "inputs": [
        {
          "indexed": true,
          "internalType": "address",
          "name": "wallet",
          "type": "address"
        },
        {
          "indexed": false,
          "internalType": "uint256",
          "name": "amount",
          "type": "uint256"
        },
        {
          "indexed": false,
          "internalType": "uint256",
          "name": "value",
          "type": "uint256"
        }
      ],
      "name": "SetWhitelist",
      "type": "event"
    },
    {
      "anonymous": false,
      "inputs": [
        {
          "indexed": false,
          "internalType": "address",
          "name": "_token",
          "type": "address"
        },
        {
          "components": [
            {
              "internalType": "uint32",
              "name": "_startTime",
              "type": "uint32"
            },
            {
              "internalType": "uint32",
              "name": "_cliff",
              "type": "uint32"
            },
            {
              "internalType": "uint32",
              "name": "_duration",
              "type": "uint32"
            },
            {
              "internalType": "uint16",
              "name": "_initialUnlockPercent",
              "type": "uint16"
            }
          ],
          "indexed": false,
          "internalType": "struct IIGOVesting.VestingSetup",
          "name": "p",
          "type": "tuple"
        }
      ],
      "name": "TokenClaimInitialized",
      "type": "event"
    },
    {
      "anonymous": false,
      "inputs": [
        {
          "indexed": false,
          "internalType": "uint256",
          "name": "_cliff",
          "type": "uint256"
        },
        {
          "indexed": false,
          "internalType": "uint256",
          "name": "_start",
          "type": "uint256"
        },
        {
          "indexed": false,
          "internalType": "uint256",
          "name": "_duration",
          "type": "uint256"
        },
        {
          "indexed": false,
          "internalType": "uint256",
          "name": "_initialUnlockPercent",
          "type": "uint256"
        }
      ],
      "name": "VestingStrategyAdded",
      "type": "event"
    },
    {
      "inputs": [],
      "name": "admin",
      "outputs": [
        {
          "internalType": "address",
          "name": "",
          "type": "address"
        }
      ],
      "stateMutability": "view",
      "type": "function"
    },
    {
      "inputs": [
        {
          "internalType": "address",
          "name": "_wallet",
          "type": "address"
        }
      ],
      "name": "claimDistribution",
      "outputs": [
        {
          "internalType": "bool",
          "name": "",
          "type": "bool"
        }
      ],
      "stateMutability": "nonpayable",
      "type": "function"
    },
    {
      "inputs": [
        {
          "internalType": "address",
          "name": "_paymentToken",
          "type": "address"
        }
      ],
      "name": "claimRaisedFunds",
      "outputs": [],
      "stateMutability": "nonpayable",
      "type": "function"
    },
    {
      "inputs": [],
      "name": "decimals",
      "outputs": [
        {
          "internalType": "uint256",
          "name": "",
          "type": "uint256"
        }
      ],
      "stateMutability": "view",
      "type": "function"
    },
    {
      "inputs": [
        {
          "internalType": "address",
          "name": "_wallet",
          "type": "address"
        }
      ],
      "name": "getReleasableAmount",
      "outputs": [
        {
          "internalType": "uint256",
          "name": "",
          "type": "uint256"
        }
      ],
      "stateMutability": "view",
      "type": "function"
    },
    {
      "inputs": [
        {
          "internalType": "address",
          "name": "_addr",
          "type": "address"
        }
      ],
      "name": "getTotalToken",
      "outputs": [
        {
          "internalType": "uint256",
          "name": "",
          "type": "uint256"
        }
      ],
      "stateMutability": "view",
      "type": "function"
    },
    {
      "inputs": [
        {
          "internalType": "address",
          "name": "_wallet",
          "type": "address"
        }
      ],
      "name": "getVestAmount",
      "outputs": [
        {
          "internalType": "uint256",
          "name": "",
          "type": "uint256"
        }
      ],
      "stateMutability": "view",
      "type": "function"
    },
    {
      "inputs": [],
      "name": "getVestingInfo",
      "outputs": [
        {
          "components": [
            {
              "internalType": "uint32",
              "name": "start",
              "type": "uint32"
            },
            {
              "internalType": "uint32",
              "name": "cliff",
              "type": "uint32"
            },
            {
              "internalType": "uint32",
              "name": "duration",
              "type": "uint32"
            },
            {
              "internalType": "uint16",
              "name": "initialUnlockPercent",
              "type": "uint16"
            }
          ],
          "internalType": "struct IIGOVesting.VestingInfo",
          "name": "",
          "type": "tuple"
        }
      ],
      "stateMutability": "view",
      "type": "function"
    },
    {
      "inputs": [
        {
          "internalType": "address",
          "name": "_wallet",
          "type": "address"
        }
      ],
      "name": "getWhitelist",
      "outputs": [
        {
          "components": [
            {
              "internalType": "address",
              "name": "wallet",
              "type": "address"
            },
            {
              "internalType": "uint32",
              "name": "joinDate",
              "type": "uint32"
            },
            {
              "internalType": "uint256",
              "name": "amount",
              "type": "uint256"
            },
            {
              "internalType": "uint256",
              "name": "distributedAmount",
              "type": "uint256"
            }
          ],
          "internalType": "struct IIGOVesting.WhitelistInfo",
          "name": "",
          "type": "tuple"
        }
      ],
      "stateMutability": "view",
      "type": "function"
    },
    {
      "inputs": [
        {
          "internalType": "uint256",
          "name": "start",
          "type": "uint256"
        },
        {
          "internalType": "uint256",
          "name": "count",
          "type": "uint256"
        }
      ],
      "name": "getWhitelistPool",
      "outputs": [
        {
          "components": [
            {
              "internalType": "address",
              "name": "wallet",
              "type": "address"
            },
            {
              "internalType": "uint32",
              "name": "joinDate",
              "type": "uint32"
            },
            {
              "internalType": "uint256",
              "name": "amount",
              "type": "uint256"
            },
            {
              "internalType": "uint256",
              "name": "distributedAmount",
              "type": "uint256"
            }
          ],
          "internalType": "struct IIGOVesting.WhitelistInfo[]",
          "name": "",
          "type": "tuple[]"
        }
      ],
      "stateMutability": "view",
      "type": "function"
    },
    {
      "inputs": [],
      "name": "gracePeriod",
      "outputs": [
        {
          "internalType": "uint256",
          "name": "",
          "type": "uint256"
        }
      ],
      "stateMutability": "view",
      "type": "function"
    },
    {
      "inputs": [
        {
          "internalType": "address",
          "name": "_wallet",
          "type": "address"
        }
      ],
      "name": "hasWhitelist",
      "outputs": [
        {
          "internalType": "bool",
          "name": "",
          "type": "bool"
        }
      ],
      "stateMutability": "view",
      "type": "function"
    },
    {
      "inputs": [
        {
          "components": [
            {
              "internalType": "address",
              "name": "_innovator",
              "type": "address"
            },
            {
              "internalType": "address",
              "name": "_paymentReceiver",
              "type": "address"
            },
            {
              "internalType": "address",
              "name": "_admin",
              "type": "address"
            },
            {
              "internalType": "address",
              "name": "_vestedToken",
              "type": "address"
            },
            {
              "internalType": "uint256",
              "name": "_platformFee",
              "type": "uint256"
            },
            {
              "internalType": "uint256",
              "name": "_totalTokenOnSale",
              "type": "uint256"
            },
            {
              "internalType": "uint256",
              "name": "_gracePeriod",
              "type": "uint256"
            },
            {
              "internalType": "uint256",
              "name": "_decimals",
              "type": "uint256"
            }
          ],
          "internalType": "struct IIGOVesting.ContractSetup",
          "name": "c",
          "type": "tuple"
        },
        {
          "components": [
            {
              "internalType": "uint32",
              "name": "_startTime",
              "type": "uint32"
            },
            {
              "internalType": "uint32",
              "name": "_cliff",
              "type": "uint32"
            },
            {
              "internalType": "uint32",
              "name": "_duration",
              "type": "uint32"
            },
            {
              "internalType": "uint16",
              "name": "_initialUnlockPercent",
              "type": "uint16"
            }
          ],
          "internalType": "struct IIGOVesting.VestingSetup",
          "name": "p",
          "type": "tuple"
        }
      ],
      "name": "initializeCrowdfunding",
      "outputs": [],
      "stateMutability": "nonpayable",
      "type": "function"
    },
    {
      "inputs": [],
      "name": "innovator",
      "outputs": [
        {
          "internalType": "address",
          "name": "",
          "type": "address"
        }
      ],
      "stateMutability": "view",
      "type": "function"
    },
    {
      "inputs": [],
      "name": "owner",
      "outputs": [
        {
          "internalType": "address",
          "name": "",
          "type": "address"
        }
      ],
      "stateMutability": "view",
      "type": "function"
    },
    {
      "inputs": [],
      "name": "paymentReceiver",
      "outputs": [
        {
          "internalType": "address",
          "name": "",
          "type": "address"
        }
      ],
      "stateMutability": "view",
      "type": "function"
    },
    {
      "inputs": [
        {
          "internalType": "string",
          "name": "",
          "type": "string"
        }
      ],
      "name": "paymentToken",
      "outputs": [
        {
          "internalType": "address",
          "name": "",
          "type": "address"
        }
      ],
      "stateMutability": "view",
      "type": "function"
    },
    {
      "inputs": [],
      "name": "platformFee",
      "outputs": [
        {
          "internalType": "uint256",
          "name": "",
          "type": "uint256"
        }
      ],
      "stateMutability": "view",
      "type": "function"
    },
    {
      "inputs": [
        {
          "internalType": "string",
          "name": "_tagId",
          "type": "string"
        }
      ],
      "name": "refund",
      "outputs": [],
      "stateMutability": "nonpayable",
      "type": "function"
    },
    {
      "inputs": [],
      "name": "renounceOwnership",
      "outputs": [],
      "stateMutability": "nonpayable",
      "type": "function"
    },
    {
      "inputs": [
        {
          "internalType": "string",
          "name": "_tagId",
          "type": "string"
        },
        {
          "internalType": "address",
          "name": "_wallet",
          "type": "address"
        },
        {
          "internalType": "uint256",
          "name": "_paymentAmount",
          "type": "uint256"
        },
        {
          "internalType": "address",
          "name": "_paymentToken",
          "type": "address"
        },
        {
          "internalType": "uint256",
          "name": "_tokenAmount",
          "type": "uint256"
        },
        {
          "internalType": "uint256",
          "name": "_refundFee",
          "type": "uint256"
        }
      ],
      "name": "setCrowdfundingWhitelist",
      "outputs": [],
      "stateMutability": "nonpayable",
      "type": "function"
    },
    {
      "inputs": [
        {
          "internalType": "address",
          "name": "_token",
          "type": "address"
        }
      ],
      "name": "setToken",
      "outputs": [],
      "stateMutability": "nonpayable",
      "type": "function"
    },
    {
      "inputs": [
        {
          "internalType": "uint32",
          "name": "_newStart",
          "type": "uint32"
        }
      ],
      "name": "setVestingStartTime",
      "outputs": [],
      "stateMutability": "nonpayable",
      "type": "function"
    },
    {
      "inputs": [
        {
          "internalType": "address",
          "name": "",
          "type": "address"
        }
      ],
      "name": "totalRaisedValue",
      "outputs": [
        {
          "internalType": "uint256",
          "name": "",
          "type": "uint256"
        }
      ],
      "stateMutability": "view",
      "type": "function"
    },
    {
      "inputs": [
        {
          "internalType": "address",
          "name": "",
          "type": "address"
        }
      ],
      "name": "totalRefundedValue",
      "outputs": [
        {
          "internalType": "uint256",
          "name": "",
          "type": "uint256"
        }
      ],
      "stateMutability": "view",
      "type": "function"
    },
    {
      "inputs": [],
      "name": "totalReturnedToken",
      "outputs": [
        {
          "internalType": "uint256",
          "name": "",
          "type": "uint256"
        }
      ],
      "stateMutability": "view",
      "type": "function"
    },
    {
      "inputs": [],
      "name": "totalTokenOnSale",
      "outputs": [
        {
          "internalType": "uint256",
          "name": "",
          "type": "uint256"
        }
      ],
      "stateMutability": "view",
      "type": "function"
    },
    {
      "inputs": [],
      "name": "totalVestedToken",
      "outputs": [
        {
          "internalType": "uint256",
          "name": "",
          "type": "uint256"
        }
      ],
      "stateMutability": "view",
      "type": "function"
    },
    {
      "inputs": [
        {
          "internalType": "address",
          "name": "newOwner",
          "type": "address"
        }
      ],
      "name": "transferOwnership",
      "outputs": [],
      "stateMutability": "nonpayable",
      "type": "function"
    },
    {
      "inputs": [
        {
          "internalType": "string",
          "name": "",
          "type": "string"
        },
        {
          "internalType": "address",
          "name": "",
          "type": "address"
        }
      ],
      "name": "userTag",
      "outputs": [
        {
          "internalType": "uint8",
          "name": "refunded",
          "type": "uint8"
        },
        {
          "internalType": "uint32",
          "name": "refundDate",
          "type": "uint32"
        },
        {
          "internalType": "uint256",
          "name": "paymentAmount",
          "type": "uint256"
        },
        {
          "internalType": "uint256",
          "name": "tokenAmount",
          "type": "uint256"
        },
        {
          "internalType": "uint256",
          "name": "refundFee",
          "type": "uint256"
        }
      ],
      "stateMutability": "view",
      "type": "function"
    },
    {
      "inputs": [],
      "name": "vestedToken",
      "outputs": [
        {
          "internalType": "contract IERC20",
          "name": "",
          "type": "address"
        }
      ],
      "stateMutability": "view",
      "type": "function"
    },
    {
      "inputs": [],
      "name": "vestingPool",
      "outputs": [
        {
          "internalType": "uint32",
          "name": "start",
          "type": "uint32"
        },
        {
          "internalType": "uint32",
          "name": "cliff",
          "type": "uint32"
        },
        {
          "internalType": "uint32",
          "name": "duration",
          "type": "uint32"
        },
        {
          "internalType": "uint16",
          "name": "initialUnlockPercent",
          "type": "uint16"
        }
      ],
      "stateMutability": "view",
      "type": "function"
    }
  ],
  "bytecode": {
    "object": "0x6080806040523461005b5760008054336001600160a01b0319821681178355916001600160a01b03909116907f8be0079c531659141344cd1fd0a4f28419497f9722a3daafe3b4186f6b6457e09080a36124a790816100618239f35b600080fdfe60808060405260048036101561001457600080fd5b600091823560e01c9081630e71dea81461184657508063144fa6d7146117da57806318126a41146116e357806326232a2e146116c55780632afd1a7d146116a1578063305b3eaf1461165c57806330edc0f5146115a1578063313ce567146115835780633154b10e1461153c57806337a97db7146112035780633ba955a61461105d5780634344f6c51461103f5780634c10a55b14610ffb5780635357a94a14610fc75780635de2974114610f9357806362015bdc14610e72578063715018a614610df45780638cdb7e8b14610da75780638da5cb5b14610d745780638e25805b14610d56578063a06db7dc14610d38578063a19d21b014610c7c578063c140240814610c5e578063cb37f3b214610c2a578063d926f1e914610745578063dc25a300146106c5578063e55573041461060c578063e63318d5146105e0578063f2fde38b14610508578063f777e00814610495578063f851a4401461045e5763fe5f2e881461018257600080fd5b3461045a576020908160031936011261045657803567ffffffffffffffff8111610452576101b39036908301611b06565b338552600384526101cd60ff600160408820015416611dfc565b338552600384526101e16040862054611e61565b509060405181848237858183810160078152030190203387528552604086209263ffffffff60015416610216600b5482611ecb565b42109081610448575b50156103eb5783549461023560ff871615611ed8565b600284015461038e5750908584939260018296015493600386015461025a9086611f3d565b600f5461026691611f50565b956102718787611f89565b984260081b64ffffffff0016907fffffffffffffffffffffffffffffffffffffffffffffffffffffff0000000000161760011781556040519585848837858701600681528773ffffffffffffffffffffffffffffffffffffffff9a8b998a930301902054168c526005855260408c20908154906102ed91611ecb565b905560020180546009549061030191611ecb565b60095554906001019081549061031691611f89565b90556040518382823787858583019260068452858133950301902054169161033d92611f96565b82604051938492833781016006815203019020541691600d541661036092611f96565b60405190815233917fbb28353e4598c3b9199101a66e0989549b659a59a54d2c27fbb183f1932c8e6d91a280f35b60649087604051917f08c379a0000000000000000000000000000000000000000000000000000000008352820152601460248201527f7573657220616c726561647920636c61696d65640000000000000000000000006044820152fd5b60648587604051917f08c379a0000000000000000000000000000000000000000000000000000000008352820152601360248201527f4e6f7420696e20677261636520706572696f64000000000000000000000000006044820152fd5b905042113861021f565b8380fd5b8280fd5b5080fd5b8234610492578060031936011261049257602073ffffffffffffffffffffffffffffffffffffffff60115416604051908152f35b80fd5b5090346104925760206003193601126104925781359067ffffffffffffffff821161049257602073ffffffffffffffffffffffffffffffffffffffff6104f4826104e136878901611bfa565b8160405193828580945193849201611c41565b810160068152030190205416604051908152f35b503461045a57602060031936011261045a57610522611a98565b9061052b611c64565b610533611c64565b73ffffffffffffffffffffffffffffffffffffffff82161561055c575061055990611ce3565b80f35b6084906020604051917f08c379a0000000000000000000000000000000000000000000000000000000008352820152602660248201527f4f776e61626c653a206e6577206f776e657220697320746865207a65726f206160448201527f64647265737300000000000000000000000000000000000000000000000000006064820152fd5b82346104925760206003193601126104925760206106046105ff611a98565b6122e1565b604051908152f35b503461045a57604060031936011261045a57803567ffffffffffffffff8111610456579161064160409260a094369101611bfa565b73ffffffffffffffffffffffffffffffffffffffff6106766020610663611ac0565b9381875193828580945193849201611c41565b810160078152030190209116825260205220805490600181015490600360028201549101549163ffffffff6040519460ff8116865260081c166020850152604084015260608301526080820152f35b82346104925780600319360112610492576106de612243565b50608060015463ffffffff9081811691604051906106fb82611b34565b8382526020820191818460201c1683528160606040830192828760401c168452019361ffff809660601c168552604051968752511660208601525116604084015251166060820152f35b503461045a5760031936016101808112610456576101008091126104565760807ffffffffffffffffffffffffffffffffffffffffffffffffffffffffffffffefc3601126104565782549160ff8360a81c161592838094610c1a575b8015610c00575b15610b7c5783740100000000000000000000000000000000000000007fffffffffffffffffffffff00ffffffffffffffffffffffffffffffffffffffff8316178655610b3a575b50359073ffffffffffffffffffffffffffffffffffffffff8216809203610452577fffffffffffffffffffffffff00000000000000000000000000000000000000009182600c541617600c5560243573ffffffffffffffffffffffffffffffffffffffff8116809103610b325782600d541617600d556044359173ffffffffffffffffffffffffffffffffffffffff83168303610b325773ffffffffffffffffffffffffffffffffffffffff83168160115416176011556064359073ffffffffffffffffffffffffffffffffffffffff8216809203610b3657601054161760105560c435600b5560a435600a55608435600e5560e435600f556108f133611ce3565b63ffffffff918261012435166101243503610b32578261010435166101043503610b32578261014435166101443503610b325761ffff61016435166101643503610b32577feba1c50b916d3abc00afb22c79b274c4a67c208994eab2b7f53b3589b7a5c43c926101809261096b6101243561010435611d50565b6001547fffffffffffffffffffffffffffffffffffff000000000000000000000000000067ffffffff000000006dffff0000000000000000000000006101643560601b169360201b16911617836101043516176bffffffff00000000000000006101443560401b1617176001557f8b2bfe599bf9e0b744a947eec87d2b85b086f600a3c5f8901ca919b9c30f034b608060405184610124351681528461010435166020820152846101443516604082015261ffff61016435166060820152a173ffffffffffffffffffffffffffffffffffffffff6040519381610a4c611a98565b16855281610a58611ac0565b16602086015216604084015273ffffffffffffffffffffffffffffffffffffffff610a81611ae3565b166060840152608435608084015260a43560a084015260c43560c084015260e43560e084015281610104351690830152806101243516610120830152610144351661014082015261ffff6101643516610160820152a1610ade5780f35b7fffffffffffffffffffff00ffffffffffffffffffffffffffffffffffffffffff81541681557f7f26b83ff96e1f2b6a682f133852f6798a09c465da95921460cefb3847402498602060405160018152a180f35b8480fd5b8580fd5b7fffffffffffffffffffff0000ffffffffffffffffffffffffffffffffffffffff167501010000000000000000000000000000000000000000178455386107ef565b6084826020604051917f08c379a0000000000000000000000000000000000000000000000000000000008352820152602e60248201527f496e697469616c697a61626c653a20636f6e747261637420697320616c72656160448201527f647920696e697469616c697a65640000000000000000000000000000000000006064820152fd5b50303b1580156107a85750600160ff8260a01c16146107a8565b50600160ff8260a01c16106107a1565b8234610492578060031936011261049257602073ffffffffffffffffffffffffffffffffffffffff600d5416604051908152f35b82346104925780600319360112610492576020600854604051908152f35b509034610492576020918260031936011261045a578273ffffffffffffffffffffffffffffffffffffffff610caf611a98565b16916024604051809481937f70a0823100000000000000000000000000000000000000000000000000000000835230908301525afa918215610d2c578092610cfc575b5050604051908152f35b9091508282813d8311610d25575b610d148183611b7f565b810103126104925750513880610cf2565b503d610d0a565b604051903d90823e3d90fd5b82346104925780600319360112610492576020600b54604051908152f35b82346104925780600319360112610492576020600954604051908152f35b823461049257806003193601126104925773ffffffffffffffffffffffffffffffffffffffff6020915416604051908152f35b82346104925760206003193601126104925760ff6001604060209373ffffffffffffffffffffffffffffffffffffffff610ddf611a98565b16815260038552200154166040519015158152f35b8234610492578060031936011261049257610e0d611c64565b8073ffffffffffffffffffffffffffffffffffffffff81547fffffffffffffffffffffffff000000000000000000000000000000000000000081168355167f8be0079c531659141344cd1fd0a4f28419497f9722a3daafe3b4186f6b6457e08280a380f35b503461045a57602060031936011261045a57610e8c611a98565b73ffffffffffffffffffffffffffffffffffffffff610eb960408284169586815260036020522054611e61565b50610ec960018201541515611ed8565b610ed28361240e565b938415610f355750836040937f34fcbac0073d7c3d388e51312faf357774904998eeb8fca628b9e6f65ee1cbf795936002610f1e9401610f13848254611ecb565b905560105416611f96565b8151908152426020820152a2602060405160018152f35b6064906020604051917f08c379a0000000000000000000000000000000000000000000000000000000008352820152600b60248201527f5a65726f20616d6f756e740000000000000000000000000000000000000000006044820152fd5b8234610492578060031936011261049257602073ffffffffffffffffffffffffffffffffffffffff60105416604051908152f35b8234610492578060031936011261049257602073ffffffffffffffffffffffffffffffffffffffff600c5416604051908152f35b503461045a57602060031936011261045a5760209160409173ffffffffffffffffffffffffffffffffffffffff611030611a98565b16825283522054604051908152f35b82346104925780600319360112610492576020600a54604051908152f35b509034610492576040600319360112610492578135602490813593611081856122b5565b9461108f6040519687611b7f565b8086527fffffffffffffffffffffffffffffffffffffffffffffffffffffffffffffffe06110bc826122b5565b01855b8181106111ec5750506110d29083611ecb565b91805b838110611160576040805160208082528951818301819052818b01938301918a5b8281106111035784840385f35b909192826080826111516001948a516060809173ffffffffffffffffffffffffffffffffffffffff815116845263ffffffff6020820151166020850152604081015160408501520151910152565b019601910194929190946110f6565b61119161116c82611e61565b5061118061117a8585611f89565b91612268565b61118a828b6122cd565b52886122cd565b507fffffffffffffffffffffffffffffffffffffffffffffffffffffffffffffffff81146111c1576001016110d5565b84866011857f4e487b7100000000000000000000000000000000000000000000000000000000835252fd5b6020906111f7612243565b82828b010152016110bf565b503461045a5760c060031936011261045a57803567ffffffffffffffff8111610456576112339036908301611b06565b9061123c611ac0565b9160443591611249611ae3565b9460843594611256611c64565b73ffffffffffffffffffffffffffffffffffffffff809116968789526020946003865260408a209060405181878237878183810160078152030190208a8c5287528660408c20968560405184838237838186810160068152030190205416156114f7575b50505060018101805460ff166114ac5760017fffffffffffffffffffffffffffffffffffffffffffffffffffffffffffffff008254161790556002548091556040519061130682611b34565b89825286820163ffffffff4216815260408301908a825260608401928d845268010000000000000000811015611480578060016113469201600255611e61565b949094611455579286949260029260409c9a987fdb76cc8d16d8e51a4a8b73f914539ac9f9e4e42ff5f0140ddd580c48e89477989e9c9a989651167fffffffffffffffff00000000000000000000000000000000000000000000000077ffffffff0000000000000000000000000000000000000000875493837fffffffffffffffffffffffff000000000000000000000000000000000000000086161789555160a01b16921617178455516001840155519101555b168952825284882061140e848254611ecb565b905561141c84600854611ecb565b6008556001810161142e848254611ecb565b90556002810161143f858254611ecb565b9055600360a4359101558351928352820152a280f35b60248e808a7f4e487b7100000000000000000000000000000000000000000000000000000000825252fd5b60248e60418a7f4e487b7100000000000000000000000000000000000000000000000000000000835252fd5b50917fdb76cc8d16d8e51a4a8b73f914539ac9f9e4e42ff5f0140ddd580c48e89477989795939160016114e3604099979554611e61565b50016114f0888254611ecb565b90556113fb565b826040519384928337810160068152030190208383167fffffffffffffffffffffffff00000000000000000000000000000000000000008254161790553886816112ba565b8234610492578060031936011261049257608060015461ffff6040519163ffffffff8082168452808260201c1660208501528160401c16604084015260601c166060820152f35b82346104925780600319360112610492576020600f54604051908152f35b82346104925760206003193601126104925761161361160d604060809373ffffffffffffffffffffffffffffffffffffffff6115db611a98565b6115e3612243565b501680825260036020526115ff60ff6001858520015416611dfc565b815260036020522054611e61565b50612268565b61165a60405180926060809173ffffffffffffffffffffffffffffffffffffffff815116845263ffffffff6020820151166020850152604081015160408501520151910152565bf35b823461049257602060031936011261049257604060209173ffffffffffffffffffffffffffffffffffffffff611690611a98565b168152600583522054604051908152f35b82346104925760206003193601126104925760206106046116c0611a98565b61240e565b82346104925780600319360112610492576020600e54604051908152f35b5090346104925760206003193601126104925763ffffffff8235818116918282036104525761172b73ffffffffffffffffffffffffffffffffffffffff601154163314611d97565b60015491818316828460201c16039182116117ae5791837fffffffffffffffffffffffffffffffffffffffffffffffff000000000000000067ffffffff0000000061179a7fff8711dd93e6fc7dadd01b3277e5f30916069e3b3647013462e142f8ea22dd539795602097611d50565b861b1692161717600155604051908152a180f35b6024856011887f4e487b7100000000000000000000000000000000000000000000000000000000835252fd5b8234610492576020600319360112610492576117f4611a98565b73ffffffffffffffffffffffffffffffffffffffff9061181982601154163314611d97565b167fffffffffffffffffffffffff0000000000000000000000000000000000000000601054161760105580f35b9050346104565760208060031936011261045257611862611a98565b9273ffffffffffffffffffffffffffffffffffffffff9081600c541693843303611a3f575061189c600b5463ffffffff6001541690611ecb565b4211156119e257818060105416951694851461198557916040939185937f6414532af447bc814fac232567913fadd11eb1714ee73e08ab1f005a893a9a0096885282526118f485882054600584528689205490611f89565b61191661190f611906600e5484611f3d565b600f5490611f50565b8092611f89565b94600954948680611974575b505084611957575b600e54611941575b5050508351928352820152a180f35b61194f92600d541690611f96565b388080611932565b61196b85846010541685600c541690611f96565b8860095561192a565b61197e9183611f96565b3886611922565b60649083604051917f08c379a0000000000000000000000000000000000000000000000000000000008352820152601560248201527f696e76616c6964207061796d656e7420746f6b656e00000000000000000000006044820152fd5b60649083604051917f08c379a0000000000000000000000000000000000000000000000000000000008352820152601860248201527f677261636520706572696f6420696e2070726f677265737300000000000000006044820152fd5b836064927f08c379a0000000000000000000000000000000000000000000000000000000008352820152600e60248201527f496e76616c6964206163636573730000000000000000000000000000000000006044820152fd5b6004359073ffffffffffffffffffffffffffffffffffffffff82168203611abb57565b600080fd5b6024359073ffffffffffffffffffffffffffffffffffffffff82168203611abb57565b6064359073ffffffffffffffffffffffffffffffffffffffff82168203611abb57565b9181601f84011215611abb5782359167ffffffffffffffff8311611abb5760208381860195010111611abb57565b6080810190811067ffffffffffffffff821117611b5057604052565b7f4e487b7100000000000000000000000000000000000000000000000000000000600052604160045260246000fd5b90601f7fffffffffffffffffffffffffffffffffffffffffffffffffffffffffffffffe0910116810190811067ffffffffffffffff821117611b5057604052565b67ffffffffffffffff8111611b5057601f017fffffffffffffffffffffffffffffffffffffffffffffffffffffffffffffffe01660200190565b81601f82011215611abb57803590611c1182611bc0565b92611c1f6040519485611b7f565b82845260208383010111611abb57816000926020809301838601378301015290565b60005b838110611c545750506000910152565b8181015183820152602001611c44565b73ffffffffffffffffffffffffffffffffffffffff600054163303611c8557565b60646040517f08c379a000000000000000000000000000000000000000000000000000000000815260206004820152602060248201527f4f776e61626c653a2063616c6c6572206973206e6f7420746865206f776e65726044820152fd5b6000549073ffffffffffffffffffffffffffffffffffffffff80911691827fffffffffffffffffffffffff0000000000000000000000000000000000000000821617600055167f8be0079c531659141344cd1fd0a4f28419497f9722a3daafe3b4186f6b6457e0600080a3565b91909163ffffffff80809416911601918211611d6857565b7f4e487b7100000000000000000000000000000000000000000000000000000000600052601160045260246000fd5b15611d9e57565b60646040517f08c379a000000000000000000000000000000000000000000000000000000000815260206004820152600a60248201527f4f6e6c792061646d696e000000000000000000000000000000000000000000006044820152fd5b15611e0357565b60646040517f08c379a000000000000000000000000000000000000000000000000000000000815260206004820152601060248201527f4e6f7420696e2077686974656c697374000000000000000000000000000000006044820152fd5b600254811015611e9c576003906002600052027f405787fa12a823e0f2b7631cc41b3ba8828b3321ca811111fa75cd3aa3bb5ace0190600090565b7f4e487b7100000000000000000000000000000000000000000000000000000000600052603260045260246000fd5b91908201809211611d6857565b15611edf57565b60646040517f08c379a000000000000000000000000000000000000000000000000000000000815260206004820152601560248201527f7573657220616c726561647920726566756e64656400000000000000000000006044820152fd5b81810292918115918404141715611d6857565b8115611f5a570490565b7f4e487b7100000000000000000000000000000000000000000000000000000000600052601260045260246000fd5b91908203918211611d6857565b91604091825190602094858301937fa9059cbb00000000000000000000000000000000000000000000000000000000855273ffffffffffffffffffffffffffffffffffffffff8093166024850152604484015260448352611ff683611b34565b168351908482019282841067ffffffffffffffff851117611b50576120769386528683527f5361666545524332303a206c6f772d6c6576656c2063616c6c206661696c656487840152600080958192519082855af13d15612139573d9161205c83611bc0565b9261206988519485611b7f565b83523d868985013e61213d565b805191821591858315612115575b505050905015612092575050565b6084925051907f08c379a00000000000000000000000000000000000000000000000000000000082526004820152602a60248201527f5361666545524332303a204552433230206f7065726174696f6e20646964206e60448201527f6f742073756363656564000000000000000000000000000000000000000000006064820152fd5b91938180945001031261045a57830151908115158203610492575080388085612084565b6060915b919290156121b85750815115612151575090565b3b1561215a5790565b60646040517f08c379a000000000000000000000000000000000000000000000000000000000815260206004820152601d60248201527f416464726573733a2063616c6c20746f206e6f6e2d636f6e74726163740000006044820152fd5b8251909150156121cb5750805190602001fd5b6044601f917fffffffffffffffffffffffffffffffffffffffffffffffffffffffffffffffe06040519384927f08c379a00000000000000000000000000000000000000000000000000000000084526020600485015261223a8151809281602488015260208888019101611c41565b01168101030190fd5b6040519061225082611b34565b60006060838281528260208201528260408201520152565b9060405161227581611b34565b60606002829463ffffffff815473ffffffffffffffffffffffffffffffffffffffff8116865260a01c166020850152600181015460408501520154910152565b67ffffffffffffffff8111611b505760051b60200190565b8051821015611e9c5760209160051b010190565b61231d9073ffffffffffffffffffffffffffffffffffffffff8116600052600360205261231860ff60016040600020015416611dfc565b612320565b90565b73ffffffffffffffffffffffffffffffffffffffff166000526003602052600161234e604060002054611e61565b500154600154906103e861236961ffff8460601c1683611f3d565b049163ffffffff908181164210156123845750505050600090565b60201c16421015612393575090565b61231d91506001546103e86123af61ffff8360601c1684611f3d565b04906123bb8284611f89565b63ffffffff9182808260201c169160401c16926123d88483611d50565b1642106123e6575050505090565b61231d945061240892916123fd6124039242611f89565b90611f3d565b611f50565b90611ecb565b61231d9073ffffffffffffffffffffffffffffffffffffffff811680600052600360205261244660ff60016040600020015416611dfc565b60005260036020526002612468612462604060002054936122e1565b92611e61565b50015490611f8956fea2646970667358221220f0a36c240367f44339e1fa0bedf88d2f522a103ca879c1354a5ed94290ffff8464736f6c63430008110033",
    "linkReferences": {}
  },
  "methodIdentifiers": {
    "admin()": "f851a440",
    "claimDistribution(address)": "62015bdc",
    "claimRaisedFunds(address)": "0e71dea8",
    "decimals()": "313ce567",
    "getReleasableAmount(address)": "2afd1a7d",
    "getTotalToken(address)": "a19d21b0",
    "getVestAmount(address)": "e63318d5",
    "getVestingInfo()": "dc25a300",
    "getWhitelist(address)": "30edc0f5",
    "getWhitelistPool(uint256,uint256)": "3ba955a6",
    "gracePeriod()": "a06db7dc",
    "hasWhitelist(address)": "8cdb7e8b",
    "initializeCrowdfunding((address,address,address,address,uint256,uint256,uint256,uint256),(uint32,uint32,uint32,uint16))": "d926f1e9",
    "innovator()": "5357a94a",
    "owner()": "8da5cb5b",
    "paymentReceiver()": "cb37f3b2",
    "paymentToken(string)": "f777e008",
    "platformFee()": "26232a2e",
    "refund(string)": "fe5f2e88",
    "renounceOwnership()": "715018a6",
    "setCrowdfundingWhitelist(string,address,uint256,address,uint256,uint256)": "37a97db7",
    "setToken(address)": "144fa6d7",
    "setVestingStartTime(uint32)": "18126a41",
    "totalRaisedValue(address)": "4c10a55b",
    "totalRefundedValue(address)": "305b3eaf",
    "totalReturnedToken()": "8e25805b",
    "totalTokenOnSale()": "4344f6c5",
    "totalVestedToken()": "c1402408",
    "transferOwnership(address)": "f2fde38b",
    "userTag(string,address)": "e5557304",
    "vestedToken()": "5de29741",
    "vestingPool()": "3154b10e"
  },
  "id": 47
}