{
  "abi": [
    {
      "inputs": [
        {
          "internalType": "enum ISharedInternal.Status",
          "name": "current",
          "type": "uint8"
        }
      ],
      "name": "IGOWritableInternal_IGONotOpened",
      "type": "error"
    },
    {
      "inputs": [
        {
          "internalType": "string",
          "name": "tagId",
          "type": "string"
        },
        {
          "internalType": "enum ISharedInternal.Status",
          "name": "current",
          "type": "uint8"
        }
      ],
      "name": "IGOWritableInternal_TagNotOpened",
      "type": "error"
    },
    {
      "inputs": [
        {
          "internalType": "uint256",
          "name": "allocation",
          "type": "uint256"
        },
        {
          "internalType": "uint256",
          "name": "exceedsBy",
          "type": "uint256"
        }
      ],
      "name": "IGOWritable_AllocationExceeded",
      "type": "error"
    },
    {
      "inputs": [
        {
          "internalType": "uint256",
          "name": "grandTotal",
          "type": "uint256"
        },
        {
          "internalType": "uint256",
          "name": "exceedsBy",
          "type": "uint256"
        }
      ],
      "name": "IGOWritable_GrandTotalExceeded",
      "type": "error"
    },
    {
      "inputs": [
        {
          "internalType": "string",
          "name": "tagId",
          "type": "string"
        },
        {
          "internalType": "uint256",
          "name": "maxTagCap",
          "type": "uint256"
        },
        {
          "internalType": "uint256",
          "name": "exceedsBy",
          "type": "uint256"
        }
      ],
      "name": "IGOWritable_MaxTagCapExceeded",
      "type": "error"
    },
    {
      "inputs": [],
      "name": "IGOWritable_NoPaymentTokenOrPriceUpdate",
      "type": "error"
    },
    {
      "inputs": [],
      "name": "IGOWritable_ProjectTokenPrice_ZERO",
      "type": "error"
    },
    {
      "inputs": [
        {
          "internalType": "uint256",
          "name": "greaterBy",
          "type": "uint256"
        }
      ],
      "name": "IGOWritable_SummedMaxTagCapGtGrandTotal",
      "type": "error"
    },
    {
      "anonymous": false,
      "inputs": [
        {
          "indexed": true,
          "internalType": "string",
          "name": "tagId",
          "type": "string"
        },
        {
          "indexed": true,
          "internalType": "address",
          "name": "buyer",
          "type": "address"
        },
        {
          "indexed": true,
          "internalType": "uint256",
          "name": "maxAllocation",
          "type": "uint256"
        },
        {
          "indexed": false,
          "internalType": "address",
          "name": "paymentToken",
          "type": "address"
        }
      ],
      "name": "AllocationReserved",
      "type": "event"
    },
    {
      "anonymous": false,
      "inputs": [
        {
          "indexed": false,
          "internalType": "uint8",
          "name": "version",
          "type": "uint8"
        }
      ],
      "name": "Initialized",
      "type": "event"
    },
    {
      "anonymous": false,
      "inputs": [
        {
          "indexed": true,
          "internalType": "address",
          "name": "previousOwner",
          "type": "address"
        },
        {
          "indexed": true,
          "internalType": "address",
          "name": "newOwner",
          "type": "address"
        }
      ],
      "name": "OwnershipTransferred",
      "type": "event"
    },
    {
      "inputs": [
        {
          "internalType": "address",
          "name": "owner",
          "type": "address"
        },
        {
          "components": [
            {
              "internalType": "address",
              "name": "vestingContract",
              "type": "address"
            },
            {
              "internalType": "address",
              "name": "paymentToken",
              "type": "address"
            },
            {
              "internalType": "address",
              "name": "permit2",
              "type": "address"
            },
            {
              "internalType": "uint256",
              "name": "grandTotal",
              "type": "uint256"
            },
            {
              "internalType": "uint256",
              "name": "summedMaxTagCap",
              "type": "uint256"
            },
            {
              "internalType": "uint256",
              "name": "refundFeeDecimals",
              "type": "uint256"
            }
          ],
          "internalType": "struct IGOStorage.SetUp",
          "name": "setUp",
          "type": "tuple"
        },
        {
          "internalType": "string[]",
          "name": "tagIds_",
          "type": "string[]"
        },
        {
          "components": [
            {
              "internalType": "enum ISharedInternal.Status",
              "name": "status",
              "type": "uint8"
            },
            {
              "internalType": "bytes32",
              "name": "merkleRoot",
              "type": "bytes32"
            },
            {
              "internalType": "uint128",
              "name": "startAt",
              "type": "uint128"
            },
            {
              "internalType": "uint128",
              "name": "endAt",
              "type": "uint128"
            },
            {
              "internalType": "uint256",
              "name": "maxTagCap",
              "type": "uint256"
            },
            {
              "internalType": "address",
              "name": "paymentToken",
              "type": "address"
            },
            {
              "internalType": "uint256",
              "name": "projectTokenPrice",
              "type": "uint256"
            }
          ],
          "internalType": "struct ISharedInternal.Tag[]",
          "name": "tags",
          "type": "tuple[]"
        }
      ],
      "name": "initialize",
      "outputs": [],
      "stateMutability": "nonpayable",
      "type": "function"
    },
    {
      "inputs": [],
      "name": "openIGO",
      "outputs": [],
      "stateMutability": "nonpayable",
      "type": "function"
    },
    {
      "inputs": [
        {
          "internalType": "string",
          "name": "tagId",
          "type": "string"
        }
      ],
      "name": "openTag",
      "outputs": [],
      "stateMutability": "nonpayable",
      "type": "function"
    },
    {
      "inputs": [],
      "name": "owner",
      "outputs": [
        {
          "internalType": "address",
          "name": "",
          "type": "address"
        }
      ],
      "stateMutability": "view",
      "type": "function"
    },
    {
      "inputs": [],
      "name": "pauseIGO",
      "outputs": [],
      "stateMutability": "nonpayable",
      "type": "function"
    },
    {
      "inputs": [
        {
          "internalType": "string",
          "name": "tagId",
          "type": "string"
        }
      ],
      "name": "pauseTag",
      "outputs": [],
      "stateMutability": "nonpayable",
      "type": "function"
    },
    {
      "inputs": [
        {
          "internalType": "address",
          "name": "token",
          "type": "address"
        },
        {
          "internalType": "address",
          "name": "to",
          "type": "address"
        }
      ],
      "name": "recoverLostERC20",
      "outputs": [],
      "stateMutability": "nonpayable",
      "type": "function"
    },
    {
      "inputs": [],
      "name": "renounceOwnership",
      "outputs": [],
      "stateMutability": "nonpayable",
      "type": "function"
    },
    {
      "inputs": [
        {
          "internalType": "uint256",
          "name": "amount",
          "type": "uint256"
        },
        {
          "components": [
            {
              "internalType": "string",
              "name": "tagId",
              "type": "string"
            },
            {
              "internalType": "address",
              "name": "account",
              "type": "address"
            },
            {
              "internalType": "uint256",
              "name": "maxAllocation",
              "type": "uint256"
            },
            {
              "internalType": "uint256",
              "name": "refundFee",
              "type": "uint256"
            }
          ],
          "internalType": "struct IIGOWritableInternal.Allocation",
          "name": "allocation",
          "type": "tuple"
        },
        {
          "internalType": "bytes32[]",
          "name": "proof",
          "type": "bytes32[]"
        },
        {
          "components": [
            {
              "internalType": "bytes",
              "name": "signature",
              "type": "bytes"
            },
            {
              "internalType": "uint256",
              "name": "deadline",
              "type": "uint256"
            },
            {
              "internalType": "uint256",
              "name": "nonce",
              "type": "uint256"
            }
          ],
          "internalType": "struct IIGOWritableInternal.BuyPermission",
          "name": "permission",
          "type": "tuple"
        }
      ],
      "name": "reserveAllocation",
      "outputs": [],
      "stateMutability": "nonpayable",
      "type": "function"
    },
    {
      "inputs": [
        {
          "internalType": "address",
          "name": "newOwner",
          "type": "address"
        }
      ],
      "name": "transferOwnership",
      "outputs": [],
      "stateMutability": "nonpayable",
      "type": "function"
    },
    {
      "inputs": [
        {
          "internalType": "uint256",
          "name": "grandTotal_",
          "type": "uint256"
        }
      ],
      "name": "updateGrandTotal",
      "outputs": [],
      "stateMutability": "nonpayable",
      "type": "function"
    },
    {
      "inputs": [
        {
          "internalType": "string",
          "name": "tagId_",
          "type": "string"
        },
        {
          "components": [
            {
              "internalType": "enum ISharedInternal.Status",
              "name": "status",
              "type": "uint8"
            },
            {
              "internalType": "bytes32",
              "name": "merkleRoot",
              "type": "bytes32"
            },
            {
              "internalType": "uint128",
              "name": "startAt",
              "type": "uint128"
            },
            {
              "internalType": "uint128",
              "name": "endAt",
              "type": "uint128"
            },
            {
              "internalType": "uint256",
              "name": "maxTagCap",
              "type": "uint256"
            },
            {
              "internalType": "address",
              "name": "paymentToken",
              "type": "address"
            },
            {
              "internalType": "uint256",
              "name": "projectTokenPrice",
              "type": "uint256"
            }
          ],
          "internalType": "struct ISharedInternal.Tag",
          "name": "tag_",
          "type": "tuple"
        }
      ],
      "name": "updateSetTag",
      "outputs": [],
      "stateMutability": "nonpayable",
      "type": "function"
    },
    {
      "inputs": [
        {
          "internalType": "string[]",
          "name": "tagIdentifiers_",
          "type": "string[]"
        },
        {
          "components": [
            {
              "internalType": "enum ISharedInternal.Status",
              "name": "status",
              "type": "uint8"
            },
            {
              "internalType": "bytes32",
              "name": "merkleRoot",
              "type": "bytes32"
            },
            {
              "internalType": "uint128",
              "name": "startAt",
              "type": "uint128"
            },
            {
              "internalType": "uint128",
              "name": "endAt",
              "type": "uint128"
            },
            {
              "internalType": "uint256",
              "name": "maxTagCap",
              "type": "uint256"
            },
            {
              "internalType": "address",
              "name": "paymentToken",
              "type": "address"
            },
            {
              "internalType": "uint256",
              "name": "projectTokenPrice",
              "type": "uint256"
            }
          ],
          "internalType": "struct ISharedInternal.Tag[]",
          "name": "tags_",
          "type": "tuple[]"
        }
      ],
      "name": "updateSetTags",
      "outputs": [],
      "stateMutability": "nonpayable",
      "type": "function"
    },
    {
      "inputs": [
        {
          "internalType": "string",
          "name": "tagId",
          "type": "string"
        },
        {
          "internalType": "uint128",
          "name": "endAt",
          "type": "uint128"
        }
      ],
      "name": "updateTagEndDate",
      "outputs": [],
      "stateMutability": "nonpayable",
      "type": "function"
    },
    {
      "inputs": [
        {
          "internalType": "string",
          "name": "tagId",
          "type": "string"
        },
        {
          "internalType": "uint256",
          "name": "maxTagCap",
          "type": "uint256"
        }
      ],
      "name": "updateTagMaxCap",
      "outputs": [],
      "stateMutability": "nonpayable",
      "type": "function"
    },
    {
      "inputs": [
        {
          "internalType": "string",
          "name": "tagId",
          "type": "string"
        },
        {
          "internalType": "bytes32",
          "name": "merkleRoot",
          "type": "bytes32"
        }
      ],
      "name": "updateTagMerkleRoot",
      "outputs": [],
      "stateMutability": "nonpayable",
      "type": "function"
    },
    {
      "inputs": [
        {
          "internalType": "string",
          "name": "tagId",
          "type": "string"
        },
        {
          "internalType": "uint128",
          "name": "startAt",
          "type": "uint128"
        }
      ],
      "name": "updateTagStartDate",
      "outputs": [],
      "stateMutability": "nonpayable",
      "type": "function"
    }
  ],
  "bytecode": {
    "object": "0x60808060405234610074576000805462010000600160b01b0319811633601081811b62010000600160b01b03169290921784559291901c6001600160a01b0316907f8be0079c531659141344cd1fd0a4f28419497f9722a3daafe3b4186f6b6457e09080a360018055613752908161007a8239f35b600080fdfe6080604052600436101561001257600080fd5b6000803560e01c806302912bd314611def5780631bcaddc214611d8957806328d5796f1461107d5780635625671e14610fff5780635a5fdab714610f99578063715018a614610f17578063852c49a714610eb6578063897c1b79146108d45780638da5cb5b1461089e578063907d3085146107eb57806398e3fdc414610778578063db365f8414610697578063e6807afd146105cc578063f1efb931146104f8578063f2fde38b1461042d578063f86df59b146103c75763faf0c581146100d857600080fd5b346103c45760406003193601126103c4576100f16124cd565b602480359173ffffffffffffffffffffffffffffffffffffffff908184168094036103bf5761011e61256d565b16801561036157604051907f70a0823100000000000000000000000000000000000000000000000000000000825230600483015260209384838581855afa928315610356578693610323575b5060405192858401917fa9059cbb00000000000000000000000000000000000000000000000000000000835285850152604484015260448352608083019280841067ffffffffffffffff8511176102f55786849392819261022c966040526101d1866127cf565b8886527f5361666545524332303a206c6f772d6c6576656c2063616c6c206661696c656460a0820152519082855af13d156102ed573d91610211836129d8565b9261021f60405194856127eb565b83523d888885013e612dff565b80518381159182156102c9575b5050905015610246578280f35b90602a608492604051927f08c379a000000000000000000000000000000000000000000000000000000000845260048401528201527f5361666545524332303a204552433230206f7065726174696f6e20646964206e60448201527f6f742073756363656564000000000000000000000000000000000000000000006064820152fd5b83809293500103126102e95782015180151581036102e957808338610239565b8380fd5b606091612dff565b847f4e487b710000000000000000000000000000000000000000000000000000000060005260416004526000fd5b9092508481813d831161034f575b61033b81836127eb565b8101031261034b5751913861016a565b8580fd5b503d610331565b6040513d88823e3d90fd5b6064826012604051917f08c379a0000000000000000000000000000000000000000000000000000000008352602060048401528201527f546f6b656e5f5a45524f5f4144445245535300000000000000000000000000006044820152fd5b600080fd5b80fd5b50346103c45760406003193601126103c45767ffffffffffffffff600435818111610429576103fa90369060040161249c565b906024359283116102e9576104166104269336906004016124f0565b92909161042161256d565b612f42565b80f35b8280fd5b50346103c45760206003193601126103c4576104476124cd565b61044f61256d565b73ffffffffffffffffffffffffffffffffffffffff81161561047457610426906125ef565b60846040517f08c379a000000000000000000000000000000000000000000000000000000000815260206004820152602660248201527f4f776e61626c653a206e6577206f776e657220697320746865207a65726f206160448201527f64647265737300000000000000000000000000000000000000000000000000006064820152fd5b50346103c45760206003193601126103c45760043561051561256d565b6103e8811061056e57610549817ff8bb2a4b5b30792eb350607495ebe7f79c5a5066287187429654459fae715b20546136d7565b7ff8bb2a4b5b30792eb350607495ebe7f79c5a5066287187429654459fae715b1f5580f35b60646040517f08c379a000000000000000000000000000000000000000000000000000000000815260206004820152601b60248201527f6772616e64546f74616c5f4c6f7765725468616e5f5f315f30303000000000006044820152fd5b50346103c4576fffffffffffffffffffffffffffffffff6105ec36612521565b6105f89391929361256d565b16914283106106395760029161060d916126cb565b01907fffffffffffffffffffffffffffffffff0000000000000000000000000000000082541617905580f35b60646040517f08c379a000000000000000000000000000000000000000000000000000000000815260206004820152600d60248201527f53544152545f494e5f50415354000000000000000000000000000000000000006044820152fd5b50346103c4576106a636612521565b906106af61256d565b426fffffffffffffffffffffffffffffffff8316111561071a576106d8600291610426946126cb565b01906fffffffffffffffffffffffffffffffff7fffffffffffffffffffffffffffffffff0000000000000000000000000000000083549260801b169116179055565b60646040517f08c379a000000000000000000000000000000000000000000000000000000000815260206004820152600b60248201527f454e445f494e5f504153540000000000000000000000000000000000000000006044820152fd5b50346103c45760206003193601126103c45760043567ffffffffffffffff81116107e7576107ad6107bb91369060040161246e565b906107b661256d565b6126cb565b60037fffffffffffffffffffffffffffffffffffffffffffffffffffffffffffffff0082541617905580f35b5080fd5b50346103c45760406003193601126103c45760043567ffffffffffffffff81116107e75761081d90369060040161246e565b6024359161082961256d565b82156108405760019161083b916126cb565b015580f35b60646040517f08c379a000000000000000000000000000000000000000000000000000000000815260206004820152601060248201527f4d65726b6c65526f6f745f454d505459000000000000000000000000000000006044820152fd5b50346103c457806003193601126103c45773ffffffffffffffffffffffffffffffffffffffff6020915460101c16604051908152f35b50346103c4576101206003193601126103c4576108ef6124cd565b60c07fffffffffffffffffffffffffffffffffffffffffffffffffffffffffffffffdc3601126107e75767ffffffffffffffff9060e4358281116102e95761093b90369060040161249c565b909261010435908111610eb2576109569036906004016124f0565b9185549460ff8660081c161595868097610ea5575b8015610e8e575b15610e0a578660017fffffffffffffffffffffffffffffffffffffffffffffffffffffffffffffff008316178955610ddc575b506109ae61256d565b73ffffffffffffffffffffffffffffffffffffffff80861615610d7e57806109d461294e565b1615610cfa57806109e3612971565b1615610c7657806109f2612994565b1615610bf257608435908115610b9457610a0e610b39976125ef565b80610a1761294e565b16907fffffffffffffffffffffffff0000000000000000000000000000000000000000917ff8bb2a4b5b30792eb350607495ebe7f79c5a5066287187429654459fae715b1c908382541617905580610a6d612971565b167ff8bb2a4b5b30792eb350607495ebe7f79c5a5066287187429654459fae715b1d9083825416179055610a9f612994565b167ff8bb2a4b5b30792eb350607495ebe7f79c5a5066287187429654459fae715b1e918254161790557ff8bb2a4b5b30792eb350607495ebe7f79c5a5066287187429654459fae715b1f5560a4357ff8bb2a4b5b30792eb350607495ebe7f79c5a5066287187429654459fae715b205560c4357ff8bb2a4b5b30792eb350607495ebe7f79c5a5066287187429654459fae715b2155612f42565b610b405780f35b7fffffffffffffffffffffffffffffffffffffffffffffffffffffffffffff00ff81541681557f7f26b83ff96e1f2b6a682f133852f6798a09c465da95921460cefb3847402498602060405160018152a180f35b60646040517f08c379a000000000000000000000000000000000000000000000000000000000815260206004820152601c60248201527f49474f5772697461626c655f5f6772616e64546f74616c5f5a45524f000000006044820152fd5b60846040517f08c379a000000000000000000000000000000000000000000000000000000000815260206004820152602160248201527f49474f5772697461626c655f5f7065726d6974325f5a45524f5f41444452455360448201527f53000000000000000000000000000000000000000000000000000000000000006064820152fd5b60846040517f08c379a000000000000000000000000000000000000000000000000000000000815260206004820152602660248201527f49474f5772697461626c655f5f7061796d656e74546f6b656e5f5a45524f5f4160448201527f44445245535300000000000000000000000000000000000000000000000000006064820152fd5b60846040517f08c379a000000000000000000000000000000000000000000000000000000000815260206004820152602960248201527f49474f5772697461626c655f5f76657374696e67436f6e74726163745f5a455260448201527f4f5f4144445245535300000000000000000000000000000000000000000000006064820152fd5b60646040517f08c379a000000000000000000000000000000000000000000000000000000000815260206004820152601f60248201527f49474f5772697461626c655f5f6f776e65725f5a45524f5f41444452455353006044820152fd5b7fffffffffffffffffffffffffffffffffffffffffffffffffffffffffffff000016610101178755386109a5565b60846040517f08c379a000000000000000000000000000000000000000000000000000000000815260206004820152602e60248201527f496e697469616c697a61626c653a20636f6e747261637420697320616c72656160448201527f647920696e697469616c697a65640000000000000000000000000000000000006064820152fd5b50303b1580156109725750600160ff821614610972565b50600160ff82161061096b565b8480fd5b50346103c45760206003193601126103c45760043567ffffffffffffffff81116107e7576107ad610eeb91369060040161246e565b60017fffffffffffffffffffffffffffffffffffffffffffffffffffffffffffffff0082541617905580f35b50346103c457806003193601126103c457610f3061256d565b600073ffffffffffffffffffffffffffffffffffffffff81547fffffffffffffffffffff0000000000000000000000000000000000000000ffff8116835560101c167f8be0079c531659141344cd1fd0a4f28419497f9722a3daafe3b4186f6b6457e08280a380f35b50346103c457806003193601126103c457610fb261256d565b7ff8bb2a4b5b30792eb350607495ebe7f79c5a5066287187429654459fae715b2460017fffffffffffffffffffffffffffffffffffffffffffffffffffffffffffffff0082541617905580f35b50346103c45760406003193601126103c45760043567ffffffffffffffff81116107e757600361103661083b92369060040161246e565b602435939161104361256d565b6107b661104e61282c565b60606110748861106f60808501518a6110678a8a6126cb565b015490612b92565b612a88565b910151906136d7565b50346103c4576003196080813601126107e75767ffffffffffffffff602435116107e757608081602435360301126107e75760443567ffffffffffffffff8111610429576110cf90369060040161249c565b6064929192359167ffffffffffffffff8311610eb25760609083360301126102e957600260015414611d2b57600260015561110f6004602435018061267a565b61111981836126cb565b906040519161112783612754565b60ff8154166004811015611cfe579060059184526001810154602085015260028101546fffffffffffffffffffffffffffffffff8116604086015260801c60608501526003810154608085015273ffffffffffffffffffffffffffffffffffffffff60048201541660a0850152015460c08301526111a361282c565b9460808301519560608101519661121b61121261120b6111c660248035016129b7565b73ffffffffffffffffffffffffffffffffffffffff166000527ff8bb2a4b5b30792eb350607495ebe7f79c5a5066287187429654459fae715b27602052604060002090565b868961273b565b54600435612a88565b604460243501358111611cb3575061123660248035016129b7565b73ffffffffffffffffffffffffffffffffffffffff33911603611c55576112807ff8bb2a4b5b30792eb350607495ebe7f79c5a5066287187429654459fae715b2554600435612a88565b888111611c15575060ff7ff8bb2a4b5b30792eb350607495ebe7f79c5a5066287187429654459fae715b2454166004811015611be85760018103611baf57506112e06112db6112d46004602435018061267a565b3691612a12565b612bef565b6112ed6112128588612703565b818111611b565750600161130f6113096004602435018061267a565b906126cb565b0154986040516020808201527fffffffffffffffffffffffffffffffffffffffffffffffffffffffffffffffdd602435360301602435600401351215611b5257602435602435600401350167ffffffffffffffff600482013511611b4e57600481013536036024820113611b4e5761139b906080604084015260c0830190602460048201359101612a49565b60248035013573ffffffffffffffffffffffffffffffffffffffff81168103611b1d5773ffffffffffffffffffffffffffffffffffffffff166060830152602435604481013560808401526064013560a08301528190037fffffffffffffffffffffffffffffffffffffffffffffffffffffffffffffffe08101825261142190826127eb565b602081519101209067ffffffffffffffff8911611b21578860051b6040519961144d602083018c6127eb565b8a5260208a01903681840111611b1d5782915b8184018310611b0d5750505050978a985b88518a10156114ba5760208a60051b8a010151908181106000146114a8578c526020526114a260408c205b99612dd2565b98611471565b908c526020526114a260408c2061149c565b8b98508a03611aaf5761158361120b6114d660248035016129b7565b6115036004357ff8bb2a4b5b30792eb350607495ebe7f79c5a5066287187429654459fae715b2554612a88565b7ff8bb2a4b5b30792eb350607495ebe7f79c5a5066287187429654459fae715b255561152f888b612703565b61153c6004358254612a88565b905573ffffffffffffffffffffffffffffffffffffffff166000527ff8bb2a4b5b30792eb350607495ebe7f79c5a5066287187429654459fae715b27602052604060002090565b6115906004358254612a88565b90557ff8bb2a4b5b30792eb350607495ebe7f79c5a5066287187429654459fae715b255414611a41575b6115c48487612703565b5414611a05575b60026115d784876126cb565b015460801c4210156119c4575b60a084015173ffffffffffffffffffffffffffffffffffffffff1680156119a257935b73ffffffffffffffffffffffffffffffffffffffff8251169060c061162f60248035016129b7565b91015191600435836004350204831460043515171561197557908189923b15610429578883886116b894670de0b6b3a764000073ffffffffffffffffffffffffffffffffffffffff98898e6040519b8c9a8b998a987f37a97db7000000000000000000000000000000000000000000000000000000008a5260c060048b015260c48a0191612a49565b951660248701526004356044870152166064850152600435020460848301526064602435013560a483015203925af1801561196a57611955575b50908173ffffffffffffffffffffffffffffffffffffffff604088940151169160006020604051611722816127cf565b82815201528360408051611735816127b3565b8151611740816127cf565b60008152600060208201528152826020820152015260006020604051611765816127cf565b82815201526117e273ffffffffffffffffffffffffffffffffffffffff6040519361178f856127cf565b81891685526004356020860152604051946117a9866127b3565b85526044840135602086015260248401356040860152511691604051926117cf846127cf565b835260043560208401526004018061267a565b8491943b1561034b578580946118a461188b976040948551998a98899788967f30f28b7a0000000000000000000000000000000000000000000000000000000088526118526004890182516020809173ffffffffffffffffffffffffffffffffffffffff81511684520151910152565b60208181015160448a01529101516064880152815173ffffffffffffffffffffffffffffffffffffffff166084880152015160a4860152565b3360c485015261010060e4850152610104840191612a49565b03925af1801561194a57611936575b50506118c260248035016129b7565b92816040519283928337810185815203902073ffffffffffffffffffffffffffffffffffffffff604051921682527f24b17f7cc1c323d081ca24ebe682df530605d2207ecdde5a86c1d0bb44a88a6d602073ffffffffffffffffffffffffffffffffffffffff600435951693a46001805580f35b61193f9061279f565b6102e95783856118b3565b6040513d84823e3d90fd5b611962909691929661279f565b9490866116f2565b6040513d89823e3d90fd5b6024897f4e487b710000000000000000000000000000000000000000000000000000000081526011600452fd5b5073ffffffffffffffffffffffffffffffffffffffff60208201511693611607565b6119d76119d2368588612a12565b612b4d565b60027fffffffffffffffffffffffffffffffffffffffffffffffffffffffffffffff008254161790556115e4565b611a136119d2368588612a12565b60027fffffffffffffffffffffffffffffffffffffffffffffffffffffffffffffff008254161790556115cb565b60027fffffffffffffffffffffffffffffffffffffffffffffffffffffffffffffff007ff8bb2a4b5b30792eb350607495ebe7f79c5a5066287187429654459fae715b245416177ff8bb2a4b5b30792eb350607495ebe7f79c5a5066287187429654459fae715b24556115ba565b60646040517f08c379a000000000000000000000000000000000000000000000000000000000815260206004820152601460248201527f414c4c4f434154494f4e5f4e4f545f464f554e440000000000000000000000006044820152fd5b8235815260209283019201611460565b8d80fd5b60248c7f4e487b710000000000000000000000000000000000000000000000000000000081526041600452fd5b8c80fd5b8b80fd5b81611b6388938793612b92565b611ba06040519485947f2877ff9e000000000000000000000000000000000000000000000000000000008652606060048701526064860191612a49565b91602484015260448301520390fd5b602490611be6604051917fb293db190000000000000000000000000000000000000000000000000000000083526004830190612b9f565bfd5b60248b7f4e487b710000000000000000000000000000000000000000000000000000000081526021600452fd5b88611c2281604493612b92565b604051917fcced311a00000000000000000000000000000000000000000000000000000000835260048301526024820152fd5b60646040517f08c379a000000000000000000000000000000000000000000000000000000000815260206004820152601a60248201527f6d73672e73656e6465723a204e4f545f415554484f52495a45440000000000006044820152fd5b611cc560449182602435013590612b92565b604051907fadaa553200000000000000000000000000000000000000000000000000000000825282602435013560048301526024820152fd5b6024897f4e487b710000000000000000000000000000000000000000000000000000000081526021600452fd5b60646040517f08c379a000000000000000000000000000000000000000000000000000000000815260206004820152601f60248201527f5265656e7472616e637947756172643a207265656e7472616e742063616c6c006044820152fd5b50346103c457806003193601126103c457611da261256d565b7ff8bb2a4b5b30792eb350607495ebe7f79c5a5066287187429654459fae715b2460037fffffffffffffffffffffffffffffffffffffffffffffffffffffffffffffff0082541617905580f35b50346103c4576101006003193601126103c45767ffffffffffffffff60043581811161042957611e2390369060040161246e565b60e07fffffffffffffffffffffffffffffffffffffffffffffffffffffffffffffffdc9392933601126102e957611e5861256d565b611e6281846126cb565b60405191611e6f83612754565b60ff82541660048110156124415783526001928383015490602091828201526002840154916fffffffffffffffffffffffffffffffff92838116604084015260801c60608301526003850154936080830194855273ffffffffffffffffffffffffffffffffffffffff956005876004830154169160a08601928352015460c08501908152604435948515158061242b575b80612416575b8061240b575b156123ad5751916004831015612380578890511660c435988916809903611b4e5788915192156000146123385750505060e4351561230e575b7ff8bb2a4b5b30792eb350607495ebe7f79c5a5066287187429654459fae715b1f54987ff8bb2a4b5b30792eb350607495ebe7f79c5a5066287187429654459fae715b2098611f988a5497518098612b92565b96611fb0611fa960a435809a612a88565b9c8d6136d7565b156120a8575b50611fc192506126cb565b9460243560048110156120a457611fd89087612ac4565b85015560028401906064358181168091036120a0577fffffffffffffffffffffffffffffffff00000000000000000000000000000000835416178255608435908116810361209c5781546fffffffffffffffffffffffffffffffff1660809190911b7fffffffffffffffffffffffffffffffff0000000000000000000000000000000016179055600383015560048201907fffffffffffffffffffffffff0000000000000000000000000000000000000000825416179055600560e4359101555580f35b8780fd5b8880fd5b8980fd5b7ff8bb2a4b5b30792eb350607495ebe7f79c5a5066287187429654459fae715b2290815491680100000000000000008310156122e1578a83018082558310156122b4578d528311611b21577f65081cd3ad5fc84209c8310f7404cee8bc03efec5e3d920e46e7ba762f27ce4c0180548981811c911680156122aa575b8582101461227d57601f8111612235575b508b8c601f851160011461219157611fc195509084612186575b50838a1b907fffffffffffffffffffffffffffffffffffffffffffffffffffffffffffffffff8560031b1c19161790555b38611fb6565b90508201353861214f565b908a957fffffffffffffffffffffffffffffffffffffffffffffffffffffffffffffffe086169084845280842093905b82821061221c575050611fc1965085116121e4575b50508883811b019055612180565b7fffffffffffffffffffffffffffffffffffffffffffffffffffffffffffffffff60f88660031b161c199084013516905538806121d6565b8684013585558d989094019392830192908101906121c1565b818d52848d20601f850160051c810191868610612273575b601f0160051c01908a908e5b83821061226857505050612135565b8155018a908e612259565b909150819061224d565b60248d7f4e487b710000000000000000000000000000000000000000000000000000000081526022600452fd5b90607f1690612124565b60248e7f4e487b710000000000000000000000000000000000000000000000000000000081526032600452fd5b60248e7f4e487b710000000000000000000000000000000000000000000000000000000081526041600452fd5b60046040517f93c16572000000000000000000000000000000000000000000000000000000008152fd5b1490811591612373575b5015611f45575b60046040517ff85d06f8000000000000000000000000000000000000000000000000000000008152fd5b905060e435141538612342565b60248d7f4e487b710000000000000000000000000000000000000000000000000000000081526021600452fd5b606485604051907f08c379a00000000000000000000000000000000000000000000000000000000082526004820152600960248201527f454d5054595f54414700000000000000000000000000000000000000000000006044820152fd5b5060a4351515611f0c565b50608435878116809103611b1d574210611f06565b50606435878116809103611b1d57421115611f00565b6024877f4e487b710000000000000000000000000000000000000000000000000000000081526021600452fd5b9181601f840112156103bf5782359167ffffffffffffffff83116103bf57602083818601950101116103bf57565b9181601f840112156103bf5782359167ffffffffffffffff83116103bf576020808501948460051b0101116103bf57565b6004359073ffffffffffffffffffffffffffffffffffffffff821682036103bf57565b9181601f840112156103bf5782359167ffffffffffffffff83116103bf5760208085019460e085020101116103bf57565b60406003198201126103bf576004359067ffffffffffffffff82116103bf5761254c9160040161246e565b90916024356fffffffffffffffffffffffffffffffff811681036103bf5790565b73ffffffffffffffffffffffffffffffffffffffff60005460101c16330361259157565b60646040517f08c379a000000000000000000000000000000000000000000000000000000000815260206004820152602060248201527f4f776e61626c653a2063616c6c6572206973206e6f7420746865206f776e65726044820152fd5b6000549075ffffffffffffffffffffffffffffffffffffffff00008160101b167fffffffffffffffffffff0000000000000000000000000000000000000000ffff83161760005573ffffffffffffffffffffffffffffffffffffffff8091169160101c167f8be0079c531659141344cd1fd0a4f28419497f9722a3daafe3b4186f6b6457e0600080a3565b9035907fffffffffffffffffffffffffffffffffffffffffffffffffffffffffffffffe1813603018212156103bf570180359067ffffffffffffffff82116103bf576020019181360383136103bf57565b60209082604051938492833781017ff8bb2a4b5b30792eb350607495ebe7f79c5a5066287187429654459fae715b2381520301902090565b60209082604051938492833781017ff8bb2a4b5b30792eb350607495ebe7f79c5a5066287187429654459fae715b2681520301902090565b6020919283604051948593843782019081520301902090565b60e0810190811067ffffffffffffffff82111761277057604052565b7f4e487b7100000000000000000000000000000000000000000000000000000000600052604160045260246000fd5b67ffffffffffffffff811161277057604052565b6060810190811067ffffffffffffffff82111761277057604052565b6040810190811067ffffffffffffffff82111761277057604052565b90601f7fffffffffffffffffffffffffffffffffffffffffffffffffffffffffffffffe0910116810190811067ffffffffffffffff82111761277057604052565b6040519060c0820182811067ffffffffffffffff821117612770576040528173ffffffffffffffffffffffffffffffffffffffff807ff8bb2a4b5b30792eb350607495ebe7f79c5a5066287187429654459fae715b1c54168252807ff8bb2a4b5b30792eb350607495ebe7f79c5a5066287187429654459fae715b1d541660208301527ff8bb2a4b5b30792eb350607495ebe7f79c5a5066287187429654459fae715b1e541660408201527ff8bb2a4b5b30792eb350607495ebe7f79c5a5066287187429654459fae715b1f5460608201527ff8bb2a4b5b30792eb350607495ebe7f79c5a5066287187429654459fae715b2054608082015260a07ff8bb2a4b5b30792eb350607495ebe7f79c5a5066287187429654459fae715b2154910152565b60243573ffffffffffffffffffffffffffffffffffffffff811681036103bf5790565b60443573ffffffffffffffffffffffffffffffffffffffff811681036103bf5790565b60643573ffffffffffffffffffffffffffffffffffffffff811681036103bf5790565b3573ffffffffffffffffffffffffffffffffffffffff811681036103bf5790565b67ffffffffffffffff811161277057601f017fffffffffffffffffffffffffffffffffffffffffffffffffffffffffffffffe01660200190565b929192612a1e826129d8565b91612a2c60405193846127eb565b8294818452818301116103bf578281602093846000960137010152565b601f82602094937fffffffffffffffffffffffffffffffffffffffffffffffffffffffffffffffe0938186528686013760008582860101520116010190565b91908201809211612a9557565b7f4e487b7100000000000000000000000000000000000000000000000000000000600052601160045260246000fd5b906004811015612afb5760ff7fffffffffffffffffffffffffffffffffffffffffffffffffffffffffffffff008354169116179055565b7f4e487b7100000000000000000000000000000000000000000000000000000000600052602160045260246000fd5b60005b838110612b3d5750506000910152565b8181015183820152602001612b2d565b6020612b66918160405193828580945193849201612b2a565b81017ff8bb2a4b5b30792eb350607495ebe7f79c5a5066287187429654459fae715b2381520301902090565b91908203918211612a9557565b906004821015612afb5752565b907fffffffffffffffffffffffffffffffffffffffffffffffffffffffffffffffe0601f602093612be881518092818752878088019101612b2a565b0116010190565b612bf881612b4d565b604051612c0481612754565b60ff82541660049283821015612da4578183526001810154602084015260028101549160056fffffffffffffffffffffffffffffffff84169384604087015260801c928360608701526003810154608087015273ffffffffffffffffffffffffffffffffffffffff878201541660a0870152015460c0850152159182612d99575b5081612d8f575b50612d5957805182811015612d2b57600103612ca757505050565b5181811015612cfd57612cf9612cee60409485519586957f5f08440f0000000000000000000000000000000000000000000000000000000087528601526044850190612bac565b916024840190612b9f565b0390fd5b6021827f4e487b71000000000000000000000000000000000000000000000000000000006000525260246000fd5b6021837f4e487b71000000000000000000000000000000000000000000000000000000006000525260246000fd5b5050612d6490612b4d565b60017fffffffffffffffffffffffffffffffffffffffffffffffffffffffffffffff00825416179055565b9050421038612c8c565b421015915038612c85565b6021847f4e487b71000000000000000000000000000000000000000000000000000000006000525260246000fd5b7fffffffffffffffffffffffffffffffffffffffffffffffffffffffffffffffff8114612a955760010190565b91929015612e7a5750815115612e13575090565b3b15612e1c5790565b60646040517f08c379a000000000000000000000000000000000000000000000000000000000815260206004820152601d60248201527f416464726573733a2063616c6c20746f206e6f6e2d636f6e74726163740000006044820152fd5b825190915015612e8d5750805190602001fd5b612cf9906040519182917f08c379a0000000000000000000000000000000000000000000000000000000008352602060048401526024830190612bac565b356fffffffffffffffffffffffffffffffff811681036103bf5790565b90821015612f0357612eff9160051b81019061267a565b9091565b7f4e487b7100000000000000000000000000000000000000000000000000000000600052603260045260246000fd5b9190811015612f035760e0020190565b9192808203613679579291907ff8bb2a4b5b30792eb350607495ebe7f79c5a5066287187429654459fae715b1f547ff8bb2a4b5b30792eb350607495ebe7f79c5a5066287187429654459fae715b205494600060c0604051612fa381612754565b8281528260208201528260408201528260608201528260808201528260a082015201526000945b838610612ffb575050505050507ff8bb2a4b5b30792eb350607495ebe7f79c5a5066287187429654459fae715b2055565b90919293949561300f611309888789612ee8565b6040519061301c82612754565b60ff815416906004821015612afb5760059183526001810154602084015260028101546fffffffffffffffffffffffffffffffff8116604085015260801c60608401526003810154608084015273ffffffffffffffffffffffffffffffffffffffff60048201541660a0840152015460c082015261309b888585612f32565b6020810135151580613651575b8061362a575b8061361d575b156135bf5781516004811015612afb5773ffffffffffffffffffffffffffffffffffffffff60a0840151166130eb60a084016129b7565b60c0858101519401359261358657505090501561230e576080905b015180613114898686612f32565b9261313961312e6131268c8b8d612ee8565b949093612b92565b608086013590612a88565b9261314488856136d7565b1561327f575b90613154916126cb565b6004833510156103bf57600560c084613171613275963585612ac4565b60208101356001850155613213600285016fffffffffffffffffffffffffffffffff61319f60408501612ecb565b167fffffffffffffffffffffffffffffffff000000000000000000000000000000008254161781556131d360608401612ecb565b6fffffffffffffffffffffffffffffffff7fffffffffffffffffffffffffffffffff0000000000000000000000000000000083549260801b169116179055565b608081013560038501556004840173ffffffffffffffffffffffffffffffffffffffff61324260a084016129b7565b167fffffffffffffffffffffffff0000000000000000000000000000000000000000825416179055013591015596612dd2565b9493929190612fca565b7ff8bb2a4b5b30792eb350607495ebe7f79c5a5066287187429654459fae715b2254680100000000000000008110156127705760018101807ff8bb2a4b5b30792eb350607495ebe7f79c5a5066287187429654459fae715b2255811015612f03577ff8bb2a4b5b30792eb350607495ebe7f79c5a5066287187429654459fae715b2260005267ffffffffffffffff831161277057807f65081cd3ad5fc84209c8310f7404cee8bc03efec5e3d920e46e7ba762f27ce4c0154600181811c9116801561357c575b602082101461354d57601f81116134e7575b506000601f84116001146133dc5790836131549493926000916133d1575b508360011b907fffffffffffffffffffffffffffffffffffffffffffffffffffffffffffffffff8560031b1c191617907f65081cd3ad5fc84209c8310f7404cee8bc03efec5e3d920e46e7ba762f27ce4c01555b90915061314a565b905082013538613375565b929190807f65081cd3ad5fc84209c8310f7404cee8bc03efec5e3d920e46e7ba762f27ce4c0160005260206000206000945b7fffffffffffffffffffffffffffffffffffffffffffffffffffffffffffffffe0851686106134cf576131549550847fffffffffffffffffffffffffffffffffffffffffffffffffffffffffffffffe0811610613497575b5050600183811b01907f65081cd3ad5fc84209c8310f7404cee8bc03efec5e3d920e46e7ba762f27ce4c01556133c9565b7fffffffffffffffffffffffffffffffffffffffffffffffffffffffffffffffff60f88660031b161c19908401351690553880613466565b8381013582556020958601956001909201910161340e565b817f65081cd3ad5fc84209c8310f7404cee8bc03efec5e3d920e46e7ba762f27ce4c016000526020600020601f850160051c810160208610613546575b601f830160051c8201811061353a575050613357565b60008155600101613524565b5080613524565b7f4e487b7100000000000000000000000000000000000000000000000000000000600052602260045260246000fd5b90607f1690613345565b73ffffffffffffffffffffffffffffffffffffffff1614918215926135b4575b505061234957608090613106565b1415905038806135a6565b60646040517f08c379a000000000000000000000000000000000000000000000000000000000815260206004820152600960248201527f454d5054595f54414700000000000000000000000000000000000000000000006044820152fd5b50608081013515156130b4565b5061363760608201612ecb565b6fffffffffffffffffffffffffffffffff429116116130ae565b5061365e60408201612ecb565b6fffffffffffffffffffffffffffffffff42911610156130a8565b60646040517f08c379a000000000000000000000000000000000000000000000000000000000815260206004820152601f60248201527f49474f5772697461626c653a207461677320617272617973206c656e677468006044820152fd5b8181116136e2575050565b6024916136ee91612b92565b604051907f2e2a58540000000000000000000000000000000000000000000000000000000082526004820152fdfea2646970667358221220be9e7498eee4f42fc43a645443bcd440270d8270d37348e60df634b44bed140d64736f6c63430008110033",
    "linkReferences": {}
  },
  "methodIdentifiers": {
    "initialize(address,(address,address,address,uint256,uint256,uint256),string[],(uint8,bytes32,uint128,uint128,uint256,address,uint256)[])": "897c1b79",
    "openIGO()": "5a5fdab7",
    "openTag(string)": "852c49a7",
    "owner()": "8da5cb5b",
    "pauseIGO()": "1bcaddc2",
    "pauseTag(string)": "98e3fdc4",
    "recoverLostERC20(address,address)": "faf0c581",
    "renounceOwnership()": "715018a6",
    "reserveAllocation(uint256,(string,address,uint256,uint256),bytes32[],(bytes,uint256,uint256))": "28d5796f",
    "transferOwnership(address)": "f2fde38b",
    "updateGrandTotal(uint256)": "f1efb931",
    "updateSetTag(string,(uint8,bytes32,uint128,uint128,uint256,address,uint256))": "02912bd3",
    "updateSetTags(string[],(uint8,bytes32,uint128,uint128,uint256,address,uint256)[])": "f86df59b",
    "updateTagEndDate(string,uint128)": "db365f84",
    "updateTagMaxCap(string,uint256)": "5625671e",
    "updateTagMerkleRoot(string,bytes32)": "907d3085",
    "updateTagStartDate(string,uint128)": "e6807afd"
  },
  "id": 59
}