{
  "abi": [
    {
      "inputs": [
        {
          "internalType": "enum ISharedInternal.Stage",
          "name": "current",
          "type": "uint8"
        }
      ],
      "name": "IGOWritableInternal_IGONotOpened",
      "type": "error"
    },
    {
      "inputs": [
        {
          "internalType": "string",
          "name": "tagId",
          "type": "string"
        },
        {
          "internalType": "enum ISharedInternal.Stage",
          "name": "current",
          "type": "uint8"
        }
      ],
      "name": "IGOWritableInternal_TagNotOpened",
      "type": "error"
    },
    {
      "inputs": [
        {
          "internalType": "uint256",
          "name": "allocation",
          "type": "uint256"
        },
        {
          "internalType": "uint256",
          "name": "exceedsBy",
          "type": "uint256"
        }
      ],
      "name": "IGOWritable_AllocationExceeded",
      "type": "error"
    },
    {
      "inputs": [
        {
          "internalType": "uint256",
          "name": "grandTotal",
          "type": "uint256"
        },
        {
          "internalType": "uint256",
          "name": "exceedsBy",
          "type": "uint256"
        }
      ],
      "name": "IGOWritable_GrandTotalExceeded",
      "type": "error"
    },
    {
      "inputs": [
        {
          "internalType": "string",
          "name": "tagId",
          "type": "string"
        },
        {
          "internalType": "uint256",
          "name": "maxTagCap",
          "type": "uint256"
        },
        {
          "internalType": "uint256",
          "name": "exceedsBy",
          "type": "uint256"
        }
      ],
      "name": "IGOWritable_MaxTagCapExceeded",
      "type": "error"
    },
    {
      "inputs": [],
      "name": "IGOWritable_NoPaymentTokenOrPriceUpdate",
      "type": "error"
    },
    {
      "inputs": [],
      "name": "IGOWritable_ProjectTokenPrice_ZERO",
      "type": "error"
    },
    {
      "inputs": [
        {
          "internalType": "uint256",
          "name": "greaterBy",
          "type": "uint256"
        }
      ],
      "name": "IGOWritable_SummedMaxTagCapGtGrandTotal",
      "type": "error"
    },
    {
      "anonymous": false,
      "inputs": [
        {
          "indexed": true,
          "internalType": "string",
          "name": "tagId",
          "type": "string"
        },
        {
          "indexed": true,
          "internalType": "address",
          "name": "buyer",
          "type": "address"
        },
        {
          "indexed": true,
          "internalType": "uint256",
          "name": "paymentTokenAmount",
          "type": "uint256"
        },
        {
          "indexed": false,
          "internalType": "address",
          "name": "paymentToken",
          "type": "address"
        }
      ],
      "name": "AllocationReserved",
      "type": "event"
    },
    {
      "anonymous": false,
      "inputs": [
        {
          "indexed": false,
          "internalType": "uint8",
          "name": "version",
          "type": "uint8"
        }
      ],
      "name": "Initialized",
      "type": "event"
    },
    {
      "anonymous": false,
      "inputs": [
        {
          "indexed": true,
          "internalType": "address",
          "name": "previousOwner",
          "type": "address"
        },
        {
          "indexed": true,
          "internalType": "address",
          "name": "newOwner",
          "type": "address"
        }
      ],
      "name": "OwnershipTransferred",
      "type": "event"
    },
    {
      "inputs": [
        {
          "internalType": "address",
          "name": "owner",
          "type": "address"
        },
        {
          "internalType": "address",
          "name": "token",
          "type": "address"
        },
        {
          "internalType": "address",
          "name": "permit2",
          "type": "address"
        },
        {
          "internalType": "address",
          "name": "treasuryWallet",
          "type": "address"
        },
        {
          "internalType": "uint256",
          "name": "grandTotal_",
          "type": "uint256"
        },
        {
          "internalType": "string[]",
          "name": "tagIds_",
          "type": "string[]"
        },
        {
          "components": [
            {
              "internalType": "enum ISharedInternal.Stage",
              "name": "stage",
              "type": "uint8"
            },
            {
              "internalType": "bytes32",
              "name": "merkleRoot",
              "type": "bytes32"
            },
            {
              "internalType": "uint128",
              "name": "startAt",
              "type": "uint128"
            },
            {
              "internalType": "uint128",
              "name": "endAt",
              "type": "uint128"
            },
            {
              "internalType": "uint256",
              "name": "maxTagCap",
              "type": "uint256"
            },
            {
              "internalType": "address",
              "name": "paymentToken",
              "type": "address"
            },
            {
              "internalType": "uint256",
              "name": "projectTokenPrice",
              "type": "uint256"
            }
          ],
          "internalType": "struct ISharedInternal.Tag[]",
          "name": "tags",
          "type": "tuple[]"
        }
      ],
      "name": "initialize",
      "outputs": [],
      "stateMutability": "nonpayable",
      "type": "function"
    },
    {
      "inputs": [],
      "name": "openIGO",
      "outputs": [],
      "stateMutability": "nonpayable",
      "type": "function"
    },
    {
      "inputs": [
        {
          "internalType": "string",
          "name": "tagId",
          "type": "string"
        }
      ],
      "name": "openTag",
      "outputs": [],
      "stateMutability": "nonpayable",
      "type": "function"
    },
    {
      "inputs": [],
      "name": "owner",
      "outputs": [
        {
          "internalType": "address",
          "name": "",
          "type": "address"
        }
      ],
      "stateMutability": "view",
      "type": "function"
    },
    {
      "inputs": [],
      "name": "pauseIGO",
      "outputs": [],
      "stateMutability": "nonpayable",
      "type": "function"
    },
    {
      "inputs": [
        {
          "internalType": "string",
          "name": "tagId",
          "type": "string"
        }
      ],
      "name": "pauseTag",
      "outputs": [],
      "stateMutability": "nonpayable",
      "type": "function"
    },
    {
      "inputs": [
        {
          "internalType": "address",
          "name": "token",
          "type": "address"
        },
        {
          "internalType": "address",
          "name": "to",
          "type": "address"
        }
      ],
      "name": "recoverLostERC20",
      "outputs": [],
      "stateMutability": "nonpayable",
      "type": "function"
    },
    {
      "inputs": [],
      "name": "renounceOwnership",
      "outputs": [],
      "stateMutability": "nonpayable",
      "type": "function"
    },
    {
      "inputs": [
        {
          "internalType": "uint256",
          "name": "amount",
          "type": "uint256"
        },
        {
          "components": [
            {
              "internalType": "string",
              "name": "tagId",
              "type": "string"
            },
            {
              "internalType": "address",
              "name": "account",
              "type": "address"
            },
            {
              "internalType": "uint256",
              "name": "paymentTokenAmount",
              "type": "uint256"
            }
          ],
          "internalType": "struct IIGOWritableInternal.Allocation",
          "name": "allocation",
          "type": "tuple"
        },
        {
          "internalType": "bytes32[]",
          "name": "proof",
          "type": "bytes32[]"
        },
        {
          "components": [
            {
              "internalType": "bytes",
              "name": "signature",
              "type": "bytes"
            },
            {
              "internalType": "uint256",
              "name": "deadline",
              "type": "uint256"
            },
            {
              "internalType": "uint256",
              "name": "nonce",
              "type": "uint256"
            }
          ],
          "internalType": "struct IIGOWritableInternal.BuyPermission",
          "name": "permission",
          "type": "tuple"
        }
      ],
      "name": "reserveAllocation",
      "outputs": [],
      "stateMutability": "nonpayable",
      "type": "function"
    },
    {
      "inputs": [
        {
          "internalType": "address",
          "name": "newOwner",
          "type": "address"
        }
      ],
      "name": "transferOwnership",
      "outputs": [],
      "stateMutability": "nonpayable",
      "type": "function"
    },
    {
      "inputs": [
        {
          "internalType": "address",
          "name": "token_",
          "type": "address"
        }
      ],
      "name": "updateDefaultPaymentToken",
      "outputs": [],
      "stateMutability": "nonpayable",
      "type": "function"
    },
    {
      "inputs": [
        {
          "internalType": "uint256",
          "name": "grandTotal_",
          "type": "uint256"
        }
      ],
      "name": "updateGrandTotal",
      "outputs": [],
      "stateMutability": "nonpayable",
      "type": "function"
    },
    {
      "inputs": [
        {
          "internalType": "string",
          "name": "tagId_",
          "type": "string"
        },
        {
          "components": [
            {
              "internalType": "enum ISharedInternal.Stage",
              "name": "stage",
              "type": "uint8"
            },
            {
              "internalType": "bytes32",
              "name": "merkleRoot",
              "type": "bytes32"
            },
            {
              "internalType": "uint128",
              "name": "startAt",
              "type": "uint128"
            },
            {
              "internalType": "uint128",
              "name": "endAt",
              "type": "uint128"
            },
            {
              "internalType": "uint256",
              "name": "maxTagCap",
              "type": "uint256"
            },
            {
              "internalType": "address",
              "name": "paymentToken",
              "type": "address"
            },
            {
              "internalType": "uint256",
              "name": "projectTokenPrice",
              "type": "uint256"
            }
          ],
          "internalType": "struct ISharedInternal.Tag",
          "name": "tag_",
          "type": "tuple"
        }
      ],
      "name": "updateSetTag",
      "outputs": [],
      "stateMutability": "nonpayable",
      "type": "function"
    },
    {
      "inputs": [
        {
          "internalType": "string[]",
          "name": "tagIdentifiers_",
          "type": "string[]"
        },
        {
          "components": [
            {
              "internalType": "enum ISharedInternal.Stage",
              "name": "stage",
              "type": "uint8"
            },
            {
              "internalType": "bytes32",
              "name": "merkleRoot",
              "type": "bytes32"
            },
            {
              "internalType": "uint128",
              "name": "startAt",
              "type": "uint128"
            },
            {
              "internalType": "uint128",
              "name": "endAt",
              "type": "uint128"
            },
            {
              "internalType": "uint256",
              "name": "maxTagCap",
              "type": "uint256"
            },
            {
              "internalType": "address",
              "name": "paymentToken",
              "type": "address"
            },
            {
              "internalType": "uint256",
              "name": "projectTokenPrice",
              "type": "uint256"
            }
          ],
          "internalType": "struct ISharedInternal.Tag[]",
          "name": "tags_",
          "type": "tuple[]"
        }
      ],
      "name": "updateSetTags",
      "outputs": [],
      "stateMutability": "nonpayable",
      "type": "function"
    },
    {
      "inputs": [
        {
          "internalType": "string",
          "name": "tagId",
          "type": "string"
        },
        {
          "internalType": "uint128",
          "name": "endAt",
          "type": "uint128"
        }
      ],
      "name": "updateTagEndDate",
      "outputs": [],
      "stateMutability": "nonpayable",
      "type": "function"
    },
    {
      "inputs": [
        {
          "internalType": "string",
          "name": "tagId",
          "type": "string"
        },
        {
          "internalType": "uint256",
          "name": "maxTagCap",
          "type": "uint256"
        }
      ],
      "name": "updateTagMaxCap",
      "outputs": [],
      "stateMutability": "nonpayable",
      "type": "function"
    },
    {
      "inputs": [
        {
          "internalType": "string",
          "name": "tagId",
          "type": "string"
        },
        {
          "internalType": "bytes32",
          "name": "merkleRoot",
          "type": "bytes32"
        }
      ],
      "name": "updateTagMerkleRoot",
      "outputs": [],
      "stateMutability": "nonpayable",
      "type": "function"
    },
    {
      "inputs": [
        {
          "internalType": "string",
          "name": "tagId",
          "type": "string"
        },
        {
          "internalType": "uint128",
          "name": "startAt",
          "type": "uint128"
        }
      ],
      "name": "updateTagStartDate",
      "outputs": [],
      "stateMutability": "nonpayable",
      "type": "function"
    },
    {
      "inputs": [
        {
          "internalType": "address",
          "name": "addr",
          "type": "address"
        }
      ],
      "name": "updateTreasuryWallet",
      "outputs": [],
      "stateMutability": "nonpayable",
      "type": "function"
    }
  ],
  "bytecode": {
    "object": "0x60808060405234610074576000805462010000600160b01b0319811633601081811b62010000600160b01b03169290921784559291901c6001600160a01b0316907f8be0079c531659141344cd1fd0a4f28419497f9722a3daafe3b4186f6b6457e09080a3600180556136aa908161007a8239f35b600080fdfe6080604052600436101561001257600080fd5b6000803560e01c806302912bd314611d985780631bcaddc214611d3257806333559b72146111465780635625671e146110ca5780635a5fdab714611064578063715018a614610fe2578063809d458d14610ee1578063852c49a714610e805780638da5cb5b14610e4a578063907d308514610d9857806398e3fdc414610d26578063a102491214610c97578063db365f8414610bb8578063e6807afd14610aef578063f1efb93114610a1b578063f2fde38b14610950578063f86df59b146108f1578063f8ae06621461037c5763faf0c581146100ee57600080fd5b3461037957604060031936011261037957610107612416565b61010f612439565b90610118612654565b73ffffffffffffffffffffffffffffffffffffffff8091169161013c831515612d73565b604051927f70a082310000000000000000000000000000000000000000000000000000000084523060048501526020938481602481855afa90811561036e57869161033d575b5060405193858501937fa9059cbb000000000000000000000000000000000000000000000000000000008552166024850152604484015260448352608083019183831067ffffffffffffffff84111761030e5785809161024495856040526101e98661232a565b8786527f5361666545524332303a206c6f772d6c6576656c2063616c6c206661696c656460a0820152519082855af13d15610306573d9161022983612387565b926102376040519485612346565b83523d878785013e612dd8565b80518281159182156102e2575b505090501561025e575080f35b608490604051907f08c379a00000000000000000000000000000000000000000000000000000000082526004820152602a60248201527f5361666545524332303a204552433230206f7065726174696f6e20646964206e60448201527f6f742073756363656564000000000000000000000000000000000000000000006064820152fd5b838092935001031261030257810151801515810361030257808238610251565b8280fd5b606091612dd8565b7f4e487b7100000000000000000000000000000000000000000000000000000000600052604160045260246000fd5b90508481813d8311610367575b6103548183612346565b81010312610363575138610182565b8580fd5b503d61034a565b6040513d88823e3d90fd5b80fd5b50346103795760e060031936011261037957610396612416565b9061039f612439565b73ffffffffffffffffffffffffffffffffffffffff6044803582811695908690036108ec57606490813596848816918289036108ec576084359360a4359567ffffffffffffffff968781116108e8576103fc9036906004016124fd565b9660c4359081116108e85761041590369060040161257e565b978a549960ff8b60081c16159a8b809c6108db575b80156108c4575b15610841577fffffffffffffffffffffffffffffffffffffffffffffffffffffffffffffff0081166001178d558b610813575b5061046d612654565b818516156107b6571694851561075a5784156106d757156106555785156105fa5750509161059f969798916104a4610578946126d6565b7fffffffffffffffffffffffff0000000000000000000000000000000000000000917ff8bb2a4b5b30792eb350607495ebe7f79c5a5066287187429654459fae715b1c90838254161790557ff8bb2a4b5b30792eb350607495ebe7f79c5a5066287187429654459fae715b1d9182541617905573ffffffffffffffffffffffffffffffffffffffff7ff8bb2a4b5b30792eb350607495ebe7f79c5a5066287187429654459fae715b1e91167fffffffffffffffffffffffff0000000000000000000000000000000000000000825416179055565b7ff8bb2a4b5b30792eb350607495ebe7f79c5a5066287187429654459fae715b1f55613005565b6105a65780f35b7fffffffffffffffffffffffffffffffffffffffffffffffffffffffffffff00ff81541681557f7f26b83ff96e1f2b6a682f133852f6798a09c465da95921460cefb3847402498602060405160018152a180f35b7f49474f5772697461626c655f5f6772616e64546f74616c5f5a45524f00000000604051917f08c379a000000000000000000000000000000000000000000000000000000000835260206004840152601c6024840152820152fd5b7f5f414444524553530000000000000000000000000000000000000000000000006084927f49474f5772697461626c655f5f747265617375727957616c6c65745f5a45524f604051937f08c379a00000000000000000000000000000000000000000000000000000000085526020600486015260286024860152840152820152fd5b507f53000000000000000000000000000000000000000000000000000000000000006084927f49474f5772697461626c655f5f7065726d6974325f5a45524f5f414444524553604051937f08c379a00000000000000000000000000000000000000000000000000000000085526020600486015260216024860152840152820152fd5b507f49474f5772697461626c655f5f746f6b656e5f5a45524f5f4144445245535300604051917f08c379a000000000000000000000000000000000000000000000000000000000835260206004840152601f6024840152820152fd5b50507f49474f5772697461626c655f5f6f776e65725f5a45524f5f4144445245535300604051917f08c379a000000000000000000000000000000000000000000000000000000000835260206004840152601f6024840152820152fd5b7fffffffffffffffffffffffffffffffffffffffffffffffffffffffffffff000016610101178c5538610464565b6084847f647920696e697469616c697a6564000000000000000000000000000000000000877f496e697469616c697a61626c653a20636f6e747261637420697320616c726561604051937f08c379a000000000000000000000000000000000000000000000000000000000855260206004860152602e6024860152840152820152fd5b50303b1580156104315750600160ff821614610431565b50600160ff82161061042a565b8a80fd5b600080fd5b50346103795760406003193601126103795767ffffffffffffffff600435818111610302576109249036906004016124fd565b6024359182116103025761093f61094d92369060040161257e565b90610948612654565b613005565b80f35b50346103795760206003193601126103795761096a612416565b610972612654565b73ffffffffffffffffffffffffffffffffffffffff8116156109975761094d906126d6565b60846040517f08c379a000000000000000000000000000000000000000000000000000000000815260206004820152602660248201527f4f776e61626c653a206e6577206f776e657220697320746865207a65726f206160448201527f64647265737300000000000000000000000000000000000000000000000000006064820152fd5b503461037957602060031936011261037957600435610a38612654565b6103e88110610a9157610a6c817ff8bb2a4b5b30792eb350607495ebe7f79c5a5066287187429654459fae715b205461362f565b7ff8bb2a4b5b30792eb350607495ebe7f79c5a5066287187429654459fae715b1f5580f35b60646040517f08c379a000000000000000000000000000000000000000000000000000000000815260206004820152601b60248201527f6772616e64546f74616c5f4c6f7765725468616e5f5f315f30303000000000006044820152fd5b5034610379576fffffffffffffffffffffffffffffffff610b0f3661249a565b610b1a929192612654565b1690428210610b5a57610b2e600291612a7e565b01907fffffffffffffffffffffffffffffffff0000000000000000000000000000000082541617905580f35b60646040517f08c379a000000000000000000000000000000000000000000000000000000000815260206004820152600d60248201527f53544152545f494e5f50415354000000000000000000000000000000000000006044820152fd5b503461037957610bc73661249a565b610bcf612654565b426fffffffffffffffffffffffffffffffff82161115610c39576002610bf761094d93612a7e565b01906fffffffffffffffffffffffffffffffff7fffffffffffffffffffffffffffffffff0000000000000000000000000000000083549260801b169116179055565b60646040517f08c379a000000000000000000000000000000000000000000000000000000000815260206004820152600b60248201527f454e445f494e5f504153540000000000000000000000000000000000000000006044820152fd5b50346103795760206003193601126103795773ffffffffffffffffffffffffffffffffffffffff610cc6612416565b610cce612654565b16610cda811515612d73565b7ff8bb2a4b5b30792eb350607495ebe7f79c5a5066287187429654459fae715b1c907fffffffffffffffffffffffff000000000000000000000000000000000000000082541617905580f35b50346103795760206003193601126103795760043567ffffffffffffffff8111610d9457610d5b610d689136906004016123f8565b610d63612654565b612a7e565b60037fffffffffffffffffffffffffffffffffffffffffffffffffffffffffffffff0082541617905580f35b5080fd5b50346103795760406003193601126103795760043567ffffffffffffffff8111610d9457610dca9036906004016123f8565b60243590610dd6612654565b8115610dec57610de7600191612a7e565b015580f35b60646040517f08c379a000000000000000000000000000000000000000000000000000000000815260206004820152601060248201527f4d65726b6c65526f6f745f454d505459000000000000000000000000000000006044820152fd5b503461037957806003193601126103795773ffffffffffffffffffffffffffffffffffffffff6020915460101c16604051908152f35b50346103795760206003193601126103795760043567ffffffffffffffff8111610d9457610d5b610eb59136906004016123f8565b60017fffffffffffffffffffffffffffffffffffffffffffffffffffffffffffffff0082541617905580f35b503461037957602060031936011261037957610efb612416565b610f03612654565b73ffffffffffffffffffffffffffffffffffffffff811615610f845761094d9073ffffffffffffffffffffffffffffffffffffffff7ff8bb2a4b5b30792eb350607495ebe7f79c5a5066287187429654459fae715b1e91167fffffffffffffffffffffffff0000000000000000000000000000000000000000825416179055565b60646040517f08c379a000000000000000000000000000000000000000000000000000000000815260206004820152601b60248201527f547265617375727957616c6c65745f5a45524f5f4144445245535300000000006044820152fd5b5034610379578060031936011261037957610ffb612654565b600073ffffffffffffffffffffffffffffffffffffffff81547fffffffffffffffffffff0000000000000000000000000000000000000000ffff8116835560101c167f8be0079c531659141344cd1fd0a4f28419497f9722a3daafe3b4186f6b6457e08280a380f35b503461037957806003193601126103795761107d612654565b7ff8bb2a4b5b30792eb350607495ebe7f79c5a5066287187429654459fae715b2360017fffffffffffffffffffffffffffffffffffffffffffffffffffffffffffffff0082541617905580f35b50346103795760406003193601126103795760043567ffffffffffffffff8111610d94576110fc9036906004016123f8565b6003610de76024359261110d612654565b610d6361111861283b565b606061113d8761113860808501518961113089612a7e565b015490612ac3565b6129b9565b9101519061362f565b503461037957600319608081360112610d945767ffffffffffffffff60243511610d945760608160243536030112610d945767ffffffffffffffff60443511610d9457366023604435011215610d945767ffffffffffffffff6044356004013511610d94573660246044356004013560051b604435010111610d945767ffffffffffffffff60643511610d94576060906064353603011261037957600260015414611cd45760026001556111ff60046024350180612761565b61120981836127b2565b9060405191611217836122f2565b60ff8154166004811015611ca7579060059184526001810154602085015260028101546fffffffffffffffffffffffffffffffff8116604086015260801c60608501526003810154608085015273ffffffffffffffffffffffffffffffffffffffff60048201541660a0850152015460c083015261129361283b565b9260808301519360608101519261130b6113026112fb6112b66024803501612959565b73ffffffffffffffffffffffffffffffffffffffff166000527ff8bb2a4b5b30792eb350607495ebe7f79c5a5066287187429654459fae715b26602052604060002090565b8386612822565b546004356129b9565b604460243501358111611c5c57506113266024803501612959565b73ffffffffffffffffffffffffffffffffffffffff33911603611bfe576113707ff8bb2a4b5b30792eb350607495ebe7f79c5a5066287187429654459fae715b24546004356129b9565b848111611bbe575060ff7ff8bb2a4b5b30792eb350607495ebe7f79c5a5066287187429654459fae715b2354166004811015611b915760018103611b5857506113d06113cb6113c460046024350180612761565b36916123c1565b612b20565b6113dd61130282856127ea565b868111611aff575060016113ff6113f960046024350180612761565b906127b2565b015495604051602080820152602435600401357fffffffffffffffffffffffffffffffffffffffffffffffffffffffffffffffdd602435360301811215611afb576024350167ffffffffffffffff600482013511611afb57600481013536036024820113611afb57816114896114e9926060604084015260a083019060246004820135910161297a565b73ffffffffffffffffffffffffffffffffffffffff6114ab602480350161245c565b166060830152604460243501356080830152037fffffffffffffffffffffffffffffffffffffffffffffffffffffffffffffffe08101835282612346565b6020815191012094611500604435600401356124e5565b9561150e6040519788612346565b60443560048101358852602401602088015b60246044356004013560051b60443501018210611aeb5750509689975b8751891015611585576115508989612d30565b519081811015611573578b5260205261156d60408b205b98612d03565b9761153d565b908b5260205261156d60408b20611567565b8a97508903611a8d5773ffffffffffffffffffffffffffffffffffffffff9260a09261166e6116676115ba6024803501612959565b6115e76004357ff8bb2a4b5b30792eb350607495ebe7f79c5a5066287187429654459fae715b24546129b9565b7ff8bb2a4b5b30792eb350607495ebe7f79c5a5066287187429654459fae715b2455611613898c6127ea565b61162060043582546129b9565b905573ffffffffffffffffffffffffffffffffffffffff166000527ff8bb2a4b5b30792eb350607495ebe7f79c5a5066287187429654459fae715b26602052604060002090565b878a612822565b61167b60043582546129b9565b90557ff8bb2a4b5b30792eb350607495ebe7f79c5a5066287187429654459fae715b245414611a1f575b6116af85886127ea565b54146119e3575b60026116c285886127b2565b015460801c4210156119a7575b015116801561198857915b8473ffffffffffffffffffffffffffffffffffffffff6020830151168160206040516117058161232a565b828152015281604080516117188161230e565b81516117238161232a565b838152836020820152815282602082015201528160206040516117458161232a565b8281520152604051906117578261232a565b73ffffffffffffffffffffffffffffffffffffffff861682526004356020830152604051916117858361230e565b8252602082019160446064350135835273ffffffffffffffffffffffffffffffffffffffff60408083019660246064350135885201511690604051916117ca8361232a565b825260043560208301526117e360643560040180612761565b919092843b156119845761185293879361188661189f936040519b8c9a8b998a987f30f28b7a000000000000000000000000000000000000000000000000000000008a5260048a0190516020809173ffffffffffffffffffffffffffffffffffffffff81511684520151910152565b516044880152516064870152805173ffffffffffffffffffffffffffffffffffffffff1660848701526020015160a4860152565b3360c485015261010060e485015261010484019161297a565b03925af1801561197957611930575b506118bc6024803501612959565b92816040519283928337810185815203902073ffffffffffffffffffffffffffffffffffffffff604051921682527f24b17f7cc1c323d081ca24ebe682df530605d2207ecdde5a86c1d0bb44a88a6d602073ffffffffffffffffffffffffffffffffffffffff600435951693a46001805580f35b67ffffffffffffffff819592951161194c5760405292846118ae565b6024827f4e487b710000000000000000000000000000000000000000000000000000000081526041600452fd5b6040513d87823e3d90fd5b8680fd5b5073ffffffffffffffffffffffffffffffffffffffff825116916116da565b6119b5610d633686896123c1565b60027fffffffffffffffffffffffffffffffffffffffffffffffffffffffffffffff008254161790556116cf565b6119f1610d633686896123c1565b60027fffffffffffffffffffffffffffffffffffffffffffffffffffffffffffffff008254161790556116b6565b60027fffffffffffffffffffffffffffffffffffffffffffffffffffffffffffffff007ff8bb2a4b5b30792eb350607495ebe7f79c5a5066287187429654459fae715b235416177ff8bb2a4b5b30792eb350607495ebe7f79c5a5066287187429654459fae715b23556116a5565b60646040517f08c379a000000000000000000000000000000000000000000000000000000000815260206004820152601460248201527f414c4c4f434154494f4e5f4e4f545f464f554e440000000000000000000000006044820152fd5b8135815260209182019101611520565b8980fd5b9086611b0c818694612ac3565b611b496040519485947f2877ff9e00000000000000000000000000000000000000000000000000000000865260606004870152606486019161297a565b91602484015260448301520390fd5b602490611b8f604051917fb293db190000000000000000000000000000000000000000000000000000000083526004830190612ad0565bfd5b6024887f4e487b710000000000000000000000000000000000000000000000000000000081526021600452fd5b84611bcb81604493612ac3565b604051917fcced311a00000000000000000000000000000000000000000000000000000000835260048301526024820152fd5b60646040517f08c379a000000000000000000000000000000000000000000000000000000000815260206004820152601a60248201527f6d73672e73656e6465723a204e4f545f415554484f52495a45440000000000006044820152fd5b611c6e60449182602435013590612ac3565b604051907fadaa553200000000000000000000000000000000000000000000000000000000825282602435013560048301526024820152fd5b6024867f4e487b710000000000000000000000000000000000000000000000000000000081526021600452fd5b60646040517f08c379a000000000000000000000000000000000000000000000000000000000815260206004820152601f60248201527f5265656e7472616e637947756172643a207265656e7472616e742063616c6c006044820152fd5b5034610379578060031936011261037957611d4b612654565b7ff8bb2a4b5b30792eb350607495ebe7f79c5a5066287187429654459fae715b2360037fffffffffffffffffffffffffffffffffffffffffffffffffffffffffffffff0082541617905580f35b5034610379576101006003193601126103795767ffffffffffffffff8060043511610d9457366023600435011215610d9457600435600401351161037957366024600435600401356004350101116103795760e07fffffffffffffffffffffffffffffffffffffffffffffffffffffffffffffffdc36011261037957611e1c612654565b604051611e28816122f2565b60046024351015610d945760243581526044356020820152606435906fffffffffffffffffffffffffffffffff82168203610302578160408201526fffffffffffffffffffffffffffffffff608435166084350361030257608435606082015260a435608082015260c43573ffffffffffffffffffffffffffffffffffffffff811681036122ee5781611eca9160a0611ecf94015260e43560c082015261351d565b612ea4565b611ee4600435600401356024600435016127b2565b90604051611ef1816122f2565b60ff83541660048110156122c15790611fe3611fdc8360809484526001870154602085015260028701546fffffffffffffffffffffffffffffffff81166040860152851c6060850152600387015485850152611fcb600573ffffffffffffffffffffffffffffffffffffffff60048a015416988960a08801520154978860c08701527ff8bb2a4b5b30792eb350607495ebe7f79c5a5066287187429654459fae715b1f54987ff8bb2a4b5b30792eb350607495ebe7f79c5a5066287187429654459fae715b20549360e43592611fc5612936565b91613586565b61113860a435918686015190612ac3565b948561362f565b0151156120d8575b61205a612003600435600401356024600435016127b2565b91612010602435846129f5565b60443560018401556fffffffffffffffffffffffffffffffff167fffffffffffffffffffffffffffffffff0000000000000000000000000000000060843560801b16176002830155565b60a43560038201556004810173ffffffffffffffffffffffffffffffffffffffff612083612936565b167fffffffffffffffffffffffff0000000000000000000000000000000000000000825416179055600560e4359101557ff8bb2a4b5b30792eb350607495ebe7f79c5a5066287187429654459fae715b205580f35b7ff8bb2a4b5b30792eb350607495ebe7f79c5a5066287187429654459fae715b21805490680100000000000000008210156122945760018201905561211c90612f09565b6122685761213a600435600401356121348354612f5e565b83612fb1565b83601f60043560040135116001146121ac5784906004356004013561219c575b506004356004013560011b907fffffffffffffffffffffffffffffffffffffffffffffffffffffffffffffffff6004356004013560031b1c1916179055611feb565b602491506004350101353861215a565b81855260208520906004803501357fffffffffffffffffffffffffffffffffffffffffffffffffffffffffffffffe016865b81811061224b57506004356004013511612208575b5050600160043560040135811b019055611feb565b60247fffffffffffffffffffffffffffffffffffffffffffffffffffffffffffffffff60f86004356004013560031b161c199160043501013516905538806121f3565b9192602060018192602487600435010135815501940192016121de565b6024847f4e487b7100000000000000000000000000000000000000000000000000000000815280600452fd5b6024857f4e487b710000000000000000000000000000000000000000000000000000000081526041600452fd5b6024857f4e487b710000000000000000000000000000000000000000000000000000000081526021600452fd5b8380fd5b60e0810190811067ffffffffffffffff82111761030e57604052565b6060810190811067ffffffffffffffff82111761030e57604052565b6040810190811067ffffffffffffffff82111761030e57604052565b90601f7fffffffffffffffffffffffffffffffffffffffffffffffffffffffffffffffe0910116810190811067ffffffffffffffff82111761030e57604052565b67ffffffffffffffff811161030e57601f017fffffffffffffffffffffffffffffffffffffffffffffffffffffffffffffffe01660200190565b9291926123cd82612387565b916123db6040519384612346565b8294818452818301116108ec578281602093846000960137010152565b9080601f830112156108ec57816020612413933591016123c1565b90565b6004359073ffffffffffffffffffffffffffffffffffffffff821682036108ec57565b6024359073ffffffffffffffffffffffffffffffffffffffff821682036108ec57565b359073ffffffffffffffffffffffffffffffffffffffff821682036108ec57565b35906fffffffffffffffffffffffffffffffff821682036108ec57565b60406003198201126108ec576004359067ffffffffffffffff82116108ec576124c5916004016123f8565b906024356fffffffffffffffffffffffffffffffff811681036108ec5790565b67ffffffffffffffff811161030e5760051b60200190565b9080601f830112156108ec57813590612515826124e5565b926125236040519485612346565b828452602092838086019160051b830101928084116108ec57848301915b8483106125515750505050505090565b823567ffffffffffffffff81116108ec578691612573848480948901016123f8565b815201920191612541565b81601f820112156108ec57803590612595826124e5565b926040906125a582519586612346565b838552602091828601918360e0809702860101948186116108ec578401925b8584106125d5575050505050505090565b86848303126108ec578251906125ea826122f2565b84359060048210156108ec578287928a9452828701358382015261260f86880161247d565b86820152606061262081890161247d565b908201526080808801359082015260a061263b81890161245c565b9082015260c080880135908201528152019301926125c4565b73ffffffffffffffffffffffffffffffffffffffff60005460101c16330361267857565b60646040517f08c379a000000000000000000000000000000000000000000000000000000000815260206004820152602060248201527f4f776e61626c653a2063616c6c6572206973206e6f7420746865206f776e65726044820152fd5b6000549075ffffffffffffffffffffffffffffffffffffffff00008160101b167fffffffffffffffffffff0000000000000000000000000000000000000000ffff83161760005573ffffffffffffffffffffffffffffffffffffffff8091169160101c167f8be0079c531659141344cd1fd0a4f28419497f9722a3daafe3b4186f6b6457e0600080a3565b9035907fffffffffffffffffffffffffffffffffffffffffffffffffffffffffffffffe1813603018212156108ec570180359067ffffffffffffffff82116108ec576020019181360383136108ec57565b60209082604051938492833781017ff8bb2a4b5b30792eb350607495ebe7f79c5a5066287187429654459fae715b2281520301902090565b60209082604051938492833781017ff8bb2a4b5b30792eb350607495ebe7f79c5a5066287187429654459fae715b2581520301902090565b6020919283604051948593843782019081520301902090565b6040519060a0820182811067ffffffffffffffff82111761030e576040528173ffffffffffffffffffffffffffffffffffffffff807ff8bb2a4b5b30792eb350607495ebe7f79c5a5066287187429654459fae715b1c54168252807ff8bb2a4b5b30792eb350607495ebe7f79c5a5066287187429654459fae715b1d541660208301527ff8bb2a4b5b30792eb350607495ebe7f79c5a5066287187429654459fae715b1e541660408201527ff8bb2a4b5b30792eb350607495ebe7f79c5a5066287187429654459fae715b1f54606082015260807ff8bb2a4b5b30792eb350607495ebe7f79c5a5066287187429654459fae715b2054910152565b60c43573ffffffffffffffffffffffffffffffffffffffff811681036108ec5790565b3573ffffffffffffffffffffffffffffffffffffffff811681036108ec5790565b601f82602094937fffffffffffffffffffffffffffffffffffffffffffffffffffffffffffffffe0938186528686013760008582860101520116010190565b919082018092116129c657565b7f4e487b7100000000000000000000000000000000000000000000000000000000600052601160045260246000fd5b906004811015612a2c5760ff7fffffffffffffffffffffffffffffffffffffffffffffffffffffffffffffff008354169116179055565b7f4e487b7100000000000000000000000000000000000000000000000000000000600052602160045260246000fd5b60005b838110612a6e5750506000910152565b8181015183820152602001612a5e565b6020612a97918160405193828580945193849201612a5b565b81017ff8bb2a4b5b30792eb350607495ebe7f79c5a5066287187429654459fae715b2281520301902090565b919082039182116129c657565b906004821015612a2c5752565b907fffffffffffffffffffffffffffffffffffffffffffffffffffffffffffffffe0601f602093612b1981518092818752878088019101612a5b565b0116010190565b612b2981612a7e565b604051612b35816122f2565b60ff82541660049283821015612cd5578183526001810154602084015260028101549160056fffffffffffffffffffffffffffffffff84169384604087015260801c928360608701526003810154608087015273ffffffffffffffffffffffffffffffffffffffff878201541660a0870152015460c0850152159182612cca575b5081612cc0575b50612c8a57805182811015612c5c57600103612bd857505050565b5181811015612c2e57612c2a612c1f60409485519586957f5f08440f0000000000000000000000000000000000000000000000000000000087528601526044850190612add565b916024840190612ad0565b0390fd5b6021827f4e487b71000000000000000000000000000000000000000000000000000000006000525260246000fd5b6021837f4e487b71000000000000000000000000000000000000000000000000000000006000525260246000fd5b5050612c9590612a7e565b60017fffffffffffffffffffffffffffffffffffffffffffffffffffffffffffffff00825416179055565b9050421038612bbd565b421015915038612bb6565b6021847f4e487b71000000000000000000000000000000000000000000000000000000006000525260246000fd5b7fffffffffffffffffffffffffffffffffffffffffffffffffffffffffffffffff81146129c65760010190565b8051821015612d445760209160051b010190565b7f4e487b7100000000000000000000000000000000000000000000000000000000600052603260045260246000fd5b15612d7a57565b60646040517f08c379a000000000000000000000000000000000000000000000000000000000815260206004820152601260248201527f546f6b656e5f5a45524f5f4144445245535300000000000000000000000000006044820152fd5b91929015612e535750815115612dec575090565b3b15612df55790565b60646040517f08c379a000000000000000000000000000000000000000000000000000000000815260206004820152601d60248201527f416464726573733a2063616c6c20746f206e6f6e2d636f6e74726163740000006044820152fd5b825190915015612e665750805190602001fd5b612c2a906040519182917f08c379a0000000000000000000000000000000000000000000000000000000008352602060048401526024830190612add565b15612eab57565b60646040517f08c379a000000000000000000000000000000000000000000000000000000000815260206004820152600b60248201527f494e56414c49445f5441470000000000000000000000000000000000000000006044820152fd5b7ff8bb2a4b5b30792eb350607495ebe7f79c5a5066287187429654459fae715b218054821015612d44576000527f6fb13110a1c1a9ede6e6ea609efd6e6179fc9f1e56a50856c4379cfccb9552150190600090565b90600182811c92168015612fa7575b6020831014612f7857565b7f4e487b7100000000000000000000000000000000000000000000000000000000600052602260045260246000fd5b91607f1691612f6d565b90601f8111612fbf57505050565b600091825260208220906020601f850160051c83019410612ffb575b601f0160051c01915b828110612ff057505050565b818155600101612fe4565b9092508290612fdb565b80518251036134bf5780517ff8bb2a4b5b30792eb350607495ebe7f79c5a5066287187429654459fae715b1f54927ff8bb2a4b5b30792eb350607495ebe7f79c5a5066287187429654459fae715b205493600060c0604051613066816122f2565b8281528260208201528260408201528260608201528260808201528260a0820152015260005b8381106130bc5750505050507ff8bb2a4b5b30792eb350607495ebe7f79c5a5066287187429654459fae715b2055565b6130cf6130c98287612d30565b51612a7e565b95604051966130dd886122f2565b60ff815416906004821015612a2c576005918952600181015460208a015260028101546fffffffffffffffffffffffffffffffff811660408b015260801c60608a0152600381015460808a015273ffffffffffffffffffffffffffffffffffffffff60048201541660a08a0152015460c0880152613167611eca6131618487612d30565b5161351d565b8651906004821015612a2c576131e56131f9916131db608094888c73ffffffffffffffffffffffffffffffffffffffff60a08201511660c06131d28b8273ffffffffffffffffffffffffffffffffffffffff60a06131c5848a612d30565b5101511695015195612d30565b51015193613586565b838a015190612ac3565b826131f08588612d30565b510151906129b9565b96613204848961362f565b0151156132f6575b6132168184612d30565b51906132256130c98288612d30565b8251926004841015612a2c5760c06005916132436132f196856129f5565b602081015160018501556040810151606082015160801b7fffffffffffffffffffffffffffffffff00000000000000000000000000000000166fffffffffffffffffffffffffffffffff91909116176002850155608081015160038501556004840173ffffffffffffffffffffffffffffffffffffffff60a0830151167fffffffffffffffffffffffff00000000000000000000000000000000000000008254161790550151910155612d03565b61308c565b6133008186612d30565b517ff8bb2a4b5b30792eb350607495ebe7f79c5a5066287187429654459fae715b2180546801000000000000000081101561030e5761334491600182019055612f09565b9190916134905780519067ffffffffffffffff821161030e5781906133738261336d8654612f5e565b86612fb1565b602090601f83116001146133ca576000926133bf575b50507fffffffffffffffffffffffffffffffffffffffffffffffffffffffffffffffff8260011b9260031b1c191617905561320c565b015190503880613389565b9250836000526020600020906000935b7fffffffffffffffffffffffffffffffffffffffffffffffffffffffffffffffe0841685106134755760019450837fffffffffffffffffffffffffffffffffffffffffffffffffffffffffffffffe081161061343e575b505050811b01905561320c565b01517fffffffffffffffffffffffffffffffffffffffffffffffffffffffffffffffff60f88460031b161c19169055388080613431565b818101518355602094850194600190930192909101906133da565b7f4e487b7100000000000000000000000000000000000000000000000000000000600052600060045260246000fd5b60646040517f08c379a000000000000000000000000000000000000000000000000000000000815260206004820152601f60248201527f49474f5772697461626c653a207461677320617272617973206c656e677468006044820152fd5b602081015115159081613565575b81613545575b8161353a575090565b608091500151151590565b60608101516fffffffffffffffffffffffffffffffff1642109150613531565b60408101516fffffffffffffffffffffffffffffffff16421115915061352b565b9392939190916004811015612a2c576135ce5750509050156135a457565b60046040517f93c16572000000000000000000000000000000000000000000000000000000008152fd5b73ffffffffffffffffffffffffffffffffffffffff80911691161491821592613624575b50506135fa57565b60046040517ff85d06f8000000000000000000000000000000000000000000000000000000008152fd5b1415905038806135f2565b81811161363a575050565b60249161364691612ac3565b604051907f2e2a58540000000000000000000000000000000000000000000000000000000082526004820152fdfea2646970667358221220e5da2d056f32fa4e2f83c6630e5b1bc6706877678f594b92652a8e8101fc2a8564736f6c63430008110033",
    "linkReferences": {}
  },
  "methodIdentifiers": {
    "initialize(address,address,address,address,uint256,string[],(uint8,bytes32,uint128,uint128,uint256,address,uint256)[])": "f8ae0662",
    "openIGO()": "5a5fdab7",
    "openTag(string)": "852c49a7",
    "owner()": "8da5cb5b",
    "pauseIGO()": "1bcaddc2",
    "pauseTag(string)": "98e3fdc4",
    "recoverLostERC20(address,address)": "faf0c581",
    "renounceOwnership()": "715018a6",
    "reserveAllocation(uint256,(string,address,uint256),bytes32[],(bytes,uint256,uint256))": "33559b72",
    "transferOwnership(address)": "f2fde38b",
    "updateDefaultPaymentToken(address)": "a1024912",
    "updateGrandTotal(uint256)": "f1efb931",
    "updateSetTag(string,(uint8,bytes32,uint128,uint128,uint256,address,uint256))": "02912bd3",
    "updateSetTags(string[],(uint8,bytes32,uint128,uint128,uint256,address,uint256)[])": "f86df59b",
    "updateTagEndDate(string,uint128)": "db365f84",
    "updateTagMaxCap(string,uint256)": "5625671e",
    "updateTagMerkleRoot(string,bytes32)": "907d3085",
    "updateTagStartDate(string,uint128)": "e6807afd",
    "updateTreasuryWallet(address)": "809d458d"
  },
  "id": 54
}