{
  "abi": [
    {
      "inputs": [
        {
          "internalType": "enum ISharedInternal.Stage",
          "name": "current",
          "type": "uint8"
        }
      ],
      "name": "IGOWritableInternal_IGONotOpened",
      "type": "error"
    },
    {
      "inputs": [
        {
          "internalType": "string",
          "name": "tagId",
          "type": "string"
        },
        {
          "internalType": "enum ISharedInternal.Stage",
          "name": "current",
          "type": "uint8"
        }
      ],
      "name": "IGOWritableInternal_TagNotOpened",
      "type": "error"
    },
    {
      "inputs": [
        {
          "internalType": "uint256",
          "name": "allocation",
          "type": "uint256"
        },
        {
          "internalType": "uint256",
          "name": "exceedsBy",
          "type": "uint256"
        }
      ],
      "name": "IGOWritable_AllocationExceeded",
      "type": "error"
    },
    {
      "inputs": [
        {
          "internalType": "uint256",
          "name": "grandTotal",
          "type": "uint256"
        },
        {
          "internalType": "uint256",
          "name": "exceedsBy",
          "type": "uint256"
        }
      ],
      "name": "IGOWritable_GrandTotalExceeded",
      "type": "error"
    },
    {
      "inputs": [
        {
          "internalType": "string",
          "name": "tagId",
          "type": "string"
        },
        {
          "internalType": "uint256",
          "name": "maxTagAllocation",
          "type": "uint256"
        },
        {
          "internalType": "uint256",
          "name": "grandTotal",
          "type": "uint256"
        }
      ],
      "name": "IGOWritable_MaxTagCapGtGrandTotal",
      "type": "error"
    },
    {
      "inputs": [
        {
          "internalType": "string",
          "name": "tagId",
          "type": "string"
        },
        {
          "internalType": "uint256",
          "name": "maxTagCap",
          "type": "uint256"
        },
        {
          "internalType": "uint256",
          "name": "exceedsBy",
          "type": "uint256"
        }
      ],
      "name": "IGOWritable_MaxTagCapExceeded",
      "type": "error"
    },
    {
      "anonymous": false,
      "inputs": [
        {
          "indexed": false,
          "internalType": "uint8",
          "name": "version",
          "type": "uint8"
        }
      ],
      "name": "Initialized",
      "type": "event"
    },
    {
      "anonymous": false,
      "inputs": [
        {
          "indexed": true,
          "internalType": "address",
          "name": "previousOwner",
          "type": "address"
        },
        {
          "indexed": true,
          "internalType": "address",
          "name": "newOwner",
          "type": "address"
        }
      ],
      "name": "OwnershipTransferred",
      "type": "event"
    },
    {
      "inputs": [
        {
          "internalType": "uint256",
          "name": "amount",
          "type": "uint256"
        },
        {
          "components": [
            {
              "internalType": "string",
              "name": "tagId",
              "type": "string"
            },
            {
              "internalType": "address",
              "name": "account",
              "type": "address"
            },
            {
              "internalType": "uint256",
              "name": "amount",
              "type": "uint256"
            }
          ],
          "internalType": "struct IIGOWritableInternal.Allocation",
          "name": "allocation",
          "type": "tuple"
        },
        {
          "internalType": "bytes32[]",
          "name": "proof",
          "type": "bytes32[]"
        },
        {
          "components": [
            {
              "internalType": "bytes",
              "name": "signature",
              "type": "bytes"
            },
            {
              "internalType": "uint256",
              "name": "deadline",
              "type": "uint256"
            },
            {
              "internalType": "uint256",
              "name": "nonce",
              "type": "uint256"
            }
          ],
          "internalType": "struct IIGOWritableInternal.BuyPermission",
          "name": "permission",
          "type": "tuple"
        }
      ],
      "name": "reserveAllocation",
      "outputs": [],
      "stateMutability": "nonpayable",
      "type": "function"
    },
    {
      "inputs": [
        {
          "internalType": "address",
          "name": "owner",
          "type": "address"
        },
        {
          "internalType": "address",
          "name": "token",
          "type": "address"
        },
        {
          "internalType": "address",
          "name": "permit2",
          "type": "address"
        },
        {
          "internalType": "address",
          "name": "treasuryWallet",
          "type": "address"
        },
        {
          "internalType": "uint256",
          "name": "grandTotal_",
          "type": "uint256"
        },
        {
          "internalType": "string[]",
          "name": "tagIds_",
          "type": "string[]"
        },
        {
          "components": [
            {
              "internalType": "enum ISharedInternal.Stage",
              "name": "stage",
              "type": "uint8"
            },
            {
              "internalType": "bytes32",
              "name": "merkleRoot",
              "type": "bytes32"
            },
            {
              "internalType": "uint128",
              "name": "startAt",
              "type": "uint128"
            },
            {
              "internalType": "uint128",
              "name": "endAt",
              "type": "uint128"
            },
            {
              "internalType": "uint256",
              "name": "maxTagCap",
              "type": "uint256"
            },
            {
              "internalType": "address",
              "name": "paymentToken",
              "type": "address"
            }
          ],
          "internalType": "struct ISharedInternal.Tag[]",
          "name": "tags",
          "type": "tuple[]"
        }
      ],
      "name": "initialize",
      "outputs": [],
      "stateMutability": "nonpayable",
      "type": "function"
    },
    {
      "inputs": [],
      "name": "openIGO",
      "outputs": [],
      "stateMutability": "nonpayable",
      "type": "function"
    },
    {
      "inputs": [
        {
          "internalType": "string",
          "name": "tagId",
          "type": "string"
        }
      ],
      "name": "openTag",
      "outputs": [],
      "stateMutability": "nonpayable",
      "type": "function"
    },
    {
      "inputs": [],
      "name": "owner",
      "outputs": [
        {
          "internalType": "address",
          "name": "",
          "type": "address"
        }
      ],
      "stateMutability": "view",
      "type": "function"
    },
    {
      "inputs": [],
      "name": "pauseIGO",
      "outputs": [],
      "stateMutability": "nonpayable",
      "type": "function"
    },
    {
      "inputs": [
        {
          "internalType": "string",
          "name": "tagId",
          "type": "string"
        }
      ],
      "name": "pauseTag",
      "outputs": [],
      "stateMutability": "nonpayable",
      "type": "function"
    },
    {
      "inputs": [
        {
          "internalType": "address",
          "name": "token",
          "type": "address"
        },
        {
          "internalType": "address",
          "name": "to",
          "type": "address"
        }
      ],
      "name": "recoverLostERC20",
      "outputs": [],
      "stateMutability": "nonpayable",
      "type": "function"
    },
    {
      "inputs": [],
      "name": "renounceOwnership",
      "outputs": [],
      "stateMutability": "nonpayable",
      "type": "function"
    },
    {
      "inputs": [
        {
          "internalType": "string[]",
          "name": "tagIdentifiers_",
          "type": "string[]"
        },
        {
          "components": [
            {
              "internalType": "enum ISharedInternal.Stage",
              "name": "stage",
              "type": "uint8"
            },
            {
              "internalType": "bytes32",
              "name": "merkleRoot",
              "type": "bytes32"
            },
            {
              "internalType": "uint128",
              "name": "startAt",
              "type": "uint128"
            },
            {
              "internalType": "uint128",
              "name": "endAt",
              "type": "uint128"
            },
            {
              "internalType": "uint256",
              "name": "maxTagCap",
              "type": "uint256"
            },
            {
              "internalType": "address",
              "name": "paymentToken",
              "type": "address"
            }
          ],
          "internalType": "struct ISharedInternal.Tag[]",
          "name": "tags_",
          "type": "tuple[]"
        }
      ],
      "name": "setTags",
      "outputs": [],
      "stateMutability": "nonpayable",
      "type": "function"
    },
    {
      "inputs": [
        {
          "internalType": "address",
          "name": "newOwner",
          "type": "address"
        }
      ],
      "name": "transferOwnership",
      "outputs": [],
      "stateMutability": "nonpayable",
      "type": "function"
    },
    {
      "inputs": [
        {
          "internalType": "uint256",
          "name": "grandTotal_",
          "type": "uint256"
        }
      ],
      "name": "updateGrandTotal",
      "outputs": [],
      "stateMutability": "nonpayable",
      "type": "function"
    },
    {
      "inputs": [
        {
          "internalType": "string",
          "name": "tagId_",
          "type": "string"
        },
        {
          "components": [
            {
              "internalType": "enum ISharedInternal.Stage",
              "name": "stage",
              "type": "uint8"
            },
            {
              "internalType": "bytes32",
              "name": "merkleRoot",
              "type": "bytes32"
            },
            {
              "internalType": "uint128",
              "name": "startAt",
              "type": "uint128"
            },
            {
              "internalType": "uint128",
              "name": "endAt",
              "type": "uint128"
            },
            {
              "internalType": "uint256",
              "name": "maxTagCap",
              "type": "uint256"
            },
            {
              "internalType": "address",
              "name": "paymentToken",
              "type": "address"
            }
          ],
          "internalType": "struct ISharedInternal.Tag",
          "name": "tag_",
          "type": "tuple"
        }
      ],
      "name": "updateTag",
      "outputs": [],
      "stateMutability": "nonpayable",
      "type": "function"
    },
    {
      "inputs": [
        {
          "internalType": "string",
          "name": "tagId",
          "type": "string"
        },
        {
          "internalType": "uint128",
          "name": "endAt",
          "type": "uint128"
        }
      ],
      "name": "updateTagEndDate",
      "outputs": [],
      "stateMutability": "nonpayable",
      "type": "function"
    },
    {
      "inputs": [
        {
          "internalType": "string",
          "name": "tagId",
          "type": "string"
        },
        {
          "internalType": "uint256",
          "name": "maxTagCap",
          "type": "uint256"
        }
      ],
      "name": "updateTagMaxCap",
      "outputs": [],
      "stateMutability": "nonpayable",
      "type": "function"
    },
    {
      "inputs": [
        {
          "internalType": "string",
          "name": "tagId",
          "type": "string"
        },
        {
          "internalType": "bytes32",
          "name": "merkleRoot",
          "type": "bytes32"
        }
      ],
      "name": "updateTagMerkleRoot",
      "outputs": [],
      "stateMutability": "nonpayable",
      "type": "function"
    },
    {
      "inputs": [
        {
          "internalType": "string",
          "name": "tagId",
          "type": "string"
        },
        {
          "internalType": "uint128",
          "name": "startAt",
          "type": "uint128"
        }
      ],
      "name": "updateTagStartDate",
      "outputs": [],
      "stateMutability": "nonpayable",
      "type": "function"
    },
    {
      "inputs": [
        {
          "internalType": "address",
          "name": "token_",
          "type": "address"
        }
      ],
      "name": "updateToken",
      "outputs": [],
      "stateMutability": "nonpayable",
      "type": "function"
    },
    {
      "inputs": [
        {
          "internalType": "address",
          "name": "addr",
          "type": "address"
        }
      ],
      "name": "updateTreasuryWallet",
      "outputs": [],
      "stateMutability": "nonpayable",
      "type": "function"
    }
  ],
  "bytecode": {
    "object": "0x60808060405234610074576000805462010000600160b01b0319811633601081811b62010000600160b01b03169290921784559291901c6001600160a01b0316907f8be0079c531659141344cd1fd0a4f28419497f9722a3daafe3b4186f6b6457e09080a360018055612afb908161007a8239f35b600080fdfe6080604052600436101561001257600080fd5b6000803560e01c80631bcaddc214611dac5780635625671e14611d375780635a5fdab714611cd15780635e170e7914611c75578063715018a614611bf45780637ad3def214611b70578063809d458d14611aea578063852c49a714611a895780638da5cb5b14611a535780638ddfadac14610db0578063907d308514610d63578063985dfdb6146107f357806398e3fdc414610786578063db365f8414610723578063e3a2070b14610549578063e6807afd146104e8578063f1efb9311461043f578063f2fde38b146103715763faf0c581146100ee57600080fd5b3461036e57604060031936011261036e57610107611fd0565b61010f611ff3565b9061011861218b565b73ffffffffffffffffffffffffffffffffffffffff80911691604051927f70a082310000000000000000000000000000000000000000000000000000000084523060048501526020938481602481855afa908115610363578691610332575b5060405193858501937fa9059cbb000000000000000000000000000000000000000000000000000000008552166024850152604484015260448352608083019183831067ffffffffffffffff8411176103035785809161023995856040526101de86611e2e565b8786527f5361666545524332303a206c6f772d6c6576656c2063616c6c206661696c656460a0820152519082855af13d156102fb573d9161021e83611e8b565b9261022c6040519485611e4a565b83523d878785013e6125a9565b80518281159182156102d7575b5050905015610253575080f35b608490604051907f08c379a00000000000000000000000000000000000000000000000000000000082526004820152602a60248201527f5361666545524332303a204552433230206f7065726174696f6e20646964206e60448201527f6f742073756363656564000000000000000000000000000000000000000000006064820152fd5b83809293500103126102f75781015180151581036102f757808238610246565b8280fd5b6060916125a9565b7f4e487b7100000000000000000000000000000000000000000000000000000000600052604160045260246000fd5b90508481813d831161035c575b6103498183611e4a565b81010312610358575138610177565b8580fd5b503d61033f565b6040513d88823e3d90fd5b80fd5b503461036e57602060031936011261036e5761038b611fd0565b61039361218b565b73ffffffffffffffffffffffffffffffffffffffff8116156103bb576103b89061220d565b80f35b60846040517f08c379a000000000000000000000000000000000000000000000000000000000815260206004820152602660248201527f4f776e61626c653a206e6577206f776e657220697320746865207a65726f206160448201527f64647265737300000000000000000000000000000000000000000000000000006064820152fd5b503461036e57602060031936011261036e5760043561045c61218b565b6103e8811061048a577ff8bb2a4b5b30792eb350607495ebe7f79c5a5066287187429654459fae715b1f5580f35b60646040517f08c379a000000000000000000000000000000000000000000000000000000000815260206004820152601f60248201527f49474f5772697461626c653a206772616e64546f74616c203c20315f303030006044820152fd5b503461036e5761051c6fffffffffffffffffffffffffffffffff600261050d36612140565b939061051761218b565b612497565b0191167fffffffffffffffffffffffffffffffff0000000000000000000000000000000082541617905580f35b503461036e5760e060031936011261036e5760043567ffffffffffffffff8082116102f757366023830112156102f75781600401359081116102f757602482019160248236920101116102f75760c07fffffffffffffffffffffffffffffffffffffffffffffffffffffffffffffffdc3601126102f75761060c906105cc61218b565b60a435926106067ff8bb2a4b5b30792eb350607495ebe7f79c5a5066287187429654459fae715b1f5485610601368686611ec5565b612a76565b506122e9565b602435600481101561071f57610622908261240e565b60443560018201556fffffffffffffffffffffffffffffffff91600282016064358481169081900361071a577fffffffffffffffffffffffffffffffff00000000000000000000000000000000825416178155608435938416840361071a576004936106c991906fffffffffffffffffffffffffffffffff7fffffffffffffffffffffffffffffffff0000000000000000000000000000000083549260801b169116179055565b60038201550160c43573ffffffffffffffffffffffffffffffffffffffff811680910361071a577fffffffffffffffffffffffff000000000000000000000000000000000000000082541617905580f35b600080fd5b8380fd5b503461036e576103b8610744600261073a36612140565b929061051761218b565b01906fffffffffffffffffffffffffffffffff7fffffffffffffffffffffffffffffffff0000000000000000000000000000000083549260801b169116179055565b503461036e57602060031936011261036e5760043567ffffffffffffffff81116107ef576107bb6107c3913690600401611efc565b61051761218b565b60037fffffffffffffffffffffffffffffffffffffffffffffffffffffffffffffff0082541617905580f35b5080fd5b503461036e5760e060031936011261036e5761080d611fd0565b90610816611ff3565b73ffffffffffffffffffffffffffffffffffffffff60448035828116959086900361071a576064908135968488169182890361071a576084359360a4359567ffffffffffffffff96878111610d5f57610873903690600401611f32565b9660c435908111610d5f5761088c903690600401612037565b978a549960ff8b60081c16159a8b809c610d52575b8015610d3b575b15610cb8577fffffffffffffffffffffffffffffffffffffffffffffffffffffffffffffff0081166001178d558b610c8a575b506108e461218b565b81851615610c2d5716948515610bd1578415610b4e5715610acc578515610a7157505091610a169697989161091b6109ef9461220d565b7fffffffffffffffffffffffff0000000000000000000000000000000000000000917ff8bb2a4b5b30792eb350607495ebe7f79c5a5066287187429654459fae715b1c90838254161790557ff8bb2a4b5b30792eb350607495ebe7f79c5a5066287187429654459fae715b1d9182541617905573ffffffffffffffffffffffffffffffffffffffff7ff8bb2a4b5b30792eb350607495ebe7f79c5a5066287187429654459fae715b1e91167fffffffffffffffffffffffff0000000000000000000000000000000000000000825416179055565b7ff8bb2a4b5b30792eb350607495ebe7f79c5a5066287187429654459fae715b1f55612675565b610a1d5780f35b7fffffffffffffffffffffffffffffffffffffffffffffffffffffffffffff00ff81541681557f7f26b83ff96e1f2b6a682f133852f6798a09c465da95921460cefb3847402498602060405160018152a180f35b7f49474f5772697461626c655f5f6772616e64546f74616c5f5a45524f00000000604051917f08c379a000000000000000000000000000000000000000000000000000000000835260206004840152601c6024840152820152fd5b7f5f414444524553530000000000000000000000000000000000000000000000006084927f49474f5772697461626c655f5f747265617375727957616c6c65745f5a45524f604051937f08c379a00000000000000000000000000000000000000000000000000000000085526020600486015260286024860152840152820152fd5b507f53000000000000000000000000000000000000000000000000000000000000006084927f49474f5772697461626c655f5f7065726d6974325f5a45524f5f414444524553604051937f08c379a00000000000000000000000000000000000000000000000000000000085526020600486015260216024860152840152820152fd5b507f49474f5772697461626c655f5f746f6b656e5f5a45524f5f4144445245535300604051917f08c379a000000000000000000000000000000000000000000000000000000000835260206004840152601f6024840152820152fd5b50507f49474f5772697461626c655f5f6f776e65725f5a45524f5f4144445245535300604051917f08c379a000000000000000000000000000000000000000000000000000000000835260206004840152601f6024840152820152fd5b7fffffffffffffffffffffffffffffffffffffffffffffffffffffffffffff000016610101178c55386108db565b6084847f647920696e697469616c697a6564000000000000000000000000000000000000877f496e697469616c697a61626c653a20636f6e747261637420697320616c726561604051937f08c379a000000000000000000000000000000000000000000000000000000000855260206004860152602e6024860152840152820152fd5b50303b1580156108a85750600160ff8216146108a8565b50600160ff8216106108a1565b8a80fd5b503461036e57604060031936011261036e5760043567ffffffffffffffff81116107ef57610d95903690600401611efc565b610d9d61218b565b6001610dab60243592612497565b015580f35b503461036e576003196080813601126107ef5767ffffffffffffffff602435116107ef57606081602435360301126107ef5767ffffffffffffffff604435116107ef573660236044350112156107ef5767ffffffffffffffff60443560040135116107ef573660246044356004013560051b6044350101116107ef5767ffffffffffffffff606435116107ef576060906064353603011261036e576002600154146119f5576002600155610e6960046024350180612298565b610e7381836122e9565b91604051928360c081011067ffffffffffffffff60c08601111761199b5760c0840160405260ff81541660048110156119c85773ffffffffffffffffffffffffffffffffffffffff9160049186526001810154602087015260028101546fffffffffffffffffffffffffffffffff8116604088015260801c60608701526003810154608087015201541660a084015260405180608081011067ffffffffffffffff60808301111761199b576080810160405273ffffffffffffffffffffffffffffffffffffffff7ff8bb2a4b5b30792eb350607495ebe7f79c5a5066287187429654459fae715b1c5416815273ffffffffffffffffffffffffffffffffffffffff7ff8bb2a4b5b30792eb350607495ebe7f79c5a5066287187429654459fae715b1d5416602082015273ffffffffffffffffffffffffffffffffffffffff7ff8bb2a4b5b30792eb350607495ebe7f79c5a5066287187429654459fae715b1e541660408201527ff8bb2a4b5b30792eb350607495ebe7f79c5a5066287187429654459fae715b1f5480606083015260808501519061107261106961106261101d6024803501612372565b73ffffffffffffffffffffffffffffffffffffffff166000527ff8bb2a4b5b30792eb350607495ebe7f79c5a5066287187429654459fae715b25602052604060002090565b8787612359565b546004356123d2565b604460243501358111611950575061108d6024803501612372565b73ffffffffffffffffffffffffffffffffffffffff339116036118f2577ff8bb2a4b5b30792eb350607495ebe7f79c5a5066287187429654459fae715b23546110d8816004356123d2565b8281116118b2575060ff7ff8bb2a4b5b30792eb350607495ebe7f79c5a5066287187429654459fae715b2254166004811015611885576001810361184c575061113061112960046024350180612298565b3691611ec5565b60ff61113b82612497565b5416600481101561181f57600181036117ce57505061115d6110698787612321565b8381116117755750600161117f61117960046024350180612298565b906122e9565b0154966040516020808201527fffffffffffffffffffffffffffffffffffffffffffffffffffffffffffffffdd6024353603016024356004013512156117715767ffffffffffffffff600460243560243582013501013511611771576004602480358281013501918201353603910113611771576060604082015261127b8161121b60a082016004602480358281013501918201359101612393565b73ffffffffffffffffffffffffffffffffffffffff61123d6024803501612016565b166060830152604460243501356080830152037fffffffffffffffffffffffffffffffffffffffffffffffffffffffffffffffe08101835282611e4a565b602081519101209561129260443560040135611f1a565b966112a06040519889611e4a565b60443560048101358952602401602089015b60246044356004013560051b60443501018210611761575050978a985b88518a1015611317576112e28a8a612566565b519081811015611305578c526020526112ff60408c205b99612539565b986112cf565b908c526020526112ff60408c206112f9565b8b98508a0361170357879573ffffffffffffffffffffffffffffffffffffffff956113e26113db60a09761135b6113516024803501612372565b91600435906123d2565b7ff8bb2a4b5b30792eb350607495ebe7f79c5a5066287187429654459fae715b23556113878688612321565b61139460043582546123d2565b905573ffffffffffffffffffffffffffffffffffffffff166000527ff8bb2a4b5b30792eb350607495ebe7f79c5a5066287187429654459fae715b25602052604060002090565b8486612359565b6113ef60043582546123d2565b90557ff8bb2a4b5b30792eb350607495ebe7f79c5a5066287187429654459fae715b235414611695575b6114238284612321565b5414611656575b5050015116801561163757915b73ffffffffffffffffffffffffffffffffffffffff60408160208401511692846020835161146481611e2e565b82815201528482805161147681611e12565b815161148181611e2e565b8381528360208201528152826020820152015284602083516114a281611e2e565b8281520152828251966114b488611e2e565b16865260043560208701528151956114cb87611e12565b865260643560448101356020880152602401358287015201516040519291166114f383611e2e565b8252600435602083015261150c60643560040180612298565b90823b15611633576115b3956115cc86926040948551998a98899788967f30f28b7a00000000000000000000000000000000000000000000000000000000885261157a6004890182516020809173ffffffffffffffffffffffffffffffffffffffff81511684520151910152565b60208181015160448a01529101516064880152815173ffffffffffffffffffffffffffffffffffffffff166084880152015160a4860152565b3360c485015261010060e4850152610104840191612393565b03925af18015611628576115e3575b506001805580f35b67ffffffffffffffff81116115fb57604052816115db565b6024827f4e487b710000000000000000000000000000000000000000000000000000000081526041600452fd5b6040513d84823e3d90fd5b8480fd5b5073ffffffffffffffffffffffffffffffffffffffff82511691611437565b61166591610517913691611ec5565b60027fffffffffffffffffffffffffffffffffffffffffffffffffffffffffffffff00825416179055868061142a565b60027fffffffffffffffffffffffffffffffffffffffffffffffffffffffffffffff007ff8bb2a4b5b30792eb350607495ebe7f79c5a5066287187429654459fae715b225416177ff8bb2a4b5b30792eb350607495ebe7f79c5a5066287187429654459fae715b2255611419565b60646040517f08c379a000000000000000000000000000000000000000000000000000000000815260206004820152601460248201527f414c4c4f434154494f4e5f4e4f545f464f554e440000000000000000000000006044820152fd5b81358152602091820191016112b2565b8980fd5b86846117828189946124dc565b6117bf6040519485947f2877ff9e000000000000000000000000000000000000000000000000000000008652606060048701526064860191612393565b91602484015260448301520390fd5b611810925061181b6040519384937f5f08440f0000000000000000000000000000000000000000000000000000000085526040600486015260448501906124f6565b9160248401906124e9565b0390fd5b60248a7f4e487b710000000000000000000000000000000000000000000000000000000081526021600452fd5b602490611883604051917fb293db1900000000000000000000000000000000000000000000000000000000835260048301906124e9565bfd5b6024897f4e487b710000000000000000000000000000000000000000000000000000000081526021600452fd5b826118bf816044936124dc565b604051917fcced311a00000000000000000000000000000000000000000000000000000000835260048301526024820152fd5b60646040517f08c379a000000000000000000000000000000000000000000000000000000000815260206004820152601a60248201527f6d73672e73656e6465723a204e4f545f415554484f52495a45440000000000006044820152fd5b611962604491826024350135906124dc565b604051907fadaa553200000000000000000000000000000000000000000000000000000000825282602435013560048301526024820152fd5b6024857f4e487b710000000000000000000000000000000000000000000000000000000081526041600452fd5b6024867f4e487b710000000000000000000000000000000000000000000000000000000081526021600452fd5b60646040517f08c379a000000000000000000000000000000000000000000000000000000000815260206004820152601f60248201527f5265656e7472616e637947756172643a207265656e7472616e742063616c6c006044820152fd5b503461036e578060031936011261036e5773ffffffffffffffffffffffffffffffffffffffff6020915460101c16604051908152f35b503461036e57602060031936011261036e5760043567ffffffffffffffff81116107ef576107bb611abe913690600401611efc565b60017fffffffffffffffffffffffffffffffffffffffffffffffffffffffffffffff0082541617905580f35b503461036e57602060031936011261036e576103b8611b07611fd0565b611b0f61218b565b73ffffffffffffffffffffffffffffffffffffffff7ff8bb2a4b5b30792eb350607495ebe7f79c5a5066287187429654459fae715b1e91167fffffffffffffffffffffffff0000000000000000000000000000000000000000825416179055565b503461036e57602060031936011261036e57611b8a611fd0565b611b9261218b565b73ffffffffffffffffffffffffffffffffffffffff7ff8bb2a4b5b30792eb350607495ebe7f79c5a5066287187429654459fae715b1c91167fffffffffffffffffffffffff000000000000000000000000000000000000000082541617905580f35b503461036e578060031936011261036e57611c0d61218b565b8073ffffffffffffffffffffffffffffffffffffffff81547fffffffffffffffffffff0000000000000000000000000000000000000000ffff8116835560101c167f8be0079c531659141344cd1fd0a4f28419497f9722a3daafe3b4186f6b6457e08280a380f35b503461036e57604060031936011261036e5767ffffffffffffffff6004358181116102f757611ca8903690600401611f32565b6024359182116102f757611cc36103b8923690600401612037565b90611ccc61218b565b612675565b503461036e578060031936011261036e57611cea61218b565b7ff8bb2a4b5b30792eb350607495ebe7f79c5a5066287187429654459fae715b2260017fffffffffffffffffffffffffffffffffffffffffffffffffffffffffffffff0082541617905580f35b503461036e57604060031936011261036e5760043567ffffffffffffffff81116107ef57611d69903690600401611efc565b6003610dab60243592611d7a61218b565b611da67ff8bb2a4b5b30792eb350607495ebe7f79c5a5066287187429654459fae715b1f548583612a76565b50612497565b503461036e578060031936011261036e57611dc561218b565b7ff8bb2a4b5b30792eb350607495ebe7f79c5a5066287187429654459fae715b2260037fffffffffffffffffffffffffffffffffffffffffffffffffffffffffffffff0082541617905580f35b6060810190811067ffffffffffffffff82111761030357604052565b6040810190811067ffffffffffffffff82111761030357604052565b90601f7fffffffffffffffffffffffffffffffffffffffffffffffffffffffffffffffe0910116810190811067ffffffffffffffff82111761030357604052565b67ffffffffffffffff811161030357601f017fffffffffffffffffffffffffffffffffffffffffffffffffffffffffffffffe01660200190565b929192611ed182611e8b565b91611edf6040519384611e4a565b82948184528183011161071a578281602093846000960137010152565b9080601f8301121561071a57816020611f1793359101611ec5565b90565b67ffffffffffffffff81116103035760051b60200190565b9080601f8301121561071a57813590611f4a82611f1a565b92611f586040519485611e4a565b828452602092838086019160051b8301019280841161071a57848301915b848310611f865750505050505090565b823567ffffffffffffffff811161071a578691611fa884848094890101611efc565b815201920191611f76565b35906fffffffffffffffffffffffffffffffff8216820361071a57565b6004359073ffffffffffffffffffffffffffffffffffffffff8216820361071a57565b6024359073ffffffffffffffffffffffffffffffffffffffff8216820361071a57565b359073ffffffffffffffffffffffffffffffffffffffff8216820361071a57565b81601f8201121561071a5780359061204e82611f1a565b9260409061205e82519586611e4a565b838552602091828601918360c08097028601019481861161071a578401925b85841061208e575050505050505090565b868483031261071a5782519087820182811067ffffffffffffffff821117612112578452843590600482101561071a578287928a945282870135838201526120d7868801611fb3565b8682015260606120e8818901611fb3565b908201526080808801359082015260a0612103818901612016565b9082015281520193019261207d565b602460007f4e487b710000000000000000000000000000000000000000000000000000000081526041600452fd5b604060031982011261071a576004359067ffffffffffffffff821161071a5761216b91600401611efc565b906024356fffffffffffffffffffffffffffffffff8116810361071a5790565b73ffffffffffffffffffffffffffffffffffffffff60005460101c1633036121af57565b60646040517f08c379a000000000000000000000000000000000000000000000000000000000815260206004820152602060248201527f4f776e61626c653a2063616c6c6572206973206e6f7420746865206f776e65726044820152fd5b6000549075ffffffffffffffffffffffffffffffffffffffff00008160101b167fffffffffffffffffffff0000000000000000000000000000000000000000ffff83161760005573ffffffffffffffffffffffffffffffffffffffff8091169160101c167f8be0079c531659141344cd1fd0a4f28419497f9722a3daafe3b4186f6b6457e0600080a3565b9035907fffffffffffffffffffffffffffffffffffffffffffffffffffffffffffffffe18136030182121561071a570180359067ffffffffffffffff821161071a5760200191813603831361071a57565b60209082604051938492833781017ff8bb2a4b5b30792eb350607495ebe7f79c5a5066287187429654459fae715b2181520301902090565b60209082604051938492833781017ff8bb2a4b5b30792eb350607495ebe7f79c5a5066287187429654459fae715b2481520301902090565b6020919283604051948593843782019081520301902090565b3573ffffffffffffffffffffffffffffffffffffffff8116810361071a5790565b601f82602094937fffffffffffffffffffffffffffffffffffffffffffffffffffffffffffffffe0938186528686013760008582860101520116010190565b919082018092116123df57565b7f4e487b7100000000000000000000000000000000000000000000000000000000600052601160045260246000fd5b9060048110156124455760ff7fffffffffffffffffffffffffffffffffffffffffffffffffffffffffffffff008354169116179055565b7f4e487b7100000000000000000000000000000000000000000000000000000000600052602160045260246000fd5b60005b8381106124875750506000910152565b8181015183820152602001612477565b60206124b0918160405193828580945193849201612474565b81017ff8bb2a4b5b30792eb350607495ebe7f79c5a5066287187429654459fae715b2181520301902090565b919082039182116123df57565b9060048210156124455752565b907fffffffffffffffffffffffffffffffffffffffffffffffffffffffffffffffe0601f60209361253281518092818752878088019101612474565b0116010190565b7fffffffffffffffffffffffffffffffffffffffffffffffffffffffffffffffff81146123df5760010190565b805182101561257a5760209160051b010190565b7f4e487b7100000000000000000000000000000000000000000000000000000000600052603260045260246000fd5b9192901561262457508151156125bd575090565b3b156125c65790565b60646040517f08c379a000000000000000000000000000000000000000000000000000000000815260206004820152601d60248201527f416464726573733a2063616c6c20746f206e6f6e2d636f6e74726163740000006044820152fd5b8251909150156126375750805190602001fd5b61181b906040519182917f08c379a00000000000000000000000000000000000000000000000000000000083526020600484015260248301906124f6565b8051825103612a18578051907ff8bb2a4b5b30792eb350607495ebe7f79c5a5066287187429654459fae715b1f549260005b8381106126b5575050505050565b6126bf8184612566565b516126db86608092836126d28688612566565b51015190612a76565b506126e68285612566565b517ff8bb2a4b5b30792eb350607495ebe7f79c5a5066287187429654459fae715b208054680100000000000000008110156103035760019182820180825582101561257a576000527fd7213b7e353de0745ec7a29ec9ef3e1ace06ddce4f5a2658513c501175cdd87701825167ffffffffffffffff81116103035781548381169490841c8515612a10575b602095868210146129e1578291601f9182811161298c575b50869183116001146128ef576000926128e4575b50507fffffffffffffffffffffffffffffffffffffffffffffffffffffffffffffffff82851b9260031b1c19161790555b6127d88486612566565b51926127ed6127e78689612566565b51612497565b91845193600494858110156128b657926128b197969592859261282760a09673ffffffffffffffffffffffffffffffffffffffff9861240e565b870151908301556040860151606087015160801b7fffffffffffffffffffffffffffffffff00000000000000000000000000000000166fffffffffffffffffffffffffffffffff91909116176002830155850151600382015501920151167fffffffffffffffffffffffff0000000000000000000000000000000000000000825416179055612539565b6126a7565b6021867f4e487b71000000000000000000000000000000000000000000000000000000006000525260246000fd5b01519050388061279d565b907fffffffffffffffffffffffffffffffffffffffffffffffffffffffffffffffe08694169185600052876000209260005b89828210612976575050841161293f575b505050811b0190556127ce565b01517fffffffffffffffffffffffffffffffffffffffffffffffffffffffffffffffff60f88460031b161c19169055388080612932565b8385015186558997909501949384019301612921565b909192508460005286600020600584808701821c8301938a88106129d8575b9187968a93969594929601901c01915b8281106129c9575050612789565b600081558695508891016129bb565b935082936129ab565b7f4e487b7100000000000000000000000000000000000000000000000000000000600052602260045260246000fd5b607f16612771565b60646040517f08c379a000000000000000000000000000000000000000000000000000000000815260206004820152601f60248201527f49474f5772697461626c653a207461677320617272617973206c656e677468006044820152fd5b91808211612a8657505050600090565b6117bf93506040519384937fbf45f2210000000000000000000000000000000000000000000000000000000085526060600486015260648501906124f656fea2646970667358221220c09daa5784cec7ec00c0e7338476446d03ff9e2dff46d9185d70649c4b8ff59964736f6c63430008110033",
    "linkReferences": {}
  },
  "methodIdentifiers": {
    "reserveAllocation(uint256,(string,address,uint256),bytes32[],(bytes,uint256,uint256))": "8ddfadac",
    "initialize(address,address,address,address,uint256,string[],(uint8,bytes32,uint128,uint128,uint256,address)[])": "985dfdb6",
    "openIGO()": "5a5fdab7",
    "openTag(string)": "852c49a7",
    "owner()": "8da5cb5b",
    "pauseIGO()": "1bcaddc2",
    "pauseTag(string)": "98e3fdc4",
    "recoverLostERC20(address,address)": "faf0c581",
    "renounceOwnership()": "715018a6",
    "setTags(string[],(uint8,bytes32,uint128,uint128,uint256,address)[])": "5e170e79",
    "transferOwnership(address)": "f2fde38b",
    "updateGrandTotal(uint256)": "f1efb931",
    "updateTag(string,(uint8,bytes32,uint128,uint128,uint256,address))": "e3a2070b",
    "updateTagEndDate(string,uint128)": "db365f84",
    "updateTagMaxCap(string,uint256)": "5625671e",
    "updateTagMerkleRoot(string,bytes32)": "907d3085",
    "updateTagStartDate(string,uint128)": "e6807afd",
    "updateToken(address)": "7ad3def2",
    "updateTreasuryWallet(address)": "809d458d"
  },
  "id": 53
}