{
  "abi": [
    {
      "inputs": [
        {
          "internalType": "enum ISharedInternal.Stage",
          "name": "current",
          "type": "uint8"
        }
      ],
      "name": "IGOWritableInternal_IGONotOpened",
      "type": "error"
    },
    {
      "inputs": [
        {
          "internalType": "string",
          "name": "tagId",
          "type": "string"
        },
        {
          "internalType": "enum ISharedInternal.Stage",
          "name": "current",
          "type": "uint8"
        }
      ],
      "name": "IGOWritableInternal_TagNotOpened",
      "type": "error"
    },
    {
      "inputs": [
        {
          "internalType": "uint256",
          "name": "allocation",
          "type": "uint256"
        },
        {
          "internalType": "uint256",
          "name": "exceedsBy",
          "type": "uint256"
        }
      ],
      "name": "IGOWritable_AllocationExceeded",
      "type": "error"
    },
    {
      "inputs": [
        {
          "internalType": "uint256",
          "name": "grandTotal",
          "type": "uint256"
        },
        {
          "internalType": "uint256",
          "name": "exceedsBy",
          "type": "uint256"
        }
      ],
      "name": "IGOWritable_GrandTotalExceeded",
      "type": "error"
    },
    {
      "inputs": [
        {
          "internalType": "string",
          "name": "tagId",
          "type": "string"
        },
        {
          "internalType": "uint256",
          "name": "maxTagCap",
          "type": "uint256"
        },
        {
          "internalType": "uint256",
          "name": "exceedsBy",
          "type": "uint256"
        }
      ],
      "name": "IGOWritable_MaxTagCapExceeded",
      "type": "error"
    },
    {
      "inputs": [],
      "name": "IGOWritable_NoPaymentTokenOrPriceUpdate",
      "type": "error"
    },
    {
      "inputs": [],
      "name": "IGOWritable_ProjectTokenPrice_ZERO",
      "type": "error"
    },
    {
      "inputs": [
        {
          "internalType": "uint256",
          "name": "greaterBy",
          "type": "uint256"
        }
      ],
      "name": "IGOWritable_SummedMaxTagCapGtGrandTotal",
      "type": "error"
    },
    {
      "anonymous": false,
      "inputs": [
        {
          "indexed": true,
          "internalType": "string",
          "name": "tagId",
          "type": "string"
        },
        {
          "indexed": true,
          "internalType": "address",
          "name": "buyer",
          "type": "address"
        },
        {
          "indexed": true,
          "internalType": "uint256",
          "name": "paymentTokenAmount",
          "type": "uint256"
        },
        {
          "indexed": false,
          "internalType": "address",
          "name": "paymentToken",
          "type": "address"
        }
      ],
      "name": "AllocationReserved",
      "type": "event"
    },
    {
      "anonymous": false,
      "inputs": [
        {
          "indexed": false,
          "internalType": "uint8",
          "name": "version",
          "type": "uint8"
        }
      ],
      "name": "Initialized",
      "type": "event"
    },
    {
      "anonymous": false,
      "inputs": [
        {
          "indexed": true,
          "internalType": "address",
          "name": "previousOwner",
          "type": "address"
        },
        {
          "indexed": true,
          "internalType": "address",
          "name": "newOwner",
          "type": "address"
        }
      ],
      "name": "OwnershipTransferred",
      "type": "event"
    },
    {
      "inputs": [
        {
          "internalType": "address",
          "name": "owner",
          "type": "address"
        },
        {
          "components": [
            {
              "internalType": "address",
              "name": "vestingContract",
              "type": "address"
            },
            {
              "internalType": "address",
              "name": "paymentToken",
              "type": "address"
            },
            {
              "internalType": "address",
              "name": "permit2",
              "type": "address"
            },
            {
              "internalType": "uint256",
              "name": "grandTotal",
              "type": "uint256"
            },
            {
              "internalType": "uint256",
              "name": "summedMaxTagCap",
              "type": "uint256"
            },
            {
              "internalType": "uint256",
              "name": "refundFeeDecimals",
              "type": "uint256"
            }
          ],
          "internalType": "struct IGOStorage.SetUp",
          "name": "setUp",
          "type": "tuple"
        },
        {
          "internalType": "string[]",
          "name": "tagIds_",
          "type": "string[]"
        },
        {
          "components": [
            {
              "internalType": "enum ISharedInternal.Stage",
              "name": "stage",
              "type": "uint8"
            },
            {
              "internalType": "bytes32",
              "name": "merkleRoot",
              "type": "bytes32"
            },
            {
              "internalType": "uint128",
              "name": "startAt",
              "type": "uint128"
            },
            {
              "internalType": "uint128",
              "name": "endAt",
              "type": "uint128"
            },
            {
              "internalType": "uint256",
              "name": "maxTagCap",
              "type": "uint256"
            },
            {
              "internalType": "address",
              "name": "paymentToken",
              "type": "address"
            },
            {
              "internalType": "uint256",
              "name": "projectTokenPrice",
              "type": "uint256"
            }
          ],
          "internalType": "struct ISharedInternal.Tag[]",
          "name": "tags",
          "type": "tuple[]"
        }
      ],
      "name": "initialize",
      "outputs": [],
      "stateMutability": "nonpayable",
      "type": "function"
    },
    {
      "inputs": [],
      "name": "openIGO",
      "outputs": [],
      "stateMutability": "nonpayable",
      "type": "function"
    },
    {
      "inputs": [
        {
          "internalType": "string",
          "name": "tagId",
          "type": "string"
        }
      ],
      "name": "openTag",
      "outputs": [],
      "stateMutability": "nonpayable",
      "type": "function"
    },
    {
      "inputs": [],
      "name": "owner",
      "outputs": [
        {
          "internalType": "address",
          "name": "",
          "type": "address"
        }
      ],
      "stateMutability": "view",
      "type": "function"
    },
    {
      "inputs": [],
      "name": "pauseIGO",
      "outputs": [],
      "stateMutability": "nonpayable",
      "type": "function"
    },
    {
      "inputs": [
        {
          "internalType": "string",
          "name": "tagId",
          "type": "string"
        }
      ],
      "name": "pauseTag",
      "outputs": [],
      "stateMutability": "nonpayable",
      "type": "function"
    },
    {
      "inputs": [
        {
          "internalType": "address",
          "name": "token",
          "type": "address"
        },
        {
          "internalType": "address",
          "name": "to",
          "type": "address"
        }
      ],
      "name": "recoverLostERC20",
      "outputs": [],
      "stateMutability": "nonpayable",
      "type": "function"
    },
    {
      "inputs": [],
      "name": "renounceOwnership",
      "outputs": [],
      "stateMutability": "nonpayable",
      "type": "function"
    },
    {
      "inputs": [
        {
          "internalType": "uint256",
          "name": "amount",
          "type": "uint256"
        },
        {
          "components": [
            {
              "internalType": "string",
              "name": "tagId",
              "type": "string"
            },
            {
              "internalType": "address",
              "name": "account",
              "type": "address"
            },
            {
              "internalType": "uint256",
              "name": "paymentTokenAmount",
              "type": "uint256"
            },
            {
              "internalType": "uint256",
              "name": "refundFee",
              "type": "uint256"
            }
          ],
          "internalType": "struct IIGOWritableInternal.Allocation",
          "name": "allocation",
          "type": "tuple"
        },
        {
          "internalType": "bytes32[]",
          "name": "proof",
          "type": "bytes32[]"
        },
        {
          "components": [
            {
              "internalType": "bytes",
              "name": "signature",
              "type": "bytes"
            },
            {
              "internalType": "uint256",
              "name": "deadline",
              "type": "uint256"
            },
            {
              "internalType": "uint256",
              "name": "nonce",
              "type": "uint256"
            }
          ],
          "internalType": "struct IIGOWritableInternal.BuyPermission",
          "name": "permission",
          "type": "tuple"
        }
      ],
      "name": "reserveAllocation",
      "outputs": [],
      "stateMutability": "nonpayable",
      "type": "function"
    },
    {
      "inputs": [
        {
          "internalType": "address",
          "name": "newOwner",
          "type": "address"
        }
      ],
      "name": "transferOwnership",
      "outputs": [],
      "stateMutability": "nonpayable",
      "type": "function"
    },
    {
      "inputs": [
        {
          "internalType": "address",
          "name": "token_",
          "type": "address"
        }
      ],
      "name": "updateDefaultPaymentToken",
      "outputs": [],
      "stateMutability": "nonpayable",
      "type": "function"
    },
    {
      "inputs": [
        {
          "internalType": "uint256",
          "name": "grandTotal_",
          "type": "uint256"
        }
      ],
      "name": "updateGrandTotal",
      "outputs": [],
      "stateMutability": "nonpayable",
      "type": "function"
    },
    {
      "inputs": [
        {
          "internalType": "string",
          "name": "tagId_",
          "type": "string"
        },
        {
          "components": [
            {
              "internalType": "enum ISharedInternal.Stage",
              "name": "stage",
              "type": "uint8"
            },
            {
              "internalType": "bytes32",
              "name": "merkleRoot",
              "type": "bytes32"
            },
            {
              "internalType": "uint128",
              "name": "startAt",
              "type": "uint128"
            },
            {
              "internalType": "uint128",
              "name": "endAt",
              "type": "uint128"
            },
            {
              "internalType": "uint256",
              "name": "maxTagCap",
              "type": "uint256"
            },
            {
              "internalType": "address",
              "name": "paymentToken",
              "type": "address"
            },
            {
              "internalType": "uint256",
              "name": "projectTokenPrice",
              "type": "uint256"
            }
          ],
          "internalType": "struct ISharedInternal.Tag",
          "name": "tag_",
          "type": "tuple"
        }
      ],
      "name": "updateSetTag",
      "outputs": [],
      "stateMutability": "nonpayable",
      "type": "function"
    },
    {
      "inputs": [
        {
          "internalType": "string[]",
          "name": "tagIdentifiers_",
          "type": "string[]"
        },
        {
          "components": [
            {
              "internalType": "enum ISharedInternal.Stage",
              "name": "stage",
              "type": "uint8"
            },
            {
              "internalType": "bytes32",
              "name": "merkleRoot",
              "type": "bytes32"
            },
            {
              "internalType": "uint128",
              "name": "startAt",
              "type": "uint128"
            },
            {
              "internalType": "uint128",
              "name": "endAt",
              "type": "uint128"
            },
            {
              "internalType": "uint256",
              "name": "maxTagCap",
              "type": "uint256"
            },
            {
              "internalType": "address",
              "name": "paymentToken",
              "type": "address"
            },
            {
              "internalType": "uint256",
              "name": "projectTokenPrice",
              "type": "uint256"
            }
          ],
          "internalType": "struct ISharedInternal.Tag[]",
          "name": "tags_",
          "type": "tuple[]"
        }
      ],
      "name": "updateSetTags",
      "outputs": [],
      "stateMutability": "nonpayable",
      "type": "function"
    },
    {
      "inputs": [
        {
          "internalType": "string",
          "name": "tagId",
          "type": "string"
        },
        {
          "internalType": "uint128",
          "name": "endAt",
          "type": "uint128"
        }
      ],
      "name": "updateTagEndDate",
      "outputs": [],
      "stateMutability": "nonpayable",
      "type": "function"
    },
    {
      "inputs": [
        {
          "internalType": "string",
          "name": "tagId",
          "type": "string"
        },
        {
          "internalType": "uint256",
          "name": "maxTagCap",
          "type": "uint256"
        }
      ],
      "name": "updateTagMaxCap",
      "outputs": [],
      "stateMutability": "nonpayable",
      "type": "function"
    },
    {
      "inputs": [
        {
          "internalType": "string",
          "name": "tagId",
          "type": "string"
        },
        {
          "internalType": "bytes32",
          "name": "merkleRoot",
          "type": "bytes32"
        }
      ],
      "name": "updateTagMerkleRoot",
      "outputs": [],
      "stateMutability": "nonpayable",
      "type": "function"
    },
    {
      "inputs": [
        {
          "internalType": "string",
          "name": "tagId",
          "type": "string"
        },
        {
          "internalType": "uint128",
          "name": "startAt",
          "type": "uint128"
        }
      ],
      "name": "updateTagStartDate",
      "outputs": [],
      "stateMutability": "nonpayable",
      "type": "function"
    }
  ],
  "bytecode": {
    "object": "0x60808060405234610074576000805462010000600160b01b0319811633601081811b62010000600160b01b03169290921784559291901c6001600160a01b0316907f8be0079c531659141344cd1fd0a4f28419497f9722a3daafe3b4186f6b6457e09080a36001805561389d908161007a8239f35b600080fdfe6080604052600436101561001257600080fd5b6000803560e01c806302912bd314611f545780631bcaddc214611eee57806328d5796f146111f55780635625671e146111795780635a5fdab714611113578063715018a614611091578063852c49a714611030578063897c1b79146109185780638da5cb5b146108e2578063907d30851461083057806398e3fdc4146107be578063a102491214610717578063db365f8414610638578063e6807afd1461056f578063f1efb9311461049b578063f2fde38b146103d0578063f86df59b146103715763faf0c581146100e357600080fd5b3461036e57604060031936011261036e576100fc6125e2565b610104612605565b9061010d612820565b73ffffffffffffffffffffffffffffffffffffffff80911691610131831515612f66565b604051927f70a082310000000000000000000000000000000000000000000000000000000084523060048501526020938481602481855afa908115610363578691610332575b5060405193858501937fa9059cbb000000000000000000000000000000000000000000000000000000008552166024850152604484015260448352608083019183831067ffffffffffffffff8411176103035785809161023995856040526101de866124f6565b8786527f5361666545524332303a206c6f772d6c6576656c2063616c6c206661696c656460a0820152519082855af13d156102fb573d9161021e83612553565b9261022c6040519485612512565b83523d878785013e612fcb565b80518281159182156102d7575b5050905015610253575080f35b608490604051907f08c379a00000000000000000000000000000000000000000000000000000000082526004820152602a60248201527f5361666545524332303a204552433230206f7065726174696f6e20646964206e60448201527f6f742073756363656564000000000000000000000000000000000000000000006064820152fd5b83809293500103126102f75781015180151581036102f757808238610246565b8280fd5b606091612fcb565b7f4e487b7100000000000000000000000000000000000000000000000000000000600052604160045260246000fd5b90508481813d831161035c575b6103498183612512565b81010312610358575138610177565b8580fd5b503d61033f565b6040513d88823e3d90fd5b80fd5b503461036e57604060031936011261036e5767ffffffffffffffff6004358181116102f7576103a4903690600401612661565b6024359182116102f7576103bf6103cd9236906004016126ff565b906103c8612820565b6131f8565b80f35b503461036e57602060031936011261036e576103ea6125e2565b6103f2612820565b73ffffffffffffffffffffffffffffffffffffffff811615610417576103cd906128a2565b60846040517f08c379a000000000000000000000000000000000000000000000000000000000815260206004820152602660248201527f4f776e61626c653a206e6577206f776e657220697320746865207a65726f206160448201527f64647265737300000000000000000000000000000000000000000000000000006064820152fd5b503461036e57602060031936011261036e576004356104b8612820565b6103e88110610511576104ec817ff8bb2a4b5b30792eb350607495ebe7f79c5a5066287187429654459fae715b2054613822565b7ff8bb2a4b5b30792eb350607495ebe7f79c5a5066287187429654459fae715b1f5580f35b60646040517f08c379a000000000000000000000000000000000000000000000000000000000815260206004820152601b60248201527f6772616e64546f74616c5f4c6f7765725468616e5f5f315f30303000000000006044820152fd5b503461036e576fffffffffffffffffffffffffffffffff61058f366127d5565b61059a929192612820565b16904282106105da576105ae600291612c71565b01907fffffffffffffffffffffffffffffffff0000000000000000000000000000000082541617905580f35b60646040517f08c379a000000000000000000000000000000000000000000000000000000000815260206004820152600d60248201527f53544152545f494e5f50415354000000000000000000000000000000000000006044820152fd5b503461036e57610647366127d5565b61064f612820565b426fffffffffffffffffffffffffffffffff821611156106b95760026106776103cd93612c71565b01906fffffffffffffffffffffffffffffffff7fffffffffffffffffffffffffffffffff0000000000000000000000000000000083549260801b169116179055565b60646040517f08c379a000000000000000000000000000000000000000000000000000000000815260206004820152600b60248201527f454e445f494e5f504153540000000000000000000000000000000000000000006044820152fd5b503461036e57602060031936011261036e576103cd6107346125e2565b61073c612820565b61075d73ffffffffffffffffffffffffffffffffffffffff82161515612f66565b73ffffffffffffffffffffffffffffffffffffffff7ff8bb2a4b5b30792eb350607495ebe7f79c5a5066287187429654459fae715b1d91167fffffffffffffffffffffffff0000000000000000000000000000000000000000825416179055565b503461036e57602060031936011261036e5760043567ffffffffffffffff811161082c576107f36108009136906004016125c4565b6107fb612820565b612c71565b60037fffffffffffffffffffffffffffffffffffffffffffffffffffffffffffffff0082541617905580f35b5080fd5b503461036e57604060031936011261036e5760043567ffffffffffffffff811161082c576108629036906004016125c4565b6024359061086e612820565b81156108845761087f600191612c71565b015580f35b60646040517f08c379a000000000000000000000000000000000000000000000000000000000815260206004820152601060248201527f4d65726b6c65526f6f745f454d505459000000000000000000000000000000006044820152fd5b503461036e578060031936011261036e5773ffffffffffffffffffffffffffffffffffffffff6020915460101c16604051908152f35b503461036e5761012060031936011261036e576109336125e2565b60c07fffffffffffffffffffffffffffffffffffffffffffffffffffffffffffffffdc36011261082c5760405160c0810181811067ffffffffffffffff82111761030357604052610982612605565b815260443573ffffffffffffffffffffffffffffffffffffffff8116810361102b57602082015260643573ffffffffffffffffffffffffffffffffffffffff8116810361102b576040820152608435606082015260a435608082015260c43560a082015260e43567ffffffffffffffff811161102757610a06903690600401612661565b67ffffffffffffffff610104351161102757610a2836610104356004016126ff565b9084549360ff8560081c16159485809661101a575b8015611003575b15610f7f578560017fffffffffffffffffffffffffffffffffffffffffffffffffffffffffffffff008316178855610f51575b50610a80612820565b73ffffffffffffffffffffffffffffffffffffffff811615610ef35773ffffffffffffffffffffffffffffffffffffffff84511615610e6f5773ffffffffffffffffffffffffffffffffffffffff60208501511615610deb5773ffffffffffffffffffffffffffffffffffffffff60408501511615610d6757606084015115610d0957610cae93610b1260a0926128a2565b73ffffffffffffffffffffffffffffffffffffffff8151167fffffffffffffffffffffffff0000000000000000000000000000000000000000907ff8bb2a4b5b30792eb350607495ebe7f79c5a5066287187429654459fae715b1c9082825416179055610bf473ffffffffffffffffffffffffffffffffffffffff60208401511673ffffffffffffffffffffffffffffffffffffffff7ff8bb2a4b5b30792eb350607495ebe7f79c5a5066287187429654459fae715b1d91167fffffffffffffffffffffffff0000000000000000000000000000000000000000825416179055565b73ffffffffffffffffffffffffffffffffffffffff6040830151167ff8bb2a4b5b30792eb350607495ebe7f79c5a5066287187429654459fae715b1e9182541617905560608101517ff8bb2a4b5b30792eb350607495ebe7f79c5a5066287187429654459fae715b1f5560808101517ff8bb2a4b5b30792eb350607495ebe7f79c5a5066287187429654459fae715b205501517ff8bb2a4b5b30792eb350607495ebe7f79c5a5066287187429654459fae715b21556131f8565b610cb55780f35b7fffffffffffffffffffffffffffffffffffffffffffffffffffffffffffff00ff81541681557f7f26b83ff96e1f2b6a682f133852f6798a09c465da95921460cefb3847402498602060405160018152a180f35b60646040517f08c379a000000000000000000000000000000000000000000000000000000000815260206004820152601c60248201527f49474f5772697461626c655f5f6772616e64546f74616c5f5a45524f000000006044820152fd5b60846040517f08c379a000000000000000000000000000000000000000000000000000000000815260206004820152602160248201527f49474f5772697461626c655f5f7065726d6974325f5a45524f5f41444452455360448201527f53000000000000000000000000000000000000000000000000000000000000006064820152fd5b60846040517f08c379a000000000000000000000000000000000000000000000000000000000815260206004820152602660248201527f49474f5772697461626c655f5f7061796d656e74546f6b656e5f5a45524f5f4160448201527f44445245535300000000000000000000000000000000000000000000000000006064820152fd5b60846040517f08c379a000000000000000000000000000000000000000000000000000000000815260206004820152602960248201527f49474f5772697461626c655f5f76657374696e67436f6e74726163745f5a455260448201527f4f5f4144445245535300000000000000000000000000000000000000000000006064820152fd5b60646040517f08c379a000000000000000000000000000000000000000000000000000000000815260206004820152601f60248201527f49474f5772697461626c655f5f6f776e65725f5a45524f5f41444452455353006044820152fd5b7fffffffffffffffffffffffffffffffffffffffffffffffffffffffffffff00001661010117865538610a77565b60846040517f08c379a000000000000000000000000000000000000000000000000000000000815260206004820152602e60248201527f496e697469616c697a61626c653a20636f6e747261637420697320616c72656160448201527f647920696e697469616c697a65640000000000000000000000000000000000006064820152fd5b50303b158015610a445750600160ff821614610a44565b50600160ff821610610a3d565b8380fd5b600080fd5b503461036e57602060031936011261036e5760043567ffffffffffffffff811161082c576107f36110659136906004016125c4565b60017fffffffffffffffffffffffffffffffffffffffffffffffffffffffffffffff0082541617905580f35b503461036e578060031936011261036e576110aa612820565b600073ffffffffffffffffffffffffffffffffffffffff81547fffffffffffffffffffff0000000000000000000000000000000000000000ffff8116835560101c167f8be0079c531659141344cd1fd0a4f28419497f9722a3daafe3b4186f6b6457e08280a380f35b503461036e578060031936011261036e5761112c612820565b7ff8bb2a4b5b30792eb350607495ebe7f79c5a5066287187429654459fae715b2460017fffffffffffffffffffffffffffffffffffffffffffffffffffffffffffffff0082541617905580f35b503461036e57604060031936011261036e5760043567ffffffffffffffff811161082c576111ab9036906004016125c4565b600361087f602435926111bc612820565b6107fb6111c7612a07565b60606111ec876111e76080850151896111df89612c71565b015490612cb6565b612bac565b91015190613822565b503461036e5760031960808136011261082c5767ffffffffffffffff6024351161082c576080816024353603011261082c5767ffffffffffffffff6044351161082c5736602360443501121561082c5767ffffffffffffffff604435600401351161082c573660246044356004013560051b60443501011161082c576064359067ffffffffffffffff82116102f757606090823603011261082c57600260015414611e905760026001556112ae6004602435018061292d565b6112ba8183949361297e565b92604051936112c8856124aa565b60ff8154166004811015611e63579060059186526001810154602087015260028101546fffffffffffffffffffffffffffffffff8116604088015260801c60608701526003810154608087015273ffffffffffffffffffffffffffffffffffffffff60048201541660a0870152015460c0850152611344612a07565b936080810151926060860151946113bc6113b36113ac6113676024803501612b4c565b73ffffffffffffffffffffffffffffffffffffffff166000527ff8bb2a4b5b30792eb350607495ebe7f79c5a5066287187429654459fae715b27602052604060002090565b84876129ee565b54600435612bac565b604460243501358111611e1857506113d76024803501612b4c565b73ffffffffffffffffffffffffffffffffffffffff33911603611dba576114217ff8bb2a4b5b30792eb350607495ebe7f79c5a5066287187429654459fae715b2554600435612bac565b868111611d7a575060ff7ff8bb2a4b5b30792eb350607495ebe7f79c5a5066287187429654459fae715b2454166004811015611d4d5760018103611d14575061148161147c6114756004602435018061292d565b369161258d565b612d13565b61148e6113b383866129b6565b858111611cbb575060016114b06114aa6004602435018061292d565b9061297e565b0154966040516020808201527fffffffffffffffffffffffffffffffffffffffffffffffffffffffffffffffdd602435360301602435600401351215611cb75767ffffffffffffffff600460243560243582013501013511611cb7576004602480358281013501918201353603910113611cb757608060408201526115b68161154c60c082016004602480358281013501918201359101612b6d565b73ffffffffffffffffffffffffffffffffffffffff61156e6024803501612628565b166060830152602435604481013560808401526064013560a0830152037fffffffffffffffffffffffffffffffffffffffffffffffffffffffffffffffe08101835282612512565b60208151910120956115cd60443560040135612649565b966115db6040519889612512565b60443560048101358952602401602089015b60246044356004013560051b60443501018210611ca7575050978a985b88518a10156116525761161d8a8a612f23565b519081811015611640578c5260205261163a60408c205b99612ef6565b9861160a565b908c5260205261163a60408c20611634565b8b98508a03611c495761172261171b61166e6024803501612b4c565b61169b6004357ff8bb2a4b5b30792eb350607495ebe7f79c5a5066287187429654459fae715b2554612bac565b7ff8bb2a4b5b30792eb350607495ebe7f79c5a5066287187429654459fae715b25556116c7888b6129b6565b6116d46004358254612bac565b905573ffffffffffffffffffffffffffffffffffffffff166000527ff8bb2a4b5b30792eb350607495ebe7f79c5a5066287187429654459fae715b27602052604060002090565b86896129ee565b61172f6004358254612bac565b90557ff8bb2a4b5b30792eb350607495ebe7f79c5a5066287187429654459fae715b255414611bdb575b61176384876129b6565b5414611b9f575b6002611776848761297e565b015460801c421015611b63575b60a084015173ffffffffffffffffffffffffffffffffffffffff168015611b4157935b73ffffffffffffffffffffffffffffffffffffffff8251169060c06117ce6024803501612b4c565b910151916004358360043502048314600435151715611b1457908189923b156102f75788838861185794670de0b6b3a764000073ffffffffffffffffffffffffffffffffffffffff98898e6040519b8c9a8b998a987f37a97db7000000000000000000000000000000000000000000000000000000008a5260c060048b015260c48a0191612b6d565b951660248701526004356044870152166064850152600435020460848301526064602435013560a483015203925af18015611b0957611af4575b50908173ffffffffffffffffffffffffffffffffffffffff6040889401511691600060206040516118c1816124f6565b828152015283604080516118d4816124da565b81516118df816124f6565b60008152600060208201528152826020820152015260006020604051611904816124f6565b828152015261198173ffffffffffffffffffffffffffffffffffffffff6040519361192e856124f6565b8189168552600435602086015260405194611948866124da565b855260448401356020860152602484013560408601525116916040519261196e846124f6565b835260043560208401526004018061292d565b8491943b1561035857858094611a43611a2a976040948551998a98899788967f30f28b7a0000000000000000000000000000000000000000000000000000000088526119f16004890182516020809173ffffffffffffffffffffffffffffffffffffffff81511684520151910152565b60208181015160448a01529101516064880152815173ffffffffffffffffffffffffffffffffffffffff166084880152015160a4860152565b3360c485015261010060e4850152610104840191612b6d565b03925af18015611ae957611ad5575b5050611a616024803501612b4c565b92816040519283928337810185815203902073ffffffffffffffffffffffffffffffffffffffff604051921682527f24b17f7cc1c323d081ca24ebe682df530605d2207ecdde5a86c1d0bb44a88a6d602073ffffffffffffffffffffffffffffffffffffffff600435951693a46001805580f35b611ade906124c6565b611027578385611a52565b6040513d84823e3d90fd5b611b0190969192966124c6565b949086611891565b6040513d89823e3d90fd5b6024897f4e487b710000000000000000000000000000000000000000000000000000000081526011600452fd5b5073ffffffffffffffffffffffffffffffffffffffff602082015116936117a6565b611b716107fb36858861258d565b60027fffffffffffffffffffffffffffffffffffffffffffffffffffffffffffffff00825416179055611783565b611bad6107fb36858861258d565b60027fffffffffffffffffffffffffffffffffffffffffffffffffffffffffffffff0082541617905561176a565b60027fffffffffffffffffffffffffffffffffffffffffffffffffffffffffffffff007ff8bb2a4b5b30792eb350607495ebe7f79c5a5066287187429654459fae715b245416177ff8bb2a4b5b30792eb350607495ebe7f79c5a5066287187429654459fae715b2455611759565b60646040517f08c379a000000000000000000000000000000000000000000000000000000000815260206004820152601460248201527f414c4c4f434154494f4e5f4e4f545f464f554e440000000000000000000000006044820152fd5b81358152602091820191016115ed565b8980fd5b8286611cc8818894612cb6565b611d056040519485947f2877ff9e000000000000000000000000000000000000000000000000000000008652606060048701526064860191612b6d565b91602484015260448301520390fd5b602490611d4b604051917fb293db190000000000000000000000000000000000000000000000000000000083526004830190612cc3565bfd5b6024897f4e487b710000000000000000000000000000000000000000000000000000000081526021600452fd5b86611d8781604493612cb6565b604051917fcced311a00000000000000000000000000000000000000000000000000000000835260048301526024820152fd5b60646040517f08c379a000000000000000000000000000000000000000000000000000000000815260206004820152601a60248201527f6d73672e73656e6465723a204e4f545f415554484f52495a45440000000000006044820152fd5b611e2a60449182602435013590612cb6565b604051907fadaa553200000000000000000000000000000000000000000000000000000000825282602435013560048301526024820152fd5b6024877f4e487b710000000000000000000000000000000000000000000000000000000081526021600452fd5b60646040517f08c379a000000000000000000000000000000000000000000000000000000000815260206004820152601f60248201527f5265656e7472616e637947756172643a207265656e7472616e742063616c6c006044820152fd5b503461036e578060031936011261036e57611f07612820565b7ff8bb2a4b5b30792eb350607495ebe7f79c5a5066287187429654459fae715b2460037fffffffffffffffffffffffffffffffffffffffffffffffffffffffffffffff0082541617905580f35b503461036e5761010060031936011261036e5767ffffffffffffffff806004351161082c5736602360043501121561082c57600435600401351161036e573660246004356004013560043501011161036e5760e07fffffffffffffffffffffffffffffffffffffffffffffffffffffffffffffffdc36011261036e57611fd8612820565b604051611fe4816124aa565b6004602435101561082c5760243581526044356020820152606435906fffffffffffffffffffffffffffffffff821682036102f7578160408201526fffffffffffffffffffffffffffffffff60843516608435036102f757608435606082015260a435608082015260c43573ffffffffffffffffffffffffffffffffffffffff8116810361102757816120869160a061208b94015260e43560c0820152613710565b613097565b6120a06004356004013560246004350161297e565b906040516120ad816124aa565b60ff835416600481101561247d579061219f6121988360809484526001870154602085015260028701546fffffffffffffffffffffffffffffffff81166040860152851c6060850152600387015485850152612187600573ffffffffffffffffffffffffffffffffffffffff60048a015416988960a08801520154978860c08701527ff8bb2a4b5b30792eb350607495ebe7f79c5a5066287187429654459fae715b1f54987ff8bb2a4b5b30792eb350607495ebe7f79c5a5066287187429654459fae715b20549360e43592612181612b29565b91613779565b6111e760a435918686015190612cb6565b9485613822565b015115612294575b6122166121bf6004356004013560246004350161297e565b916121cc60243584612be8565b60443560018401556fffffffffffffffffffffffffffffffff167fffffffffffffffffffffffffffffffff0000000000000000000000000000000060843560801b16176002830155565b60a43560038201556004810173ffffffffffffffffffffffffffffffffffffffff61223f612b29565b167fffffffffffffffffffffffff0000000000000000000000000000000000000000825416179055600560e4359101557ff8bb2a4b5b30792eb350607495ebe7f79c5a5066287187429654459fae715b205580f35b7ff8bb2a4b5b30792eb350607495ebe7f79c5a5066287187429654459fae715b2280549068010000000000000000821015612450576001820190556122d8906130fc565b612424576122f6600435600401356122f08354613151565b836131a4565b83601f600435600401351160011461236857849060043560040135612358575b506004356004013560011b907fffffffffffffffffffffffffffffffffffffffffffffffffffffffffffffffff6004356004013560031b1c19161790556121a7565b6024915060043501013538612316565b81855260208520906004803501357fffffffffffffffffffffffffffffffffffffffffffffffffffffffffffffffe016865b818110612407575060043560040135116123c4575b5050600160043560040135811b0190556121a7565b60247fffffffffffffffffffffffffffffffffffffffffffffffffffffffffffffffff60f86004356004013560031b161c199160043501013516905538806123af565b91926020600181926024876004350101358155019401920161239a565b6024847f4e487b7100000000000000000000000000000000000000000000000000000000815280600452fd5b6024857f4e487b710000000000000000000000000000000000000000000000000000000081526041600452fd5b6024857f4e487b710000000000000000000000000000000000000000000000000000000081526021600452fd5b60e0810190811067ffffffffffffffff82111761030357604052565b67ffffffffffffffff811161030357604052565b6060810190811067ffffffffffffffff82111761030357604052565b6040810190811067ffffffffffffffff82111761030357604052565b90601f7fffffffffffffffffffffffffffffffffffffffffffffffffffffffffffffffe0910116810190811067ffffffffffffffff82111761030357604052565b67ffffffffffffffff811161030357601f017fffffffffffffffffffffffffffffffffffffffffffffffffffffffffffffffe01660200190565b92919261259982612553565b916125a76040519384612512565b82948184528183011161102b578281602093846000960137010152565b9080601f8301121561102b578160206125df9335910161258d565b90565b6004359073ffffffffffffffffffffffffffffffffffffffff8216820361102b57565b6024359073ffffffffffffffffffffffffffffffffffffffff8216820361102b57565b359073ffffffffffffffffffffffffffffffffffffffff8216820361102b57565b67ffffffffffffffff81116103035760051b60200190565b9080601f8301121561102b5781359061267982612649565b926126876040519485612512565b828452602092838086019160051b8301019280841161102b57848301915b8483106126b55750505050505090565b823567ffffffffffffffff811161102b5786916126d7848480948901016125c4565b8152019201916126a5565b35906fffffffffffffffffffffffffffffffff8216820361102b57565b81601f8201121561102b5780359061271682612649565b9260409061272682519586612512565b838552602091828601918360e08097028601019481861161102b578401925b858410612756575050505050505090565b868483031261102b5782519061276b826124aa565b843590600482101561102b578287928a945282870135838201526127908688016126e2565b8682015260606127a18189016126e2565b908201526080808801359082015260a06127bc818901612628565b9082015260c08088013590820152815201930192612745565b604060031982011261102b576004359067ffffffffffffffff821161102b57612800916004016125c4565b906024356fffffffffffffffffffffffffffffffff8116810361102b5790565b73ffffffffffffffffffffffffffffffffffffffff60005460101c16330361284457565b60646040517f08c379a000000000000000000000000000000000000000000000000000000000815260206004820152602060248201527f4f776e61626c653a2063616c6c6572206973206e6f7420746865206f776e65726044820152fd5b6000549075ffffffffffffffffffffffffffffffffffffffff00008160101b167fffffffffffffffffffff0000000000000000000000000000000000000000ffff83161760005573ffffffffffffffffffffffffffffffffffffffff8091169160101c167f8be0079c531659141344cd1fd0a4f28419497f9722a3daafe3b4186f6b6457e0600080a3565b9035907fffffffffffffffffffffffffffffffffffffffffffffffffffffffffffffffe18136030182121561102b570180359067ffffffffffffffff821161102b5760200191813603831361102b57565b60209082604051938492833781017ff8bb2a4b5b30792eb350607495ebe7f79c5a5066287187429654459fae715b2381520301902090565b60209082604051938492833781017ff8bb2a4b5b30792eb350607495ebe7f79c5a5066287187429654459fae715b2681520301902090565b6020919283604051948593843782019081520301902090565b6040519060c0820182811067ffffffffffffffff821117610303576040528173ffffffffffffffffffffffffffffffffffffffff807ff8bb2a4b5b30792eb350607495ebe7f79c5a5066287187429654459fae715b1c54168252807ff8bb2a4b5b30792eb350607495ebe7f79c5a5066287187429654459fae715b1d541660208301527ff8bb2a4b5b30792eb350607495ebe7f79c5a5066287187429654459fae715b1e541660408201527ff8bb2a4b5b30792eb350607495ebe7f79c5a5066287187429654459fae715b1f5460608201527ff8bb2a4b5b30792eb350607495ebe7f79c5a5066287187429654459fae715b2054608082015260a07ff8bb2a4b5b30792eb350607495ebe7f79c5a5066287187429654459fae715b2154910152565b60c43573ffffffffffffffffffffffffffffffffffffffff8116810361102b5790565b3573ffffffffffffffffffffffffffffffffffffffff8116810361102b5790565b601f82602094937fffffffffffffffffffffffffffffffffffffffffffffffffffffffffffffffe0938186528686013760008582860101520116010190565b91908201809211612bb957565b7f4e487b7100000000000000000000000000000000000000000000000000000000600052601160045260246000fd5b906004811015612c1f5760ff7fffffffffffffffffffffffffffffffffffffffffffffffffffffffffffffff008354169116179055565b7f4e487b7100000000000000000000000000000000000000000000000000000000600052602160045260246000fd5b60005b838110612c615750506000910152565b8181015183820152602001612c51565b6020612c8a918160405193828580945193849201612c4e565b81017ff8bb2a4b5b30792eb350607495ebe7f79c5a5066287187429654459fae715b2381520301902090565b91908203918211612bb957565b906004821015612c1f5752565b907fffffffffffffffffffffffffffffffffffffffffffffffffffffffffffffffe0601f602093612d0c81518092818752878088019101612c4e565b0116010190565b612d1c81612c71565b604051612d28816124aa565b60ff82541660049283821015612ec8578183526001810154602084015260028101549160056fffffffffffffffffffffffffffffffff84169384604087015260801c928360608701526003810154608087015273ffffffffffffffffffffffffffffffffffffffff878201541660a0870152015460c0850152159182612ebd575b5081612eb3575b50612e7d57805182811015612e4f57600103612dcb57505050565b5181811015612e2157612e1d612e1260409485519586957f5f08440f0000000000000000000000000000000000000000000000000000000087528601526044850190612cd0565b916024840190612cc3565b0390fd5b6021827f4e487b71000000000000000000000000000000000000000000000000000000006000525260246000fd5b6021837f4e487b71000000000000000000000000000000000000000000000000000000006000525260246000fd5b5050612e8890612c71565b60017fffffffffffffffffffffffffffffffffffffffffffffffffffffffffffffff00825416179055565b9050421038612db0565b421015915038612da9565b6021847f4e487b71000000000000000000000000000000000000000000000000000000006000525260246000fd5b7fffffffffffffffffffffffffffffffffffffffffffffffffffffffffffffffff8114612bb95760010190565b8051821015612f375760209160051b010190565b7f4e487b7100000000000000000000000000000000000000000000000000000000600052603260045260246000fd5b15612f6d57565b60646040517f08c379a000000000000000000000000000000000000000000000000000000000815260206004820152601260248201527f546f6b656e5f5a45524f5f4144445245535300000000000000000000000000006044820152fd5b919290156130465750815115612fdf575090565b3b15612fe85790565b60646040517f08c379a000000000000000000000000000000000000000000000000000000000815260206004820152601d60248201527f416464726573733a2063616c6c20746f206e6f6e2d636f6e74726163740000006044820152fd5b8251909150156130595750805190602001fd5b612e1d906040519182917f08c379a0000000000000000000000000000000000000000000000000000000008352602060048401526024830190612cd0565b1561309e57565b60646040517f08c379a000000000000000000000000000000000000000000000000000000000815260206004820152600b60248201527f494e56414c49445f5441470000000000000000000000000000000000000000006044820152fd5b7ff8bb2a4b5b30792eb350607495ebe7f79c5a5066287187429654459fae715b228054821015612f37576000527f65081cd3ad5fc84209c8310f7404cee8bc03efec5e3d920e46e7ba762f27ce4c0190600090565b90600182811c9216801561319a575b602083101461316b57565b7f4e487b7100000000000000000000000000000000000000000000000000000000600052602260045260246000fd5b91607f1691613160565b90601f81116131b257505050565b600091825260208220906020601f850160051c830194106131ee575b601f0160051c01915b8281106131e357505050565b8181556001016131d7565b90925082906131ce565b80518251036136b25780517ff8bb2a4b5b30792eb350607495ebe7f79c5a5066287187429654459fae715b1f54927ff8bb2a4b5b30792eb350607495ebe7f79c5a5066287187429654459fae715b205493600060c0604051613259816124aa565b8281528260208201528260408201528260608201528260808201528260a0820152015260005b8381106132af5750505050507ff8bb2a4b5b30792eb350607495ebe7f79c5a5066287187429654459fae715b2055565b6132c26132bc8287612f23565b51612c71565b95604051966132d0886124aa565b60ff815416906004821015612c1f576005918952600181015460208a015260028101546fffffffffffffffffffffffffffffffff811660408b015260801c60608a0152600381015460808a015273ffffffffffffffffffffffffffffffffffffffff60048201541660a08a0152015460c088015261335a6120866133548487612f23565b51613710565b8651906004821015612c1f576133d86133ec916133ce608094888c73ffffffffffffffffffffffffffffffffffffffff60a08201511660c06133c58b8273ffffffffffffffffffffffffffffffffffffffff60a06133b8848a612f23565b5101511695015195612f23565b51015193613779565b838a015190612cb6565b826133e38588612f23565b51015190612bac565b966133f78489613822565b0151156134e9575b6134098184612f23565b51906134186132bc8288612f23565b8251926004841015612c1f5760c06005916134366134e49685612be8565b602081015160018501556040810151606082015160801b7fffffffffffffffffffffffffffffffff00000000000000000000000000000000166fffffffffffffffffffffffffffffffff91909116176002850155608081015160038501556004840173ffffffffffffffffffffffffffffffffffffffff60a0830151167fffffffffffffffffffffffff00000000000000000000000000000000000000008254161790550151910155612ef6565b61327f565b6134f38186612f23565b517ff8bb2a4b5b30792eb350607495ebe7f79c5a5066287187429654459fae715b2280546801000000000000000081101561030357613537916001820190556130fc565b9190916136835780519067ffffffffffffffff8211610303578190613566826135608654613151565b866131a4565b602090601f83116001146135bd576000926135b2575b50507fffffffffffffffffffffffffffffffffffffffffffffffffffffffffffffffff8260011b9260031b1c19161790556133ff565b01519050388061357c565b9250836000526020600020906000935b7fffffffffffffffffffffffffffffffffffffffffffffffffffffffffffffffe0841685106136685760019450837fffffffffffffffffffffffffffffffffffffffffffffffffffffffffffffffe0811610613631575b505050811b0190556133ff565b01517fffffffffffffffffffffffffffffffffffffffffffffffffffffffffffffffff60f88460031b161c19169055388080613624565b818101518355602094850194600190930192909101906135cd565b7f4e487b7100000000000000000000000000000000000000000000000000000000600052600060045260246000fd5b60646040517f08c379a000000000000000000000000000000000000000000000000000000000815260206004820152601f60248201527f49474f5772697461626c653a207461677320617272617973206c656e677468006044820152fd5b602081015115159081613758575b81613738575b8161372d575090565b608091500151151590565b60608101516fffffffffffffffffffffffffffffffff1642109150613724565b60408101516fffffffffffffffffffffffffffffffff16421115915061371e565b9392939190916004811015612c1f576137c157505090501561379757565b60046040517f93c16572000000000000000000000000000000000000000000000000000000008152fd5b73ffffffffffffffffffffffffffffffffffffffff80911691161491821592613817575b50506137ed57565b60046040517ff85d06f8000000000000000000000000000000000000000000000000000000008152fd5b1415905038806137e5565b81811161382d575050565b60249161383991612cb6565b604051907f2e2a58540000000000000000000000000000000000000000000000000000000082526004820152fdfea2646970667358221220c40d29af9827d4a9d47c508fb61eb9e23f2d1d6c9082e33a1e128410cba049a164736f6c63430008110033",
    "linkReferences": {}
  },
  "methodIdentifiers": {
    "initialize(address,(address,address,address,uint256,uint256,uint256),string[],(uint8,bytes32,uint128,uint128,uint256,address,uint256)[])": "897c1b79",
    "openIGO()": "5a5fdab7",
    "openTag(string)": "852c49a7",
    "owner()": "8da5cb5b",
    "pauseIGO()": "1bcaddc2",
    "pauseTag(string)": "98e3fdc4",
    "recoverLostERC20(address,address)": "faf0c581",
    "renounceOwnership()": "715018a6",
    "reserveAllocation(uint256,(string,address,uint256,uint256),bytes32[],(bytes,uint256,uint256))": "28d5796f",
    "transferOwnership(address)": "f2fde38b",
    "updateDefaultPaymentToken(address)": "a1024912",
    "updateGrandTotal(uint256)": "f1efb931",
    "updateSetTag(string,(uint8,bytes32,uint128,uint128,uint256,address,uint256))": "02912bd3",
    "updateSetTags(string[],(uint8,bytes32,uint128,uint128,uint256,address,uint256)[])": "f86df59b",
    "updateTagEndDate(string,uint128)": "db365f84",
    "updateTagMaxCap(string,uint256)": "5625671e",
    "updateTagMerkleRoot(string,bytes32)": "907d3085",
    "updateTagStartDate(string,uint128)": "e6807afd"
  },
  "id": 57
}