{
  "abi": [
    {
      "inputs": [
        {
          "internalType": "enum ISharedInternal.Stage",
          "name": "current",
          "type": "uint8"
        }
      ],
      "name": "IGOWritableInternal_IGONotOpened",
      "type": "error"
    },
    {
      "inputs": [
        {
          "internalType": "string",
          "name": "tagId",
          "type": "string"
        },
        {
          "internalType": "enum ISharedInternal.Stage",
          "name": "current",
          "type": "uint8"
        }
      ],
      "name": "IGOWritableInternal_TagNotOpened",
      "type": "error"
    },
    {
      "inputs": [
        {
          "internalType": "uint256",
          "name": "allocation",
          "type": "uint256"
        },
        {
          "internalType": "uint256",
          "name": "exceedsBy",
          "type": "uint256"
        }
      ],
      "name": "IGOWritable_AllocationExceeded",
      "type": "error"
    },
    {
      "inputs": [
        {
          "internalType": "uint256",
          "name": "grandTotal",
          "type": "uint256"
        },
        {
          "internalType": "uint256",
          "name": "exceedsBy",
          "type": "uint256"
        }
      ],
      "name": "IGOWritable_GrandTotalExceeded",
      "type": "error"
    },
    {
      "inputs": [
        {
          "internalType": "string",
          "name": "tagId",
          "type": "string"
        },
        {
          "internalType": "uint256",
          "name": "maxTagCap",
          "type": "uint256"
        },
        {
          "internalType": "uint256",
          "name": "exceedsBy",
          "type": "uint256"
        }
      ],
      "name": "IGOWritable_MaxTagCapExceeded",
      "type": "error"
    },
    {
      "inputs": [],
      "name": "IGOWritable_NoPaymentTokenOrPriceUpdate",
      "type": "error"
    },
    {
      "inputs": [],
      "name": "IGOWritable_ProjectTokenPrice_ZERO",
      "type": "error"
    },
    {
      "inputs": [
        {
          "internalType": "uint256",
          "name": "greaterBy",
          "type": "uint256"
        }
      ],
      "name": "IGOWritable_SummedMaxTagCapGtGrandTotal",
      "type": "error"
    },
    {
      "anonymous": false,
      "inputs": [
        {
          "indexed": true,
          "internalType": "string",
          "name": "tagId",
          "type": "string"
        },
        {
          "indexed": true,
          "internalType": "address",
          "name": "buyer",
          "type": "address"
        },
        {
          "indexed": true,
          "internalType": "uint256",
          "name": "paymentTokenAmount",
          "type": "uint256"
        },
        {
          "indexed": false,
          "internalType": "address",
          "name": "paymentToken",
          "type": "address"
        }
      ],
      "name": "AllocationReserved",
      "type": "event"
    },
    {
      "anonymous": false,
      "inputs": [
        {
          "indexed": false,
          "internalType": "uint8",
          "name": "version",
          "type": "uint8"
        }
      ],
      "name": "Initialized",
      "type": "event"
    },
    {
      "anonymous": false,
      "inputs": [
        {
          "indexed": true,
          "internalType": "address",
          "name": "previousOwner",
          "type": "address"
        },
        {
          "indexed": true,
          "internalType": "address",
          "name": "newOwner",
          "type": "address"
        }
      ],
      "name": "OwnershipTransferred",
      "type": "event"
    },
    {
      "inputs": [
        {
          "internalType": "address",
          "name": "owner",
          "type": "address"
        },
        {
          "components": [
            {
              "internalType": "address",
              "name": "vestingContract",
              "type": "address"
            },
            {
              "internalType": "address",
              "name": "paymentToken",
              "type": "address"
            },
            {
              "internalType": "address",
              "name": "permit2",
              "type": "address"
            },
            {
              "internalType": "uint256",
              "name": "grandTotal",
              "type": "uint256"
            },
            {
              "internalType": "uint256",
              "name": "summedMaxTagCap",
              "type": "uint256"
            },
            {
              "internalType": "uint256",
              "name": "refundFeeDecimals",
              "type": "uint256"
            }
          ],
          "internalType": "struct IGOStorage.SetUp",
          "name": "setUp",
          "type": "tuple"
        },
        {
          "internalType": "string[]",
          "name": "tagIds_",
          "type": "string[]"
        },
        {
          "components": [
            {
              "internalType": "enum ISharedInternal.Stage",
              "name": "stage",
              "type": "uint8"
            },
            {
              "internalType": "bytes32",
              "name": "merkleRoot",
              "type": "bytes32"
            },
            {
              "internalType": "uint128",
              "name": "startAt",
              "type": "uint128"
            },
            {
              "internalType": "uint128",
              "name": "endAt",
              "type": "uint128"
            },
            {
              "internalType": "uint256",
              "name": "maxTagCap",
              "type": "uint256"
            },
            {
              "internalType": "address",
              "name": "paymentToken",
              "type": "address"
            },
            {
              "internalType": "uint256",
              "name": "projectTokenPrice",
              "type": "uint256"
            }
          ],
          "internalType": "struct ISharedInternal.Tag[]",
          "name": "tags",
          "type": "tuple[]"
        }
      ],
      "name": "initialize",
      "outputs": [],
      "stateMutability": "nonpayable",
      "type": "function"
    },
    {
      "inputs": [],
      "name": "openIGO",
      "outputs": [],
      "stateMutability": "nonpayable",
      "type": "function"
    },
    {
      "inputs": [
        {
          "internalType": "string",
          "name": "tagId",
          "type": "string"
        }
      ],
      "name": "openTag",
      "outputs": [],
      "stateMutability": "nonpayable",
      "type": "function"
    },
    {
      "inputs": [],
      "name": "owner",
      "outputs": [
        {
          "internalType": "address",
          "name": "",
          "type": "address"
        }
      ],
      "stateMutability": "view",
      "type": "function"
    },
    {
      "inputs": [],
      "name": "pauseIGO",
      "outputs": [],
      "stateMutability": "nonpayable",
      "type": "function"
    },
    {
      "inputs": [
        {
          "internalType": "string",
          "name": "tagId",
          "type": "string"
        }
      ],
      "name": "pauseTag",
      "outputs": [],
      "stateMutability": "nonpayable",
      "type": "function"
    },
    {
      "inputs": [
        {
          "internalType": "address",
          "name": "token",
          "type": "address"
        },
        {
          "internalType": "address",
          "name": "to",
          "type": "address"
        }
      ],
      "name": "recoverLostERC20",
      "outputs": [],
      "stateMutability": "nonpayable",
      "type": "function"
    },
    {
      "inputs": [],
      "name": "renounceOwnership",
      "outputs": [],
      "stateMutability": "nonpayable",
      "type": "function"
    },
    {
      "inputs": [
        {
          "internalType": "uint256",
          "name": "amount",
          "type": "uint256"
        },
        {
          "components": [
            {
              "internalType": "string",
              "name": "tagId",
              "type": "string"
            },
            {
              "internalType": "address",
              "name": "account",
              "type": "address"
            },
            {
              "internalType": "uint256",
              "name": "paymentTokenAmount",
              "type": "uint256"
            },
            {
              "internalType": "uint256",
              "name": "refundFee",
              "type": "uint256"
            }
          ],
          "internalType": "struct IIGOWritableInternal.Allocation",
          "name": "allocation",
          "type": "tuple"
        },
        {
          "internalType": "bytes32[]",
          "name": "proof",
          "type": "bytes32[]"
        },
        {
          "components": [
            {
              "internalType": "bytes",
              "name": "signature",
              "type": "bytes"
            },
            {
              "internalType": "uint256",
              "name": "deadline",
              "type": "uint256"
            },
            {
              "internalType": "uint256",
              "name": "nonce",
              "type": "uint256"
            }
          ],
          "internalType": "struct IIGOWritableInternal.BuyPermission",
          "name": "permission",
          "type": "tuple"
        }
      ],
      "name": "reserveAllocation",
      "outputs": [],
      "stateMutability": "nonpayable",
      "type": "function"
    },
    {
      "inputs": [
        {
          "internalType": "address",
          "name": "newOwner",
          "type": "address"
        }
      ],
      "name": "transferOwnership",
      "outputs": [],
      "stateMutability": "nonpayable",
      "type": "function"
    },
    {
      "inputs": [
        {
          "internalType": "address",
          "name": "token_",
          "type": "address"
        }
      ],
      "name": "updateDefaultPaymentToken",
      "outputs": [],
      "stateMutability": "nonpayable",
      "type": "function"
    },
    {
      "inputs": [
        {
          "internalType": "uint256",
          "name": "grandTotal_",
          "type": "uint256"
        }
      ],
      "name": "updateGrandTotal",
      "outputs": [],
      "stateMutability": "nonpayable",
      "type": "function"
    },
    {
      "inputs": [
        {
          "internalType": "string",
          "name": "tagId_",
          "type": "string"
        },
        {
          "components": [
            {
              "internalType": "enum ISharedInternal.Stage",
              "name": "stage",
              "type": "uint8"
            },
            {
              "internalType": "bytes32",
              "name": "merkleRoot",
              "type": "bytes32"
            },
            {
              "internalType": "uint128",
              "name": "startAt",
              "type": "uint128"
            },
            {
              "internalType": "uint128",
              "name": "endAt",
              "type": "uint128"
            },
            {
              "internalType": "uint256",
              "name": "maxTagCap",
              "type": "uint256"
            },
            {
              "internalType": "address",
              "name": "paymentToken",
              "type": "address"
            },
            {
              "internalType": "uint256",
              "name": "projectTokenPrice",
              "type": "uint256"
            }
          ],
          "internalType": "struct ISharedInternal.Tag",
          "name": "tag_",
          "type": "tuple"
        }
      ],
      "name": "updateSetTag",
      "outputs": [],
      "stateMutability": "nonpayable",
      "type": "function"
    },
    {
      "inputs": [
        {
          "internalType": "string[]",
          "name": "tagIdentifiers_",
          "type": "string[]"
        },
        {
          "components": [
            {
              "internalType": "enum ISharedInternal.Stage",
              "name": "stage",
              "type": "uint8"
            },
            {
              "internalType": "bytes32",
              "name": "merkleRoot",
              "type": "bytes32"
            },
            {
              "internalType": "uint128",
              "name": "startAt",
              "type": "uint128"
            },
            {
              "internalType": "uint128",
              "name": "endAt",
              "type": "uint128"
            },
            {
              "internalType": "uint256",
              "name": "maxTagCap",
              "type": "uint256"
            },
            {
              "internalType": "address",
              "name": "paymentToken",
              "type": "address"
            },
            {
              "internalType": "uint256",
              "name": "projectTokenPrice",
              "type": "uint256"
            }
          ],
          "internalType": "struct ISharedInternal.Tag[]",
          "name": "tags_",
          "type": "tuple[]"
        }
      ],
      "name": "updateSetTags",
      "outputs": [],
      "stateMutability": "nonpayable",
      "type": "function"
    },
    {
      "inputs": [
        {
          "internalType": "string",
          "name": "tagId",
          "type": "string"
        },
        {
          "internalType": "uint128",
          "name": "endAt",
          "type": "uint128"
        }
      ],
      "name": "updateTagEndDate",
      "outputs": [],
      "stateMutability": "nonpayable",
      "type": "function"
    },
    {
      "inputs": [
        {
          "internalType": "string",
          "name": "tagId",
          "type": "string"
        },
        {
          "internalType": "uint256",
          "name": "maxTagCap",
          "type": "uint256"
        }
      ],
      "name": "updateTagMaxCap",
      "outputs": [],
      "stateMutability": "nonpayable",
      "type": "function"
    },
    {
      "inputs": [
        {
          "internalType": "string",
          "name": "tagId",
          "type": "string"
        },
        {
          "internalType": "bytes32",
          "name": "merkleRoot",
          "type": "bytes32"
        }
      ],
      "name": "updateTagMerkleRoot",
      "outputs": [],
      "stateMutability": "nonpayable",
      "type": "function"
    },
    {
      "inputs": [
        {
          "internalType": "string",
          "name": "tagId",
          "type": "string"
        },
        {
          "internalType": "uint128",
          "name": "startAt",
          "type": "uint128"
        }
      ],
      "name": "updateTagStartDate",
      "outputs": [],
      "stateMutability": "nonpayable",
      "type": "function"
    }
  ],
  "bytecode": {
    "object": "0x60808060405234610074576000805462010000600160b01b0319811633601081811b62010000600160b01b03169290921784559291901c6001600160a01b0316907f8be0079c531659141344cd1fd0a4f28419497f9722a3daafe3b4186f6b6457e09080a36001805561366f908161007a8239f35b600080fdfe6080604052600436101561001257600080fd5b6000803560e01c806302912bd3146124595780631bcaddc2146123f357806328d5796f146116e95780635625671e1461166b5780635a5fdab714611605578063715018a614611583578063852c49a714611522578063897c1b7914610d765780638da5cb5b14610d40578063907d308514610c8d57806398e3fdc414610c1a578063a102491214610b73578063db365f8414610a92578063e6807afd146109c7578063f1efb931146108f3578063f2fde38b14610825578063f86df59b1461037b5763faf0c581146100e357600080fd5b34610378576040600319360112610378576100fc6127e8565b6024359073ffffffffffffffffffffffffffffffffffffffff9081831680930361037357610128612888565b16906101358215156130df565b604051907f70a082310000000000000000000000000000000000000000000000000000000082523060048301526020928383602481845afa928315610368578593610335575b5060405192848401927fa9059cbb0000000000000000000000000000000000000000000000000000000084526024850152604484015260448352608083019183831067ffffffffffffffff8411176103065785809161023c95856040526101e186612abb565b8786527f5361666545524332303a206c6f772d6c6576656c2063616c6c206661696c656460a0820152519082855af13d156102fe573d9161022183612ce7565b9261022f6040519485612ad7565b83523d878785013e613144565b80518281159182156102da575b5050905015610256575080f35b608490604051907f08c379a00000000000000000000000000000000000000000000000000000000082526004820152602a60248201527f5361666545524332303a204552433230206f7065726174696f6e20646964206e60448201527f6f742073756363656564000000000000000000000000000000000000000000006064820152fd5b83809293500103126102fa5781015180151581036102fa57808238610249565b8280fd5b606091613144565b7f4e487b7100000000000000000000000000000000000000000000000000000000600052604160045260246000fd5b9092508381813d8311610361575b61034d8183612ad7565b8101031261035d5751913861017b565b8480fd5b503d610343565b6040513d87823e3d90fd5b600080fd5b80fd5b50346103785760406003193601126103785767ffffffffffffffff6004358181116102fa576103ae9036906004016127b7565b91602435908111610821576103c790369060040161280b565b906103d0612888565b8184036107c3577ff8bb2a4b5b30792eb350607495ebe7f79c5a5066287187429654459fae715b1f547ff8bb2a4b5b30792eb350607495ebe7f79c5a5066287187429654459fae715b205494600060c060405161042c81612a6f565b8281528260208201528260408201528260608201528260808201528260a0820152015260005b8181106104805787877ff8bb2a4b5b30792eb350607495ebe7f79c5a5066287187429654459fae715b205580f35b61049461048e828489613520565b906129e6565b96604051976104a289612a6f565b60ff815416906004821015610733576005918a52600181015460208b015260028101546fffffffffffffffffffffffffffffffff811660408c015260801c60608b0152600381015460808b015273ffffffffffffffffffffffffffffffffffffffff60048201541660a08b0152015460c089015261054461052483888861353b565b602081013515159081610799575b81610770575b81610762575b50613210565b8751906004821015610733576105b46105c8916105aa608094898d8c60c06105a28b73ffffffffffffffffffffffffffffffffffffffff60a086015116938361059960a061059385858c61353b565b01612cc6565b9601519661353b565b01359361354b565b838b015190612e72565b826105c0858a8a61353b565b013590612d97565b976105d3858a6135f4565b01511561071a575b6105e681868661353b565b906105f561048e82858a613520565b60048335101561037357600560c084610612610715963585612dd3565b602081013560018501556106b4600285016fffffffffffffffffffffffffffffffff61064060408501613503565b167fffffffffffffffffffffffffffffffff0000000000000000000000000000000082541617815561067460608401613503565b6fffffffffffffffffffffffffffffffff7fffffffffffffffffffffffffffffffff0000000000000000000000000000000083549260801b169116179055565b608081013560038501556004840173ffffffffffffffffffffffffffffffffffffffff6106e360a08401612cc6565b167fffffffffffffffffffffffff000000000000000000000000000000000000000082541617905501359101556130b2565b610452565b61072e610728828489613520565b90613275565b6105db565b7f4e487b7100000000000000000000000000000000000000000000000000000000600052602160045260246000fd5b60809150013515153861053e565b905061077e60608201613503565b6fffffffffffffffffffffffffffffffff4291161190610538565b90506107a760408201613503565b6fffffffffffffffffffffffffffffffff429116101590610532565b60646040517f08c379a000000000000000000000000000000000000000000000000000000000815260206004820152601f60248201527f49474f5772697461626c653a207461677320617272617973206c656e677468006044820152fd5b8380fd5b50346103785760206003193601126103785761083f6127e8565b610847612888565b73ffffffffffffffffffffffffffffffffffffffff81161561086f5761086c9061290a565b80f35b60846040517f08c379a000000000000000000000000000000000000000000000000000000000815260206004820152602660248201527f4f776e61626c653a206e6577206f776e657220697320746865207a65726f206160448201527f64647265737300000000000000000000000000000000000000000000000000006064820152fd5b503461037857602060031936011261037857600435610910612888565b6103e8811061096957610944817ff8bb2a4b5b30792eb350607495ebe7f79c5a5066287187429654459fae715b20546135f4565b7ff8bb2a4b5b30792eb350607495ebe7f79c5a5066287187429654459fae715b1f5580f35b60646040517f08c379a000000000000000000000000000000000000000000000000000000000815260206004820152601b60248201527f6772616e64546f74616c5f4c6f7765725468616e5f5f315f30303000000000006044820152fd5b5034610378576fffffffffffffffffffffffffffffffff6109e73661283c565b6109f393919293612888565b1691428310610a3457600291610a08916129e6565b01907fffffffffffffffffffffffffffffffff0000000000000000000000000000000082541617905580f35b60646040517f08c379a000000000000000000000000000000000000000000000000000000000815260206004820152600d60248201527f53544152545f494e5f50415354000000000000000000000000000000000000006044820152fd5b503461037857610aa13661283c565b90610aaa612888565b426fffffffffffffffffffffffffffffffff83161115610b1557610ad360029161086c946129e6565b01906fffffffffffffffffffffffffffffffff7fffffffffffffffffffffffffffffffff0000000000000000000000000000000083549260801b169116179055565b60646040517f08c379a000000000000000000000000000000000000000000000000000000000815260206004820152600b60248201527f454e445f494e5f504153540000000000000000000000000000000000000000006044820152fd5b50346103785760206003193601126103785761086c610b906127e8565b610b98612888565b610bb973ffffffffffffffffffffffffffffffffffffffff821615156130df565b73ffffffffffffffffffffffffffffffffffffffff7ff8bb2a4b5b30792eb350607495ebe7f79c5a5066287187429654459fae715b1d91167fffffffffffffffffffffffff0000000000000000000000000000000000000000825416179055565b50346103785760206003193601126103785760043567ffffffffffffffff8111610c8957610c4f610c5d913690600401612789565b90610c58612888565b6129e6565b60037fffffffffffffffffffffffffffffffffffffffffffffffffffffffffffffff0082541617905580f35b5080fd5b50346103785760406003193601126103785760043567ffffffffffffffff8111610c8957610cbf903690600401612789565b60243591610ccb612888565b8215610ce257600191610cdd916129e6565b015580f35b60646040517f08c379a000000000000000000000000000000000000000000000000000000000815260206004820152601060248201527f4d65726b6c65526f6f745f454d505459000000000000000000000000000000006044820152fd5b503461037857806003193601126103785773ffffffffffffffffffffffffffffffffffffffff6020915460101c16604051908152f35b50346103785761012060031936011261037857610d916127e8565b60c07fffffffffffffffffffffffffffffffffffffffffffffffffffffffffffffffdc360112610c895767ffffffffffffffff60e43581811161082157610ddc9036906004016127b7565b916101043590811161035d57610df690369060040161280b565b929085549460ff8660081c161595868097611515575b80156114fe575b1561147a578660017fffffffffffffffffffffffffffffffffffffffffffffffffffffffffffffff00831617895561144c575b50610e4f612888565b73ffffffffffffffffffffffffffffffffffffffff8116156113ee5773ffffffffffffffffffffffffffffffffffffffff610e88612c5d565b161561136a5773ffffffffffffffffffffffffffffffffffffffff610eab612c80565b16156112e65773ffffffffffffffffffffffffffffffffffffffff610ece612ca3565b1615611262576084351561120457610ee59061290a565b73ffffffffffffffffffffffffffffffffffffffff610f02612c5d565b167ff8bb2a4b5b30792eb350607495ebe7f79c5a5066287187429654459fae715b1c907fffffffffffffffffffffffff0000000000000000000000000000000000000000825416179055610f57610bb9612c80565b73ffffffffffffffffffffffffffffffffffffffff610f74612ca3565b167ff8bb2a4b5b30792eb350607495ebe7f79c5a5066287187429654459fae715b1e907fffffffffffffffffffffffff00000000000000000000000000000000000000008254161790556084357ff8bb2a4b5b30792eb350607495ebe7f79c5a5066287187429654459fae715b1f5560a435807ff8bb2a4b5b30792eb350607495ebe7f79c5a5066287187429654459fae715b205560c4357ff8bb2a4b5b30792eb350607495ebe7f79c5a5066287187429654459fae715b21558483036107c35793600060c060405161104681612a6f565b8281528260208201528260408201528260608201528260808201528260a0820152015260005b8381106110f3578787877ff8bb2a4b5b30792eb350607495ebe7f79c5a5066287187429654459fae715b205561109f5780f35b7fffffffffffffffffffffffffffffffffffffffffffffffffffffffffffff00ff81541681557f7f26b83ff96e1f2b6a682f133852f6798a09c465da95921460cefb3847402498602060405160018152a180f35b61110161048e828688613520565b6040519661110e88612a6f565b60ff82541660048110156107335760806111a09260058295611194948d528c602060018301549101528c606060028301546fffffffffffffffffffffffffffffffff81166040840152861c9101528c600382015494859101528c60a073ffffffffffffffffffffffffffffffffffffffff600484015416910152015460c08c0152612e72565b826105c085878961353b565b966111ad608435896135f4565b0151156111f1575b6111c081838561353b565b906111cf61048e828789613520565b60048335101561037357600560c0846106126111ec963585612dd3565b61106c565b6111ff610728828688613520565b6111b5565b60646040517f08c379a000000000000000000000000000000000000000000000000000000000815260206004820152601c60248201527f49474f5772697461626c655f5f6772616e64546f74616c5f5a45524f000000006044820152fd5b60846040517f08c379a000000000000000000000000000000000000000000000000000000000815260206004820152602160248201527f49474f5772697461626c655f5f7065726d6974325f5a45524f5f41444452455360448201527f53000000000000000000000000000000000000000000000000000000000000006064820152fd5b60846040517f08c379a000000000000000000000000000000000000000000000000000000000815260206004820152602660248201527f49474f5772697461626c655f5f7061796d656e74546f6b656e5f5a45524f5f4160448201527f44445245535300000000000000000000000000000000000000000000000000006064820152fd5b60846040517f08c379a000000000000000000000000000000000000000000000000000000000815260206004820152602960248201527f49474f5772697461626c655f5f76657374696e67436f6e74726163745f5a455260448201527f4f5f4144445245535300000000000000000000000000000000000000000000006064820152fd5b60646040517f08c379a000000000000000000000000000000000000000000000000000000000815260206004820152601f60248201527f49474f5772697461626c655f5f6f776e65725f5a45524f5f41444452455353006044820152fd5b7fffffffffffffffffffffffffffffffffffffffffffffffffffffffffffff00001661010117875538610e46565b60846040517f08c379a000000000000000000000000000000000000000000000000000000000815260206004820152602e60248201527f496e697469616c697a61626c653a20636f6e747261637420697320616c72656160448201527f647920696e697469616c697a65640000000000000000000000000000000000006064820152fd5b50303b158015610e135750600160ff821614610e13565b50600160ff821610610e0c565b50346103785760206003193601126103785760043567ffffffffffffffff8111610c8957610c4f611557913690600401612789565b60017fffffffffffffffffffffffffffffffffffffffffffffffffffffffffffffff0082541617905580f35b503461037857806003193601126103785761159c612888565b600073ffffffffffffffffffffffffffffffffffffffff81547fffffffffffffffffffff0000000000000000000000000000000000000000ffff8116835560101c167f8be0079c531659141344cd1fd0a4f28419497f9722a3daafe3b4186f6b6457e08280a380f35b503461037857806003193601126103785761161e612888565b7ff8bb2a4b5b30792eb350607495ebe7f79c5a5066287187429654459fae715b2460017fffffffffffffffffffffffffffffffffffffffffffffffffffffffffffffff0082541617905580f35b50346103785760406003193601126103785760043567ffffffffffffffff8111610c895760036116a2610cdd923690600401612789565b60243593916116af612888565b610c586116ba612b18565b60606116e0886116db60808501518a6116d38a8a6129e6565b015490612e72565b612d97565b910151906135f4565b503461037857600319608081360112610c895767ffffffffffffffff60243511610c895760808160243536030112610c895760443567ffffffffffffffff81116102fa5761173b9036906004016127b7565b6064929192359167ffffffffffffffff831161035d5760609083360301126108215760026001541461239557600260015561177b60046024350180612995565b61178581836129e6565b906040519161179383612a6f565b60ff8154166004811015612368579060059184526001810154602085015260028101546fffffffffffffffffffffffffffffffff8116604086015260801c60608501526003810154608085015273ffffffffffffffffffffffffffffffffffffffff60048201541660a0850152015460c083015261180f612b18565b9460808301519560608101519661188761187e6118776118326024803501612cc6565b73ffffffffffffffffffffffffffffffffffffffff166000527ff8bb2a4b5b30792eb350607495ebe7f79c5a5066287187429654459fae715b27602052604060002090565b8689612a56565b54600435612d97565b60446024350135811161231d57506118a26024803501612cc6565b73ffffffffffffffffffffffffffffffffffffffff339116036122bf576118ec7ff8bb2a4b5b30792eb350607495ebe7f79c5a5066287187429654459fae715b2554600435612d97565b88811161227f575060ff7ff8bb2a4b5b30792eb350607495ebe7f79c5a5066287187429654459fae715b24541660048110156122525760018103612219575061194c61194761194060046024350180612995565b3691612d21565b612ecf565b61195961187e8588612a1e565b8181116121c05750600161197561048e60046024350180612995565b0154986040516020808201527fffffffffffffffffffffffffffffffffffffffffffffffffffffffffffffffdd6024353603016024356004013512156121bc57602435602435600401350167ffffffffffffffff6004820135116121b8576004810135360360248201136121b857611a01906080604084015260c0830190602460048201359101612d58565b60248035013573ffffffffffffffffffffffffffffffffffffffff811681036121875773ffffffffffffffffffffffffffffffffffffffff166060830152602435604481013560808401526064013560a08301528190037fffffffffffffffffffffffffffffffffffffffffffffffffffffffffffffffe081018252611a879082612ad7565b602081519101209067ffffffffffffffff891161218b578860051b60405199611ab3602083018c612ad7565b8a5260208a019036818401116121875782915b81840183106121775750505050978a985b88518a1015611b205760208a60051b8a01015190818110600014611b0e578c52602052611b0860408c205b996130b2565b98611ad7565b908c52602052611b0860408c20611b02565b8b98508a0361211957611be9611877611b3c6024803501612cc6565b611b696004357ff8bb2a4b5b30792eb350607495ebe7f79c5a5066287187429654459fae715b2554612d97565b7ff8bb2a4b5b30792eb350607495ebe7f79c5a5066287187429654459fae715b2555611b95888b612a1e565b611ba26004358254612d97565b905573ffffffffffffffffffffffffffffffffffffffff166000527ff8bb2a4b5b30792eb350607495ebe7f79c5a5066287187429654459fae715b27602052604060002090565b611bf66004358254612d97565b90557ff8bb2a4b5b30792eb350607495ebe7f79c5a5066287187429654459fae715b2554146120ab575b611c2a8487612a1e565b541461206f575b6002611c3d84876129e6565b015460801c42101561202e575b60a084015173ffffffffffffffffffffffffffffffffffffffff16801561200c57935b73ffffffffffffffffffffffffffffffffffffffff8251169060c0611c956024803501612cc6565b910151916004358360043502048314600435151715611fdf57908189923b156102fa57888388611d1e94670de0b6b3a764000073ffffffffffffffffffffffffffffffffffffffff98898e6040519b8c9a8b998a987f37a97db7000000000000000000000000000000000000000000000000000000008a5260c060048b015260c48a0191612d58565b951660248701526004356044870152166064850152600435020460848301526064602435013560a483015203925af18015611fd457611fbf575b50908173ffffffffffffffffffffffffffffffffffffffff604088940151169160006020604051611d8881612abb565b82815201528360408051611d9b81612a9f565b8151611da681612abb565b60008152600060208201528152826020820152015260006020604051611dcb81612abb565b8281520152611e4873ffffffffffffffffffffffffffffffffffffffff60405193611df585612abb565b8189168552600435602086015260405194611e0f86612a9f565b8552604484013560208601526024840135604086015251169160405192611e3584612abb565b8352600435602084015260040180612995565b8491943b15611fbb57858094611f0a611ef1976040948551998a98899788967f30f28b7a000000000000000000000000000000000000000000000000000000008852611eb86004890182516020809173ffffffffffffffffffffffffffffffffffffffff81511684520151910152565b60208181015160448a01529101516064880152815173ffffffffffffffffffffffffffffffffffffffff166084880152015160a4860152565b3360c485015261010060e4850152610104840191612d58565b03925af18015611fb057611f9c575b5050611f286024803501612cc6565b92816040519283928337810185815203902073ffffffffffffffffffffffffffffffffffffffff604051921682527f24b17f7cc1c323d081ca24ebe682df530605d2207ecdde5a86c1d0bb44a88a6d602073ffffffffffffffffffffffffffffffffffffffff600435951693a46001805580f35b611fa590612a8b565b610821578385611f19565b6040513d84823e3d90fd5b8580fd5b611fcc9096919296612a8b565b949086611d58565b6040513d89823e3d90fd5b6024897f4e487b710000000000000000000000000000000000000000000000000000000081526011600452fd5b5073ffffffffffffffffffffffffffffffffffffffff60208201511693611c6d565b61204161203c368588612d21565b612e2d565b60027fffffffffffffffffffffffffffffffffffffffffffffffffffffffffffffff00825416179055611c4a565b61207d61203c368588612d21565b60027fffffffffffffffffffffffffffffffffffffffffffffffffffffffffffffff00825416179055611c31565b60027fffffffffffffffffffffffffffffffffffffffffffffffffffffffffffffff007ff8bb2a4b5b30792eb350607495ebe7f79c5a5066287187429654459fae715b245416177ff8bb2a4b5b30792eb350607495ebe7f79c5a5066287187429654459fae715b2455611c20565b60646040517f08c379a000000000000000000000000000000000000000000000000000000000815260206004820152601460248201527f414c4c4f434154494f4e5f4e4f545f464f554e440000000000000000000000006044820152fd5b8235815260209283019201611ac6565b8d80fd5b60248c7f4e487b710000000000000000000000000000000000000000000000000000000081526041600452fd5b8c80fd5b8b80fd5b816121cd88938793612e72565b61220a6040519485947f2877ff9e000000000000000000000000000000000000000000000000000000008652606060048701526064860191612d58565b91602484015260448301520390fd5b602490612250604051917fb293db190000000000000000000000000000000000000000000000000000000083526004830190612e7f565bfd5b60248b7f4e487b710000000000000000000000000000000000000000000000000000000081526021600452fd5b8861228c81604493612e72565b604051917fcced311a00000000000000000000000000000000000000000000000000000000835260048301526024820152fd5b60646040517f08c379a000000000000000000000000000000000000000000000000000000000815260206004820152601a60248201527f6d73672e73656e6465723a204e4f545f415554484f52495a45440000000000006044820152fd5b61232f60449182602435013590612e72565b604051907fadaa553200000000000000000000000000000000000000000000000000000000825282602435013560048301526024820152fd5b6024897f4e487b710000000000000000000000000000000000000000000000000000000081526021600452fd5b60646040517f08c379a000000000000000000000000000000000000000000000000000000000815260206004820152601f60248201527f5265656e7472616e637947756172643a207265656e7472616e742063616c6c006044820152fd5b503461037857806003193601126103785761240c612888565b7ff8bb2a4b5b30792eb350607495ebe7f79c5a5066287187429654459fae715b2460037fffffffffffffffffffffffffffffffffffffffffffffffffffffffffffffff0082541617905580f35b5034610378576101006003193601126103785760043567ffffffffffffffff8111610c895761248c903690600401612789565b60e07fffffffffffffffffffffffffffffffffffffffffffffffffffffffffffffffdc939293360112610c89576124c1612888565b6044359081151580612763575b8061273e575b80612733575b6124e390613210565b6124ed81856129e6565b90604051926124fb84612a6f565b60ff8354169360048510156127065760c095968582526001850154602083015261260c6002860154946fffffffffffffffffffffffffffffffff95868116604086015260801c60608501526003870154926080850193845273ffffffffffffffffffffffffffffffffffffffff9460058660048b015416998a60a084015201549a8b9101526125e97ff8bb2a4b5b30792eb350607495ebe7f79c5a5066287187429654459fae715b1f549a6125e17ff8bb2a4b5b30792eb350607495ebe7f79c5a5066287187429654459fae715b209b8c54926125d6612c3a565b60e4359d8e9361354b565b855190612e72565b936126016125fa60a4358097612d97565b9b8c6135f4565b51156126fc576129e6565b9260243560048110156126f8576126239085612dd3565b6001840155600283016064358581168091036126f8577fffffffffffffffffffffffffffffffff0000000000000000000000000000000082541617815560843594851685036126f4576005946126b491906fffffffffffffffffffffffffffffffff7fffffffffffffffffffffffffffffffff0000000000000000000000000000000083549260801b169116179055565b600383015560048201906126c6612c3a565b167fffffffffffffffffffffffff000000000000000000000000000000000000000082541617905501555580f35b8880fd5b8980fd5b610c588282613275565b6024867f4e487b710000000000000000000000000000000000000000000000000000000081526021600452fd5b5060a43515156124da565b506084356fffffffffffffffffffffffffffffffff81168091036108215742106124d4565b506064356fffffffffffffffffffffffffffffffff8116809103610821574211156124ce565b9181601f840112156103735782359167ffffffffffffffff8311610373576020838186019501011161037357565b9181601f840112156103735782359167ffffffffffffffff8311610373576020808501948460051b01011161037357565b6004359073ffffffffffffffffffffffffffffffffffffffff8216820361037357565b9181601f840112156103735782359167ffffffffffffffff83116103735760208085019460e0850201011161037357565b6040600319820112610373576004359067ffffffffffffffff82116103735761286791600401612789565b90916024356fffffffffffffffffffffffffffffffff811681036103735790565b73ffffffffffffffffffffffffffffffffffffffff60005460101c1633036128ac57565b60646040517f08c379a000000000000000000000000000000000000000000000000000000000815260206004820152602060248201527f4f776e61626c653a2063616c6c6572206973206e6f7420746865206f776e65726044820152fd5b6000549075ffffffffffffffffffffffffffffffffffffffff00008160101b167fffffffffffffffffffff0000000000000000000000000000000000000000ffff83161760005573ffffffffffffffffffffffffffffffffffffffff8091169160101c167f8be0079c531659141344cd1fd0a4f28419497f9722a3daafe3b4186f6b6457e0600080a3565b9035907fffffffffffffffffffffffffffffffffffffffffffffffffffffffffffffffe181360301821215610373570180359067ffffffffffffffff82116103735760200191813603831361037357565b60209082604051938492833781017ff8bb2a4b5b30792eb350607495ebe7f79c5a5066287187429654459fae715b2381520301902090565b60209082604051938492833781017ff8bb2a4b5b30792eb350607495ebe7f79c5a5066287187429654459fae715b2681520301902090565b6020919283604051948593843782019081520301902090565b60e0810190811067ffffffffffffffff82111761030657604052565b67ffffffffffffffff811161030657604052565b6060810190811067ffffffffffffffff82111761030657604052565b6040810190811067ffffffffffffffff82111761030657604052565b90601f7fffffffffffffffffffffffffffffffffffffffffffffffffffffffffffffffe0910116810190811067ffffffffffffffff82111761030657604052565b6040519060c0820182811067ffffffffffffffff821117610306576040528173ffffffffffffffffffffffffffffffffffffffff807ff8bb2a4b5b30792eb350607495ebe7f79c5a5066287187429654459fae715b1c54168252807ff8bb2a4b5b30792eb350607495ebe7f79c5a5066287187429654459fae715b1d541660208301527ff8bb2a4b5b30792eb350607495ebe7f79c5a5066287187429654459fae715b1e541660408201527ff8bb2a4b5b30792eb350607495ebe7f79c5a5066287187429654459fae715b1f5460608201527ff8bb2a4b5b30792eb350607495ebe7f79c5a5066287187429654459fae715b2054608082015260a07ff8bb2a4b5b30792eb350607495ebe7f79c5a5066287187429654459fae715b2154910152565b60c43573ffffffffffffffffffffffffffffffffffffffff811681036103735790565b60243573ffffffffffffffffffffffffffffffffffffffff811681036103735790565b60443573ffffffffffffffffffffffffffffffffffffffff811681036103735790565b60643573ffffffffffffffffffffffffffffffffffffffff811681036103735790565b3573ffffffffffffffffffffffffffffffffffffffff811681036103735790565b67ffffffffffffffff811161030657601f017fffffffffffffffffffffffffffffffffffffffffffffffffffffffffffffffe01660200190565b929192612d2d82612ce7565b91612d3b6040519384612ad7565b829481845281830111610373578281602093846000960137010152565b601f82602094937fffffffffffffffffffffffffffffffffffffffffffffffffffffffffffffffe0938186528686013760008582860101520116010190565b91908201809211612da457565b7f4e487b7100000000000000000000000000000000000000000000000000000000600052601160045260246000fd5b9060048110156107335760ff7fffffffffffffffffffffffffffffffffffffffffffffffffffffffffffffff008354169116179055565b60005b838110612e1d5750506000910152565b8181015183820152602001612e0d565b6020612e46918160405193828580945193849201612e0a565b81017ff8bb2a4b5b30792eb350607495ebe7f79c5a5066287187429654459fae715b2381520301902090565b91908203918211612da457565b9060048210156107335752565b907fffffffffffffffffffffffffffffffffffffffffffffffffffffffffffffffe0601f602093612ec881518092818752878088019101612e0a565b0116010190565b612ed881612e2d565b604051612ee481612a6f565b60ff82541660049283821015613084578183526001810154602084015260028101549160056fffffffffffffffffffffffffffffffff84169384604087015260801c928360608701526003810154608087015273ffffffffffffffffffffffffffffffffffffffff878201541660a0870152015460c0850152159182613079575b508161306f575b506130395780518281101561300b57600103612f8757505050565b5181811015612fdd57612fd9612fce60409485519586957f5f08440f0000000000000000000000000000000000000000000000000000000087528601526044850190612e8c565b916024840190612e7f565b0390fd5b6021827f4e487b71000000000000000000000000000000000000000000000000000000006000525260246000fd5b6021837f4e487b71000000000000000000000000000000000000000000000000000000006000525260246000fd5b505061304490612e2d565b60017fffffffffffffffffffffffffffffffffffffffffffffffffffffffffffffff00825416179055565b9050421038612f6c565b421015915038612f65565b6021847f4e487b71000000000000000000000000000000000000000000000000000000006000525260246000fd5b7fffffffffffffffffffffffffffffffffffffffffffffffffffffffffffffffff8114612da45760010190565b156130e657565b60646040517f08c379a000000000000000000000000000000000000000000000000000000000815260206004820152601260248201527f546f6b656e5f5a45524f5f4144445245535300000000000000000000000000006044820152fd5b919290156131bf5750815115613158575090565b3b156131615790565b60646040517f08c379a000000000000000000000000000000000000000000000000000000000815260206004820152601d60248201527f416464726573733a2063616c6c20746f206e6f6e2d636f6e74726163740000006044820152fd5b8251909150156131d25750805190602001fd5b612fd9906040519182917f08c379a0000000000000000000000000000000000000000000000000000000008352602060048401526024830190612e8c565b1561321757565b60646040517f08c379a000000000000000000000000000000000000000000000000000000000815260206004820152600b60248201527f494e56414c49445f5441470000000000000000000000000000000000000000006044820152fd5b907ff8bb2a4b5b30792eb350607495ebe7f79c5a5066287187429654459fae715b229081549168010000000000000000831015610306576001928381018083558110156134d45760009182527f65081cd3ad5fc84209c8310f7404cee8bc03efec5e3d920e46e7ba762f27ce4c019367ffffffffffffffff83116134a75784548481169290851c831561349f575b6020938482101461347257601f811161342c575b508092601f851160011461338f575092939291849182613364575b50507fffffffffffffffffffffffffffffffffffffffffffffffffffffffffffffffff91921b9260031b1c1916179055565b013591507fffffffffffffffffffffffffffffffffffffffffffffffffffffffffffffffff38613332565b868252808220939185917fffffffffffffffffffffffffffffffffffffffffffffffffffffffffffffffe0831691905b8883831061341257505050106133da575b505050811b019055565b7fffffffffffffffffffffffffffffffffffffffffffffffffffffffffffffffff60f88560031b161c199101351690553880806133d0565b8686013588559096019593840193879350908101906133bf565b868252838220601f860160051c810191858710613468575b601f0160051c019086905b82811061345d575050613317565b83815501869061344f565b9091508190613444565b6024827f4e487b710000000000000000000000000000000000000000000000000000000081526022600452fd5b607f16613303565b6024827f4e487b710000000000000000000000000000000000000000000000000000000081526041600452fd5b7f4e487b7100000000000000000000000000000000000000000000000000000000600052603260045260246000fd5b356fffffffffffffffffffffffffffffffff811681036103735790565b908210156134d4576135379160051b810190612995565b9091565b91908110156134d45760e0020190565b93929391909160048110156107335761359357505090501561356957565b60046040517f93c16572000000000000000000000000000000000000000000000000000000008152fd5b73ffffffffffffffffffffffffffffffffffffffff809116911614918215926135e9575b50506135bf57565b60046040517ff85d06f8000000000000000000000000000000000000000000000000000000008152fd5b1415905038806135b7565b8181116135ff575050565b60249161360b91612e72565b604051907f2e2a58540000000000000000000000000000000000000000000000000000000082526004820152fdfea26469706673582212202f246b483126cf579715cd23cf8421521ffc0911c11ff01b04114f22c0fa4c4064736f6c63430008110033",
    "linkReferences": {}
  },
  "methodIdentifiers": {
    "initialize(address,(address,address,address,uint256,uint256,uint256),string[],(uint8,bytes32,uint128,uint128,uint256,address,uint256)[])": "897c1b79",
    "openIGO()": "5a5fdab7",
    "openTag(string)": "852c49a7",
    "owner()": "8da5cb5b",
    "pauseIGO()": "1bcaddc2",
    "pauseTag(string)": "98e3fdc4",
    "recoverLostERC20(address,address)": "faf0c581",
    "renounceOwnership()": "715018a6",
    "reserveAllocation(uint256,(string,address,uint256,uint256),bytes32[],(bytes,uint256,uint256))": "28d5796f",
    "transferOwnership(address)": "f2fde38b",
    "updateDefaultPaymentToken(address)": "a1024912",
    "updateGrandTotal(uint256)": "f1efb931",
    "updateSetTag(string,(uint8,bytes32,uint128,uint128,uint256,address,uint256))": "02912bd3",
    "updateSetTags(string[],(uint8,bytes32,uint128,uint128,uint256,address,uint256)[])": "f86df59b",
    "updateTagEndDate(string,uint128)": "db365f84",
    "updateTagMaxCap(string,uint256)": "5625671e",
    "updateTagMerkleRoot(string,bytes32)": "907d3085",
    "updateTagStartDate(string,uint128)": "e6807afd"
  },
  "id": 60
}